:1000000001C200001CC200001AC2000018C2000099
:1000100016C2000014C2000012C2000010C200008C
:100020000EC200000CC200000AC2000008C200009C
:1000300006C2000004C2000002C2000000C20000AC
:10004000FEC10000FCC10000FAC10000F8C10000C0
:10005000F6C10000F4C10000F2C10000F0C10000D0
:10006000EEC10000ECC10000EAC10000E8C10000E0
:10007000E6C10000E4C10000E2C10000E0C10000F0
:10008000DEC10000DCC10000DAC10000D8C1000000
:10009000D6C10000D4C10000D2C10000D0C1000010
:1000A000CEC10000CCC10000CAC10000C8C1000020
:1000B000C6C10000C4C10000C2C10000C0C1000030
:1000C000BEC10000BCC10000BAC10000B8C1000040
:1000D000B6C10000B4C10000B2C10000B0C1000050
:1000E000AEC10000ACC10000AAC10000A8C1000060
:1000F000A6C10000A4C10000A2C10000A0C1000070
:100100009EC100009CC100009AC1000098C100007F
:1001100096C1000094C1000092C1000090C100008F
:100120008EC100008CC100008AC1000088C100009F
:1001300086C1000084C1000082C1000080C10000AF
:100140007EC100007CC100007AC1000078C10000BF
:1001500076C1000074C1000072C1000070C10000CF
:100160006EC100006CC100006AC1000068C10000DF
:1001700066C1000064C1000062C1000060C10000EF
:100180005EC100005CC100005AC1000058C10000FF
:1001900056C1000054C1000052C1000050C100000F
:1001A0004EC100004CC100004AC1000048C100001F
:1001B00046C1000044C1000042C1000040C100002F
:1001C0003EC100003CC100003AC1000038C100003F
:1001D00036C1000034C1000032C1000030C100004F
:1001E0002EC100002CC100002AC1000028C100005F
:1001F00026C1000077C30000B9C30000084AD73BFE
:100200003BCE016E84BCBFFDC12F3D6C74319ABDE5
:1002100056833DDA3D00C77F11BED9E4BB4C3E9109
:100220006BAAAABE000000803F05A84CCDB2D44EF8
:10023000B93836A9020C50B9918688083CA6AAAAFA
:100240002ABE000000803F46575F56455253494F33
:100250004E0048575F56455253494F4E00140346CF
:1002600000720061006D00650077006F0072006B26
:100270000000001C034E006F006E006F006C0069F0
:10028000007400680020004C0061006200730000F0
:1002900000040309040902200001010080FA090496
:1002A000000002FF00000007058102400000070572
:1002B000020220000012011001FF000040E359007B
:1002C000F000020102DC016E616E00696E660000E2
:1002D000407A10F35A00A0724E18090010A5D4E815
:1002E0000000E87648170000E40B54020000CA9AA8
:1002F0003B000000E1F505000080969800000040FA
:10030000420F000000A0860100000010270000003E
:1003100000E803000000006400000000000A000084
:100320000000000100000000002C76D888DC674F38
:100330000823DFC1DFAE59E1B1B796E5E3E453C668
:100340003AE651997696E8E6C28426EB898C9B6260
:10035000ED407C6FFCEFBC9C9F40F2BAA56FA5F40A
:1003600090055A2AF75C936B6CF9676DC11BFCE032
:10037000E40D47FEF520E6B500D0ED902E03009485
:100380003577050080841E080000204E0A0000001A
:10039000C80C333333330F986E12831141EF8D2124
:1003A00014893BE65516CFFEE6DB18D1844B381B8B
:1003B000F77C1D901DA4BBE424203284725E228150
:1003C00000C9F124ECA1E53D27494E46494E495468
:1003D000594E414E000020410000C84200401C46DA
:1003E00020BCBE4CCA1B0E5AAEC59D74CDCCCC3DB4
:1003F0000AD7233C17B7D13877CC2B329595E62412
:100400001FB14F0A11241FBECFEFDFE2DEBFCDBF09
:1004100010E2A0E0B0E2EEE1FBE402C005900D9234
:10042000A23CB107D9F713E2A2ECB0E201C01D92E1
:10043000A635B107E1F70E94CE180C948D25E0CDCA
:10044000089580E00895CF93DF93C0ECD1E022E0DF
:100450002A87EAE1F0E0E491A0ECB4E0DA96EC93CC
:10046000DA972A87EBE1F0E0E491DB96EC93DB97F7
:1004700083E0E0E4F0E0848380E090E216968D93E0
:100480009C93179713961C9213971092002033E4B5
:10049000309301208EE091E2809304209093052018
:1004A00020930820309309208CEC90E280930C205C
:1004B00090930D2082EC8C9311968C911197816012
:1004C00011968C931197DF91CF91089583E0E0E42A
:1004D000F0E08483E0ECF4E080E090E286839783B0
:1004E00013821092002023E4209301208EE091E2F9
:1004F000809304209093052082E08093082020932D
:1005000009208CEC90E280930C2090930D2082ECDB
:10051000808381818160818308950F939C01E0EC49
:10052000F1E0128661157105D1F0CB014CEC50E27F
:10053000DA01F9012F5F3F4FE491ED930197C9F77D
:1005400070E040930C2050930D2060930A2070932C
:100550000B20E8E0F0E202E206930F9108954CECE4
:1005600050E2EECF84E0E0E5F0E0868382E0E0EC6C
:10057000F1E08287ECE1F0E0E491A0E6B0E01396D0
:10058000EC9313978BE115968C93159787EB169642
:100590008C93169781E08093600088ED84BF83E0A0
:1005A000809350008091510081FFFCCF80E1E0E515
:1005B000F0E0858388ED84BF83E1809350008091D3
:1005C000510084FFFCCF81E08093680088ED84BFF8
:1005D00084E080934000E0E4F0E0118208950F93FE
:1005E000CF93DF9300D0CDB7DEB780910E21807618
:1005F00079F480910F21863009F4C9C0873090F0DA
:10060000893009F44CC08A3040F5883009F480C044
:100610008EE091E20E945E170F900F90DF91CF91D4
:100620000F910895813031F1813008F087C0109228
:10063000CC201092CD208CEC90E280930C209093F3
:100640000D2082E090E080930A2090930B20E8E058
:10065000F0E202E2069381E0DFCF8A3009F451C074
:100660008B30B1F68091122160911021EADE88234F
:1006700009F447C08CEC90E280930C2090930D20FD
:1006800010920A2010920B20E8E0F0E202E20693BA
:1006900081E00F900F90DF91CF910F91089580E04E
:1006A00091E060E0AE014F5F5F4F0E949818882391
:1006B00041F1E0ECF1E01286E981FA817196E49172
:1006C00020911021E217E8F08CEC90E280930C204E
:1006D00090930D2010920A2010920B20E8E0F0E297
:1006E00002E2069320930D2180910D21882309F4C5
:1006F000B5C084E080930C2180910D21CCD081E0A5
:100700008BCF80E00F900F90DF91CF910F910895E4
:1007100080910D218093CC208CEC90E280930C2072
:1007200090930D2081E090E080930A2090930B201D
:10073000E8E0F0E202E2069381E06ECF833009F454
:1007400099CF853009F064CF209110212F77E0E018
:10075000F0E202E706938CEC90E280930C209093F9
:100760000D2010920A2010920B20389602E2069378
:100770008091082085FFFCCFE0ECF4E02383222366
:1007800009F05AC082E080930C2181E045CFE0EC73
:10079000F1E01286809110219091112123E08C3D8F
:1007A0009207C9F060911221AE014F5F5F4F0E9426
:1007B0009818009709F4A5CF29813A814091142116
:1007C00050911521BC014817590708F4BA01C90115
:1007D000A4DE81E021CF83E08093CD206CEC70E239
:1007E0008AE38093CC2082E08287E8E0F0E0E49125
:1007F000DB01129681E090E048E020EC31E052E02D
:10080000EF70EA30B0F0F0E0F796ED93FD93F1E28F
:10081000A630BF0799F0F9015287E42FF0E0E49188
:1008200080FF03C0E295EF704F5F0196EF70EA30F2
:1008300050F7F0E0F096E9CF83E0A5CF60930C206D
:1008400070930D208AE390E080930A2090930B2010
:10085000E8E0F0E202E2069381E0DECE8091C3049C
:10086000882321F084E080930C2146CF81E0FBCFE8
:100870008A3049F09091A10995FFFCCF8093A0099F
:1008800080E090E008959091A10995FFFCCF9DE054
:100890009093A009EFCF2FB7F8941092B9208EE46F
:1008A00091E28093B7209093B8208093B5209093E5
:1008B000B62088E190E236E03093182033E9309397
:1008C0001920FC0137971082089732E0FC01308331
:1008D0001092C6201092C7201092C8201092C920F2
:1008E0002FBF08951F920F920FB60F9211242F93CE
:1008F0003F934F935F936F937F938F939F93AF93A8
:10090000BF93EF93FF93E0ECF4E08091CA0487FD7E
:100910002AC08091CA048E7081F48091CA0480FD3F
:100920001FC080E782878091C20480FF08C0809149
:10093000C2048E7F828387DD02C08EE08287FF91B2
:10094000EF91BF91AF919F918F917F916F915F9147
:100950004F913F912F910F900FBE0F901F901895C0
:1009600081E08287ECCF80E88287E9CF1F920F92E7
:100970000FB60F9211240F932F933F934F935F93D2
:100980006F937F938F939F93AF93BF93EF93FF9357
:10099000E0ECF4E0148283E084872FB7F894809130
:1009A00018208670C9F42FBF8091002084FD4FC0AD
:1009B00085FD74C0FF91EF91BF91AF919F918F9191
:1009C0007F916F915F914F913F912F910F910F9078
:1009D0000FBE0F901F9018953091B92013160CF090
:1009E0007BC08091B5209091B6204091C62051E007
:1009F000413009F43EC05093C620442309F43FC05F
:100A0000809314209093152040E450E040931220EE
:100A100050931320E8E1F0E204E106933150309363
:100A2000B920805C9F4F8093B5209093B62033E22D
:100A30008E34930709F0B7CF8EE491E28093B5200E
:100A40009093B6202FBF8091002084FFB1CFC7DDE7
:100A5000882351F48091012084608093012080914B
:100A60000920846080930920E0E0F0E202E7069329
:100A7000A1CF50E05093C620442309F0C1CF80930A
:100A80001C2090931D2040E450E040931A20509386
:100A90001B20E8E1F0E202E20693C0CF4091022081
:100AA000509103208091C320813EF1F66091C220D5
:100AB00070E000247695679507947695679507947E
:100AC000762F602D8EE091E250E00E948123E0E0DD
:100AD000F0E202E706936ECF8091C7208130E1F00B
:100AE000823009F060CF809118208670863009F03E
:100AF0005ACF1092C7201092C8201092C92010928D
:100B0000B9208EE491E28093B7209093B82080932F
:100B1000B5209093B62047CF82E08093C720709194
:100B2000B5206091B6208091C8209091C920309165
:100B3000C62041E0313001F14093C620472F562FA7
:100B4000332369F440931C2050931D2080931A2076
:100B500090931B20E8E1F0E202E2069324CF409359
:100B60001420509315208093122090931320E8E1D5
:100B7000F0E204E1069317CF40E0DECF6F927F9260
:100B80008F929F92AF92BF92CF92DF92EF92FF929D
:100B90000F931F93CF93DF93DC010D900020E9F7B3
:100BA0005D010894A108B108A81AB90A1A141B0417
:100BB000ACF54C01CC24DD2446E0A8E1B0E29EE493
:100BC000692E91E2792EC1E0D0E020E4E22EF12CF2
:100BD000F40131914F019FB7F8948091C720882389
:100BE00061F180E09FBF8823B1F38091C82090918C
:100BF000C920E091B720F091B820E80FF91F3083A9
:100C000001968093C8209093C92080349105E9F023
:100C10000894C11CD11CAC14BD04D1F6DF91CF9156
:100C20001F910F91FF90EF90DF90CF90BF90AF900A
:100C30009F908F907F906F9008958091B920242F7E
:100C4000281B81E0121674F2CCCF1FB7F8941092D3
:100C5000C8201092C9208091B9208F5F8093B9205D
:100C60008091B7209091B820805C9F4F8093B720EF
:100C70009093B820F3E28E349F0721F46092B7205E
:100C80007092B8206FB7F89480911820867019F48C
:100C90006FBF1FBFBDCF5091B92015160CF03BC0E0
:100CA0002091B5203091B6207091C620872F90E01A
:100CB000E1E08C179D0709F4E0E0E093C62077237C
:100CC000F1F420931C2030931D20E0921A20F09222
:100CD0001B20FD0102E2069351505093B920C90137
:100CE000805C9F4F8093B5209093B620F3E28E34C2
:100CF0009F0771F66092B5207092B620C9CF2093FD
:100D0000142030931520E0921220F0921320FD0160
:100D100004E10693E1CF8091C7208130D1F0823089
:100D200009F0B6CF809118208670863009F0B0CFD8
:100D30001092C7201092C8201092C9201092B9209A
:100D40006092B7207092B8206092B5207092B62061
:100D50009FCF22E02093C720E091B520F091B620EC
:100D60002091C8203091C9207091C620872F90E033
:100D700051E08C179D0709F450E05093C62077236B
:100D800061F4E0931C20F0931D2020931A203093EF
:100D90001B20FD0102E206937BCFE0931420F09329
:100DA00015202093122030931320FD0104E10693B7
:100DB0006FCF8FEF97EAA1E681509040A040E1F716
:100DC00000C00000E0E6F6E080E2818387830895BA
:100DD00008958FEF97EAA1E681509040A040E1F797
:100DE00000C00000E0E6F6E080E28183878388E0CF
:100DF000818385838CE08093A60980E18093A70995
:100E0000E0EAF9E0138288E1848383E08583089532
:100E10000895E0E6F6E088E08183858386E08093AC
:100E2000A6091092A709E0EAF9E0138288E1848319
:100E300083E085830895EF92FF920F931F93CF93E2
:100E4000DF93F82EE92E162F072FA82FB92FED01CB
:100E500009900020E9F79E01E62FF72FEF01099096
:100E60000020E9F7CE0101978E1B9F0B8A1B9B0B7D
:100E7000820F931F0E946820D82FC92F6F2D7E2DBF
:100E80000E9493228D2F9C2F612F702F0E94882209
:100E90008D2F9C2FDF91CF911F910F91FF90EF909D
:100EA0000895EF92FF920F931F93CF93DF93CDB7E7
:100EB000DEB7A897CDBFDEBF7B0160E370E20E9482
:100EC0008522009779F08E010D5F1F4F80E090E042
:100ED00060E370E20E948522F801819391938F0173
:100EE0000097A1F70B851C858F8198850E9497211B
:100EF00020E030E048EC52E40E941D1EDC01CB01F2
:100F0000F70180839183A283B383C8010E94972154
:100F100020E030E048EC52E40E941D1EDC01CB01D1
:100F2000F70184839583A683B783A896CDBFDEBFE0
:100F3000DF91CF911F910F91FF90EF9008952F9225
:100F40003F924F925F926F927F928F929F92AF9259
:100F5000BF92CF92DF92EF92FF920F931F93CF93A6
:100F6000DF93CDB7DEB72697CDBFDEBF4B015C0167
:100F700029833A834B835C83C090B120D090B22008
:100F8000E090B320F090B420A70196010E944F1D7D
:100F900025E33AEF4EE85CE30E94631F20E030E077
:100FA00040E05FE30E94631F0E94C61F9B01AC01EB
:100FB0000E94631F362E272E8D839E83C701B601A4
:100FC00025E33AEF4EE85CE30E94631F0E941A1E7D
:100FD0007B018C01C501B40125E33AEF4EE85CE3E7
:100FE0000E94631F0E941A1E2B013C0169817A81B5
:100FF0008B819C812091AD203091AE204091AF201B
:101000005091B0200E944F1D25E33AEF4EE85CE37B
:101010000E94631F20E030E040E05FE30E94631F16
:101020000E94C61F9B01AC010E94631FB62ED72EE3
:10103000882EC92EC801B701A30192010E94631F27
:101040000B2D1D2D282D3C2DA90198010E94631FF9
:101050009B01AC01F1017D816E818F2F9E2FA72F07
:10106000B62FBC01CD010E94501D862E072F382EB1
:10107000492E982F482D502F692F742DCB01BA017E
:101080000E94D01F6B017C0160E070E080E89FE36C
:10109000E02F082D1E2F232D342DA90198010E9429
:1010A0004F1D0E94D01F9B01AC01C701B6010E94D9
:1010B000C31D9B01AC010E94501D20E038EF46EC9F
:1010C00055E40E94631F462F572F682F792FCB01BD
:1010D000BA012696CDBFDEBFDF91CF911F910F9150
:1010E000FF90EF90DF90CF90BF90AF909F908F9048
:1010F0007F906F905F904F903F902F9008952F9228
:101100003F924F925F926F927F928F929F92AF9297
:10111000BF92CF92DF92EF92FF920F931F93CF93E4
:10112000DF93CDB7DEB7C653D140CDBFDEBF82E37C
:1011300090E260E370E20E948522009779F08E01D0
:101140000D5F1F4F80E090E060E370E20E94852217
:10115000D8018D939D938D010097A1F70B851C8578
:101160008F8198850E94972120E030E048EC52E47E
:101170000E941D1EA62E872E482E292EC8010E94D1
:10118000972120E030E048EC52E40E941D1EB62E6C
:10119000972E382EC15DDE4F9883CF52D1408A2DD5
:1011A000982DA42DB22DBC01CD01C15DDE4F48812B
:1011B000CF52D1400B2D192D232D342FA901980189
:1011C000BEDE6B017C018CE390E00E946820CD5C68
:1011D000DE4F8883C353D140CC5CDE4F9883C45329
:1011E000D140C701B6012091A9203091AA20409199
:1011F000AB205091AC200E94581F18160CF4CAC0A6
:1012000081E08093C7205FB7F894809118208670A2
:1012100081F14091B92014160CF09BC08091B5204B
:101220009091B6202091C62031E0213009F430E0C1
:101230003093C620222309F076C080931C2090931F
:101240001D2020E430E020931A2030931B20E8E199
:10125000F0E202E2069341504093B920805C9F4F38
:101260008093B5209093B620B3E28E349B0709F4A7
:1012700069C05FBF82E0E0ECF4E0858796E02FB7BD
:10128000F8948091C720882309F444C080E02FBFE0
:10129000882309F58091C520882389F32FB7F89416
:1012A0001092B9208EE491E28093B7209093B820F9
:1012B0008093B5209093B620E8E1F0E206E0059334
:1012C00008E006931092C7201092C8201092C920FF
:1012D0001092C6202FBFCD5CDE4FE881F981C35349
:1012E000D14080819181CA5CDE4FCDBFDEBFDF91EE
:1012F000CF911F910F91FF90EF90DF90CF90BF9013
:10130000AF909F908F907F906F905F904F903F90A5
:101310002F9008958091B920392F381B81E0131642
:101320000CF4B5CFB3CF809314209093152020E414
:1013300030E02093122030931320E8E1F0E204E142
:10134000069389CF8EE491E28093B5209093B620E6
:1013500090CF8091C720813009F4A8C3823009F072
:1013600088CF809118208670863009F082CF109245
:10137000C7201092C8201092C9201092B9208EE484
:1013800091E28093B7209093B8208093B5209093FA
:10139000B6206FCFEDB7FEB73897EDBFFEBF3196E1
:1013A00039EC632E712C6C0E7D1EADB7BEB7119655
:1013B0006D927C92129702E710E2028313832A2D2A
:1013C000382D442D522DC901DA0184839583A683DB
:1013D000B7830E94F822EDB7FEB7319645E6442E5A
:1013E000512C4C0E5D1EADB7BEB711964D925C925E
:1013F0001297028313832B2D392D432DC15DDE4FB0
:101400005881CF52D140C901DA0184839583A683E4
:10141000B7830E94F822EDB7FEB731969E012F5F89
:101420003F4FC35DDE4F28833983CD52D140ADB7E6
:10143000BEB711962D933C93129702831383C482F7
:10144000D582E682F7820E94F822F3010190002003
:10145000E9F73197E619F709D2010D900020E9F775
:101460001197A419B509CF5CDE4FA883B983C15386
:10147000D140C35DDE4FA881B981CD52D1400D90DE
:101480000020E9F71197C35DDE4F28813981CD52E5
:10149000D140A21BB30BC15DDE4FA883B983CF52ED
:1014A000D1408DB79EB708968DBF9EBF1E161F06F2
:1014B0000CF042C04301D301AE0FBF1FCB5CDE4F27
:1014C000A883B983C553D14056E0A8E1B0E28EE4C9
:1014D000282E81E2382E91E0E92EF12C20E4A22E74
:1014E000B12CF40131914F019FB7F8948091C7203E
:1014F000882309F44CC180E09FBF8823A9F3809121
:10150000C8209091C920E091B720F091B820E80F51
:10151000F91F308301968093C8209093C9208034AE
:10152000910509F43DC1CB5CDE4F28813981C5535B
:10153000D14082169306A9F696E02FB7F8948091D1
:10154000C720882309F4E2C180E02FBF8823A9F3D4
:101550008091C8209091C920E091B720F091B820E7
:10156000E80FF91F20E2208301968093C820909312
:10157000C9208034910509F4BEC2CF5CDE4F2881BA
:101580003981C153D140121613060CF044C04201F8
:10159000240D351DCF5CDE4F28833983C153D140E4
:1015A00056E0F8E1EF2EF0E2FF2EAEE42A2EA1E2A3
:1015B0003A2E12E0B1E0CB2ED12C00E4A02EB12CBB
:1015C000D4012D914D019FB7F8948091C7208823B5
:1015D00009F4A5C180E09FBF8823A9F38091C820AA
:1015E0009091C920E091B720F091B820E80FF91F41
:1015F000208301968093C8209093C9208034910560
:1016000009F496C1CF5CDE4F28813981C153D140A6
:1016100082169306A9F696E02FB7F8948091C7201A
:10162000882309F43AC280E02FBF8823A9F3809170
:10163000C8209091C920E091B720F091B820E80F20
:10164000F91F20E2208301968093C8209093C9203F
:101650008034910509F4BEC3C15DDE4F2881398114
:10166000CF52D140121613060CF047C04E01089419
:10167000811C911C280D391DC15DDE4F28833983E3
:10168000CF52D14076E048E1E42E40E2F42E5EE411
:10169000252E51E2352E12E061E0C62ED12CE0E479
:1016A000AE2EB12CD4012D914D019FB7F8948091AD
:1016B000C720882309F4D0C280E09FBF8823A9F304
:1016C0008091C8209091C920E091B720F091B82076
:1016D000E80FF91F208301968093C8209093C920BA
:1016E0008034910509F4C1C2C15DDE4F2881398182
:1016F000CF52D14082169306A9F6D3010D90002057
:10170000E9F7CD018619970901960E946820E92E14
:10171000082F192FC801B3010E949322E02FFE2D3C
:10172000DF010D900020E9F71197AE1BBF0BA00F52
:10173000B11F8CE290E08D939C93A02FBE2DFD01F4
:1017400001900020E9F79F01F20101900020E9F7E4
:10175000CF010197841995098A1B9B0B820F931F58
:101760000E946820E82EC92EB8010E9493228E2D77
:101770009C2DB2010E948822CD5CDE4FA881B981E8
:10178000C353D140EC921196CC92119739CD8091F0
:10179000B920252F281B81E012160CF4ADCEABCE5C
:1017A000CFB6F8941092C8201092C9208091B92029
:1017B0008F5F8093B9208091B7209091B820805C92
:1017C0009F4F8093B7209093B820F3E28E349F0709
:1017D00021F42092B7203092B8201FB7F89480915E
:1017E0001820867019F41FBFCFBE9DCE2091B9205E
:1017F00012160CF03BC06091B5207091B62030916C
:10180000C620832F90E041E08E159F0509F440E04B
:101810004093C6203323F1F460931C2070931D2065
:10182000A0921A20B0921B20FD0102E206932150E3
:101830002093B920CB01805C9F4F8093B52090937B
:10184000B620F3E28E349F0771F62092B5203092D5
:10185000B620C9CF6093142070931520A092122057
:10186000B0921320FD0104E10693E1CF8091C720DF
:101870008130D1F0823009F0B6CF80911820867087
:10188000863009F0B0CF1092C7201092C820109275
:10189000C9201092B9202092B7203092B82020920F
:1018A000B5203092B6209FCF22E02093C7207091C0
:1018B000B520E091B6202091C8203091C9206091D8
:1018C000C620862F90E041E08E159F0509F440E088
:1018D0004093C620872F9E2F662361F480931C209F
:1018E00090931D2020931A2030931B20FD0102E2CB
:1018F000069379CF80931420909315202093122083
:1019000030931320FD0104E106936DCF8091B9203F
:10191000392F381B81E013160CF417CE15CE8091A9
:10192000B920352F381B81E013160CF454CE52CE5B
:10193000BFB7F8941092C8201092C9208091B920A6
:101940008F5F8093B9208091B7209091B820805C00
:101950009F4F8093B7209093B820E3E28E349E0788
:1019600021F42092B7203092B820AFB7F89480913C
:101970001820867019F4AFBFBFBF44CE2091B920A4
:1019800012160CF03BC06091B5207091B6203091DA
:10199000C620832F90E041E08C159D0509F440E0BE
:1019A0004093C6203323F1F460931C2070931D20D4
:1019B000A0921A20B0921B20F70102E20693215058
:1019C0002093B920CB01805C9F4F8093B5209093EA
:1019D000B620F3E28E349F0771F62092B520309244
:1019E000B620C9CF6093142070931520A0921220C6
:1019F000B0921320F70104E10693E1CF8091C72054
:101A00008130D1F0823009F0B6CF809118208670F5
:101A1000863009F0B0CF1092C7201092C8201092E3
:101A2000C9201092B9202092B7203092B82020927D
:101A3000B5203092B6209FCF1093C7207091B5206B
:101A4000E091B6202091C8203091C9206091C62035
:101A5000862F90E041E08C159D0509F440E040930D
:101A6000C620872F9E2F662361F480931C209093BD
:101A70001D2020931A2030931B20F70102E20693C9
:101A80007ACF8093142090931520209312203093C6
:101A90001320F70104E106936ECF8091B920392F0E
:101AA000381B81E013160CF4BFCDBDCD82E08093CE
:101AB000C7206091B5204091B6208091C8209091B8
:101AC000C9202091C62031E0213009F430E0309364
:101AD000C620222309F02AC2262F342F20931C204F
:101AE00030931D2080931A2090931B20E8E1F0E2B0
:101AF00002E20693BECB7FB7F8941092C8201092F2
:101B0000C9208091B9208F5F8093B9208091B72040
:101B10009091B820805C9F4F8093B7209093B8201D
:101B200033E28E34930731F48EE491E28093B72050
:101B30009093B8206FB7F89480911820867081F147
:101B40004091B92014160CF03DC02091B520309181
:101B5000B6209091C62081E0913009F480E0809316
:101B6000C620992301F520931C2030931D2080E48A
:101B700090E080931A2090931B20E8E1F0E202E2CB
:101B80000693842F81508093B920C901805C9F4FB8
:101B90008093B5209093B620A3E28E349A0781F10A
:101BA0006FBF7FBFEACC209314203093152080E4D0
:101BB00090E08093122090931320E8E1F0E204E19A
:101BC0000693DFCF8091C720813009F1823041F741
:101BD000809118208670863019F71092C7201092D5
:101BE000C8201092C9201092B9208EE491E280930F
:101BF000B7209093B8208093B5209093B620D0CF93
:101C00008EE491E28093B5209093B620C9CF82E014
:101C10008093C7204091B5205091B6208091C82074
:101C20009091C9203091C62021E0313009F420E0A4
:101C30002093C620242F332309F087C1352F20930A
:101C40001C2030931D2080931A2090931B20E8E1E4
:101C5000F0E202E20693A4CF8091B920372F381B1F
:101C600081E013160CF429CD27CDBFB7F89410925C
:101C7000C8201092C9208091B9208F5F8093B9202D
:101C80008091B7209091B820805C9F4F8093B720BF
:101C90009093B820E3E28E349E0721F42092B7207F
:101CA0003092B820AFB7F89480911820867019F45C
:101CB000AFBFBFBF19CD2091B92012160CF03BC0A9
:101CC0004091B5205091B6203091C620832F90E0EE
:101CD00061E08C159D0509F460E06093C620332314
:101CE000F1F440931C2050931D20A0921A20B09232
:101CF0001B20F70102E2069321502093B920CA016C
:101D0000805C9F4F8093B5209093B620F3E28E3491
:101D10009F0771F62092B5203092B620C9CF40932C
:101D2000142050931520A0921220B0921320F70196
:101D300004E10693E1CF8091C7208130D1F0823059
:101D400009F0B6CF809118208670863009F0B0CFA8
:101D50001092C7201092C8201092C9201092B9206A
:101D60002092B7203092B8202092B5203092B62031
:101D70009FCF1093C7206091B520E091B6202091AD
:101D8000C8203091C9205091C620852F90E041E0B5
:101D90008C159D0509F440E04093C620862F9E2FA8
:101DA000552361F480931C2090931D2020931A20CA
:101DB00030931B20F70102E206937ACF8093142020
:101DC000909315202093122030931320F70104E103
:101DD00006936ECF7FB7F8941092C8201092C92056
:101DE0008091B9208F5F8093B9208091B720909126
:101DF000B820805C9F4F8093B7209093B82033E247
:101E00008E34930731F48EE491E28093B72090935F
:101E1000B8206FB7F89480911820867071F14091C6
:101E2000B92014160CF03BC08091B5209091B620DB
:101E30002091C62031E0213009F430E03093C620F3
:101E40002223F1F480931C2090931D2020E430E0A5
:101E500020931A2030931B20E8E1F0E202E206937F
:101E600041504093B920805C9F4F8093B520909360
:101E7000B620A3E28E349A0781F16FBF7FBFECCB0F
:101E8000809314209093152020E430E020931220BA
:101E900030931320E8E1F0E204E10693E1CF809172
:101EA000C720813009F1823041F780911820867077
:101EB000863019F71092C7201092C8201092C920BE
:101EC0001092B9208EE491E28093B7209093B820CD
:101ED0008093B5209093B620D0CF8EE491E280938A
:101EE000B5209093B620C9CF82E08093C72040915F
:101EF000B5205091B6208091C8209091C9202091A2
:101F0000C62031E0213009F430E03093C62022238E
:101F100051F540931C2050931D2080931A209093DC
:101F20001B20E8E1F0E202E20693A7CF262F342F30
:101F30002093142030931520809312209093132027
:101F4000E8E1F0E204E1069394C9352F20931420D0
:101F5000309315208093122090931320E8E1F0E253
:101F600004E106931DCE40931420509315208093D6
:101F7000122090931320E8E1F0E204E106937DCF74
:101F8000FB018A3039F0918195FFFDCF808380E09D
:101F900090E00895918195FFFDCF9DE09083F3CF70
:101FA000FC01818187FFFDCF808108954F925F9270
:101FB0006F927F928F929F92AF92BF92CF92DF9259
:101FC000EF92FF920F931F93CF93DF9300D0CDB783
:101FD000DEB7182F792E662E572E8091A10985FF26
:101FE000FCCF8DE08093A0098FEF93ECA9E08150A6
:101FF0009040A040E1F700C000008FEF93ECA9E013
:1020000081509040A040E1F700C0000096E7A92E63
:1020100090E2B92E01E426E0422E38E1E32E30E2D0
:10202000F32E4EE4842E41E2942E61E070E050E401
:10203000C52ED12C8091A10985FFFCCF0093A0096A
:102040008091A10987FFFCCF2091A0099FB7F89448
:102050008091C720882339F180E09FBF8823B1F3A6
:102060008091C8209091C920E091B720F091B820CC
:10207000E80FF91F208301968093C8209093C92010
:1020800080349105C1F0D5010D915D01002309F463
:102090003EC00A3079F68DE069837A830E94380465
:1020A0007A816981C7CF8091B920342D381B81E0B6
:1020B00013169CF2D1CFAFB7F8941092C8201092AB
:1020C000C9208091B9208F5F8093B9208091B7207B
:1020D0009091B820805C9F4F8093B7209093B82058
:1020E000B3E28E349B0721F48092B7209092B820FF
:1020F0004FB7F89480911820867009F032C24FBF14
:10210000AFBFD5010D915D01002309F0C2CF8FEF64
:1021100093ECA9E081509040A040E1F700C000009E
:1021200081E08093C7205FB7F89480911820867073
:1021300009F0A6C25FBF82E0E0ECF4E0858736E0FC
:102140009FB7F8948091C720882309F490C280E05B
:102150009FBF882309F58091C520882389F32FB775
:10216000F8941092B9208EE491E28093B720909376
:10217000B8208093B5209093B620E8E1F0E206E025
:10218000059308E006931092C7201092C820109281
:10219000C9201092C6202FBFE12FF72DDF010D902F
:1021A0000020E9F7CD018E1B9F0B09960E94682045
:1021B000082FE92EE82FF92FA0E8B0E28AE00D9071
:1021C00001928150E1F7802F9E2D612F772D0E9483
:1021D0008822E02FFE2DDF010D900020E9F7CD01D0
:1021E0008E1B9F0B02960E946820192FA82EB92ED5
:1021F000C501602F7E2D0E949322AA2DB12FFD01D3
:1022000001900020E9F73197EA1BFB0BEA0DFB1D5B
:10221000AAE8B0E283E00D9001928150E1F7F50168
:102220000081002309F446C00894A11CB11CF6E00B
:102230007F2EA8E1EA2EA0E2FA2EBEE48B2EB1E2B8
:102240009B2E12E061E070E080E4C82ED12C0A30B1
:1022500009F437C48091A10985FFFCCF0093A00940
:102260008091A10987FFFCCF2091A0099FB7F89426
:102270008091C720882309F499C280E09FBF8823FA
:10228000A9F38091C8209091C920E091B720F091E6
:10229000B820E80FF91F208301968093C8209093FF
:1022A000C9208034910509F433C3D5010D915D0136
:1022B000002369F68FEF93ECA9E081509040A04095
:1022C000E1F700C0000081E08093C7202FB7F894A9
:1022D00080911820867009F06AC42FBF82E0E0EC7C
:1022E000F4E0858736E09FB7F8948091C720882373
:1022F00009F465C280E09FBF882309F58091C5205D
:10230000882389F32FB7F8941092B9208EE491E2D4
:102310008093B7209093B8208093B5209093B620F7
:10232000E8E1F0E206E0059308E006931092C7208A
:102330001092C8201092C9201092C6202FBFE62DFF
:10234000F52DDF010D900020E9F7CD018E1B9F0BCD
:1023500001960E946820192FA82EB92EC501662D5E
:10236000752D0E949322AA2DB12FFD01019000200E
:10237000E9F73197EA1BFB0BEA0DFB1D8DE090E0BE
:1023800080839183F5010081002309F446C00894FD
:10239000A11CB11C56E0752E68E1E62E60E2F62E17
:1023A0007EE4872E71E2972E12E061E070E0E0E4B7
:1023B000CE2ED12C0A3009F47CC38091A10985FF6F
:1023C000FCCF0093A0098091A10987FFFCCF209149
:1023D000A0099FB7F8948091C720882309F4F8C119
:1023E00080E09FBF8823A9F38091C8209091C920E5
:1023F000E091B720F091B820E80FF91F20830196F3
:102400008093C8209093C9208034910509F4FBC1C2
:10241000D5010D915D01002369F68FEF93ECA9E0E2
:1024200081509040A040E1F700C0000081E080931F
:10243000C7202FB7F89480911820867009F049C3FF
:102440002FBF82E0E0ECF4E0858736E09FB7F89498
:102450008091C720882309F4CDC180E09FBF8823E5
:1024600009F58091C520882389F32FB7F89410923D
:10247000B9208EE491E28093B7209093B8208093A6
:10248000B5209093B620E8E1F0E206E0059308E07D
:1024900006931092C7201092C8201092C920109263
:1024A000C6202FBF8091A10985FFFCCF8AE18093D0
:1024B000A0098FEF93ECA9E081509040A040E1F794
:1024C00000C0000081E08093C7202FB7F89480916E
:1024D0001820867009F034C32FBF82E0E0ECF4E0EE
:1024E000858736E09FB7F8948091C720882309F448
:1024F00078C180E09FBF882309F58091C52088239B
:1025000089F32FB7F8941092B9208EE491E280936A
:10251000B7209093B8208093B5209093B620E8E13F
:10252000F0E206E0059308E006931092C7201092AF
:10253000C8201092C9201092C6202FBF0F900F9074
:10254000DF91CF911F910F91FF90EF90DF90CF908F
:10255000BF90AF909F908F907F906F905F904F90C3
:1025600008955091B92015160CF03CC02091B5206B
:102570003091B620E091C6208E2F90E0F1E08617D2
:10258000970709F4F0E0F093C620EE23F9F42093C6
:102590001C2030931D20C0921A20D0921B20F701DE
:1025A00002E2069351505093B920C901805C9F4FBD
:1025B0008093B5209093B620F3E28E349F0709F004
:1025C0009ECD8092B5209092B62099CD2093142074
:1025D00030931520C0921220D0921320F70104E10D
:1025E0000693E0CF8091C7208130D1F0823009F08E
:1025F00086CD809118208670863009F080CD1092AB
:10260000C7201092C8201092C9201092B920809241
:10261000B7209092B8208092B5209092B6206FCDCE
:1026200022E02093C720F091B520B091B6202091F0
:10263000C8203091C920E091C6208E2F90E051E053
:102640008617970709F450E05093C6208F2F9B2FD1
:10265000EE2309F04BC080931C2090931D20209303
:102660001A2030931B20F70102E2069348CD809197
:10267000B920232F281B81E012160CF469CD67CDF9
:102680004091B92014160CF04CC08091B520909167
:10269000B6202091C62031E0213009F430E030939B
:1026A000C620222379F580931C2090931D2020E4DE
:1026B00030E020931A2030931B20E8E1F0E202E2A0
:1026C000069341504093B920805C9F4F8093B52082
:1026D0009093B620A3E28E349A0709F02BCD8EE4B6
:1026E00091E28093B5209093B62024CD809314205E
:1026F000909315202093122030931320F70104E1CA
:102700000693FDCC809314209093152020E430E0B4
:102710002093122030931320E8E1F0E204E10693C5
:10272000D0CF8091C7208130E1F0823009F002CD16
:10273000809118208670863009F0FCCC1092C7205A
:102740001092C8201092C9201092B9208EE491E214
:102750008093B7209093B8208093B5209093B620B3
:10276000E9CC82E08093C7206091B5204091B620EB
:102770008091C8209091C9202091C62031E021305D
:1027800009F430E03093C620222309F055C3262FE8
:10279000342F20931C2030931D2080931A20909377
:1027A0001B20E8E1F0E202E20693C4CC8091B9205C
:1027B000372D381B81E013160CF460CD5ECD80916F
:1027C000B920232F281B81E012160CF494CD92CD52
:1027D0008091B920372D381B81E013160CF401CEFF
:1027E000FFCD8091B920232F281B81E012160CF415
:1027F00081CE7FCE8091B920232F281B81E0121635
:102800000CF42CCE2ACEAFB7F8941092C8201092B8
:10281000C9208091B9208F5F8093B9208091B72023
:102820009091B820805C9F4F8093B7209093B82000
:10283000F3E28E349F0721F48092B7209092B82063
:102840004FB7F89480911820867019F44FBFAFBF2E
:10285000DFCD5091B92015160CF03BC02091B5206A
:102860003091B620E091C6208E2F90E0F1E08617DF
:10287000970709F4F0E0F093C620EE23F1F42093DB
:102880001C2030931D20C0921A20D0921B20F701EB
:1028900002E2069351505093B920C901805C9F4FCA
:1028A0008093B5209093B620F3E28E349F0771F6A3
:1028B0008092B5209092B620C9CF209314203093F7
:1028C0001520C0921220D0921320F70104E1069344
:1028D000E1CF8091C720813009F49FC0823009F098
:1028E000B5CF809118208670863009F0AFCF109256
:1028F000C7201092C8201092C9201092B92080924F
:10290000B7209092B8208092B5209092B6209ECFAA
:10291000AFB7F8941092C8201092C9208091B920C6
:102920008F5F8093B9208091B7209091B820805C10
:102930009F4F8093B7209093B820F3E28E349F0787
:1029400021F48092B7209092B8204FB7F8948091EC
:102950001820867019F44FBFAFBFA7CC5091B92093
:1029600015160CF03BC02091B5203091B620E091B7
:10297000C6208E2F90E0F1E08617970709F4F0E06B
:10298000F093C620EE23F1F420931C2030931D20F9
:10299000C0921A20D0921B20F70102E206935150F8
:1029A0005093B920C901805C9F4F8093B5209093CC
:1029B000B620F3E28E349F0771F68092B520909294
:1029C000B620C9CF2093142030931520C092122036
:1029D000D0921320F70104E10693E1CF8091C72044
:1029E000813009F440C0823009F0B5CF80911820C1
:1029F0008670863009F0AFCF1092C7201092C820A1
:102A00001092C9201092B9208092B7209092B820DD
:102A10008092B5209092B6209ECF1093C720F0915F
:102A2000B520B091B6202091C8203091C920E09106
:102A3000C6208E2F90E051E08617970709F450E0EA
:102A40005093C6208F2F9B2FEE2309F0F3C0809365
:102A50001C2090931D2020931A2030931B20F701F7
:102A600002E20693F3CE1093C720F091B520B09107
:102A7000B6202091C8203091C920E091C6208E2F29
:102A800090E051E08617970709F450E05093C62074
:102A90008F2F9B2FEE2309F0C1C080931C209093B1
:102AA0001D2020931A2030931B20F70102E2069389
:102AB00052CF8DE069837A830E9438047A816981DC
:102AC0007CCC8DE069837A830E9438047A816981A5
:102AD000C1CB3091B92013160CF006C18091B520FE
:102AE0009091B6204091C62051E0413009F450E069
:102AF0005093C620442309F0C7C080931C209093B4
:102B00001D2040E450E040931A2050931B20E8E140
:102B1000F0E202E2069331503093B920805C9F4F7F
:102B20008093B5209093B620A3E28E349A0709F0E3
:102B300087CC8EE491E28093B5209093B62080CC30
:102B40003091B92013160CF0AEC08091B520909151
:102B5000B6204091C62051E0413009F450E0509336
:102B6000C620442309F081C080931C2090931D202F
:102B700040E450E040931A2050931B20E8E1F0E23B
:102B800002E2069331503093B920805C9F4F8093CE
:102B9000B5209093B620A3E28E349A0709F09CCC1E
:102BA0008EE491E28093B5209093B62095CC30913D
:102BB000B92013160CF0B9C08091B5209091B620C1
:102BC0004091C62051E0413009F450E05093C620B6
:102BD000442309F03BC080931C2090931D2040E4C7
:102BE00050E040931A2050931B20E8E1F0E202E20B
:102BF000069331503093B920805C9F4F8093B5206D
:102C00009093B620A3E28E349A0709F066CB8EE447
:102C100091E28093B5209093B6205FCB80931420EF
:102C2000909315202093122030931320F70104E194
:102C3000069391CE80931420909315202093122018
:102C400030931320F70104E1069300CE8093142003
:102C50009093152040E450E04093122050931320AD
:102C6000E8E1F0E204E10693C4CF8093142090934E
:102C7000152040E450E04093122050931320E8E1E7
:102C8000F0E204E106937ECF809314209093152008
:102C900040E450E04093122050931320E8E1F0E22A
:102CA00004E1069338CF8091C720813009F45EC0DB
:102CB000823009F011CC809118208670863009F09E
:102CC0000BCC1092C7201092C8201092C9201092ED
:102CD000B9208EE491E28093B7209093B82080933E
:102CE000B5209093B620F8CB8091C720813009F4AD
:102CF000B2C0823009F0A4CB809118208670863053
:102D000009F09ECB1092C7201092C8201092C920C3
:102D10001092B9208EE491E28093B7209093B8206E
:102D20008093B5209093B6208BCB8091C7208130C3
:102D300009F440C0823009F0D0CA80911820867012
:102D4000863009F0CACA1092C7201092C82010928B
:102D5000C9201092B9208EE491E28093B72090931D
:102D6000B8208093B5209093B620B7CA82E08093B4
:102D7000C7206091B5203091B6204091C820509175
:102D8000C9208091C62091E0813009F490E09093B1
:102D9000C620882399F5862F932F80931C2090932B
:102DA0001D2040931A2050931B20E8E1F0E202E23C
:102DB000069392CB82E08093C7206091B52030913A
:102DC000B6208091C8209091C9204091C62051E042
:102DD000413009F450E05093C6204423F1F4462FCB
:102DE000532F40931C2050931D2080931A209093C2
:102DF0001B20E8E1F0E202E206936FCA862F932FD0
:102E00008093142090931520409312205093132008
:102E1000E8E1F0E204E106935FCB462F532F4093A5
:102E20001420509315208093122090931320E8E1F2
:102E3000F0E204E1069351CA262F342F2093142088
:102E4000309315208093122090931320E8E1F0E254
:102E500004E106936FC982E08093C7206091B5209A
:102E60003091B6204091C8205091C9208091C62051
:102E700091E0813009F490E09093C620882379F4A2
:102E8000862F932F80931C2090931D2040931A200F
:102E900050931B20E8E1F0E202E20693D1CA862FAC
:102EA000932F8093142090931520409312205093D9
:102EB0001320E8E1F0E204E10693C2CA0F931F93E6
:102EC000CF93DF939C01ACECB0E28D018CE091E2FA
:102ED000FD01119241E2EC30F407D9F71092C320C2
:102EE000F901C081D0E0C076D070C034D10531F096
:102EF00080E0DF91CF911F910F910895418146317C
:102F000009F4E7C0473108F14B3B09F490C04C3B52
:102F100008F048C0473161F70480F581E02D8081D9
:102F20008093CC2081818093CD2000930C2010933E
:102F30000D2082E090E080930A2090930B20E8E03F
:102F4000F0E202E2069381E0D4CF423009F4A0C05F
:102F5000433068F4442361F684819581009709F435
:102F6000C9C08130910509F4BDC081E0C2CF4830AD
:102F7000A9F1493009F0BCCF0480F581E02D8081B2
:102F80008093CC2000930C2010930D2081E090E0E2
:102F900080930A2090930B20E8E0F0E202E206938F
:102FA00081E0A7CF403E19F1413E09F0A1CF409307
:102FB000C32084818093C22000930C2010930D20A5
:102FC00010920A2010920B20E8E0F0E202E2069351
:102FD00081E0DF91CF911F910F910895D901048075
:102FE000F581E02D12968C9112978083E5CFF9013F
:102FF0006481758100247695679507947695679529
:103000000794762F602D8CEC90E240E450E00E9413
:10301000762300930C2010930D20C0930A20D093A8
:103020000B20E8E0F0E202E2069381E062CFF89440
:1030300000930C2010930D2010920A2010920B2068
:10304000E8E0F0E202E20693389702E70693809107
:10305000002085FFFCCF8FEF99EFA0E081509040DA
:10306000A040E1F700C000008091C1048E7FE0EC39
:10307000F4E081838FEF93ECA9E081509040A04071
:10308000E1F700C00000ECEFF7E4099581E031CFF3
:1030900030914E2320914F23C32FD22FFE01019058
:1030A0000020E9F73197E31B29912D938A179B079D
:1030B000D9F78E2F90E000930C2010930D20809371
:1030C0000A2090930B20E8E0F0E202E2069381E010
:1030D00010CFF901828193810480F581E02D8083F6
:1030E00091836ACF87E492E06BE070E00E948D02EA
:1030F00081E0FFCE82E592E06BE070E00E948D02FD
:1031000081E0F7CE462F2091C320213E09F008959B
:103110002091C22030E000243695279507943695FB
:1031200027950794322F202DB90150E00C9481236C
:103130009230F9F09330A1F0913049F080E090E0C6
:10314000E0E0F0E0DA01ED93FC931197089582E15D
:1031500090E0E5EBF2E0DA01ED93FC93119708952E
:10316000813081F0813098F4E1E9F2E0849190E0DF
:10317000E9CF80E290E0E5E9F2E0DA01ED93FC933B
:1031800011970895E3E7F2E0849190E0DBCF82307D
:10319000A9F6EDE5F2E0849190E0D4CF0E94B2026E
:1031A0000E942302E0ECF4E082E4808783E08187E0
:1031B000E0EAF0E082837894E0E6F6E098E091833C
:1031C000958396E09093A6091092A709E0EAF9E0AA
:1031D000138298E19483858381E08093C7202FB781
:1031E000F89480911820867009F480C03091B9203D
:1031F00013160CF075C08091B5209091B6204091C7
:10320000C62051E0413009F450E05093C6204423D9
:1032100009F0B6C080931C2090931D2040E450E03C
:1032200040931A2050931B20E8E1F0E202E206935B
:1032300031503093B920805C9F4F8093B52090939C
:10324000B62033E28E34930709F493C08EE491E202
:103250002FBF22E0A0ECB4E01D962C931D9736E022
:103260004FB7F8942091C720222389F120E04FBF67
:103270002223E9F42091C520222391F32FB7F8945B
:103280001092B9208093B7209093B8208093B520F6
:103290009093B62006E0059308E006931092C720AD
:1032A0001092C8201092C9201092C6202FBF0E94F1
:1032B0007F08EC018DE890E2BE010E94D60F80915C
:1032C000A7209091A820BE010E94D60FFFCF209189
:1032D000B920532F521B21E015160CF4C8CFC6CFCE
:1032E0008091C7208130F9F0823019F0E8E1F0E2F6
:1032F000ADCF8091182086708630C1F71092C7201C
:103300001092C8201092C9201092B9208EE491E248
:103310008093B7209093B8208093B5209093B620E7
:10332000E8E1F0E295CF82E08093C7206091B5207C
:103330003091B6204091C8205091C9208091C6207C
:1033400091E0813009F490E09093C620882339F50C
:10335000862F932F80931C2090931D2040931A203A
:1033600050931B20E8E1F0E202E206938EE491E242
:103370006FCF8EE491E28093B5209093B62068CF12
:10338000809314209093152040E450E04093122045
:1033900050931320E8E1F0E204E1069349CF862F31
:1033A000932F8093142090931520409312205093D4
:1033B0001320E8E1F0E204E106938EE491E248CFC5
:1033C000A5E1B0E0E5EEF9E152C64C016E877F87DA
:1033D000FC0116821782838181FD04C05BC34C858A
:1033E0005D8504C01E010894211C311CF4019381E9
:1033F000EE85FF8593FD859193FF8191EE87FF8791
:10340000882309F443C3853241F493FD859193FFEA
:103410008191EE87FF87853259F490E0B4014C8B9F
:103420005D8B0E94CC224C895D894C875D87D7CF0C
:10343000FF24DD2410E01032B0F48B3269F08C32BE
:1034400028F4803251F0833271F40BC08D3239F0A0
:10345000803349F411602CC01260146029C01860D8
:1034600027C0106125C017FD2EC0282F20532A30F9
:1034700098F416FF08C08F2D880FF82EFF0CFF0C54
:10348000F80EF20E15C08D2D880FD82EDD0CDD0C38
:10349000D80ED20E10620CC08E3221F416FDF6C288
:1034A000106406C08C3611F4106802C0883659F4D6
:1034B000EE85FF8593FD859193FF8191EE87FF87D0
:1034C000882309F0B8CF982F9554933018F41061E1
:1034D000805E06C0982F9556933008F093C11F7EEA
:1034E00016FD02C0E6E0FE2E1F73853611F410644F
:1034F00006C0863611F4106802C0F110FA9417FF66
:1035000007C0FBE3FF1548F0EF2CE39427E00DC064
:1035100027E02F1530F02F2D07C027E07CE3E72EA2
:1035200004C027E067E0F62EEE24CA0104968C87DB
:103530009D87FA016081718182819381A1010E2DA5
:10354000F9D65C01C9802C2D30E0288B398BC0FE68
:1035500003C0388933FF06C011FD06C012FF06C044
:1035600000E205C00DE203C00BE201C000E0888963
:1035700099898C709070009709F43AC0002311F07B
:1035800084E001C083E08D1558F4D81A13FD09C0FA
:1035900080E290E0B4010E94CC22DA94C9F701C025
:1035A000DD24002321F0802F90E0B401F5D7888935
:1035B00083FD05C03BECE32E32E0F32E10C027EC78
:1035C000E22E22E0F22E0BC00115110509F0805207
:1035D00090E0B401E1D70894E11CF11C04C0012F74
:1035E00010E000711070F7018491882369F74BC2D5
:1035F00017FF0EC0EA0CF889F4FF04C08A818133FA
:1036000009F4EA941E144CF528E02E1548F12CC05C
:1036100016FD2AC08F2D90E08A159B0544F03CEFE3
:10362000A3163FEFB3061CF0106801C0FA94FF2008
:1036300049F0E2E0F0E0EC0FFD1FEF0DF11D80819D
:103640008033A1F317FF10C0EF2CE3948F2D90E08F
:10365000A816B90644F4FA1807C0EE24E39404C08F
:1036600098E0E92E01C0FF2417FF07C01A141B04BD
:103670003CF495012F5F3F4F05C025E030E002C0CC
:1036800021E030E0002311F02F5F3F4FFF2029F0B1
:103690008F2D90E00196280F391F8D2D90E028176F
:1036A000390714F4D21A01C0DD24612E7724C30136
:1036B00089709070009741F405C080E290E0B401F9
:1036C0006BD7DA94DD20C9F7002321F0802F90E03A
:1036D000B40162D763FC08C005C080E390E0B40188
:1036E0005BD7DA94DD20C9F717FF46C08501B7FE26
:1036F00002C000E010E06624772495012E193109FC
:103700002A8B3B8B2501401A510A420C531C6F2D0A
:1037100070E0EE24FF24E61AF70A3FEF0F3F13078D
:1037200021F48EE290E0B40137D7A016B10654F030
:103730002A893B89201731072CF4F201E60DF71D89
:10374000818101C080E3015010400894611C711C0C
:103750000E151F0524F090E0B4011ED7DECF0A1528
:103760001B0541F49A81963320F4953319F4388976
:1037700034FF81E390E043C08A81813311F09FEEF2
:10378000C92290E0B40108D7FF2079F08EE290E0E2
:10379000B40102D712E0F101E10FF11D1F5F80813A
:1037A00090E0B401F9D6FA94B1F764FE03C085E461
:1037B00090E002C085E690E0B401EED6B7FC05C00B
:1037C000A114B10441F4C4FE06C0B094A194B108A0
:1037D000B3948DE201C08BE290E0B401DDD680E3CA
:1037E00005C08F5FE6EFFFEFAE0EBF1EFAE0AF162B
:1037F000B104BCF790E0B401CFD6C501C096B401C6
:10380000CBD641C1833631F0833789F0833509F057
:1038100055C021C09A012E5F3F4F2C873D87FA018A
:103820008081898381E0E82EF12C510112C09A0138
:103830002E5F3F4F2C873D87FA01A080B18016FF95
:1038400003C06F2D70E002C06FEF7FEFC50172D62D
:103850007C011F7713C09A012E5F3F4F2C873D8755
:10386000FA01A080B18016FF03C06F2D70E002C086
:103870006FEF7FEFC5013ED67C01106813FD1AC0C3
:1038800005C080E290E0B40187D6DA948D2D90E0F7
:10389000E816F906B0F30EC0F50117FD859117FF84
:1038A00081915F0190E0B40177D6D110DA94089449
:1038B000E108F108E114F10479F7E5C0843611F06C
:1038C000893669F59A0117FF0AC02C5F3F4F2C8794
:1038D0003D87FA0180819181A281B3810BC02E5F67
:1038E0003F4F2C873D87FA0180819181AA2797FD60
:1038F000A095BA2F012F0F76B7FF08C0B095A095FD
:10390000909581959F4FAF4FBF4F0068BC01CD018F
:10391000A1012AE030E08CD6E82EE21840C08537BD
:1039200021F41F7E2AE030E020C0197F8F36A9F0F5
:10393000803720F4883509F0A9C00BC0803721F00A
:10394000883709F0A3C001C0106114FF09C01460DA
:1039500007C014FF08C0166006C028E030E005C0AC
:1039600020E130E002C020E132E0CA0117FF09C0C7
:1039700004968C879D87FA01608171818281938191
:1039800008C002968C879D87FA016081718180E072
:1039900090E0A1014DD6E82EE218012F0F7706FF27
:1039A00009C00E7FEF1430F404FF06C002FD04C00E
:1039B0000F7E02C01E2D01C01F2D802F90E004FF3E
:1039C0000CC0FE01EE0DF11D2081203311F4097EA3
:1039D00009C002FF06C01E5F05C086789070009780
:1039E00009F01F5FA02EBB2403FD11C000FF0CC017
:1039F000FE2C1D1548F4FD0CF11A1D2D05C080E2AA
:103A000090E0B401C9D51F5F1D15C8F304C01D1592
:103A100010F4D11A01C0DD24A4FE0EC080E390E0B2
:103A2000B401BAD5A2FE1DC0A1FE03C088E590E096
:103A300010C088E790E00DC0C501867890700097AF
:103A400081F0A1FC02C080E201C08BE207FD8DE2A3
:103A500090E0B401A1D505C080E390E0B4019CD50D
:103A6000FA94EF14C8F3EA94F101EE0DF11D808190
:103A700090E0B40191D5EE20B1F705C080E290E06E
:103A8000B4018AD5DA94DD20C9F7A9CCF401868186
:103A9000978102C08FEF9FEF6596E2E101C3505816
:103AA000BB27AA270ED0B9C182D130F087D120F030
:103AB00031F49F3F11F41EF452C10EF4E095E7FB80
:103AC00048C1E92FCCD180F3BA1762077307840786
:103AD000950718F071F49EF5E4C10EF4E0950B2EF5
:103AE000BA2FA02D0B01B90190010C01CA01A00150
:103AF0001124FF27591B99F0593F50F4503E68F1AB
:103B00001A16F040A22F232F342F4427585FF3CFEB
:103B1000469537952795A795F0405395C9F77EF4BC
:103B20001F16BA0B620B730B840BBAF09150A1F005
:103B3000FF0FBB1F661F771F881FC2F70EC0BA0F8B
:103B4000621F731F841F48F4879577956795B79513
:103B5000F7959E3F08F0B3CF9395880F08F099270B
:103B6000EE0F97958795089522D158F080E891E05F
:103B700009F49EEF23D128F040E851E059F45EEFBC
:103B800009C0EDC08EC1E92FE07869D168F3092E34
:103B9000052AC1F3261737074807590738F00E2EB4
:103BA00007F8E02569F0E025E0640AC0EF6307F854
:103BB000009407FADB01B9019D01DC01CA01AD01E6
:103BC000EF934AD02AD10AD05F91552331F02BEDE3
:103BD0003FE049E450FD49EC63CF0895DF93DD27D2
:103BE000B92FBF7740E85FE31616170648075B0753
:103BF00010F4D92F61D19F938F937F936F930ED23F
:103C0000ECEFF1E0AFD009D12F913F914F915F914F
:103C100066D1DD2349F09058A2EA2AED3FE049EC55
:103C20005FE3D0785D274DDFDF91F7C06ED008F4F9
:103C300081E00895CBD0E39501C10CD0EEC0BED099
:103C400040F0B5D030F021F45F3F19F082C051113F
:103C500029C185C004D198F39923C9F35523B1F341
:103C6000951B550BBB27AA2762177307840738F0EB
:103C70009F5F5F4F220F331F441FAA1FA9F333D04A
:103C80000E2E3AF0E0E830D091505040E695001CFE
:103C9000CAF729D0FE2F27D0660F771F881FBB1FBA
:103CA000261737074807AB07B0E809F0BB0B802D94
:103CB000BF01FF2793585F4F2AF09E3F510568F0E0
:103CC00048C0F0C05F3FECF3983EDCF386957795F3
:103CD0006795B795F7959F5FC9F7880F911D9695E2
:103CE000879597F90895E1E0660F771F881FBB1F3E
:103CF000621773078407BA0720F0621B730B840BEB
:103D0000BA0BEE1F88F7E0950895990F0008550F3C
:103D1000AA0BE0E8FEEF16161706E807F907C0F051
:103D200012161306E407F50798F0621B730B840B59
:103D3000950B39F40A2661F0232B242B252B21F433
:103D400008950A2609F4A140A6958FEF811D811DD3
:103D5000089597F99F6780E870E060E008959FEF0D
:103D600080EC0895DF93CF931F930F93FF92EF9210
:103D7000DF927B018C01689405C0DA2EEF01AFD091
:103D8000FE01E894A5912591359145915591AEF3A9
:103D9000EF0197DEFE019701A801DA9479F7DF9031
:103DA000EF90FF900F911F91CF91DF910895002424
:103DB0000A941616170618060906089500240A9490
:103DC00012161306140605060895C9CF50D0E8F35D
:103DD000E894E0E0BB279F57F0F02AED3FE049EC84
:103DE00006C0EE0FBB0F661F771F881F28F0B23A80
:103DF00062077307840728F0B25A620B730B840BB7
:103E0000E3959A9572F7803830F49A95BB0F661F48
:103E1000771F881FD2F7904806C1092E0394000C23
:103E200011F4882352F0BB0F40F4BF2B11F460FF54
:103E300004C06F5F7F4F8F4F9F4F0895EF93E0FF58
:103E400006C0A2EA2AED3FE049EC5FEB3ADEE5DF8F
:103E50000F90039401FC9058E9E2F2E0F7C057FD9F
:103E60009058440F551F59F05F3F71F04795880FE8
:103E700097FB991F61F09F3F79F08795089512167F
:103E800013061406551FF2CF4695F1DF08C016162B
:103E900017061806991FF1CF8695710561050894DC
:103EA0000895E894BB2766277727CB0197F90895F3
:103EB0002CDF08F48FEF08959B01AC0160E070E007
:103EC00080E89FE3BACE0BD0A8CF71DF28F076DF71
:103ED00018F0952309F03DCF42CF1124E3CFBFDF87
:103EE000A0F3959FD1F3950F50E0551F629FF0010D
:103EF000729FBB27F00DB11D639FAA27F00DB11D66
:103F0000AA1F649F6627B00DA11D661F829F2227EE
:103F1000B00DA11D621F739FB00DA11D621F839F75
:103F2000A00D611D221F749F3327A00D611D231F4B
:103F3000849F600D211D822F762F6A2F11249F5799
:103F400050408AF0E1F088234AF0EE0FFF1FBB1FBC
:103F5000661F771F881F91505040A9F79E3F51055B
:103F600070F0F7CE9FCF5F3FECF3983EDCF3869581
:103F700077956795B795F795E7959F5FC1F7FE2B06
:103F8000880F911D9695879597F908959F931EDF49
:103F90000F9007FCEE5F52CF11F40EF4E0CE41C05B
:103FA00066DFD0F39923D9F3CEF39F57550B87FFE4
:103FB00046D00024A0E640EA900180585695979597
:103FC00028F4805C660F771F881F20F026173707BC
:103FD000480730F4621B730B840B202931294A2BCC
:103FE000A69517940794202531254A2758F7660F80
:103FF000771F881F20F026173707480730F4620B19
:10400000730B840B200D311D411DA09581F7B90163
:10401000842F9158880F9695879508959B01AC0140
:1040200052CF9F3F31F0915020F487957795679557
:10403000B795880F911D9695879597F9089591509A
:104040005040660F771F881FD2F708959F938F9374
:104050007F936F93FF93EF939B01AC0134DFEF915C
:10406000FF9180DE2F913F914F915F912CCF2F9246
:104070003F924F925F926F927F928F929F92AF92F8
:10408000BF92CF92DF92EF92FF920F931F93CF9345
:10409000DF93CDB7DEB7CA1BDB0BCDBFDEBF099404
:1040A0002A88398848885F846E847D848C849B84C8
:1040B000AA84B984C884DF80EE80FD800C811B81D6
:1040C000AA81B981CE0FD11DCDBFDEBFED0108950C
:1040D000CF93DF93AC018230910510F442E050E0C1
:1040E000E0915223F091532320E030E0A0E0B0E0D3
:1040F00024C08081918184179507D0F0841795079B
:1041000071F482819381109729F012968D939C937C
:1041100013972CC0809352239093532327C02115CB
:10412000310519F08217930718F49C01BD01EF01C6
:1041300092818381DF01E92FF82F3097D1F6211585
:104140003105F9F0C901841B950B8430910580F489
:104150008A819B816115710521F0FB018283938324
:1041600004C08093522390935323FE01329642C0A1
:10417000FE01E80FF91F41935193029788839983B9
:1041800039C08091502390915123009741F4809140
:10419000BE209091BF208093502390935123209173
:1041A000BC203091BD202115310541F42DB73EB71B
:1041B0008091C0209091C120281B390BE0915023A1
:1041C000F0915123E217F30798F42E1B3F0B2417AD
:1041D000350770F0CA0102962817390748F08E0F8C
:1041E0009F1F80935023909351234193519302C07A
:1041F000E0E0F0E0CF01DF91CF9108950F931F939E
:10420000CF93DF939C01009709F48CC0DC011297D7
:1042100012961D921C921397609152237091532312
:104220006115710589F48D919C911197820F931FEF
:1042300020915023309151232817390769F5A09315
:104240005023B09351236EC0FB0140E050E001C009
:10425000FC01EA17FB0730F482819381AF010097DC
:10426000B9F71FC0E9012297EA83FB83088119810E
:10427000C901800F911F8E179F0759F4808191818A
:10428000800F911F029688839983828193818A830C
:104290009B834115510529F4A0935223B0935323D6
:1042A00041C0FA01A283B383C191D191EC0FFD1FEC
:1042B000AE17BF0781F4F901929182918C0F9D1F77
:1042C0000296DA018D939C931197828193811296C5
:1042D0008D939C931397E0E0F0E002C0FB01BC01DA
:1042E000DB0112968D919C9113970097B9F7CB0142
:1042F00002962D913C911197820F931F209150238C
:10430000309151232817390769F4309729F4109216
:1043100052231092532302C01282138260935023BF
:1043200070935123DF91CF911F910F9108956627CC
:10433000772732C2283008F027E03327DA01990FB7
:10434000311D87FD916000966105710539F4326079
:104350002E5F3D9330E32A95E1F708959F3F30F0BB
:1043600080387105610509F03C5F3C5F3D939130F9
:1043700008F08068911DDF93CF931F930F93FF92F6
:10438000EF92192F987F9695E92F96959695E90FBC
:10439000FF27E75DFC4F99273327EE24FF24A70171
:1043A000E70105900894079428F4360FE71EF81EDD
:1043B000491F511D660F771F881F991F0694A1F78B
:1043C0000590079428F4E70EF81E491F561FC11DDB
:1043D000770F881F991F661F0694A1F70590079411
:1043E00028F4F80E491F561FC71FD11D880F991FAB
:1043F000661F771F0694A1F70590079420F4490FD4
:10440000561FC71FD81F990F661F771F881F069456
:10441000A9F784911095177041F0D695C7955795D7
:104420004795F794E7941A95C1F7EFECF2E068949A
:104430001590159135916591959105907FE2739551
:10444000E118F10A430B560BC90BD009C0F7E10C78
:10445000F11E431F561FC91FD01D7EF4703311F487
:104460008A95E6CFE894015030F0080F0AF400274F
:10447000021708F4202F2395022F7A3328F079E3CE
:104480007D932A95E9F710C07D932A9589F60694C5
:1044900097956795379517951794E118F10A430B8F
:1044A000560BC90BD00998F023957E9173957A33FA
:1044B00008F070E37C932013B8F77E9170617D93D0
:1044C00030F0839571E37D9370E32A95E1F7112431
:1044D000EF90FF900F911F91CF91DF91992787FD6A
:1044E000909508959111B8C2803219F08950855085
:1044F000D0F70895FC010590615070400110D8F785
:10450000809590958E0F9F1F08954AEC50E21DC034
:10451000FB01DC010D900020E9F7119701900D924D
:104520000020E1F70895FB01DC0101900D920020CD
:10453000E1F70895FC016150704001900110D8F737
:10454000809590958E0F9F1F0895FA01A191B081DB
:10455000009719F41097E1F0CD01DC01CD010D9029
:10456000002011F4C00113C0FB012191222319F096
:104570002015D9F7F3CFFB012191201519F41E92D4
:10458000119606C02223C1F70D900020A1F7D0019B
:10459000FA01A193B08308950F931F93CF93DF93F4
:1045A0008C01EB018B8181FF1BC082FF0DC02E812E
:1045B0003F818C819D812817390764F4E881F98156
:1045C0000193E883F98306C0E885F985802F099572
:1045D000009731F48E819F8101968E839F8302C064
:1045E0000FEF1FEFC801DF91CF911F910F91089539
:1045F000AEE0B0E0EDEFF2E248CD0D891E8986E035
:104600008C8309831A838FEF9FE78D839E83AE018E
:10461000475E5F4FCE0101966F89788D0E94E01949
:10462000EF81F885E00FF11F10822E96E4E046CD71
:10463000FA01AA27283051F1203181F1E8946F93D3
:104640006E7F6E5F7F4F8F4F9F4FAF4FB1E03ED079
:10465000B4E03CD0670F781F891F9A1FA11D680F17
:10466000791F8A1F911DA11D6A0F711D811D911D4A
:10467000A11D20D009F468943F912AE0269F1124BF
:104680003019305D3193DEF6CF010895462F477023
:10469000405D4193B3E00FD0C9F7F6CF462F4F707E
:1046A000405D4A3318F0495D31FD4052419302D0DC
:1046B000A9F7EACFB4E0A695979587957795679582
:1046C000BA95C9F700976105710508959B01AC0182
:1046D0000A2E06945795479537952795BA95C9F7A9
:1046E000620F731F841F951FA01D0895E0ECF1E079
:1046F000A785A7FDFDCFA485A860A4876050704F53
:10470000C6C1DC01A40FB51F4150504040F0CB01A1
:10471000840F951F2E9105D041505040D8F7089531
:10472000262F2ED00080021611F004D00197019799
:104730000895262FE0ECF1E0378537FDFDCF348575
:10474000377F3487378531FF09C036E3328738ED4C
:1047500034BF31E03387378537FDFDCF33E3328710
:10476000808391831282248325E3228728ED31E020
:1047700024BF33870196089503D080819927089537
:10478000E0ECF1E0378537FDFDCF348538603487C4
:10479000FC01E050F04F0895A0E0B0E0E1EDF3E25D
:1047A0006ACC5B016115710521F0DB018C931196D8
:1047B0009C937C01E7010894E11CF11C08816701CE
:1047C000802F90E08FDE0097A9F70D3241F4098128
:1047D00042E0C42ED12CCC0EDD1E11E009C00B32FC
:1047E00031F4098132E0C32ED12CCC0EDD1E10E055
:1047F000E6012197CE0169EC73E043E050E02FD150
:104800000097C9F4E6012296CE016CEC73E045E016
:1048100050E025D1009711F4E6012796A114B104C8
:1048200019F0F501C083D18330E020E090E8112336
:1048300009F405C1FFC0CE0161ED73E043E050E033
:104840000ED1009759F4A114B10409F4F5C0C601C2
:104850000296D5018D939C931197EEC040E050E0F5
:10486000BA018824992400530A3090F51260212F50
:1048700030E0C9018870907012FF06C0009769F59A
:104880000894811C911C29C0009719F00894810894
:104890009108DB01CA01D2E0880F991FAA1FBB1F34
:1048A000DA95D1F7480F591F6A1F7B1F440F551F18
:1048B000661F771F400F511D611D711D4839B9E9F1
:1048C0005B07B9E96B07B9E17B0738F0146005C0F5
:1048D0000E3F39F413FD43C01860F60101916F01DA
:1048E000C2CF053311F00531D1F5D601EC91ED328F
:1048F00011F4106108C0EB3229F0C601019621E0E5
:1049000030E008C0D6011196EC911197C6010296CD
:1049100022E030E0E053EA3020F06C01C21AD30A02
:104920001EC0DC0120E030E0FCE020383F075CF4F2
:10493000C901880F991F880F991F280F391F220F4F
:10494000331F2E0F311DED91E0536D01EA3060F3FE
:1049500014FF03C0309521953F4F820E931EC12F47
:10496000D0E011FF08C0A114B10429F0C6010197DD
:10497000D5018D939C93CB01BA0192D06B017C0140
:10498000CE01837090708330910521F4F7FAF09492
:10499000F7F8F094C701B60120E030E0A90146D94C
:1049A000882309F442C097FE07C09094819491082F
:1049B0009394C0E0D4E002C0C8EED3E098EE692E34
:1049C0009FEF792E6C0E7D1E20E2A22EB12C0EC020
:1049D000FE010591159125913491C701B601A901F8
:1049E000980171DA6B017C018A189B088A149B0478
:1049F0007CF72497B594A794C615D705B9F7C601D7
:104A0000D7012A2F220F2B2F221F2F3F41F0BC014D
:104A1000CD0120E030E0A90109D9882331F482E2F8
:104A200090E080935423909355233C2D2D2D9E2D63
:104A30008F2D06C08FEF04C030E020E090EC8FE7B0
:104A4000B901AC01872F922FA52FB42FBC01CD0146
:104A5000CDB7DEB7EEE028CB992788270895FB0174
:104A6000DC014150504088F08D9181341CF08B3531
:104A70000CF4805E659161341CF06B350CF4605E63
:104A8000861B611171F3990B0895881BFCCFFB0104
:104A9000DC0102C001900D9241505040D8F70895BA
:104AA000E89409C097FB3EF49095809570956195C8
:104AB0007F4F8F4F9F4F9923A9F0F92F96E9BB277E
:104AC0009395F695879577956795B795F111F8CFFA
:104AD000FAF4BB0F11F460FF1BC06F5F7F4F8F4F65
:104AE0009F4F16C0882311F096E911C0772321F05B
:104AF0009EE8872F762F05C0662371F096E8862FF3
:104B000070E060E02AF09A95660F771F881FDAF749
:0E4B1000880F9695879597F90895F894FFCF32
:104B1E000000000000000000000000000000000087
:104B2E000000000000000000000000000000000077
:104B3E000000000000000000000000000000000067
:104B4E002C00244750524D432C37312E3133322C0A
:104B5E00412C343233302E30302C4E2C2D37313315
:104B6E00302E30302C452C31312E322C302E302C34
:104B7E003236313230362C302E302C452A35300D2F
:104B8E000A0025660041542B434D47463D310D002A
:104B9E0041542B434D47533D2200220D002B313201
:104BAE00313533313636323632002B313330343202
:104BBE00343933303539009A20CDCC4C3E7D878E3A
:104BCE00C2C62B29424E214E21002C000000562336
:024BDE002000B5
:00000001FF
