:1000000001C200001CC200001AC2000018C2000099
:1000100016C2000014C2000012C2000010C200008C
:100020000EC200000CC200000AC2000008C200009C
:1000300006C2000004C2000002C2000000C20000AC
:10004000FEC10000FCC10000FAC10000F8C10000C0
:10005000F6C10000F4C10000F2C10000F0C10000D0
:10006000EEC10000ECC10000EAC10000E8C10000E0
:10007000E6C10000E4C10000E2C10000E0C10000F0
:10008000DEC10000DCC10000DAC10000D8C1000000
:10009000D6C10000D4C10000D2C10000D0C1000010
:1000A000CEC10000CCC10000CAC10000C8C1000020
:1000B000C6C10000C4C10000C2C10000C0C1000030
:1000C000BEC10000BCC10000BAC10000B8C1000040
:1000D000B6C10000B4C10000B2C10000B0C1000050
:1000E000AEC10000ACC10000AAC10000A8C1000060
:1000F000A6C10000A4C10000A2C10000A0C1000070
:100100009EC100009CC100009AC1000098C100007F
:1001100096C1000094C1000092C1000090C100008F
:100120008EC100008CC100008AC1000088C100009F
:1001300086C1000084C1000082C1000080C10000AF
:100140007EC100007CC100007AC1000078C10000BF
:1001500076C1000074C1000072C1000070C10000CF
:100160006EC100006CC100006AC1000068C10000DF
:1001700066C1000064C1000062C1000060C10000EF
:100180005EC100005CC100005AC1000058C10000FF
:1001900056C1000054C1000052C1000050C100000F
:1001A0004EC100004CC100004AC1000048C100001F
:1001B00046C1000044C1000042C1000040C100002F
:1001C0003EC100003CC100003AC1000038C100003F
:1001D00036C1000034C1000032C1000030C100004F
:1001E0002EC100002CC100002AC1000028C100005F
:1001F00026C1000064C30000A6C30000084AD73B24
:100200003BCE016E84BCBFFDC12F3D6C74319ABDE5
:1002100056833DDA3D00C77F11BED9E4BB4C3E9109
:100220006BAAAABE000000803F05A84CCDB2D44EF8
:10023000B93836A9020C50B9918688083CA6AAAAFA
:100240002ABE000000803F46575F56455253494F33
:100250004E0048575F56455253494F4E00140346CF
:1002600000720061006D00650077006F0072006B26
:100270000000001C034E006F006E006F006C0069F0
:10028000007400680020004C0061006200730000F0
:1002900000040309040902200001010080FA090496
:1002A000000002FF00000007058102400000070572
:1002B000020220000012011001FF000040E359007B
:1002C000F000020102DC016E616E00696E660000E2
:1002D000407A10F35A00A0724E18090010A5D4E815
:1002E0000000E87648170000E40B54020000CA9AA8
:1002F0003B000000E1F505000080969800000040FA
:10030000420F000000A0860100000010270000003E
:1003100000E803000000006400000000000A000084
:100320000000000100000000002C76D888DC674F38
:100330000823DFC1DFAE59E1B1B796E5E3E453C668
:100340003AE651997696E8E6C28426EB898C9B6260
:10035000ED407C6FFCEFBC9C9F40F2BAA56FA5F40A
:1003600090055A2AF75C936B6CF9676DC11BFCE032
:10037000E40D47FEF520E6B500D0ED902E03009485
:100380003577050080841E080000204E0A0000001A
:10039000C80C333333330F986E12831141EF8D2124
:1003A00014893BE65516CFFEE6DB18D1844B381B8B
:1003B000F77C1D901DA4BBE424203284725E228150
:1003C00000C9F124ECA1E53D27494E46494E495468
:1003D000594E414E000020410000C84200401C46DA
:1003E00020BCBE4CCA1B0E5AAEC59D74CDCCCC3DB4
:1003F0000AD7233C17B7D13877CC2B329595E62412
:100400001FB14F0A11241FBECFEFDFE2DEBFCDBF09
:1004100011E2A0E0B0E2ECE0FCE402C005900D9235
:10042000A031B107D9F713E2A0E1B1E201C01D92FA
:10043000A73AB107E1F70E9435170C940426E0CDE6
:10044000089580E00895CF93DF93C0ECD1E022E0DF
:100450002A87EAE1F0E0E491A0ECB4E0DA96EC93CC
:10046000DA972A87EBE1F0E0E491DB96EC93DB97F7
:1004700083E0E0E4F0E0848380E090E216968D93E0
:100480009C93179713961C9213971092002033E4B5
:10049000309301208DE591E2809304209093052014
:1004A00020930820309309208BE191E280930C2067
:1004B00090930D2082EC8C9311968C911197816012
:1004C00011968C931197DF91CF91089583E0E0E42A
:1004D000F0E08483E0ECF4E080E090E286839783B0
:1004E00013821092002023E4209301208DE591E2F5
:1004F000809304209093052082E08093082020932D
:1005000009208BE191E280930C2090930D2082ECE6
:10051000808381818160818308950F939C01E0EC49
:10052000F1E0128661157105D1F0CB014BE151E28A
:10053000DA01F9012F5F3F4FE491ED930197C9F77D
:1005400070E040930C2050930D2060930A2070932C
:100550000B20E8E0F0E202E206930F9108954BE1F0
:1005600051E2EECF84E0E0E5F0E0868382E0E0EC6B
:10057000F1E08287ECE1F0E0E491A0E6B0E01396D0
:10058000EC9313978BE115968C93159787EB169642
:100590008C93169781E08093600088ED84BF83E0A0
:1005A000809350008091510081FFFCCF80E1E0E515
:1005B000F0E0858388ED84BF83E1809350008091D3
:1005C000510084FFFCCF81E08093680088ED84BFF8
:1005D00084E080934000E0E4F0E0118208950F93FE
:1005E000CF93DF9300D0CDB7DEB780915D218076C9
:1005F00079F480915E21863009F4C9C0873090F08B
:10060000893009F44CC08A3040F5883009F480C044
:100610008DE591E20E94C5150F900F90DF91CF916B
:100620000F910895813031F1813008F087C0109228
:100630001B2110921C218BE191E280930C2090935E
:100640000D2082E090E080930A2090930B20E8E058
:10065000F0E202E2069381E0DFCF8A3009F451C074
:100660008B30B1F68091612160915F21EADE8823B1
:1006700009F447C08BE191E280930C2090930D2008
:1006800010920A2010920B20E8E0F0E202E20693BA
:1006900081E00F900F90DF91CF910F91089580E04E
:1006A00091E060E0AE014F5F5F4F0E94FF1688232C
:1006B00041F1E0ECF1E01286E981FA817196E49172
:1006C00020915F21E217E8F08BE191E280930C200A
:1006D00090930D2010920A2010920B20E8E0F0E297
:1006E00002E2069320935C2180915C21882309F427
:1006F000B5C084E080935B2180915C21B9D081E01A
:100700008BCF80E00F900F90DF91CF910F910895E4
:1007100080915C2180931B218BE191E280930C20DE
:1007200090930D2081E090E080930A2090930B201D
:10073000E8E0F0E202E2069381E06ECF833009F454
:1007400099CF853009F064CF20915F212F77E0E0C9
:10075000F0E202E706938BE191E280930C20909304
:100760000D2010920A2010920B20389602E2069378
:100770008091082085FFFCCFE0ECF4E02383222366
:1007800009F05AC082E080935B2181E045CFE0EC24
:10079000F1E0128680915F219091602123E08C3DF1
:1007A0009207C9F060916121AE014F5F5F4F0E94D7
:1007B000FF16009709F4A5CF29813A814091632162
:1007C00050916421BC014817590708F4BA01C901C6
:1007D000A4DE81E021CF83E080931C216BE171E2F4
:1007E0008AE380931B2182E08287E8E0F0E0E491D5
:1007F000DB01129681E090E048E020EC31E052E02D
:10080000EF70EA30B0F0F0E0F796ED93FD93F1E28F
:10081000A535BF0799F0F9015287E42FF0E0E49184
:1008200080FF03C0E295EF704F5F0196EF70EA30F2
:1008300050F7F0E0F096E9CF83E0A5CF60930C206D
:1008400070930D208AE390E080930A2090930B2010
:10085000E8E0F0E202E2069381E0DECE8091C3049C
:10086000882321F084E080935B2146CF81E0FBCF99
:100870002FB7F894109209218DE991E28093072116
:1008800090930821809305219093062188E190E2BE
:1008900036E03093182033E930931920FC01379764
:1008A0001082089732E0FC013083109215211092DB
:1008B000162110921721109218212FBF08951F9210
:1008C0000F920FB60F9211242F933F934F935F9384
:1008D0006F937F938F939F93AF93BF93EF93FF9308
:1008E000E0ECF4E08091CA0487FD2AC08091CA043C
:1008F0008E7081F48091CA0480FD1FC080E78287DA
:100900008091C20480FF08C08091C2048E7F8283E0
:100910009ADD02C08EE08287FF91EF91BF91AF9187
:100920009F918F917F916F915F914F913F912F9107
:100930000F900FBE0F901F90189581E08287ECCF2B
:1009400080E88287E9CF1F920F920FB60F92112491
:100950000F932F933F934F935F936F937F938F9357
:100960009F93AF93BF93EF93FF93E0ECF4E0148277
:1009700083E084872FB7F894809118208670C9F49B
:100980002FBF8091002084FD4FC085FD74C0FF9172
:10099000EF91BF91AF919F918F917F916F915F91F7
:1009A0004F913F912F910F910F900FBE0F901F907D
:1009B00018953091092113160CF07BC08091052108
:1009C000909106214091152151E0413009F43EC03B
:1009D00050931521442309F43FC080931420909331
:1009E000152040E450E04093122050931320E8E19A
:1009F000F0E204E10693315030930921805C9F4F6F
:100A0000809305219093062133E28D39930709F0F5
:100A1000B7CF8DE991E280930521909306212FBFF6
:100A20008091002084FFB1CFDADD882351F48091DA
:100A3000012084608093012080910920846080934C
:100A40000920E0E0F0E202E70693A1CF50E05093E6
:100A50001521442309F0C1CF80931C2090931D20C1
:100A600040E450E040931A2050931B20E8E1F0E26C
:100A700002E20693C0CF4091022050910320809162
:100A80001121813EF1F66091102170E000247695ED
:100A900067950794769567950794762F602D8DE579
:100AA00091E250E00E94EC23E0E0F0E202E70693DE
:100AB0006ECF809116218130E1F0823009F060CF55
:100AC000809118208670863009F05ACF1092162136
:100AD0001092172110921821109209218DE991E2AC
:100AE00080930721909308218093052190930621FC
:100AF00047CF82E0809316217091052160910621F5
:100B000080911721909118213091152141E03130C9
:100B100001F140931521472F562F332369F4409359
:100B20001C2050931D2080931A2090931B20E8E1F5
:100B3000F0E202E2069324CF409314205093152054
:100B40008093122090931320E8E1F0E204E10693F1
:100B500017CF40E0DECFAF92BF92CF92DF92EF92FD
:100B6000FF920F931F93CF93DF93FC0120812223E9
:100B700009F473C0009709F470C06C010894C11C9B
:100B8000D11C46E068E170E23DE9A32E31E2B32ECC
:100B9000C1E0D0E050E4E52EF12C9FB7F8948091AD
:100BA0001621882339F180E09FBF8823B1F380911B
:100BB000172190911821E0910721F0910821E80F69
:100BC000F91F208301968093172190931821803478
:100BD0009105C1F0F6012191222309F43EC0C11410
:100BE000D10409F43AC06F019FB7F894809116219F
:100BF0008823C9F680910921342F381B81E0131610
:100C00009CF2D1CFBFB7F8941092172110921821FF
:100C1000809109218F5F8093092180910721909114
:100C20000821805C9F4F8093072190930821F3E275
:100C30008D399F0721F4A0920721B09208215FB758
:100C4000F89480911820867009F04EC05FBFBFBF36
:100C5000F6012191222309F0C2CF81E08093162171
:100C60002FB7F89480911820867009F0CCC02FBF60
:100C700082E0E0ECF4E0858736E09FB7F89480915D
:100C80001621882309F4B6C080E09FBF882309F5A8
:100C900080911421882389F32FB7F89410920921A9
:100CA0008DE991E28093072190930821809305219B
:100CB00090930621E8E1F0E206E0059308E0069350
:100CC00010921621109217211092182110921521BE
:100CD0002FBFDF91CF911F910F91FF90EF90DF9089
:100CE000CF90BF90AF900895A09109211A160CF0F3
:100CF0003CC02091052130910621E09115218E2FD5
:100D000090E0F1E08C179D0709F4F0E0F0931521D5
:100D1000EE23F9F420931C2030931D20E0921A203A
:100D2000F0921B20FB0102E20693A150A09309213F
:100D3000C901805C9F4F8093052190930621F3E2C7
:100D40008D399F0709F082CFA0920521B09206212C
:100D50007DCF2093142030931520E0921220F09242
:100D60001320FB0104E10693E0CF8091162181302E
:100D7000D1F0823009F06ACF8091182086708630D9
:100D800009F064CF109216211092172110921821A9
:100D900010920921A0920721B0920821A09205216A
:100DA000B092062153CF22E020931621A091052175
:100DB000109106212091172130911821F0911521D1
:100DC0008F2F90E0E1E08C179D0709F4E0E0E093BD
:100DD00015218A2F912FFF2309F04BC080931C20EF
:100DE00090931D2020931A2030931B20FB0102E2D8
:100DF00006932CCF80910921232F281B81E0121606
:100E00000CF443CF41CF3091092113160CF04CC0A4
:100E100080910521909106214091152151E04130AA
:100E200009F450E050931521442379F580931C2058
:100E300090931D2040E450E040931A2050931B20D3
:100E4000E8E1F0E202E20693315030930921805C40
:100E50009F4F8093052190930621F3E28D399F07E0
:100E600009F005CF8DE991E2809305219093062149
:100E7000FECE80931420909315202093122030935F
:100E80001320FB0104E10693E1CE8093142090939C
:100E9000152040E450E04093122050931320E8E1E5
:100EA000F0E204E10693D0CF809116218130E1F089
:100EB000823009F0DCCE809118208670863009F0EF
:100EC000D6CE10921621109217211092182110924E
:100ED00009218DE991E28093072190930821809365
:100EE000052190930621C3CE82E080931621609164
:100EF00005213091062140911721509118218091B0
:100F0000152191E0813009F490E090931521882318
:100F100079F4862F932F80931C2090931D2040936B
:100F20001A2050931B20E8E1F0E202E206939FCEE4
:100F3000862F932F80931420909315204093122096
:100F400050931320E8E1F0E204E1069390CEEF9293
:100F5000FF920F931F93CF93DF93F82EE92E162F56
:100F6000072FA82FB92FED0109900020E9F79E0166
:100F7000E62FF72FEF0109900020E9F7CE01019746
:100F80008E1B9F0B8A1B9B0B820F931F0E94DB20E3
:100F9000D82FC92F6F2D7E2D0E94FE228D2F9C2FC2
:100FA000612F702F0E94F3228D2F9C2FDF91CF9104
:100FB0001F910F91FF90EF9008952F923F924F92C3
:100FC0005F926F927F928F929F92AF92BF92CF92D9
:100FD000DF92EF92FF920F931F93CF93DF93CDB7E2
:100FE000DEB72697CDBFDEBF4B015C0129833A8374
:100FF0004B835C83C0900121D0900221E0900321BB
:10100000F0900421A70196010E94C61D25E33AEF46
:101010004EE85CE30E94B21F20E030E040E05FE376
:101020000E94B21F0E9415209B01AC010E94B21FBA
:10103000362E272E8D839E83C701B60125E33AEF16
:101040004EE85CE30E94B21F0E948D1E7B018C0162
:10105000C501B40125E33AEF4EE85CE30E94B21FFC
:101060000E948D1E2B013C0169817A818B819C81BC
:101070002091FD203091FE204091FF2050910021D1
:101080000E94C61D25E33AEF4EE85CE30E94B21FC2
:1010900020E030E040E05FE30E94B21F0E94152094
:1010A0009B01AC010E94B21FB62ED72E882EC92EEE
:1010B000C801B701A30192010E94B21F0B2D1D2D83
:1010C000282D3C2DA90198010E94B21F9B01AC0163
:1010D000F1017D816E818F2F9E2FA72FB62FBC012E
:1010E000CD010E94C71D862E072F382E492E982F1E
:1010F000482D502F692F742DCB01BA010E941F205B
:101100006B017C0160E070E080E89FE3E02F082D38
:101110001E2F232D342DA90198010E94C61D0E9467
:101120001F209B01AC01C701B6010E943A1E9B0122
:10113000AC010E94C71D20E038EF46EC55E40E9448
:10114000B21F462F572F682F792FCB01BA01269651
:10115000CDBFDEBFDF91CF911F910F91FF90EF9038
:10116000DF90CF90BF90AF909F908F907F906F90C7
:101170005F904F903F902F9008958F929F92AF92E3
:10118000BF92CF92DF92EF92FF920F931F93CF9374
:10119000DF93CDB7DEB7A897CDBFDEBF7B0160E39D
:1011A00070E20E94F022009779F08E010D5F1F4FD0
:1011B00080E090E060E370E20E94F022D8018D931D
:1011C0009D938D010097A1F7EB81FC810D811E811C
:1011D000D984CA848081D70118968C93189780810E
:1011E0008134B1F0D70118961C9282E390E2B3DC0F
:1011F000A896CDBFDEBFDF91CF911F910F91FF90D9
:10120000EF90DF90CF90BF90AF909F908F90089518
:1012100081E018968C93ED2DFC2DDF010D900020C0
:10122000E9F7CD018E1B9F0B01960E94DB20B92EA2
:10123000882E992E80E290E0F40180839183C4018E
:101240006D2D7C2D0E94F322D801FD01019000201C
:10125000E9F79F01482D5B2DFA0101900020E9F785
:10126000CF010197841B950B8A1B9B0B820F931F49
:101270000E94DB205C01B8010E94FE22C501B4017E
:101280000E94F322C50167DCC8010E940A2220E007
:1012900030E048EC52E40E94901EDC01CB01F701E3
:1012A00080839183A283B3838D2D9C2D0E940A227B
:1012B00020E030E048EC52E40E94901EDC01CB01BB
:1012C000F70184839583A683B78392CF2F923F92B1
:1012D0004F925F926F927F928F929F92AF92BF9246
:1012E000CF92DF92EF92FF920F931F93CF93DF93F2
:1012F000CDB7DEB7CF53D140CDBFDEBF80E490E2A3
:10130000BE016F5F7F4F39DFC980DA80EB80FC80E0
:101310002D813E814F815885C701B6014EDE4B01BC
:101320005C018CE390E00E94DB20C45CDE4F88838C
:10133000CC53D140C35CDE4F9883CD53D140C5011F
:10134000B4012091F9203091FA204091FB20509176
:10135000FC200E94A71F18160CF4CAC081E08093DD
:1013600016215FB7F89480911820867081F1409122
:10137000092114160CF09BC0809105219091062143
:101380002091152131E0213009F430E0309315210E
:10139000222309F076C080931C2090931D2020E426
:1013A00030E020931A2030931B20E8E1F0E202E2C3
:1013B0000693415040930921805C9F4F8093052103
:1013C00090930621B3E28D399B0709F469C05FBF92
:1013D00082E0E0ECF4E0858796E02FB7F894809106
:1013E0001621882309F444C080E02FBF882309F523
:1013F00080911421882389F32FB7F8941092092142
:101400008DE991E280930721909308218093052133
:1014100090930621E8E1F0E206E0059308E00693E8
:101420001092162110921721109218211092152156
:101430002FBFC45CDE4FE881F981CC53D14080815D
:101440009181C15CDE4FCDBFDEBFDF91CF911F9197
:101450000F91FF90EF90DF90CF90BF90AF909F9053
:101460008F907F906F905F904F903F902F90089556
:1014700080910921392F381B81E013160CF4B5CF68
:10148000B3CF809314209093152020E430E0209374
:10149000122030931320E8E1F0E204E1069389CFB3
:1014A0008DE991E2809305219093062190CF809160
:1014B0001621813009F4A2C3823009F088CF8091CF
:1014C00018208670863009F082CF10921621109273
:1014D000172110921821109209218DE991E2809331
:1014E00007219093082180930521909306216FCFC7
:1014F0002DB73EB7285030402DBF3EBFEDB7FEB7E9
:10150000319652ED652E712C6C0E7D1EADB7BEB7B7
:1015100011966D927C92129760E8262E60E2362E2C
:1015200022823382C482D582E682F7820E946323BC
:10153000EDB7FEB731967EE6472E512C4C0E5D1E60
:10154000ADB7BEB711964D925C921297228233824C
:101550008D819E81AF81B88584839583A683B7836F
:101560000E946323EDB7FEB731969E01265F3F4F81
:10157000CA5CDE4F28833983C653D140ADB7BEB7AE
:1015800011962D933C931297228233828482958206
:10159000A682B7820E946323F30101900020E9F73D
:1015A0003197E619F709D2010D900020E9F711975C
:1015B000A419B509C65CDE4FA883B983CA53D140CC
:1015C000CA5CDE4FA881B981C653D1400D9000207E
:1015D000E9F71197CA5CDE4F28813981C653D140A3
:1015E000A21BB30BC85CDE4FA883B983C853D1409C
:1015F0008DB79EB708968DBF9EBF1E161F060CF0B6
:1016000042C04301D301AE0FBF1FC25CDE4FA883AF
:10161000B983CE53D14056E0A8E1B0E22DE9222EA5
:1016200021E2322E31E0E32EF12C40E4A42EB12C45
:10163000F40131914F019FB7F894809116218823CE
:1016400009F44DC180E09FBF8823A9F38091172141
:1016500090911821E0910721F0910821E80FF91FDE
:10166000308301968093172190931821803491053F
:1016700009F43EC1C25CDE4F28813981CE53D1408E
:1016800082169306A9F696E02FB7F894809116215A
:10169000882309F4E3C180E02FBF8823A9F3809158
:1016A000172190911821E0910721F0910821E80F6E
:1016B000F91F20E22083019680931721909318212F
:1016C0008034910509F4BFC2C65CDE4F28813981A0
:1016D000CA53D140121613060CF044C04201240D27
:1016E000351DC65CDE4F28833983CA53D14056E08E
:1016F00018E1E12E10E2F12E0DE9202E01E2302E4C
:1017000012E081E0C82ED12C90E4A92EB12CD40196
:101710002D914D019FB7F89480911621882309F4EB
:10172000A6C180E09FBF8823A9F3809117219091E3
:101730001821E0910721F0910821E80FF91F20837B
:10174000019680931721909318218034910509F414
:1017500097C1C65CDE4F28813981CA53D1408216B9
:101760009306A9F696E02FB7F89480911621882366
:1017700009F43BC280E02FBF8823A9F38091172191
:1017800090911821E0910721F0910821E80FF91FAD
:1017900020E22083019680931721909318218034B2
:1017A000910509F4BFC3C85CDE4F28813981C85355
:1017B000D140121613060CF048C06AE0862E912C18
:1017C0008C0E9D1E280D391DC85CDE4F2883398381
:1017D000C853D14076E0E8E1EE2EE0E2FE2EFDE9CE
:1017E0002F2EF1E23F2E12E0A1E0CA2ED12CB0E460
:1017F000AB2EB12CD4012D914D019FB7F89480915F
:101800001621882309F4D0C280E09FBF8823A9F362
:101810008091172190911821E0910721F0910821E2
:10182000E80FF91F208301968093172190931821C8
:101830008034910509F4C1C2C85CDE4F288139812A
:10184000C853D14082169306A9F6D3010D9000200B
:10185000E9F7CD018619970901960E94DB20192F1F
:10186000E82EF92EC701B3010E94FE22EE2DF12FC2
:10187000DF010D900020E9F71197AE1BBF0BAE0DF5
:10188000BF1D8CE290E08D939C93AE2DB12FFD0196
:1018900001900020E9F79F01F20101900020E9F793
:1018A000CF010197841995098A1B9B0B820F931F07
:1018B0000E94DB20182FC92EB7010E94FE22812F23
:1018C0009C2DB2010E94F322C45CDE4FA881B98135
:1018D000CC53D1401C931196CC9211973FCD80915F
:1018E0000921252F281B81E012160CF4ACCEAACEBC
:1018F000CFB6F894109217211092182180910921E7
:101900008F5F809309218091072190910821805C4D
:101910009F4F8093072190930821F3E28D399F0711
:1019200021F420920721309208211FB7F89480916A
:101930001820867019F41FBFCFBE9CCE20910921BC
:1019400012160CF03BC06091052170910621309178
:101950001521832F90E041E08E159F0509F440E0AA
:10196000409315213323F1F460931C2070931D20C4
:10197000A0921A20B0921B20FD0102E20693215092
:1019800020930921CB01805C9F4F80930521909388
:101990000621F3E28D399F0771F6209205213092DE
:1019A0000621C9CF6093142070931520A0921220B5
:1019B000B0921320FD0104E10693E1CF809116213E
:1019C0008130D1F0823009F0B6CF80911820867036
:1019D000863009F0B0CF1092162110921721109284
:1019E000182110920921209207213092082120927B
:1019F0000521309206219FCF22E02093162170917D
:101A00000521E09106212091172130911821609144
:101A10001521862F90E041E08E159F0509F440E0E6
:101A200040931521872F9E2F662361F480931C20FD
:101A300090931D2020931A2030931B20FD0102E279
:101A4000069379CF80931420909315202093122031
:101A500030931320FD0104E106936DCF809109219D
:101A6000392F381B81E013160CF416CE14CE80915A
:101A70000921352F381B81E013160CF453CE51CEBB
:101A8000BFB7F89410921721109218218091092164
:101A90008F5F809309218091072190910821805CBC
:101AA0009F4F8093072190930821E3E28D399E0791
:101AB00021F42092072130920821AFB7F894809149
:101AC0001820867019F4AFBFBFBF43CE2091092103
:101AD00012160CF03BC060910521709106213091E7
:101AE0001521832F90E041E08C159D0509F440E01D
:101AF000409315213323F1F460931C2070931D2033
:101B0000A0921A20B0921B20F70102E20693215006
:101B100020930921CB01805C9F4F809305219093F6
:101B20000621F3E28D399F0771F62092052130924C
:101B30000621C9CF6093142070931520A092122023
:101B4000B0921320F70104E10693E1CF80911621B2
:101B50008130D1F0823009F0B6CF809118208670A4
:101B6000863009F0B0CF10921621109217211092F2
:101B700018211092092120920721309208212092E9
:101B80000521309206219FCF1093162170910521D7
:101B9000E0910621209117213091182160911521A3
:101BA000862F90E041E08C159D0509F440E04093BC
:101BB0001521872F9E2F662361F480931C2090931C
:101BC0001D2020931A2030931B20F70102E2069378
:101BD0007ACF809314209093152020931220309375
:101BE0001320F70104E106936ECF80910921392F6C
:101BF000381B81E013160CF4BECDBCCD82E080937F
:101C00001621609105214091062180911721909124
:101C100018212091152131E0213009F430E0309372
:101C20001521222309F02AC2262F342F20931C20AD
:101C300030931D2080931A2090931B20E8E1F0E25E
:101C400002E20693C4CB7FB7F8941092172110924A
:101C50001821809109218F5F8093092180910721AC
:101C600090910821805C9F4F8093072190930821D9
:101C700033E28D39930731F48DE991E280930721A6
:101C8000909308216FB7F89480911820867081F1A5
:101C90004091092114160CF03DC02091052130918E
:101CA00006219091152181E0913009F480E0809324
:101CB0001521992301F520931C2030931D2080E4E9
:101CC00090E080931A2090931B20E8E1F0E202E27A
:101CD0000693842F815080930921C901805C9F4F16
:101CE0008093052190930621A3E28D399A0781F113
:101CF0006FBF7FBFE9CC209314203093152080E480
:101D000090E08093122090931320E8E1F0E204E148
:101D10000693DFCF80911621813009F1823041F79F
:101D2000809118208670863019F710921621109233
:101D3000172110921821109209218DE991E28093C8
:101D40000721909308218093052190930621D0CFFD
:101D50008DE991E28093052190930621C9CF82E01D
:101D600080931621409105215091062180911721E1
:101D7000909118213091152121E0313009F420E0B3
:101D800020931521242F332309F087C1352F209369
:101D90001C2030931D2080931A2090931B20E8E193
:101DA000F0E202E20693A4CF80910921372F381B7D
:101DB00081E013160CF429CD27CDBFB7F89410920B
:101DC000172110921821809109218F5F809309219A
:101DD0008091072190910821805C9F4F809307217B
:101DE00090930821E3E28D399E0721F42092072188
:101DF00030920821AFB7F89480911820867019F4BA
:101E0000AFBFBFBF19CD2091092112160CF03BC006
:101E1000409105215091062130911521832F90E0AA
:101E200061E08C159D0509F460E060931521332372
:101E3000F1F440931C2050931D20A0921A20B092E0
:101E40001B20F70102E20693215020930921CA01C9
:101E5000805C9F4F8093052190930621F3E28D399A
:101E60009F0771F62092052130920621C9CF409339
:101E7000142050931520A0921220B0921320F70145
:101E800004E10693E1CF809116218130D1F08230B8
:101E900009F0B6CF809118208670863009F0B0CF57
:101EA00010921621109217211092182110920921D8
:101EB000209207213092082120920521309206219C
:101EC0009FCF1093162160910521E091062120916A
:101ED00017213091182150911521852F90E041E074
:101EE0008C159D0509F440E040931521862F9E2F07
:101EF000552361F480931C2090931D2020931A2079
:101F000030931B20F70102E206937ACF80931420CE
:101F1000909315202093122030931320F70104E1B1
:101F200006936ECF7FB7F894109217211092182164
:101F3000809109218F5F80930921809107219091E1
:101F40000821805C9F4F809307219093082133E202
:101F50008D39930731F48DE991E2809307219093B5
:101F600008216FB7F89480911820867071F1409124
:101F7000092114160CF03BC0809105219091062197
:101F80002091152131E0213009F430E03093152102
:101F90002223F1F480931C2090931D2020E430E054
:101FA00020931A2030931B20E8E1F0E202E206932E
:101FB000415040930921805C9F4F8093052190936D
:101FC0000621A3E28D399A0781F16FBF7FBFEBCB6A
:101FD000809314209093152020E430E02093122069
:101FE00030931320E8E1F0E204E10693E1CF809121
:101FF0001621813009F1823041F7809118208670D6
:10200000863019F71092162110921721109218217C
:10201000109209218DE991E2809307219093082184
:102020008093052190930621D0CF8DE991E2809392
:10203000052190930621C9CF82E08093162140911B
:10204000052150910621809117219091182120910E
:10205000152131E0213009F430E03093152122239D
:1020600051F540931C2050931D2080931A2090938B
:102070001B20E8E1F0E202E20693A7CF262F342FDF
:1020800020931420309315208093122090931320D6
:10209000E8E1F0E204E106939AC9352F2093142079
:1020A000309315208093122090931320E8E1F0E202
:1020B00004E106931DCE4093142050931520809385
:1020C000122090931320E8E1F0E204E106937DCF23
:1020D000FB018A3039F0918195FFFDCF808380E04C
:1020E00090E00895918195FFFDCF9DE09083F3CF1F
:1020F000FC01818187FFFDCF808108954F925F921F
:102100006F927F928F929F92AF92BF92CF92DF9207
:10211000EF92FF920F931F93CF93DF93EC017B011C
:10212000DC010D900020E9F7CD018C1B9D0B019681
:102130000E94DB20A92EC82ED92EC601BE010E9406
:10214000FE22AC2DBA2DFD0101900020E9F7319758
:10215000EA1BFB0BEC0DFD1D8DE090E0808391836D
:10216000D6E0C8E16C2EC0E27C2E1DE9412E11E2C2
:10217000512E12E001E0A02EB12C20E4822E912CF1
:10218000D601CD916D01CC2309F45CC0CA3009F4AD
:10219000D7C0F701818185FFFCCFC08380911321D7
:1021A000813071F7D70111968C91119787FFFACF83
:1021B0002C919FB7F89480911621882309F458C078
:1021C00080E09FBF8823A9F3809117219091182167
:1021D000E0910721F0910821E80FF91F2083019673
:1021E00080931721909318218034910549F6AFB759
:1021F000F8941092172110921821809109218F5F75
:10220000809309218091072190910821805C9F4F44
:102210008093072190930821B3E28D399B0721F425
:1022200040920721509208215FB7F89480911820BE
:10223000867039F55FBFAFBFD601CD916D01CC235C
:1022400009F0A4CF80911321813009F4B5C0DF914A
:10225000CF911F910F91FF90EF90DF90CF90BF90A3
:10226000AF909F908F907F906F905F904F90089568
:10227000809109213D2F381B81E013160CF4A1CF6A
:102280009FCF4091092114160CF03CC020910521EC
:102290003091062160911521862F90E071E08A151A
:1022A0009B0509F470E0709315216623F9F42093DF
:1022B0001C2030931D2080921A2090921B20F30145
:1022C00002E20693415040930921C901805C9F4F6F
:1022D0008093052190930621F3E28D399F0709F041
:1022E000A9CF4092052150920621A4CF209314201B
:1022F000309315208092122090921320F30104E174
:102300000693E0CF809116218130F1F0823009F000
:1023100091CF809118208670863009F08BCF109273
:102320001621109217211092182110920921409223
:1023300007215092082140920521509206217ACF20
:102340008DE0B701C5DE25CF1093162170910521D0
:10235000E0910621209117213091182160911521DB
:10236000862F90E041E08A159B05F1F040931521FE
:10237000872F9E2F662361F480931C2090931D204D
:1023800020931A2030931B20F30102E2069352CFD0
:1023900080931420909315202093122030931320C3
:1023A000F30104E1069346CF40E040931521872FC7
:1023B0009E2F662369F7E0CF809316212FB7F894FC
:1023C00080911820867009F03BC02FBF82E0E0ECBE
:1023D000F4E0858736E09FB7F89480911621882332
:1023E00039F180E09FBF882309F031CF809114211B
:1023F000882389F32FB7F894109209218DE991E28F
:1024000080930721909308218093052190930621C2
:10241000E8E1F0E206E0059308E006931092162149
:102420001092172110921821109215212FBF0FCF53
:1024300080910921232F281B81E012169CF2D1CF15
:102440003091092113160CF040C080910521909124
:1024500006214091152151E0413009F450E050939C
:102460001521442319F580931C2090931D2040E4EE
:1024700050E040931A2050931B20E8E1F0E202E282
:102480000693315030930921805C9F4F8093052142
:1024900090930621B3E28D399B0709F096CF8DE921
:1024A00091E280930521909306218FCF8093142091
:1024B0009093152040E450E0409312205093132055
:1024C000E8E1F0E204E10693DCCF8091162181304F
:1024D000E1F0823009F079CF809118208670863043
:1024E00009F073CF10921621109217211092182123
:1024F000109209218DE991E28093072190930821A0
:10250000809305219093062160CF82E0809316216D
:102510006091052130910621409117215091182199
:102520008091152191E0813009F490E0909315217C
:10253000882379F4862F932F80931C2090931D205D
:1025400040931A2050931B20E8E1F0E202E2069348
:102550003CCF862F932F8093142090931520409387
:10256000122050931320E8E1F0E204E106932DCF0E
:102570008FEF9BE7A2E981509040A040E1F700C0B7
:102580000000E0E6F6E081818160818385818E7FB5
:10259000858381818061818385818061858381815B
:1025A000886081838CE08093A60980E58093A709E9
:1025B000A0EAB9E013961C92139788E114968C93C5
:1025C000149783E015968C9315978FEF9FE4A3ECF7
:1025D00081509040A040E1F700C0000085818160FB
:1025E00085838FEF97E8A3E181509040A040E1F709
:1025F00000C0000081E087838AEA96EEA6E9B1E098
:1026000081509040A040B040D9F700000895E0E626
:10261000F6E08181816081838781816087838FEF8C
:1026200097EAA1E681509040A040E1F700C0000089
:1026300008958FEF9BE7A2E981509040A040E1F719
:1026400000C00000E0E6F6E0818181608183858141
:102650008E7F85838181806181838581806185838F
:102660008181886081838CE08093A60980E58093D6
:10267000A709A0EAB9E013961C92139788E1149673
:102680008C93149783E015968C9315978FEF9FE4A6
:10269000A3EC81509040A040E1F700C0000085818C
:1026A000816085838FEF97E8A3E181509040A0403F
:1026B000E1F700C0000081E087838AEA96EEA6E990
:1026C000B1E081509040A040B040D9F7000008959B
:1026D000CF93DF93CDB7DEB7CD56D040CDBFDEBFB1
:1026E00040E050E020E030E080E090E06091A1091F
:1026F00067FFFCCF6091A0098730910561F0213020
:10270000310549F0FC01ED57FF4D70817617A9F0B6
:1027100080E090E0EBCFEAE0F0E0EC0FFD1FE40F8B
:10272000F51F60834F5F5F4F6D3049F06A3039F0BD
:10273000673529F021E030E0D9CF0196D7CF8AE084
:1027400090E08C0F9D1F480F591FFA011082CE0197
:102750000A960E94AB05CE010A96BE016F5F7F4FBD
:102760000E94BD08C359DF4FCDBFDEBFDF91CF91BF
:1027700008950895E0E6F6E088E08183858386E0A9
:102780008093A6091092A709E0EAF9E0138288E194
:10279000848383E085830895BF92CF92DF92EF9286
:1027A000FF920F931F93CF93DF93D82EC92E7B01F7
:1027B000EA01898185FFFDCF8DE088838FEF93EC5F
:1027C000A9E081509040A040E1F700C000008BE8F4
:1027D00090E2BE0193DC8FEF93ECA9E08150904032
:1027E000A040E1F700C00000ED2DFC2DDF010D90B1
:1027F0000020E9F7CD018E1B9F0B09960E94DB207C
:10280000182F092FE82FF92FA5E9B0E28AE00D90E3
:1028100001928150E1F7812F902F6D2D7C2D0E9428
:10282000F322E12FF02FDF010D900020E9F7CD0119
:102830008E1B9F0B01960E94DB20B92EC82ED92E2D
:10284000C601612F702F0E94FE22AC2DBB2DFD0111
:1028500001900020E9F73197EA1BFB0BEC0DFD1D01
:1028600082E290E080839183C601BE0147DC8FEF56
:1028700093ECA9E081509040A040E1F700C0000037
:10288000C701BE013BDC8FEF93ECA9E08150904083
:10289000A040E1F700C00000898185FFFDCF8AE1FB
:1028A00088838FEF93ECA9E081509040A040E1F73E
:1028B00000C0000081E0809316212FB7F89480912A
:1028C0001820867009F043C02FBF82E0E0ECF4E0EE
:1028D000858736E09FB7F89480911621882379F197
:1028E00080E09FBF882309F580911421882391F30C
:1028F0002FB7F894109209218DE991E28093072176
:10290000909308218093052190930621E8E1F0E25D
:1029100006E0059308E00693109216211092172105
:1029200010921821109215212FBFDF91CF911F9186
:102930000F91FF90EF90DF90CF90BF90089580911E
:102940000921232F281B81E012165CF2C9CF309198
:10295000092113160CF040C08091052190910621A9
:102960004091152151E0413009F450E05093152178
:10297000442319F580931C2090931D2040E450E0DF
:1029800040931A2050931B20E8E1F0E202E2069304
:10299000315030930921805C9F4F809305219093A3
:1029A0000621A3E28D399A0709F08ECF8DE991E2D5
:1029B000809305219093062187CF809314209093D4
:1029C000152040E450E04093122050931320E8E19A
:1029D000F0E204E10693DCCF809116218130E1F032
:1029E000823009F071CF809118208670863009F00E
:1029F0006BCF10921621109217211092182110926D
:102A000009218DE991E28093072190930821809319
:102A100005219093062158CF82E080931621609182
:102A20000521309106214091172150911821809164
:102A3000152191E0813011F190931521882379F4CB
:102A4000862F932F80931C2090931D2040931A2053
:102A500050931B20E8E1F0E202E2069335CF862F87
:102A6000932F80931420909315204093122050931D
:102A70001320E8E1F0E204E1069326CF90E0DCCFFA
:102A8000BC018BE890E23ACBBC018FE990E236CBF7
:102A9000BC018AEA90E232CBBC0184EB90E22ECBFF
:102AA000CF92DF92EF92FF920F931F93CF93DF931A
:102AB000CDB7DEB78C01CDB6DEB600D0EDB6FEB632
:102AC0000894E11CF11CD80111968C91119785FF97
:102AD000FACF81E48C938EEB90E20E94AB058FEFEE
:102AE00093E2A4EFB0E081509040A040B040D9F70D
:102AF00000C0000083EC90E2B80100DB86EC90E2BD
:102B00000E94AB058FEF93ECA9E081509040A0406C
:102B1000E1F700C00000D80111968C91119787FF52
:102B2000FACF8C91F70180831182C7010E94AB0517
:102B30008BE890E2B801E2DA8BEC90E20E94AB0500
:102B40008FEF9FE1AEE481509040A040E1F700C0DC
:102B5000000085ED90E2B801D1DA8FED90E20E949D
:102B6000AB058FEF97EAA1E681509040A040E1F7D6
:102B700000C00000CDBEDEBEDF91CF911F910F914E
:102B8000FF90EF90DF90CF9008950F931F93CF9316
:102B9000DF939C01ABE1B1E28D018BE591E2FD0198
:102BA000119241E2EB35F407D9F710921121F901A6
:102BB000C081D0E0C076D070C034D10531F080E063
:102BC000DF91CF911F910F9108954181463109F412
:102BD000E7C0473108F14B3B09F490C04C3B08F08B
:102BE00048C0473161F70480F581E02D80818093F2
:102BF0001B21818180931C2100930C2010930D20B8
:102C000082E090E080930A2090930B20E8E0F0E2CD
:102C100002E2069381E0D4CF423009F4A0C04330F1
:102C200068F4442361F684819581009709F4C9C052
:102C30008130910509F4BDC081E0C2CF4830A9F1CF
:102C4000493009F0BCCF0480F581E02D808180936C
:102C50001B2100930C2010930D2081E090E08093C5
:102C60000A2090930B20E8E0F0E202E2069381E074
:102C7000A7CF403E19F1413E09F0A1CF4093112169
:102C800084818093102100930C2010930D201092CA
:102C90000A2010920B20E8E0F0E202E2069381E0C5
:102CA000DF91CF911F910F910895D9010480F58193
:102CB000E02D12968C9112978083E5CFF901648103
:102CC00075810024769567950794769567950794A6
:102CD000762F602D8BE191E240E450E00E94E123E9
:102CE00000930C2010930D20C0930A20D0930B204A
:102CF000E8E0F0E202E2069381E062CFF89400930C
:102D00000C2010930D2010920A2010920B20E8E066
:102D1000F0E202E20693389702E7069380910020E2
:102D200085FFFCCF8FEF99EFA0E081509040A0404D
:102D3000E1F700C000008091C1048E7FE0ECF4E078
:102D400081838FEF93ECA9E081509040A040E1F7A0
:102D500000C00000ECEFF7E4099581E031CF30913D
:102D60009D2320919E23C32FD22FFE01019000208E
:102D7000E9F73197E31B29912D938A179B07D9F720
:102D80008E2F90E000930C2010930D2080930A204A
:102D900090930B20E8E0F0E202E2069381E010CF8E
:102DA000F901828193810480F581E02D80839183F4
:102DB0006ACF87E492E06BE070E00E948D0281E0D0
:102DC000FFCE82E592E06BE070E00E948D0281E030
:102DD000F7CE462F20911121213E09F00895209130
:102DE000102130E0002436952795079436952795D5
:102DF0000794322F202DB90150E00C94EC2392302F
:102E0000F9F09330A1F0913049F080E090E0E0E0FB
:102E1000F0E0DA01ED93FC931197089582E190E0E0
:102E2000E5EBF2E0DA01ED93FC9311970895813020
:102E300081F0813098F4E1E9F2E0849190E0E9CF0B
:102E400080E290E0E5E9F2E0DA01ED93FC9311977E
:102E50000895E3E7F2E0849190E0DBCF8230A9F6B9
:102E6000EDE5F2E0849190E0D4CFCF93DF93CDB73E
:102E7000DEB7CD56D040CDBFDEBF0E94B2020E9469
:102E80002302E0ECF4E082E4808783E08187E0EADB
:102E9000F0E0828378946CDB81E080931621BFB7E9
:102EA000F894709109218091052190910621E0917B
:102EB0001521609116212091172130911821409100
:102EC000072150910821F0911820F67009F064C094
:102ED00088E1E82E80E2F82E9DE9C92E91E2D92EF4
:102EE000BFBF82E0E0ECF4E0858796E02FB7F8946E
:102EF00080910921392F381B81E013160CF080E0F6
:102F000030911621311180E02FBF8823F1F4809198
:102F10001421882359F38FB7F89410920921C09295
:102F20000721D0920821C0920521D0920621F701F5
:102F300006E0059308E006931092162110921721DF
:102F400010921821109215218FBF60E070E040E0D0
:102F500050E080E090E032E0632E16E0E1E0AE2E3B
:102F6000B12CF0E48F2E912C2091A10927FFFCCFEA
:102F70002091A0098730910509F46CC041305105BA
:102F800009F468C0FC01ED57FF4D3081231709F4A7
:102F900073C080E090E0E8CF1716BCF5A1E0E13007
:102FA00009F4A0E0EE2309F043C080931C20909325
:102FB0001D20E0E4F0E0E0931A20F0931B2008E1EC
:102FC000E02E00E2F02EF70102E206937150805CE1
:102FD0009F4FEA2FF3E28D399F0731F1ADE9CA2EF9
:102FE000A1E2DA2E709309218093052190930621A6
:102FF000E093152160931621209317213093182117
:10300000E5E0F1E2428353836BCF613009F4EFC115
:10301000623009F4D9C108E1E02E00E2F02EFDE9AA
:10302000CF2EF1E2DF2EDECF8DE991E26C01DACF17
:103030008093142090931520E0E4F0E0E0931220B8
:10304000F093132018E1E12E10E2F12EF70104E1D4
:103050000693BCCFEAE0F0E0EC0FFD1FE60FF71F90
:1030600020836F5F7F4F2D3049F02A3039F02735AC
:1030700029F041E050E078CF019676CFEAE0F0E029
:10308000EC0FFD1FE60FF71F10822A85222309F49B
:1030900061C0DE011B969FB7F894809116218823AA
:1030A00031F180E09FBF8823B1F380911721909187
:1030B0001821E0910721F0910821E80FF91F2083E2
:1030C0000196809317219093182180349105B9F0CF
:1030D000FD012191222309F43DC0109709F43AC063
:1030E000DF019FB7F894809116218823D1F6809153
:1030F0000921312F381B81E01316A4F2D2CF7FB6FD
:10310000F8941092172110921821809109218F5F55
:10311000809309218091072190910821805C9F4F25
:103120008093072190930821F3E28D399F0721F4C2
:10313000C0920721D09208215FB7F894809118209F
:10314000867009F04BC05FBF7FBEFD012191222335
:1031500009F0C3CFF1E0F0931621AFB7F894809156
:103160001820867009F0C8C0AFBF6092CD049FB729
:10317000F89480911621882309F4B5C080E09FBFA0
:103180008823F1F480911421882389F38FB7F89470
:1031900010920921C0920721D0920821C0920521E6
:1031A000D0920621F70106E0059308E006931092FD
:1031B00016211092172110921821109215218FBFFD
:1031C000CE010A96BE016F5F7F4F0E94BD0860E08E
:1031D00070E040E050E080E090E0C6CE40910921F0
:1031E00014160CF03CC0209105213091062160910D
:1031F0001521862F90E071E08A159B0509F470E097
:10320000709315216623F9F420931C2030931D2020
:1032100080921A2090921B20F70102E206934150FF
:1032200040930921C901805C9F4F809305219093B1
:103230000621F3E28D399F0709F085CFC092052161
:10324000D092062180CF20931420309315208092B5
:10325000122090921320F70104E10693E0CF8091B1
:1032600016218130D1F0823009F06DCF8091182085
:103270008670863009F067CF1092162110921721C0
:103280001092182110920921C0920721D092082192
:10329000C0920521D092062156CF609216217091DE
:1032A0000521E0910621209117213091182160918C
:1032B0001521862F90E041E08A159B0509F440E036
:1032C00040931521872F9E2F662309F04AC08093D3
:1032D0001C2090931D2020931A2030931B20F7016F
:1032E00002E2069330CF80910921212F281B81E033
:1032F00012160CF444CF42CF6091092116160CF03F
:1033000048C0209105213091062150911521852F2B
:1033100090E041E08A159B0509F440E040931521B7
:10332000552359F520931C2030931D2080921A209C
:1033300090921B20F70102E20693615060930921ED
:10334000C901805C9F4F8093052190930621F3E291
:103350008D399F0709F008CFC0920521D092062130
:1033600003CF809314209093152020931220309344
:103370001320F70104E10693E6CE20931420309346
:1033800015208092122090921320F70104E10693F9
:10339000D4CF80911621813009F445C0823009F0E4
:1033A000E3CE809118208670863009F0DDCE109231
:1033B0001621109217211092182110920921C09203
:1033C0000721D0920821C8CFF0911820F670F6306E
:1033D00009F021CE4DE951E220E030E060E06A01E1
:1033E000CA0170E018E1E12E10E2F12EFBCDE130D0
:1033F00009F460E0EE2309F039C080931C2090931B
:103400001D2020931A2030931B2008E1E02E00E2BB
:10341000F02EF70102E20693E62F62E0ADE9CA2E34
:10342000A1E2DA2EDFCD6092162160910521709124
:103430000621209117213091182150911521852FB7
:1034400090E041E08A159B0509F440E04093152186
:10345000552311F560931C2070931D2020931A2092
:1034600030931B20F70102E206937ECE8093142056
:10347000909315202093122030931320A8E1EA2E78
:10348000A0E2FA2EF70104E10693E62F62E01DE9BF
:10349000C12E11E2D12EA6CD609314207093152079
:1034A0002093122030931320F70104E106935CCEA1
:1034B000A5E1B0E0EDE5FAE14DC64C016E877F87EE
:1034C000FC0116821782838181FD04C05AC34C859A
:1034D0005D8504C01E010894211C311CF4019381F8
:1034E000EE85FF8593FD859193FF8191EE87FF87A0
:1034F000882309F442C3853241F493FD859193FFFB
:103500008191EE87FF87853259F490E0B4014C8BAE
:103510005D8B0E9437234C895D894C875D87D7CFAF
:10352000FF24DD2410E01032B0F48B3269F08C32CD
:1035300028F4803251F0833271F40BC08D3239F0AF
:10354000803349F411602CC01260146029C01860E7
:1035500027C0106125C017FD2EC0282F20532A3008
:1035600098F416FF08C08F2D880FF82EFF0CFF0C63
:10357000F80EF20E15C08D2D880FD82EDD0CDD0C47
:10358000D80ED20E10620CC08E3221F416FDF5C298
:10359000106406C08C3611F4106802C0883659F4E5
:1035A000EE85FF8593FD859193FF8191EE87FF87DF
:1035B000882309F0B8CF982F9554933018F41061F0
:1035C000805E06C0982F9556933008F092C11F7EFA
:1035D00016FD02C0E6E0FE2E1F73853611F410645E
:1035E00006C0863611F4106802C0F110FA9417FF75
:1035F00007C0FBE3FF1548F0EF2CE39427E00DC074
:1036000027E02F1530F02F2D07C027E07CE3E72EB1
:1036100004C027E067E0F62EEE24CA0104968C87EA
:103620009D87FA016081718182819381A1010E2DB4
:10363000F4D65C01C9802C2D30E0288B398BC0FE7C
:1036400003C0388933FF06C011FD06C012FF06C053
:1036500000E205C00DE203C00BE201C000E0888972
:1036600099898C709070009709F439C0002311F08B
:1036700084E001C083E08D1550F4D81A13FD08C012
:1036800080E290E0B401F3D7DA94D1F701C0DD24F1
:10369000002321F0802F90E0B401E9D7888983FDD1
:1036A00005C03BECE32E32E0F32E10C027ECE22EF7
:1036B00022E0F22E0BC00115110509F0805290E0B6
:1036C000B401D5D70894E11CF11C04C0012F10E00F
:1036D00000711070F7018491882369F74BC217FFBE
:1036E0000EC0EA0CF889F4FF04C08A81813309F422
:1036F000EA941E144CF528E02E1548F12CC016FD56
:103700002AC08F2D90E08A159B0544F03CEFA3164C
:103710003FEFB3061CF0106801C0FA94FF2049F097
:10372000E2E0F0E0EC0FFD1FEF0DF11D8081803332
:10373000A1F317FF10C0EF2CE3948F2D90E0A81693
:10374000B90644F4FA1807C0EE24E39404C098E0E4
:10375000E92E01C0FF2417FF07C01A141B043CF414
:1037600095012F5F3F4F05C025E030E002C021E00A
:1037700030E0002311F02F5F3F4FFF2029F08F2D05
:1037800090E00196280F391F8D2D90E028173907FA
:1037900014F4D21A01C0DD24612E7724C30189708C
:1037A0009070009741F405C080E290E0B4015FD7CB
:1037B000DA94DD20C9F7002321F0802F90E0B401D6
:1037C00056D763FC08C005C080E390E0B4014FD732
:1037D000DA94DD20C9F717FF46C08501B7FE02C0A5
:1037E00000E010E06624772495012E1931092A8B18
:1037F0003B8B2501401A510A420C531C6F2D70E07F
:10380000EE24FF24E61AF70A3FEF0F3F130721F4D7
:103810008EE290E0B4012BD7A016B10654F02A89AD
:103820003B89201731072CF4F201E60DF71D818149
:1038300001C080E3015010400894611C711C0E15FA
:103840001F0524F090E0B40112D7DECF0A151B0546
:1038500041F49A81963320F4953319F4388934FF72
:1038600081E390E043C08A81813311F09FEEC92249
:1038700090E0B401FCD6FF2079F08EE290E0B40134
:10388000F6D612E0F101E10FF11D1F5F808190E09B
:10389000B401EDD6FA94B1F764FE03C085E490E07C
:1038A00002C085E690E0B401E2D6B7FC05C0A114E1
:1038B000B10441F4C4FE06C0B094A194B108B3941D
:1038C0008DE201C08BE290E0B401D1D680E305C067
:1038D0008F5FE6EFFFEFAE0EBF1EFAE0AF16B1044A
:1038E000BCF790E0B401C3D6C501C096B401BFD601
:1038F00041C1833631F0833789F0833509F055C0F3
:1039000021C09A012E5F3F4F2C873D87FA018081AD
:10391000898381E0E82EF12C510112C09A012E5FBB
:103920003F4F2C873D87FA01A080B18016FF03C06E
:103930006F2D70E002C06FEF7FEFC50166D67C018E
:103940001F7713C09A012E5F3F4F2C873D87FA01E6
:10395000A080B18016FF03C06F2D70E002C06FEF32
:103960007FEFC50132D67C01106813FD1AC005C077
:1039700080E290E0B4017BD6DA948D2D90E0E816D9
:10398000F906B0F30EC0F50117FD859117FF81917F
:103990005F0190E0B4016BD6D110DA940894E1088D
:1039A000F108E114F10479F7E5C0843611F08936A5
:1039B00069F59A0117FF0AC02C5F3F4F2C873D879E
:1039C000FA0180819181A281B3810BC02E5F3F4FAC
:1039D0002C873D87FA0180819181AA2797FDA095C8
:1039E000BA2F012F0F76B7FF08C0B095A09590951C
:1039F00081959F4FAF4FBF4F0068BC01CD01A10122
:103A00002AE030E080D6E82EE21840C0853721F465
:103A10001F7E2AE030E020C0197F8F36A9F0803762
:103A200020F4883509F0A9C00BC0803721F0883711
:103A300009F0A3C001C0106114FF09C0146007C0E1
:103A400014FF08C0166006C028E030E005C020E181
:103A500030E002C020E132E0CA0117FF09C004963D
:103A60008C879D87FA01608171818281938108C072
:103A700002968C879D87FA016081718180E090E0D9
:103A8000A10141D6E82EE218012F0F7706FF09C0E9
:103A90000E7FEF1430F404FF06C002FD04C00F7E59
:103AA00002C01E2D01C01F2D802F90E004FF0CC00E
:103AB000FE01EE0DF11D2081203311F4097E09C0B5
:103AC00002FF06C01E5F05C086789070009709F05F
:103AD0001F5FA02EBB2403FD11C000FF0CC0FE2CF5
:103AE0001D1548F4FD0CF11A1D2D05C080E290E073
:103AF000B401BDD51F5F1D15C8F304C01D1510F41A
:103B0000D11A01C0DD24A4FE0EC080E390E0B40110
:103B1000AED5A2FE1DC0A1FE03C088E590E010C096
:103B200088E790E00DC0C50186789070009781F01D
:103B3000A1FC02C080E201C08BE207FD8DE290E0B3
:103B4000B40195D505C080E390E0B40190D5FA9416
:103B5000EF14C8F3EA94F101EE0DF11D808190E0BD
:103B6000B40185D5EE20B1F705C080E290E0B40144
:103B70007ED5DA94DD20C9F7AACCF401868197813D
:103B800002C08FEF9FEF6596E2E1FDC25058BB2760
:103B9000AA270ED091C15AD130F05FD120F031F474
:103BA0009F3F11F41EF42AC10EF4E095E7FB20C1FB
:103BB000E92FA4D180F3BA1762077307840795072A
:103BC00018F071F49EF5BCC10EF4E0950B2EBA2FDF
:103BD000A02D0B01B90190010C01CA01A001112413
:103BE000FF27591B99F0593F50F4503E68F11A16BF
:103BF000F040A22F232F342F4427585FF3CF469550
:103C000037952795A795F0405395C9F77EF41F1671
:103C1000BA0B620B730B840BBAF09150A1F0FF0F3B
:103C2000BB1F661F771F881FC2F70EC0BA0F621F27
:103C3000731F841F48F4879577956795B795F79517
:103C40009E3F08F0B3CF9395880F08F09927EE0FA9
:103C5000979587950895FAD058F080E891E009F497
:103C60009EEFFBD028F040E851E059F45EEF09C028
:103C7000C5C066C1E92FE07841D168F3092E052A55
:103C8000C1F3261737074807590738F00E2E07F8F3
:103C9000E02569F0E025E0640AC0EF6307F80094CE
:103CA00007FADB01B9019D01DC01CA01AD01EF9307
:103CB00046D002D10AD05F91552331F02BED3FE081
:103CC00049E450FD49EC63CF0895DF93DD27B92F18
:103CD000BF7740E85FE31616170648075B0710F446
:103CE000D92F39D19F938F937F936F93E6D1ECEFC8
:103CF000F1E087D0E1D02F913F914F915F913ED17C
:103D0000DD2349F09058A2EA2AED3FE049EC5FE359
:103D1000D0785D274DDFDF91CFC0A7D0E395DDC020
:103D20000CD0CAC09AD040F091D030F021F45F3F5F
:103D300019F05EC0511105C161C0E0D098F399231C
:103D4000C9F35523B1F3951B550BBB27AA2762175F
:103D50007307840738F09F5F5F4F220F331F441FA4
:103D6000AA1FA9F333D00E2E3AF0E0E830D09150DC
:103D70005040E695001CCAF729D0FE2F27D0660FC9
:103D8000771F881FBB1F261737074807AB07B0E808
:103D900009F0BB0B802DBF01FF2793585F4F2AF01E
:103DA0009E3F510568F024C0CCC05F3FECF3983EC5
:103DB000DCF3869577956795B795F7959F5FC9F77B
:103DC000880F911D9695879597F90895E1E0660F04
:103DD000771F881FBB1F621773078407BA0720F07D
:103DE000621B730B840BBA0BEE1F88F7E0950895E6
:103DF00097F99F6780E870E060E008959FEF80EC9E
:103E00000895DF93CF931F930F93FF92EF92DF926A
:103E10007B018C01689405C0DA2EEF01AFD0FE0162
:103E2000E894A5912591359145915591AEF3EF0117
:103E3000BFDEFE019701A801DA9479F7DF90EF90D9
:103E4000FF900F911F91CF91DF91089500240A9464
:103E50001616170618060906089500240A94121665
:103E60001306140605060895C9CF50D0E8F3E89468
:103E7000E0E0BB279F57F0F02AED3FE049EC06C099
:103E8000EE0FBB0F661F771F881F28F0B23A62073C
:103E90007307840728F0B25A620B730B840BE39507
:103EA0009A9572F7803830F49A95BB0F661F771F8A
:103EB000881FD2F790482AC1092E0394000C11F4F0
:103EC000882352F0BB0F40F4BF2B11F460FF04C0F5
:103ED0006F5F7F4F8F4F9F4F0895EF93E0FF06C0B6
:103EE000A2EA2AED3FE049EC5FEB62DEE5DF0F90EE
:103EF000039401FC9058E9E2F2E01BC157FD905891
:103F0000440F551F59F05F3F71F04795880F97FB9D
:103F1000991F61F09F3F79F0879508951216130657
:103F20001406551FF2CF4695F1DF08C01616170686
:103F30001806991FF1CF86957105610508940895BB
:103F4000E894BB2766277727CB0197F90895B8D067
:103F500008F48FEF08959B01AC0160E070E080E809
:103F60009FE3DECE0BD0A8CF71DF28F076DF18F00C
:103F7000952309F03DCF42CF1124E3CFBFDFA0F35B
:103F8000959FD1F3950F50E0551F629FF001729FEE
:103F9000BB27F00DB11D639FAA27F00DB11DAA1F0D
:103FA000649F6627B00DA11D661F829F2227B00D5A
:103FB000A11D621F739FB00DA11D621F839FA00DE5
:103FC000611D221F749F3327A00D611D231F849F35
:103FD000600D211D822F762F6A2F11249F5750408C
:103FE0008AF0E1F088234AF0EE0FFF1FBB1F661F27
:103FF000771F881F91505040A9F79E3F510570F0E0
:10400000F7CE9FCF5F3FECF3983EDCF38695779534
:104010006795B795F795E7959F5FC1F7FE2B880FDA
:10402000911D9695879597F908959F931EDF0F90A0
:1040300007FCEE5F52CF11F40EF4E0CE65C066DFF0
:10404000D0F39923D9F3CEF39F57550B87FF6AD04E
:104050000024A0E640EA900180585695979528F4F0
:10406000805C660F771F881F20F0261737074807E8
:1040700030F4621B730B840B202931294A2BA6953F
:1040800017940794202531254A2758F7660F771F84
:10409000881F20F026173707480730F4620B730B90
:1040A000840B200D311D411DA09581F7B901842F8E
:1040B0009158880F9695879508959B01AC0152CF32
:1040C000990F0008550FAA0BE0E8FEEF1616170629
:1040D000E807F907C0F012161306E407F50798F091
:1040E000621B730B840B950B39F40A2661F0232BAA
:1040F000242B252B21F408950A2609F4A140A69526
:104100008FEF811D811D08959F3F31F0915020F464
:10411000879577956795B795880F911D96958795A3
:1041200097F9089591505040660F771F881FD2F776
:1041300008959F938F937F936F93FF93EF939B01CA
:10414000AC0110DFEF91FF915CDE2F913F914F9119
:104150005F9108CF2F923F924F925F926F927F9222
:104160008F929F92AF92BF92CF92DF92EF92FF9287
:104170000F931F93CF93DF93CDB7DEB7CA1BDB0B33
:10418000CDBFDEBF09942A88398848885F846E8451
:104190007D848C849B84AA84B984C884DF80EE806B
:1041A000FD800C811B81AA81B981CE0FD11DCDBFAD
:1041B000DEBFED010895CF93DF93AC01823091050E
:1041C00010F442E050E0E091A323F091A42320E01A
:1041D00030E0A0E0B0E024C0808191818417950791
:1041E000D0F08417950771F482819381109729F09C
:1041F00012968D939C9313972CC08093A323909336
:10420000A42327C02115310519F08217930718F44C
:104210009C01BD01EF0192818381DF01E92FF82F1D
:104220003097D1F621153105F9F0C901841B950BA2
:104230008430910580F48A819B816115710521F09C
:10424000FB018283938304C08093A3239093A423D0
:10425000FE01329642C0FE01E80FF91F41935193CF
:1042600002978883998339C08091A1239091A223DA
:10427000009741F480910C2190910D218093A1230E
:104280009093A22320910A2130910B212115310511
:1042900041F42DB73EB780910E2190910F21281B3C
:1042A000390BE091A123F091A223E217F30798F4D0
:1042B0002E1B3F0B2417350770F0CA0102962817F2
:1042C000390748F08E0F9F1F8093A1239093A2235C
:1042D0004193519302C0E0E0F0E0CF01DF91CF9134
:1042E00008950F931F93CF93DF939C01009709F4D8
:1042F0008CC0DC01129712961D921C92139760914C
:10430000A3237091A4236115710589F48D919C916B
:104310001197820F931F2091A1233091A223281778
:10432000390769F5A093A123B093A2236EC0FB01C6
:1043300040E050E001C0FC01EA17FB0730F4828145
:104340009381AF010097B9F71FC0E9012297EA8373
:10435000FB8308811981C901800F911F8E179F0768
:1043600059F480819181800F911F029688839983EF
:10437000828193818A839B834115510529F4A093FF
:10438000A323B093A42341C0FA01A283B383C191B4
:10439000D191EC0FFD1FAE17BF0781F4F901929187
:1043A00082918C0F9D1F0296DA018D939C93119739
:1043B0008281938112968D939C931397E0E0F0E0B5
:1043C00002C0FB01BC01DB0112968D919C911397F9
:1043D0000097B9F7CB0102962D913C911197820F6E
:1043E000931F2091A1233091A2232817390769F444
:1043F000309729F41092A3231092A42302C01282B2
:1044000013826093A1237093A223DF91CF911F9118
:104410000F910895662777272AC2283008F027E0F1
:104420003327DA01990F311D87FD916000966105F0
:10443000710539F432602E5F3D9330E32A95E1F740
:1044400008959F3F30F080387105610509F03C5FA9
:104450003C5F3D93913008F08068911DDF93CF93CE
:104460001F930F93FF92EF92192F987F9695E92F44
:1044700096959695E90FFF27E75DFC4F992733271F
:10448000EE24FF24A701E70105900894079428F47F
:10449000360FE71EF81E491F511D660F771F881F34
:1044A000991F0694A1F70590079428F4E70EF81ECB
:1044B000491F561FC11D770F881F991F661F06943D
:1044C000A1F70590079428F4F80E491F561FC71F3F
:1044D000D11D880F991F661F771F0694A1F70590BD
:1044E000079420F4490F561FC71FD81F990F661F46
:1044F000771F881F0694A9F784911095177041F0D3
:10450000D695C79557954795F794E7941A95C1F7AF
:10451000EFECF2E0689415901591359165919591C5
:1045200005907FE27395E118F10A430B560BC90B16
:10453000D009C0F7E10CF11E431F561FC91FD01D43
:104540007EF4703311F48A95E6CFE894015030F090
:10455000080F0AF40027021708F4202F2395022FD2
:104560007A3328F079E37D932A95E9F710C07D939B
:104570002A9589F606949795679537951795179418
:10458000E118F10A430B560BC90BD00998F023959B
:104590007E9173957A3308F070E37C932013B8F71B
:1045A0007E9170617D9330F0839571E37D9370E32C
:1045B0002A95E1F71124EF90FF900F911F91CF9171
:1045C000DF91992787FD90950895FC010590615032
:1045D00070400110D8F7809590958E0F9F1F089519
:1045E00049E151E21DC0FB01DC010D900020E9F71B
:1045F000119701900D920020E1F70895FB01DC0175
:1046000001900D920020E1F70895FC016150704087
:1046100001900110D8F7809590958E0F9F1F0895F7
:10462000FA01A191B081009719F41097E1F0CD0142
:10463000DC01CD010D90002011F4C00113C0FB017D
:104640002191222319F02015D9F7F3CFFB012191F5
:10465000201519F41E92119606C02223C1F70D9061
:104660000020A1F7D001FA01A193B08308950F9320
:104670001F93CF93DF938C01EB018B8181FF1BC0D4
:1046800082FF0DC02E813F818C819D8128173907C3
:1046900064F4E881F9810193E883F98306C0E88531
:1046A000F985802F0995009731F48E819F810196BD
:1046B0008E839F8302C00FEF1FEFC801DF91CF9160
:1046C0001F910F910895AEE0B0E0E8E6F3E250CD1F
:1046D0000D891E8986E08C8309831A838FEF9FE7FB
:1046E0008D839E83AE01475E5F4FCE0101966F8939
:1046F000788D0E94581AEF81F885E00FF11F108223
:104700002E96E4E04ECDFA01AA27283051F120314F
:1047100081F1E8946F936E7F6E5F7F4F8F4F9F4F55
:10472000AF4FB1E03ED0B4E03CD0670F781F891F97
:104730009A1FA11D680F791F8A1F911DA11D6A0F65
:10474000711D811D911DA11D20D009F468943F9118
:104750002AE0269F11243019305D3193DEF6CF0117
:104760000895462F4770405D4193B3E00FD0C9F7DD
:10477000F6CF462F4F70405D4A3318F0495D31FD4A
:104780004052419302D0A9F7EACFB4E0A69597959D
:10479000879577956795BA95C9F700976105710573
:1047A00008959B01AC010A2E0694579547953795BD
:1047B0002795BA95C9F7620F731F841F951FA01D17
:1047C0000895E0ECF1E0A785A7FDFDCFA485A860E2
:1047D000A4876050704FCBC1DC01A40FB51F4150BE
:1047E000504040F0CB01840F951F2E9105D04150D1
:1047F0005040D8F70895262F2ED00080021611F0D1
:1048000004D0019701970895262FE0ECF1E0378559
:1048100037FDFDCF3485377F3487378531FF09C0B9
:1048200036E3328738ED34BF31E03387378537FDE3
:10483000FDCF33E33287808391831282248325E383
:10484000228728ED31E024BF33870196089503D0F5
:10485000808199270895E0ECF1E0378537FDFDCFA1
:10486000348538603487FC01E050F04F0895A0E0B3
:10487000B0E0ECE3F4E272CC5B016115710521F06C
:10488000DB018C9311969C937C01E7010894E11C59
:10489000F11C08816701802F90E049D10097A9F7AA
:1048A0000D3241F4098142E0C42ED12CCC0EDD1E24
:1048B00011E009C00B3231F4098132E0C32ED12C52
:1048C000CC0EDD1E10E0E6012197CE0169EC73E00D
:1048D00043E050E034D10097C9F4E6012296CE01BE
:1048E0006CEC73E045E050E02AD1009711F4E6014A
:1048F0002796A114B10419F0F501C083D18330E0EB
:1049000020E090E8112309F405C1FFC0CE0161ED5C
:1049100073E043E050E013D1009759F4A114B104BF
:1049200009F4F5C0C6010296D5018D939C931197A9
:10493000EEC040E050E0BA018824992400530A30C8
:1049400090F51260212F30E0C9018870907012FF3D
:1049500006C0009769F50894811C911C29C0009736
:1049600019F0089481089108DB01CA01D2E0880F90
:10497000991FAA1FBB1FDA95D1F7480F591F6A1F4D
:104980007B1F440F551F661F771F400F511D611D70
:10499000711D4839B9E95B07B9E96B07B9E17B07D4
:1049A00038F0146005C00E3F39F413FD43C01860A1
:1049B000F60101916F01C2CF053311F00531D1F538
:1049C000D601EC91ED3211F4106108C0EB3229F000
:1049D000C601019621E030E008C0D6011196EC91A5
:1049E0001197C601029622E030E0E053EA3020F051
:1049F0006C01C21AD30A1EC0DC0120E030E0FCE0EA
:104A000020383F075CF4C901880F991F880F991F50
:104A1000280F391F220F331F2E0F311DED91E05348
:104A20006D01EA3060F314FF03C0309521953F4FCC
:104A3000820E931EC12FD0E011FF08C0A114B10453
:104A400029F0C6010197D5018D939C93CB01BA0142
:104A50009BD06B017C01CE018370907083309105F7
:104A600021F4F7FAF094F7F8F094C701B60120E0CA
:104A700030E0A90185D0882309F442C097FE07C021
:104A80009094819491089394C0E0D4E002C0C8EE61
:104A9000D3E098EE692E9FEF792E6C0E7D1E20E2FA
:104AA000A22EB12C0EC0FE010591159125913491D5
:104AB000C701B601A901980155DA6B017C018A187A
:104AC0009B088A149B047CF72497B594A794C61579
:104AD000D705B9F7C601D7012A2F220F2B2F221F86
:104AE0002F3F41F0BC01CD0120E030E0A90148D0CA
:104AF000882331F482E290E08093A5239093A6234B
:104B00003C2D2D2D9E2D8F2D06C08FEF04C030E043
:104B100020E090EC8FE7B901AC01872F922FA52FF1
:104B2000B42FBC01CD01CDB7DEB7EEE030CB911193
:104B300068C0803219F089508550D0F70895FB0184
:104B4000DC014150504088F08D9181341CF08B3550
:104B50000CF4805E659161341CF06B350CF4605E82
:104B6000861B611171F3990B0895881BFCCFFB0123
:104B7000DC0102C001900D9241505040D8F70895D9
:104B80009FDA08F481E00895E89409C097FB3EF4A9
:104B900090958095709561957F4F8F4F9F4F99238A
:104BA000A9F0F92F96E9BB279395F6958795779508
:104BB0006795B795F111F8CFFAF4BB0F11F460FFC8
:104BC0001BC06F5F7F4F8F4F9F4F16C0882311F020
:104BD00096E911C0772321F09EE8872F762F05C034
:104BE000662371F096E8862F70E060E02AF09A95CF
:104BF000660F771F881FDAF7880F9695879597F9C4
:0C4C00000895992788270895F894FFCFA5
:104C0C000000000000000000000000000000000098
:104C1C000000000000000000000000000000000088
:104C2C000000000000000000000000000000000078
:104C3C002C004E6F20475053205369676E616C00F7
:104C4C00244750524D432C37312E3133322C412CCA
:104C5C00343233302E30302C4E2C2D373133302E25
:104C6C0030302C452C31312E322C302E302C32362B
:104C7C00313230362C302E302C452A35300D0A008E
:104C8C00256600244750524D432C0041542B434D74
:104C9C0047463D310041542B434D47533D22004183
:104CAC00542B43504F57443D310041542B434655F0
:104CBC004E3D300041542B4346554E3D3100537907
:104CCC006E630041540050494E470054657874207F
:104CDC004D6F64650041542B434D47463D3F0043A7
:104CEC006865636B204D6F6465002B313330343253
:104CFC0034393330353900EA20CDCC4C3E7D878EAB
:104D0C00C2C62B29429D219D21000000A723200013
:00000001FF
