:1000000001C200001CC200001AC2000018C2000099
:1000100016C2000014C2000012C2000010C200008C
:100020000EC200000CC200000AC2000008C200009C
:1000300006C2000004C2000002C2000000C20000AC
:10004000FEC10000FCC10000FAC10000F8C10000C0
:10005000F6C10000F4C10000F2C10000F0C10000D0
:10006000EEC10000ECC10000EAC10000E8C10000E0
:10007000E6C10000E4C10000E2C10000E0C10000F0
:10008000DEC10000DCC10000DAC10000D8C1000000
:10009000D6C10000D4C10000D2C10000D0C1000010
:1000A000CEC10000CCC10000CAC10000C8C1000020
:1000B000C6C10000C4C10000C2C10000C0C1000030
:1000C000BEC10000BCC10000BAC10000B8C1000040
:1000D000B6C10000B4C10000B2C10000B0C1000050
:1000E000AEC10000ACC10000AAC10000A8C1000060
:1000F000A6C10000A4C10000A2C10000A0C1000070
:100100009EC100009CC100009AC1000098C100007F
:1001100096C1000094C1000092C1000090C100008F
:100120008EC100008CC100008AC1000088C100009F
:1001300086C1000084C1000082C1000080C10000AF
:100140007EC100007CC100007AC1000078C10000BF
:1001500076C1000074C1000072C1000070C10000CF
:100160006EC100006CC100006AC1000068C10000DF
:1001700066C1000064C1000062C1000060C10000EF
:100180005EC100005CC100005AC1000058C10000FF
:1001900056C1000054C1000052C1000050C100000F
:1001A0004EC100004CC100004AC1000048C100001F
:1001B00046C1000044C1000042C1000040C100002F
:1001C0003EC100003CC100003AC1000038C100003F
:1001D00036C1000034C1000032C1000030C100004F
:1001E0002EC100002CC100002AC1000028C100005F
:1001F00026C1000064C30000A6C30000084AD73B24
:100200003BCE016E84BCBFFDC12F3D6C74319ABDE5
:1002100056833DDA3D00C77F11BED9E4BB4C3E9109
:100220006BAAAABE000000803F05A84CCDB2D44EF8
:10023000B93836A9020C50B9918688083CA6AAAAFA
:100240002ABE000000803F46575F56455253494F33
:100250004E0048575F56455253494F4E00140346CF
:1002600000720061006D00650077006F0072006B26
:100270000000001C034E006F006E006F006C0069F0
:10028000007400680020004C0061006200730000F0
:1002900000040309040902200001010080FA090496
:1002A000000002FF00000007058102400000070572
:1002B000020220000012011001FF000040E359007B
:1002C000F000020102DC016E616E00696E660000E2
:1002D000407A10F35A00A0724E18090010A5D4E815
:1002E0000000E87648170000E40B54020000CA9AA8
:1002F0003B000000E1F505000080969800000040FA
:10030000420F000000A0860100000010270000003E
:1003100000E803000000006400000000000A000084
:100320000000000100000000002C76D888DC674F38
:100330000823DFC1DFAE59E1B1B796E5E3E453C668
:100340003AE651997696E8E6C28426EB898C9B6260
:10035000ED407C6FFCEFBC9C9F40F2BAA56FA5F40A
:1003600090055A2AF75C936B6CF9676DC11BFCE032
:10037000E40D47FEF520E6B500D0ED902E03009485
:100380003577050080841E080000204E0A0000001A
:10039000C80C333333330F986E12831141EF8D2124
:1003A00014893BE65516CFFEE6DB18D1844B381B8B
:1003B000F77C1D901DA4BBE424203284725E228150
:1003C00000C9F124ECA1E53D27494E46494E495468
:1003D000594E414E000020410000C84200401C46DA
:1003E00020BCBE4CCA1B0E5AAEC59D74CDCCCC3DB4
:1003F0000AD7233C17B7D13877CC2B329595E62412
:100400001FB14F0A11241FBECFEFDFE2DEBFCDBF09
:1004100011E2A0E0B0E2E2E5FBE402C005900D923B
:10042000A237B107D9F714E2A2E7B1E201C01D92E9
:10043000A730B107E1F70E94F2180C94A725E0CD90
:10044000089580E00895CF93DF93C0ECD1E022E0DF
:100450002A87EAE1F0E0E491A0ECB4E0DA96EC93CC
:10046000DA972A87EBE1F0E0E491DB96EC93DB97F7
:1004700083E0E0E4F0E0848380E090E216968D93E0
:100480009C93179713961C9213971092002033E4B5
:10049000309301208FEB91E280930420909305200C
:1004A00020930820309309208DE791E280930C205F
:1004B00090930D2082EC8C9311968C911197816012
:1004C00011968C931197DF91CF91089583E0E0E42A
:1004D000F0E08483E0ECF4E080E090E286839783B0
:1004E00013821092002023E4209301208FEB91E2ED
:1004F000809304209093052082E08093082020932D
:1005000009208DE791E280930C2090930D2082ECDE
:10051000808381818160818308950F939C01E0EC49
:10052000F1E0128661157105D1F0CB014DE751E282
:10053000DA01F9012F5F3F4FE491ED930197C9F77D
:1005400070E040930C2050930D2060930A2070932C
:100550000B20E8E0F0E202E206930F9108954DE7E8
:1005600051E2EECF84E0E0E5F0E0868382E0E0EC6B
:10057000F1E08287ECE1F0E0E491A0E6B0E01396D0
:10058000EC9313978BE115968C93159787EB169642
:100590008C93169781E08093600088ED84BF83E0A0
:1005A000809350008091510081FFFCCF80E1E0E515
:1005B000F0E0858388ED84BF83E1809350008091D3
:1005C000510084FFFCCF81E08093680088ED84BFF8
:1005D00084E080934000E0E4F0E0118208950F93FE
:1005E000CF93DF9300D0CDB7DEB78091BF21807667
:1005F00079F48091C021863009F4C9C0873090F029
:10060000893009F44CC08A3040F5883009F480C044
:100610008FEB91E20E9482170F900F90DF91CF91A4
:100620000F910895813031F1813008F087C0109228
:100630007D2110927E218DE791E280930C20909392
:100640000D2082E090E080930A2090930B20E8E058
:10065000F0E202E2069381E0DFCF8A3009F451C074
:100660008B30B1F68091C3216091C121EADE8823ED
:1006700009F447C08DE791E280930C2090930D2000
:1006800010920A2010920B20E8E0F0E202E20693BA
:1006900081E00F900F90DF91CF910F91089580E04E
:1006A00091E060E0AE014F5F5F4F0E94BC1888236D
:1006B00041F1E0ECF1E01286E981FA817196E49172
:1006C0002091C121E217E8F08DE791E280930C20A0
:1006D00090930D2010920A2010920B20E8E0F0E297
:1006E00002E206932093BE218091BE21882309F463
:1006F000B5C084E08093BD218091BE21B9D081E056
:100700008BCF80E00F900F90DF91CF910F910895E4
:100710008091BE2180937D218DE791E280930C2012
:1007200090930D2081E090E080930A2090930B201D
:10073000E8E0F0E202E2069381E06ECF833009F454
:1007400099CF853009F064CF2091C1212F77E0E067
:10075000F0E202E706938DE791E280930C209093FC
:100760000D2010920A2010920B20389602E2069378
:100770008091082085FFFCCFE0ECF4E02383222366
:1007800009F05AC082E08093BD2181E045CFE0ECC2
:10079000F1E012868091C1219091C22123E08C3D2D
:1007A0009207C9F06091C321AE014F5F5F4F0E9475
:1007B000BC18009709F4A5CF29813A814091C52141
:1007C0005091C621BC014817590708F4BA01C90164
:1007D000A4DE81E021CF83E080937E216DE771E28A
:1007E0008AE380937D2182E08287E8E0F0E0E49173
:1007F000DB01129681E090E048E020EC31E052E02D
:10080000EF70EA30B0F0F0E0F796ED93FD93F1E28F
:10081000A73BBF0799F0F9015287E42FF0E0E4917C
:1008200080FF03C0E295EF704F5F0196EF70EA30F2
:1008300050F7F0E0F096E9CF83E0A5CF60930C206D
:1008400070930D208AE390E080930A2090930B2010
:10085000E8E0F0E202E2069381E0DECE8091C3049C
:10086000882321F084E08093BD2146CF81E0FBCF37
:100870002FB7F89410926B218FEF91E2809369214A
:1008800090936A21809367219093682188E190E298
:1008900036E03093182033E930931920FC01379764
:1008A0001082089732E0FC01308310927721109279
:1008B00078211092792110927A212FBF08951F92EA
:1008C0000F920FB60F9211242F933F934F935F9384
:1008D0006F937F938F939F93AF93BF93EF93FF9308
:1008E000E0ECF4E08091CA0487FD2AC08091CA043C
:1008F0008E7081F48091CA0480FD1FC080E78287DA
:100900008091C20480FF08C08091C2048E7F8283E0
:100910009ADD02C08EE08287FF91EF91BF91AF9187
:100920009F918F917F916F915F914F913F912F9107
:100930000F900FBE0F901F90189581E08287ECCF2B
:1009400080E88287E9CF1F920F920FB60F92112491
:100950000F932F933F934F935F936F937F938F9357
:100960009F93AF93BF93EF93FF93E0ECF4E0148277
:1009700083E084872FB7F894809118208670C9F49B
:100980002FBF8091002084FD4FC085FD74C0FF9172
:10099000EF91BF91AF919F918F917F916F915F91F7
:1009A0004F913F912F910F910F900FBE0F901F907D
:1009B000189530916B2113160CF07BC08091672144
:1009C000909168214091772151E0413009F43EC077
:1009D00050937721442309F43FC0809314209093CF
:1009E000152040E450E04093122050931320E8E19A
:1009F000F0E204E10693315030936B21805C9F4F0D
:100A0000809367219093682133E28F3F930709F029
:100A1000B7CF8FEF91E280936721909368212FBF2A
:100A20008091002084FFB1CFDADD882351F48091DA
:100A3000012084608093012080910920846080934C
:100A40000920E0E0F0E202E70693A1CF50E05093E6
:100A50007721442309F0C1CF80931C2090931D205F
:100A600040E450E040931A2050931B20E8E1F0E26C
:100A700002E20693C0CF4091022050910320809162
:100A80007321813EF1F66091722170E00024769529
:100A900067950794769567950794762F602D8FEB71
:100AA00091E250E00E948F23E0E0F0E202E706933B
:100AB0006ECF809178218130E1F0823009F060CFF3
:100AC000809118208670863009F05ACF10927821D4
:100AD0001092792110927A2110926B218FEF91E27E
:100AE0008093692190936A21809367219093682174
:100AF00047CF82E0809378217091672160916821CF
:100B00008091792190917A213091772141E03130A3
:100B100001F140937721472F562F332369F44093F7
:100B20001C2050931D2080931A2090931B20E8E1F5
:100B3000F0E202E2069324CF409314205093152054
:100B40008093122090931320E8E1F0E204E10693F1
:100B500017CF40E0DECFAF92BF92CF92DF92EF92FD
:100B6000FF920F931F93CF93DF93FC0120812223E9
:100B700009F473C0009709F470C06C010894C11C9B
:100B8000D11C46E068E170E23FEFA32E31E2B32EC4
:100B9000C1E0D0E050E4E52EF12C9FB7F8948091AD
:100BA0007821882339F180E09FBF8823B1F38091B9
:100BB000792190917A21E0916921F0916A21E80FE1
:100BC000F91F208301968093792190937A218034B4
:100BD0009105C1F0F6012191222309F43EC0C11410
:100BE000D10409F43AC06F019FB7F894809178213D
:100BF0008823C9F680916B21342F381B81E01316AE
:100C00009CF2D1CFBFB7F8941092792110927A213B
:100C100080916B218F5F80936B21809169219091EE
:100C20006A21805C9F4F8093692190936A21F3E24F
:100C30008F3F9F0721F4A0926921B0926A215FB78C
:100C4000F89480911820867009F04EC05FBFBFBF36
:100C5000F6012191222309F0C2CF81E0809378210F
:100C60002FB7F89480911820867009F0CCC02FBF60
:100C700082E0E0ECF4E0858736E09FB7F89480915D
:100C80007821882309F4B6C080E09FBF882309F546
:100C900080917621882389F32FB7F89410926B21E5
:100CA0008FEF91E28093692190936A21809367216D
:100CB00090936821E8E1F0E206E0059308E00693EE
:100CC000109278211092792110927A211092772136
:100CD0002FBFDF91CF911F910F91FF90EF90DF9089
:100CE000CF90BF90AF900895A0916B211A160CF091
:100CF0003CC02091672130916821E09177218E2FAF
:100D000090E0F1E08C179D0709F4F0E0F093772173
:100D1000EE23F9F420931C2030931D20E0921A203A
:100D2000F0921B20FB0102E20693A150A0936B21DD
:100D3000C901805C9F4F8093672190936821F3E203
:100D40008F3F9F0709F082CFA0926721B092682160
:100D50007DCF2093142030931520E0921220F09242
:100D60001320FB0104E10693E0CF809178218130CC
:100D7000D1F0823009F06ACF8091182086708630D9
:100D800009F064CF109278211092792110927A2183
:100D900010926B21A0926921B0926A21A0926721E2
:100DA000B092682153CF22E020937821A09167214F
:100DB000109168212091792130917A21F091772149
:100DC0008F2F90E0E1E08C179D0709F4E0E0E093BD
:100DD00077218A2F912FFF2309F04BC080931C208D
:100DE00090931D2020931A2030931B20FB0102E2D8
:100DF00006932CCF80916B21232F281B81E01216A4
:100E00000CF443CF41CF30916B2113160CF04CC042
:100E100080916721909168214091772151E0413084
:100E200009F450E050937721442379F580931C20F6
:100E300090931D2040E450E040931A2050931B20D3
:100E4000E8E1F0E202E20693315030936B21805CDE
:100E50009F4F8093672190936821F3E28F3F9F0714
:100E600009F005CF8FEF91E280936721909368217D
:100E7000FECE80931420909315202093122030935F
:100E80001320FB0104E10693E1CE8093142090939C
:100E9000152040E450E04093122050931320E8E1E5
:100EA000F0E204E10693D0CF809178218130E1F027
:100EB000823009F0DCCE809118208670863009F0EF
:100EC000D6CE109278211092792110927A21109228
:100ED0006B218FEF91E28093692190936A21809337
:100EE000672190936821C3CE82E08093782160913E
:100EF0006721309168214091792150917A21809128
:100F0000772191E0813009F490E090937721882354
:100F100079F4862F932F80931C2090931D2040936B
:100F20001A2050931B20E8E1F0E202E206939FCEE4
:100F3000862F932F80931420909315204093122096
:100F400050931320E8E1F0E204E1069390CEEF9293
:100F5000FF920F931F93CF93DF93F82EE92E162F56
:100F6000072FA82FB92FED0109900020E9F79E0166
:100F7000E62FF72FEF0109900020E9F7CE01019746
:100F80008E1B9F0B8A1B9B0B820F931F0E947E2040
:100F9000D82FC92F6F2D7E2D0E94A1228D2F9C2F1F
:100FA000612F702F0E9496228D2F9C2FDF91CF9161
:100FB0001F910F91FF90EF9008952F923F924F92C3
:100FC0005F926F927F928F929F92AF92BF92CF92D9
:100FD000DF92EF92FF920F931F93CF93DF93CDB7E2
:100FE000DEB72697CDBFDEBF4B015C0129833A8374
:100FF0004B835C83C0906321D0906421E090652195
:10100000F0906621A70196010E94691D25E33AEF41
:101010004EE85CE30E94551F20E030E040E05FE3D3
:101020000E94551F0E94B81F9B01AC010E94551FD2
:10103000362E272E8D839E83C701B60125E33AEF16
:101040004EE85CE30E94551F0E94301E7B018C011C
:10105000C501B40125E33AEF4EE85CE30E94551F59
:101060000E94301E2B013C0169817A818B819C8119
:1010700020915F2130916021409161215091622146
:101080000E94691D25E33AEF4EE85CE30E94551F7C
:1010900020E030E040E05FE30E94551F0E94B81F4F
:1010A0009B01AC010E94551FB62ED72E882EC92E4B
:1010B000C801B701A30192010E94551F0B2D1D2DE0
:1010C000282D3C2DA90198010E94551F9B01AC01C0
:1010D000F1017D816E818F2F9E2FA72FB62FBC012E
:1010E000CD010E946A1D862E072F382E492E982F7B
:1010F000482D502F692F742DCB01BA010E94C21FB9
:101100006B017C0160E070E080E89FE3E02F082D38
:101110001E2F232D342DA90198010E94691D0E94C4
:10112000C21F9B01AC01C701B6010E94DD1D9B01DE
:10113000AC010E946A1D20E038EF46EC55E40E94A5
:10114000551F462F572F682F792FCB01BA012696AE
:10115000CDBFDEBFDF91CF911F910F91FF90EF9038
:10116000DF90CF90BF90AF909F908F907F906F90C7
:101170005F904F903F902F900895EF92FF920F93C2
:101180001F93CF93DF93CDB7DEB7A897CDBFDEBF58
:101190007B0160E370E20E949322009779F08E0158
:1011A0000D5F1F4F80E090E060E370E20E949322A9
:1011B000F801819391938F010097A1F70B851C850E
:1011C0008F8198850E94AD2120E030E048EC52E408
:1011D0000E94331EDC01CB01F70180839183A2833F
:1011E000B383C8010E94AD2120E030E048EC52E416
:1011F0000E94331EDC01CB01F70184839583A68313
:10120000B783A896CDBFDEBFDF91CF911F910F911D
:10121000FF90EF9008952F923F924F925F926F92BE
:101220007F928F929F92AF92BF92CF92DF92EF9276
:10123000FF920F931F93CF93DF93CDB7DEB7C653C3
:10124000D140CDBFDEBF82E390E260E370E20E9456
:101250009322009779F08E010D5F1F4F80E090E0A0
:1012600060E370E20E949322D8018D939D938D01DB
:101270000097A1F70B851C858F8198850E94AD2171
:1012800020E030E048EC52E40E94331EA62E872E68
:10129000482E292EC8010E94AD2120E030E048EC04
:1012A00052E40E94331EB62E972E382EC15DDE4FBB
:1012B0009883CF52D1408A2D982DA42DB22DBC01F8
:1012C000CD01C15DDE4F4881CF52D1400B2D192D8C
:1012D000232D342FA901980170DE6B017C018CE372
:1012E00090E00E947E20CD5CDE4F8883C353D140C6
:1012F000CC5CDE4F9883C453D140C701B601209126
:101300005B2130915C2140915D2150915E210E94D2
:101310004A1F18160CF4CAC081E0809378215FB789
:10132000F89480911820867081F140916B211416F9
:101330000CF09BC0809167219091682120917721CA
:1013400031E0213009F430E030937721222309F095
:1013500076C080931C2090931D2020E430E02093E1
:101360001A2030931B20E8E1F0E202E2069341509C
:1013700040936B21805C9F4F8093672190936821FD
:10138000B3E28F3F9B0709F469C05FBF82E0E0ECE6
:10139000F4E0858796E02FB7F89480917821882330
:1013A00009F444C080E02FBF882309F5809176219D
:1013B000882389F32FB7F89410926B218FEF91E275
:1013C0008093692190936A2180936721909368218B
:1013D000E8E1F0E206E0059308E006931092782138
:1013E0001092792110927A21109277212FBFCD5C33
:1013F000DE4FE881F981C353D14080819181CA5C7D
:10140000DE4FCDBFDEBFDF91CF911F910F91FF90D7
:10141000EF90DF90CF90BF90AF909F908F907F9094
:101420006F905F904F903F902F90089580916B2127
:10143000392F381B81E013160CF4B5CFB3CF80934E
:1014400014209093152020E430E020931220309354
:101450001320E8E1F0E204E1069389CF8FEF91E2F7
:10146000809367219093682190CF8091782181307B
:1014700009F4A8C3823009F088CF809118208670C3
:10148000863009F082CF1092782110927921109243
:101490007A2110926B218FEF91E2809369219093D2
:1014A0006A2180936721909368216FCFEDB7FEB7D3
:1014B0003897EDBFFEBF319649EC642E712C6C0E4F
:1014C0007D1EADB7BEB711966D927C92129702E762
:1014D00010E2028313832A2D382D442D522DC90189
:1014E000DA0184839583A683B7830E940623EDB730
:1014F000FEB7319655E6452E512C4C0E5D1EADB70C
:10150000BEB711964D925C921297028313832B2DD6
:10151000392D432DC15DDE4F5881CF52D140C901D5
:10152000DA0184839583A683B7830E940623EDB7EF
:10153000FEB731969E012F5F3F4FC35DDE4F28837C
:101540003983CD52D140ADB7BEB711962D933C93A0
:10155000129702831383C482D582E682F7820E94A7
:101560000623F30101900020E9F73197E619F70906
:10157000D2010D900020E9F71197A419B509CF5CAD
:10158000DE4FA883B983C153D140C35DDE4FA8812C
:10159000B981CD52D1400D900020E9F71197C35D7C
:1015A000DE4F28813981CD52D140A21BB30BC15DE2
:1015B000DE4FA883B983CF52D1408DB79EB708962E
:1015C0008DBF9EBF1E161F060CF042C04301D30103
:1015D000AE0FBF1FCB5CDE4FA883B983C553D1408C
:1015E00056E0A8E1B0E29FEF292E91E2392E21E0EA
:1015F000E22EF12C30E4A32EB12CF40131914F01F5
:101600009FB7F89480917821882309F44CC180E039
:101610009FBF8823A9F38091792190917A21E0914D
:101620006921F0916A21E80FF91F308301968093B8
:10163000792190937A218034910509F43DC1CB5CE6
:10164000DE4F28813981C553D14082169306A9F611
:1016500096E02FB7F89480917821882309F4E2C1AD
:1016600080E02FBF8823A9F38091792190917A217E
:10167000E0916921F0916A21E80FF91F20E22083AF
:1016800001968093792190937A218034910509F411
:10169000BEC2CF5CDE4F28813981C153D1401216C2
:1016A00013060CF044C04201240D351DCF5CDE4F03
:1016B00028833983C153D14056E0B8E1EB2EB0E224
:1016C000FB2E1FEF212E11E2312E12E001E0C02E81
:1016D000D12C80E4A82EB12CD4012D914D019FB7BF
:1016E000F89480917821882309F4A5C180E09FBFF8
:1016F0008823A9F38091792190917A21E091692141
:10170000F0916A21E80FF91F2083019680937921D7
:1017100090937A218034910509F496C1CF5CDE4F15
:1017200028813981C153D14082169306A9F696E0EB
:101730002FB7F89480917821882309F43AC280E089
:101740002FBF8823A9F38091792190917A21E0918C
:101750006921F0916A21E80FF91F20E220830196A8
:101760008093792190937A218034910509F4BEC346
:10177000C15DDE4F28813981CF52D1401216130648
:101780000CF047C04E010894811C911C280D391D96
:10179000C15DDE4F28833983CF52D14076E068E1C6
:1017A000E62E60E2F62EEFEF2E2EE1E23E2E12E064
:1017B000F1E0CF2ED12CA0E4AA2EB12CD4012D9192
:1017C0004D019FB7F89480917821882309F4D0C205
:1017D00080E09FBF8823A9F38091792190917A219D
:1017E000E0916921F0916A21E80FF91F20830196A9
:1017F0008093792190937A218034910509F4C1C2B4
:10180000C15DDE4F28813981CF52D14082169306C7
:10181000A9F6D3010D900020E9F7CD0186199709AB
:1018200001960E947E20E92E082F192FC801B301CE
:101830000E94A122E02FFE2DDF010D900020E9F78C
:101840001197AE1BBF0BA00FB11F8CE290E08D93E0
:101850009C93A02FBE2DFD0101900020E9F79F0170
:10186000F20101900020E9F7CF0101978419950951
:101870008A1B9B0B820F931F0E947E20E82EC92E8D
:10188000B8010E94A1228E2D9C2DB2010E949622A9
:10189000CD5CDE4FA881B981C353D140EC92119643
:1018A000CC92119739CD80916B21252F281B81E097
:1018B00012160CF4ADCEABCECFB6F89410927921BF
:1018C00010927A2180916B218F5F80936B218091A0
:1018D000692190916A21805C9F4F80936921909348
:1018E0006A21F3E28F3F9F0721F420926921309211
:1018F0006A211FB7F89480911820867019F41FBFD1
:10190000CFBE9DCE20916B2112160CF03BC0609192
:1019100067217091682130917721832F90E041E019
:101920008E159F0509F440E0409377213323F1F4AD
:1019300060931C2070931D20A0921A20B0921B204F
:10194000FD0102E20693215020936B21CB01805CC4
:101950009F4F8093672190936821F3E28F3F9F0709
:1019600071F62092672130926821C9CF60931420CC
:1019700070931520A0921220B0921320FD0104E173
:101980000693E1CF809178218130D1F0823009F047
:10199000B6CF809118208670863009F0B0CF1092B3
:1019A00078211092792110927A2110926B21209245
:1019B000692130926A2120926721309268219FCF5D
:1019C00022E02093782170916721E0916821209195
:1019D000792130917A2160917721862F90E041E042
:1019E0008E159F0509F440E040937721872F9E2FA5
:1019F000662361F480931C2090931D2020931A206D
:101A000030931B20FD0102E2069379CF80931420CE
:101A1000909315202093122030931320FD0104E1B0
:101A200006936DCF80916B21392F381B81E01316FF
:101A30000CF417CE15CE80916B21352F381B81E029
:101A400013160CF454CE52CEBFB7F89410927921ED
:101A500010927A2180916B218F5F80936B2180910E
:101A6000692190916A21805C9F4F809369219093B6
:101A70006A21E3E28F3F9E0721F420926921309290
:101A80006A21AFB7F89480911820867019F4AFBF1F
:101A9000BFBF44CE20916B2112160CF03BC0609169
:101AA00067217091682130917721832F90E041E088
:101AB0008C159D0509F440E0409377213323F1F420
:101AC00060931C2070931D20A0921A20B0921B20BE
:101AD000F70102E20693215020936B21CB01805C39
:101AE0009F4F8093672190936821F3E28F3F9F0778
:101AF00071F62092672130926821C9CF609314203B
:101B000070931520A0921220B0921320F70104E1E7
:101B10000693E1CF809178218130D1F0823009F0B5
:101B2000B6CF809118208670863009F0B0CF109221
:101B300078211092792110927A2110926B212092B3
:101B4000692130926A2120926721309268219FCFCB
:101B50001093782170916721E0916821209179217B
:101B600030917A2160917721862F90E041E08C15A9
:101B70009D0509F440E040937721872F9E2F66232F
:101B800061F480931C2090931D2020931A203093A1
:101B90001B20F70102E206937ACF809314209093E2
:101BA00015202093122030931320F70104E10693AF
:101BB0006ECF80916B21392F381B81E013160CF406
:101BC000BFCDBDCD82E080937821609167214091A7
:101BD00068218091792190917A212091772131E0BB
:101BE000213009F430E030937721222309F02AC212
:101BF000262F342F20931C2030931D2080931A20F1
:101C000090931B20E8E1F0E202E20693BECB7FB79F
:101C1000F8941092792110927A2180916B218F5F34
:101C200080936B218091692190916A21805C9F4F04
:101C30008093692190936A2133E28F3F930731F4B7
:101C40008FEF91E28093692190936A216FB7F894A6
:101C500080911820867081F140916B2114160CF050
:101C60003DC020916721309168219091772181E0DA
:101C7000913009F480E080937721992301F5209336
:101C80001C2030931D2080E490E080931A209093D4
:101C90001B20E8E1F0E202E20693842F815080935A
:101CA0006B21C901805C9F4F8093672190936821CD
:101CB000A3E28F3F9A0781F16FBF7FBFEACC2093E9
:101CC00014203093152080E490E0809312209093AC
:101CD0001320E8E1F0E204E10693DFCF8091782160
:101CE000813009F1823041F780911820867086306A
:101CF00019F7109278211092792110927A2110927E
:101D00006B218FEF91E28093692190936A218093F8
:101D1000672190936821D0CF8FEF91E28093672164
:101D200090936821C9CF82E0809378214091672108
:101D3000509168218091792190917A213091772179
:101D400021E0313009F420E020937721242F332340
:101D500009F087C1352F20931C2030931D208093DC
:101D60001A2090931B20E8E1F0E202E20693A4CF50
:101D700080916B21372F381B81E013160CF429CD8D
:101D800027CDBFB7F8941092792110927A218091D3
:101D90006B218F5F80936B218091692190916A21E3
:101DA000805C9F4F8093692190936A21E3E28F3F8B
:101DB0009E0721F42092692130926A21AFB7F894EE
:101DC00080911820867019F4AFBFBFBF19CD209144
:101DD0006B2112160CF03BC0409167215091682195
:101DE00030917721832F90E061E08C159D0509F4F7
:101DF00060E0609377213323F1F440931C205093EB
:101E00001D20A0921A20B0921B20F70102E2069337
:101E1000215020936B21CA01805C9F4F80936721E2
:101E200090936821F3E28F3F9F0771F6209267211C
:101E300030926821C9CF4093142050931520A0926E
:101E40001220B0921320F70104E10693E1CF8091B4
:101E500078218130D1F0823009F0B6CF80911820FE
:101E60008670863009F0B0CF1092782110927921D7
:101E700010927A2110926B212092692130926A216E
:101E800020926721309268219FCF10937821609132
:101E90006721E09168212091792130917A21509138
:101EA0007721852F90E041E08C159D0509F440E0F5
:101EB00040937721862F9E2F552361F480931C2019
:101EC00090931D2020931A2030931B20F70102E2EB
:101ED00006937ACF8093142090931520209312209C
:101EE00030931320F70104E106936ECF7FB7F89487
:101EF0001092792110927A2180916B218F5F8093CB
:101F00006B218091692190916A21805C9F4F809321
:101F1000692190936A2133E28F3F930731F48FEF69
:101F200091E28093692190936A216FB7F894809130
:101F30001820867071F140916B2114160CF03BC093
:101F400080916721909168212091772131E02130A3
:101F500009F430E0309377212223F1F480931C20A0
:101F600090931D2020E430E020931A2030931B2012
:101F7000E8E1F0E202E20693415040936B21805C7D
:101F80009F4F8093672190936821A3E28F3F9A0728
:101F900081F16FBF7FBFECCB80931420909315200D
:101FA00020E430E02093122030931320E8E1F0E2A7
:101FB00004E10693E1CF80917821813009F18230EC
:101FC00041F7809118208670863019F71092782199
:101FD0001092792110927A2110926B218FEF91E269
:101FE0008093692190936A2180936721909368215F
:101FF000D0CF8FEF91E28093672190936821C9CF72
:1020000082E08093782140916721509168218091EE
:10201000792190917A212091772131E0213009F4C2
:1020200030E030937721222351F540931C205093C8
:102030001D2080931A2090931B20E8E1F0E202E239
:102040000693A7CF262F342F2093142030931520EA
:102050008093122090931320E8E1F0E204E10693CC
:1020600094C9352F2093142030931520809312208B
:1020700090931320E8E1F0E204E106931DCE409333
:102080001420509315208093122090931320E8E1A0
:10209000F0E204E106937DCFFB018A3039F09181B3
:1020A00095FFFDCF808380E090E00895918195FFBA
:1020B000FDCF9DE09083F3CFFC01818187FFFDCFB1
:1020C000808108954F925F926F927F928F929F923C
:1020D000AF92BF92CF92DF92EF92FF920F931F9336
:1020E000CF93DF93EC017B01DC010D900020E9F739
:1020F000CD018C1B9D0B01960E947E20A92EC82E1F
:10210000D92EC601BE010E94A122AC2DBA2DFD011F
:1021100001900020E9F73197EA1BFB0BEC0DFD1D48
:102120008DE090E080839183D6E0C8E16C2EC0E220
:102130007C2E1FEF412E11E2512E12E001E0A02E65
:10214000B12C20E4822E912CD601CD916D01CC23AF
:1021500009F45CC0CA3009F4D7C0F701818185FF5A
:10216000FCCFC08380917521813071F7D701119622
:102170008C91119787FFFACF2C919FB7F89480919B
:102180007821882309F458C080E09FBF8823A9F3F1
:102190008091792190917A21E0916921F0916A21D1
:1021A000E80FF91F208301968093792190937A217B
:1021B0008034910549F6AFB7F894109279211092C6
:1021C0007A2180916B218F5F80936B2180916921AF
:1021D00090916A21805C9F4F8093692190936A213E
:1021E000B3E28F3F9B0721F44092692150926A210C
:1021F0005FB7F89480911820867039F55FBFAFBF44
:10220000D601CD916D01CC2309F0A4CF8091752129
:10221000813009F4B5C0DF91CF911F910F91FF90EC
:10222000EF90DF90CF90BF90AF909F908F907F9076
:102230006F905F904F90089580916B213D2F381BD8
:1022400081E013160CF4A1CF9FCF40916B2114169F
:102250000CF03CC02091672130916821609177217A
:10226000862F90E071E08A159B0509F470E0709369
:1022700077216623F9F420931C2030931D2080924F
:102280001A2090921B20F30102E2069341504093E2
:102290006B21C901805C9F4F8093672190936821D7
:1022A000F3E28F3F9F0709F0A9CF40926721509238
:1022B0006821A4CF209314203093152080921220FF
:1022C00090921320F30104E10693E0CF80917821EE
:1022D0008130F1F0823009F091CF80911820867022
:1022E000863009F08BCF10927821109279211092CC
:1022F0007A2110926B214092692150926A2140927A
:102300006721509268217ACF8DE0B701C5DE25CFD5
:102310001093782170916721E091682120917921B3
:1023200030917A2160917721862F90E041E08A15E3
:102330009B05F1F040937721872F9E2F662361F450
:1023400080931C2090931D2020931A2030931B20F3
:10235000F30102E2069352CF80931420909315204C
:102360002093122030931320F30104E1069346CF0B
:1023700040E040937721872F9E2F662369F7E0CFB7
:10238000809378212FB7F89480911820867009F0F7
:102390003BC02FBF82E0E0ECF4E0858736E09FB7DA
:1023A000F89480917821882339F180E09FBF8823B9
:1023B00009F031CF80917621882389F32FB7F894E3
:1023C00010926B218FEF91E28093692190936A21A3
:1023D0008093672190936821E8E1F0E206E005939D
:1023E00008E00693109278211092792110927A21B8
:1023F000109277212FBF0FCF80916B21232F281BA5
:1024000081E012169CF2D1CF30916B2113160CF0A3
:1024100040C080916721909168214091772151E0DF
:10242000413009F450E050937721442319F580930B
:102430001C2090931D2040E450E040931A205093BC
:102440001B20E8E1F0E202E20693315030936B2169
:10245000805C9F4F8093672190936821B3E28F3F08
:102460009B0709F096CF8FEF91E2809367219093BD
:1024700068218FCF809314209093152040E450E082
:102480004093122050931320E8E1F0E204E1069318
:10249000DCCF809178218130E1F0823009F079CF72
:1024A000809118208670863009F073CF10927821C1
:1024B0001092792110927A2110926B218FEF91E284
:1024C0008093692190936A2180936721909368217A
:1024D00060CF82E0809378216091672130916821FC
:1024E0004091792150917A218091772191E081303A
:1024F00009F490E090937721882379F4862F932F25
:1025000080931C2090931D2040931A2050931B20F1
:10251000E8E1F0E202E206933CCF862F932F80930E
:102520001420909315204093122050931320E8E13B
:10253000F0E204E106932DCFCF93DF938FEF97EA7C
:10254000A1E681509040A040E1F700C0000085E77F
:1025500090E20E94AB05C0E6D6E089818062898363
:102560008D818F7D8D838981806189838D8180625A
:102570008D838FEF93E2A4EFB0E081509040A040B4
:10258000B040D9F700C000008BE790E20E94AB0595
:1025900080E28F838FEF97EAA1E681509040A040C0
:1025A000E1F700C000008AE890E20E94AB05898153
:1025B000886089838D8188608D83DF91CF910895B4
:1025C000E0E6F6E081818062818387818062878393
:1025D0008FEF97EAA1E681509040A040E1F700C05C
:1025E000000008950F931F93CF93DF93CDB7DEB70D
:1025F000A097CDBFDEBF8FEF97EAA1E68150904054
:10260000A040E1F700C0000085E790E20E94AB0522
:1026100000E616E0809161068062D80111968C93E5
:102620001197809165068F7D15968C9315978091F3
:102630006106806111968C93119780916506806286
:1026400015968C938FEF93E2A4EFB0E08150904009
:10265000A040B040D9F700C000008BE790E20E9494
:10266000AB0580E2D80117968C938FEF97EAA1E62D
:1026700081509040A040E1F700C000008AE890E25D
:102680000E94AB05809161068860D80111968C93F9
:10269000119780916506886015968C938BE08093E6
:1026A000A60980E98093A709E0EAF9E0138288E1AE
:1026B000848383E08583DE011196EAEBF0E280E219
:1026C00001900D928150E1F700E010E081E090E090
:1026D0008C0F9D1F800F911F60EA79E0F3DC0F5F84
:1026E0001F4F0032110591F786E990E20E94AB0579
:1026F0008CE08093A6091092A709A096CDBFDEBFFB
:10270000DF91CF911F910F910895AF92BF92CF9219
:10271000DF92EF92FF920F931F93CF93DF938AED97
:1027200090E20E94AB0535E0C32ED12C46E068E173
:1027300070E25FEFA52E51E2B52EC1E0D0E0E0E4FB
:10274000EE2EF12C8091A10987FFFCCF2091A009EA
:102750009FB7F89480917821882309F465C080E0C0
:102760009FBF8823A9F38091792190917A21E091EC
:102770006921F0916A21E80FF91F20830196809367
:10278000792190937A218034910509F45FC00894EF
:10279000C108D108C114D104A9F681E08093782141
:1027A0002FB7F89480911820867009F0D4C02FBFFD
:1027B00082E0E0ECF4E0858736E09FB7F894809102
:1027C0007821882309F439C080E09FBF882309F568
:1027D00080917621882389F32FB7F89410926B218A
:1027E0008FEF91E28093692190936A218093672112
:1027F00090936821E8E1F0E206E0059308E0069393
:10280000109278211092792110927A2110927721DA
:102810002FBFDF91CF911F910F91FF90EF90DF902D
:10282000CF90BF90AF90089580916B21342F381BCB
:1028300081E013160CF494CF92CF80916B21232F5B
:10284000281B81E012160CF4C0CFBECFBFB7F8949E
:102850001092792110927A2180916B218F5F809361
:102860006B218091692190916A21805C9F4F8093B8
:10287000692190936A2123E28F3F920721F4A0926D
:102880006921B0926A215FB7F89480911820867010
:1028900019F45FBFBFBF7BCFA0916B211A160CF05C
:1028A0003BC02091672130916821E09177218E2FE4
:1028B00090E0F1E08C179D0709F4F0E0F0937721A8
:1028C000EE23F1F420931C2030931D20E0921A2077
:1028D000F0921B20FB0102E20693A150A0936B2112
:1028E000C901805C9F4F8093672190936821F3E238
:1028F0008F3F9F0771F6A0926721B0926821C9CFE0
:102900002093142030931520E0921220F09213208F
:10291000FB0104E10693E1CF80917821813009F435
:1029200051C0823009F0B5CF809118208670863072
:1029300009F0AFCF109278211092792110927A216C
:1029400010926B21A0926921B0926A21A092672116
:10295000B09268219ECF30916B2113160CF073C09A
:1029600080916721909168214091772151E0413019
:1029700009F450E050937721442309F049C0809333
:102980001C2090931D2040E450E040931A20509367
:102990001B20E8E1F0E202E20693315030936B2114
:1029A000805C9F4F8093672190936821F3E28F3F73
:1029B0009F0709F0FCCE8FEF91E2809367219093FF
:1029C0006821F5CE22E020937821A0916721109113
:1029D00068212091792130917A21F09177218F2FF0
:1029E00090E0E1E08C179D0709F4E0E0E0937721A7
:1029F0008A2F912FFF23D9F480931C2090931D20C0
:102A000020931A2030931B20FB0102E2069341CF52
:102A1000809314209093152040E450E040931220BE
:102A200050931320E8E1F0E204E10693B6CF8093DF
:102A30001420909315202093122030931320FB0133
:102A400004E1069326CF809178218130E1F0823035
:102A500009F0ADCE809118208670863009F0A7CE9F
:102A6000109278211092792110927A2110926B2184
:102A70008FEF91E28093692190936A21809367217F
:102A80009093682194CE82E08093782160916721B1
:102A9000309168214091792150917A21809177215C
:102AA00091E0813009F490E090937721882379F4C4
:102AB000862F932F80931C2090931D2040931A20E3
:102AC00050931B20E8E1F0E202E2069370CE862FDD
:102AD000932F8093142090931520409312205093AD
:102AE0001320E8E1F0E204E1069361CE0895E0E608
:102AF000F6E088E08183858386E08093A6091092C2
:102B0000A709E0EAF9E0138288E1848383E0858302
:102B10000895BF92CF92DF92EF92FF920F931F938F
:102B2000CF93DF93D82EC92E7B01EA01898185FFDF
:102B3000FDCF8DE088838FEF93ECA9E0815090402A
:102B4000A040E1F700C000008DEE90E2BE01BADACD
:102B50008FEF93ECA9E081509040A040E1F700C0D6
:102B60000000ED2DFC2DDF010D900020E9F7CD01D7
:102B70008E1B9F0B09960E947E20182F092FE82F8D
:102B8000F92FA7EFB0E28AE00D9001928150E1F7B2
:102B9000812F902F6D2D7C2D0E949622E12FF02FFA
:102BA000DF010D900020E9F7CD018E1B9F0B0196F0
:102BB0000E947E20B92EC82ED92EC601612F702FFB
:102BC0000E94A122AC2DBB2DFD0101900020E9F750
:102BD0003197EA1BFB0BEC0DFD1D82E290E0808338
:102BE0009183C601BE016EDA8FEF93ECA9E08150AC
:102BF0009040A040E1F700C00000C701BE0162DACA
:102C00008FEF93ECA9E081509040A040E1F700C025
:102C10000000898185FFFDCF8AE188838FEF93ECE7
:102C2000A9E081509040A040E1F700C0000081E0A1
:102C3000809378212FB7F89480911820867009F03E
:102C400043C02FBF82E0E0ECF4E0858736E09FB719
:102C5000F89480917821882379F180E09FBF8823C0
:102C600009F580917621882391F32FB7F89410927B
:102C70006B218FEF91E28093692190936A21809379
:102C8000672190936821E8E1F0E206E0059308E00F
:102C90000693109278211092792110927A21109245
:102CA00077212FBFDF91CF911F910F91FF90EF9070
:102CB000DF90CF90BF90089580916B21232F281B28
:102CC00081E012165CF2C9CF30916B2113160CF023
:102CD00040C080916721909168214091772151E017
:102CE000413009F450E050937721442319F5809343
:102CF0001C2090931D2040E450E040931A205093F4
:102D00001B20E8E1F0E202E20693315030936B21A0
:102D1000805C9F4F8093672190936821A3E28F3F4F
:102D20009A0709F08ECF8FEF91E2809367219093FD
:102D3000682187CF809314209093152040E450E0C1
:102D40004093122050931320E8E1F0E204E106934F
:102D5000DCCF809178218130E1F0823009F071CFB1
:102D6000809118208670863009F06BCF1092782100
:102D70001092792110927A2110926B218FEF91E2BB
:102D80008093692190936A218093672190936821B1
:102D900058CF82E08093782160916721309168213B
:102DA0004091792150917A218091772191E0813071
:102DB00011F190937721882379F4862F932F8093B4
:102DC0001C2090931D2040931A2050931B20E8E173
:102DD000F0E202E2069335CF862F932F80931420E2
:102DE000909315204093122050931320E8E1F0E2D5
:102DF00004E1069326CF90E0DCCFBC018DEE90E29B
:102E000061C9BC0181E091E25DC9BC018CE091E245
:102E100059C9BC0186E191E255C9CF92DF92EF9288
:102E2000FF920F931F93CF93DF93CDB7DEB78C0143
:102E3000CDB6DEB600D0EDB6FEB60894E11CF11CAE
:102E4000D80111968C91119785FFFACF81E48C936C
:102E500080E291E20E94AB058FEF93E2A4EFB0E035
:102E600081509040A040B040D9F700C0000085E2FA
:102E700091E2B80127D988E291E20E94AB058FEF79
:102E800093ECA9E081509040A040E1F700C0000021
:102E9000D80111968C91119787FFFACF8C91F70189
:102EA00080831182C7010E94AB058DEE90E2B801CC
:102EB00009D98DE291E20E94AB058FEF9FE1AEE46C
:102EC00081509040A040E1F700C0000087E391E20C
:102ED000B801F8D881E491E20E94AB058FEF97EA40
:102EE000A1E681509040A040E1F700C00000CDBEB7
:102EF000DEBEDF91CF911F910F91FF90EF90DF9099
:102F0000CF9008950F931F93CF93DF939C01ADE76C
:102F1000B1E28D018DEB91E2FD01119241E2ED3BB9
:102F2000F407D9F710927321F901C081D0E0C0767F
:102F3000D070C034D10531F080E0DF91CF911F9186
:102F40000F9108954181463109F4E7C0473108F1F6
:102F50004B3B09F490C04C3B08F048C0473161F747
:102F60000480F581E02D808180937D218181809393
:102F70007E2100930C2010930D2082E090E080933E
:102F80000A2090930B20E8E0F0E202E2069381E051
:102F9000D4CF423009F4A0C0433068F4442361F632
:102FA00084819581009709F4C9C08130910509F4A5
:102FB000BDC081E0C2CF4830A9F1493009F0BCCF93
:102FC0000480F581E02D808180937D2100930C2089
:102FD00010930D2081E090E080930A2090930B20C5
:102FE000E8E0F0E202E2069381E0A7CF403E19F16B
:102FF000413E09F0A1CF40937321848180937221D7
:1030000000930C2010930D2010920A2010920B2098
:10301000E8E0F0E202E2069381E0DF91CF911F91B8
:103020000F910895D9010480F581E02D12968C91BD
:1030300012978083E5CFF90164817581002476952C
:1030400067950794769567950794762F602D8DE7A1
:1030500091E240E450E00E94842300930C201093FE
:103060000D20C0930A20D0930B20E8E0F0E202E2AA
:10307000069381E062CFF89400930C2010930D200A
:1030800010920A2010920B20E8E0F0E202E2069390
:10309000389702E706938091002085FFFCCF8FEFE1
:1030A00099EFA0E081509040A040E1F700C00000FF
:1030B0008091C1048E7FE0ECF4E081838FEF93EC8C
:1030C000A9E081509040A040E1F700C00000ECEF83
:1030D000F7E4099581E031CF3091FF23209100245E
:1030E000C32FD22FFE0101900020E9F73197E31B97
:1030F00029912D938A179B07D9F78E2F90E0009383
:103100000C2010930D2080930A2090930B20E8E070
:10311000F0E202E2069381E010CFF901828193810F
:103120000480F581E02D808391836ACF87E492E06B
:103130006BE070E00E948D0281E0FFCE82E592E0BC
:103140006BE070E00E948D0281E0F7CE462F209167
:103150007321213E09F008952091722130E000246E
:10316000369527950794369527950794322F202D6D
:10317000B90150E00C948F239230F9F09330A1F014
:10318000913049F080E090E0E0E0F0E0DA01ED938A
:10319000FC931197089582E190E0E5EBF2E0DA010B
:1031A000ED93FC9311970895813081F0813098F46C
:1031B000E1E9F2E0849190E0E9CF80E290E0E5E996
:1031C000F2E0DA01ED93FC9311970895E3E7F2E062
:1031D000849190E0DBCF8230A9F6EDE5F2E08491B6
:1031E00090E0D4CF0E94B2020E942302E0ECF4E00F
:1031F00082E4808783E08187E0EAF0E0828378944C
:10320000F1D981E0809378212FB7F894809118202C
:10321000867009F486C030916B2113160CF07BC0C8
:1032200080916721909168214091772151E0413050
:1032300009F450E050937721442309F0BCC08093F7
:103240001C2090931D2040E450E040931A2050939E
:103250001B20E8E1F0E202E20693315030936B214B
:10326000805C9F4F809367219093682133E28F3F6A
:10327000930709F499C08FEF91E22FBF22E0A0ECF1
:10328000B4E01D962C931D9736E04FB7F89420912B
:103290007821222309F436C020E04FBF2223E9F42D
:1032A00020917621222389F32FB7F89410926B2175
:1032B0008093692190936A2180936721909368217C
:1032C00006E0059308E00693109278211092792188
:1032D00010927A21109277212FBF17DAE0E6F6E0FC
:1032E0008091610680628183809167068062878316
:1032F0008FEF97EAA1E681509040A040E1F700C02F
:103300000000FFCF20916B21532F521B21E0151697
:103310000CF4C3CFC1CF809178218130F9F0823095
:1033200019F0E8E1F0E2A7CF80911820867086308E
:10333000C1F7109278211092792110927A2110927F
:103340006B218FEF91E28093692190936A218093A2
:10335000672190936821E8E1F0E28FCF82E08093CB
:1033600078216091672130916821409179215091B5
:103370007A218091772191E0813009F490E0909357
:103380007721882339F5862F932F80931C209093E3
:103390001D2040931A2050931B20E8E1F0E202E246
:1033A00006938FEF91E269CF8FEF91E280936721CF
:1033B0009093682162CF809314209093152040E46D
:1033C00050E04093122050931320E8E1F0E204E132
:1033D000069343CF862F932F80931420909315202C
:1033E0004093122050931320E8E1F0E204E10693A9
:1033F0008FEF91E242CFA5E1B0E0E0E0FAE14DC607
:103400004C016E877F87FC0116821782838181FDC4
:1034100004C05AC34C855D8504C01E010894211C5C
:10342000311CF4019381EE85FF8593FD859193FF17
:103430008191EE87FF87882309F442C3853241F4E6
:1034400093FD859193FF8191EE87FF87853259F433
:1034500090E0B4014C8B5D8B0E94DA224C895D892F
:103460004C875D87D7CFFF24DD2410E01032B0F405
:103470008B3269F08C3228F4803251F0833271F44F
:103480000BC08D3239F0803349F411602CC01260CA
:10349000146029C0186027C0106125C017FD2EC018
:1034A000282F20532A3098F416FF08C08F2D880F3C
:1034B000F82EFF0CFF0CF80EF20E15C08D2D880FA4
:1034C000D82EDD0CDD0CD80ED20E10620CC08E3260
:1034D00021F416FDF5C2106406C08C3611F4106894
:1034E00002C0883659F4EE85FF8593FD859193FFE0
:1034F0008191EE87FF87882309F0B8CF982F9554E4
:10350000933018F41061805E06C0982F9556933062
:1035100008F092C11F7E16FD02C0E6E0FE2E1F736A
:10352000853611F4106406C0863611F4106802C0A6
:10353000F110FA9417FF07C0FBE3FF1548F0EF2CDA
:10354000E39427E00DC027E02F1530F02F2D07C0A2
:1035500027E07CE3E72E04C027E067E0F62EEE24A8
:10356000CA0104968C879D87FA01608171818281EE
:103570009381A1010E2DF4D65C01C9802C2D30E081
:10358000288B398BC0FE03C0388933FF06C011FD7C
:1035900006C012FF06C000E205C00DE203C00BE248
:1035A00001C000E0888999898C709070009709F4B7
:1035B00039C0002311F084E001C083E08D1550F480
:1035C000D81A13FD08C080E290E0B401F3D7DA9472
:1035D000D1F701C0DD24002321F0802F90E0B40159
:1035E000E9D7888983FD05C03BECE32E32E0F32E5A
:1035F00010C027ECE22E22E0F22E0BC001151105BF
:1036000009F0805290E0B401D5D70894E11CF11C78
:1036100004C0012F10E000711070F701849188231D
:1036200069F74BC217FF0EC0EA0CF889F4FF04C01B
:103630008A81813309F4EA941E144CF528E02E1592
:1036400048F12CC016FD2AC08F2D90E08A159B05ED
:1036500044F03CEFA3163FEFB3061CF0106801C026
:10366000FA94FF2049F0E2E0F0E0EC0FFD1FEF0DCF
:10367000F11D80818033A1F317FF10C0EF2CE3947C
:103680008F2D90E0A816B90644F4FA1807C0EE246E
:10369000E39404C098E0E92E01C0FF2417FF07C09F
:1036A0001A141B043CF495012F5F3F4F05C025E021
:1036B00030E002C021E030E0002311F02F5F3F4FE7
:1036C000FF2029F08F2D90E00196280F391F8D2DB6
:1036D00090E02817390714F4D21A01C0DD24612EB6
:1036E0007724C30189709070009741F405C080E28F
:1036F00090E0B4015FD7DA94DD20C9F7002321F010
:10370000802F90E0B40156D763FC08C005C080E369
:1037100090E0B4014FD7DA94DD20C9F717FF46C017
:103720008501B7FE02C000E010E066247724950111
:103730002E1931092A8B3B8B2501401A510A420C64
:10374000531C6F2D70E0EE24FF24E61AF70A3FEFBA
:103750000F3F130721F48EE290E0B4012BD7A0169F
:10376000B10654F02A893B89201731072CF4F20165
:10377000E60DF71D818101C080E3015010400894DF
:10378000611C711C0E151F0524F090E0B40112D7C6
:10379000DECF0A151B0541F49A81963320F4953348
:1037A00019F4388934FF81E390E043C08A81813382
:1037B00011F09FEEC92290E0B401FCD6FF2079F011
:1037C0008EE290E0B401F6D612E0F101E10FF11DB6
:1037D0001F5F808190E0B401EDD6FA94B1F764FEEA
:1037E00003C085E490E002C085E690E0B401E2D633
:1037F000B7FC05C0A114B10441F4C4FE06C0B094E6
:10380000A194B108B3948DE201C08BE290E0B401C1
:10381000D1D680E305C08F5FE6EFFFEFAE0EBF1E8F
:10382000FAE0AF16B104BCF790E0B401C3D6C5010D
:10383000C096B401BFD641C1833631F0833789F0D9
:10384000833509F055C021C09A012E5F3F4F2C8768
:103850003D87FA018081898381E0E82EF12C5101B6
:1038600012C09A012E5F3F4F2C873D87FA01A0803E
:10387000B18016FF03C06F2D70E002C06FEF7FEFC5
:10388000C50166D67C011F7713C09A012E5F3F4F9A
:103890002C873D87FA01A080B18016FF03C06F2DF1
:1038A00070E002C06FEF7FEFC50132D67C01106877
:1038B00013FD1AC005C080E290E0B4017BD6DA9413
:1038C0008D2D90E0E816F906B0F30EC0F50117FD56
:1038D000859117FF81915F0190E0B4016BD6D11003
:1038E000DA940894E108F108E114F10479F7E5C0ED
:1038F000843611F0893669F59A0117FF0AC02C5FEA
:103900003F4F2C873D87FA0180819181A281B3814D
:103910000BC02E5F3F4F2C873D87FA01808191813C
:10392000AA2797FDA095BA2F012F0F76B7FF08C0E1
:10393000B095A095909581959F4FAF4FBF4F006870
:10394000BC01CD01A1012AE030E080D6E82EE218CA
:1039500040C0853721F41F7E2AE030E020C0197F67
:103960008F36A9F0803720F4883509F0A9C00BC044
:10397000803721F0883709F0A3C001C0106114FF1F
:1039800009C0146007C014FF08C0166006C028E014
:1039900030E005C020E130E002C020E132E0CA01A1
:1039A00017FF09C004968C879D87FA016081718199
:1039B0008281938108C002968C879D87FA0160817D
:1039C000718180E090E0A10141D6E82EE218012F3C
:1039D0000F7706FF09C00E7FEF1430F404FF06C016
:1039E00002FD04C00F7E02C01E2D01C01F2D802FBE
:1039F00090E004FF0CC0FE01EE0DF11D208120338C
:103A000011F4097E09C002FF06C01E5F05C086785A
:103A10009070009709F01F5FA02EBB2403FD11C01A
:103A200000FF0CC0FE2C1D1548F4FD0CF11A1D2DD5
:103A300005C080E290E0B401BDD51F5F1D15C8F33D
:103A400004C01D1510F4D11A01C0DD24A4FE0EC05F
:103A500080E390E0B401AED5A2FE1DC0A1FE03C07C
:103A600088E590E010C088E790E00DC0C501867839
:103A70009070009781F0A1FC02C080E201C08BE24F
:103A800007FD8DE290E0B40195D505C080E390E09C
:103A9000B40190D5FA94EF14C8F3EA94F101EE0D55
:103AA000F11D808190E0B40185D5EE20B1F705C00D
:103AB00080E290E0B4017ED5DA94DD20C9F7AACC8B
:103AC000F4018681978102C08FEF9FEF6596E2E156
:103AD000FDC25058BB27AA270ED091C15AD130F051
:103AE0005FD120F031F49F3F11F41EF42AC10EF48F
:103AF000E095E7FB20C1E92FA4D180F3BA17620754
:103B000073078407950718F071F49EF5BCC10EF495
:103B1000E0950B2EBA2FA02D0B01B90190010C01DD
:103B2000CA01A0011124FF27591B99F0593F50F4F5
:103B3000503E68F11A16F040A22F232F342F44274D
:103B4000585FF3CF469537952795A795F040539545
:103B5000C9F77EF41F16BA0B620B730B840BBAF015
:103B60009150A1F0FF0FBB1F661F771F881FC2F780
:103B70000EC0BA0F621F731F841F48F48795779594
:103B80006795B795F7959E3F08F0B3CF9395880F4B
:103B900008F09927EE0F979587950895FAD058F079
:103BA00080E891E009F49EEFFBD028F040E851E076
:103BB00059F45EEF09C0C5C066C1E92FE07841D174
:103BC00068F3092E052AC1F3261737074807590756
:103BD00038F00E2E07F8E02569F0E025E0640AC011
:103BE000EF6307F8009407FADB01B9019D01DC01DE
:103BF000CA01AD01EF9346D002D10AD05F9155239F
:103C000031F02BED3FE049E450FD49EC63CF0895DE
:103C1000DF93DD27B92FBF7740E85FE3161617065D
:103C200048075B0710F4D92F39D19F938F937F9367
:103C30006F93E6D1ECEFF1E087D0E1D02F913F9187
:103C40004F915F913ED1DD2349F09058A2EA2AEDD1
:103C50003FE049EC5FE3D0785D274DDFDF91CFC0D7
:103C6000A7D0E395DDC00CD0CAC09AD040F091D067
:103C700030F021F45F3F19F05EC0511105C161C001
:103C8000E0D098F39923C9F35523B1F3951B550B55
:103C9000BB27AA2762177307840738F09F5F5F4F1F
:103CA000220F331F441FAA1FA9F333D00E2E3AF060
:103CB000E0E830D091505040E695001CCAF729D07A
:103CC000FE2F27D0660F771F881FBB1F26173707C9
:103CD0004807AB07B0E809F0BB0B802DBF01FF27F9
:103CE00093585F4F2AF09E3F510568F024C0CCC026
:103CF0005F3FECF3983EDCF3869577956795B79533
:103D0000F7959F5FC9F7880F911D9695879597F94D
:103D10000895E1E0660F771F881FBB1F62177307C6
:103D20008407BA0720F0621B730B840BBA0BEE1FDB
:103D300088F7E095089597F99F6780E870E060E064
:103D400008959FEF80EC0895DF93CF931F930F9317
:103D5000FF92EF92DF927B018C01689405C0DA2E0E
:103D6000EF01AFD0FE01E894A591259135914591E1
:103D70005591AEF3EF01BFDEFE019701A801DA9481
:103D800079F7DF90EF90FF900F911F91CF91DF9126
:103D9000089500240A9416161706180609060895B1
:103DA00000240A9412161306140605060895C9CFB6
:103DB00050D0E8F3E894E0E0BB279F57F0F02AEDFD
:103DC0003FE049EC06C0EE0FBB0F661F771F881F50
:103DD00028F0B23A62077307840728F0B25A620BE0
:103DE000730B840BE3959A9572F7803830F49A95AB
:103DF000BB0F661F771F881FD2F790482AC1092E74
:103E00000394000C11F4882352F0BB0F40F4BF2B35
:103E100011F460FF04C06F5F7F4F8F4F9F4F089575
:103E2000EF93E0FF06C0A2EA2AED3FE049EC5FEB2A
:103E300062DEE5DF0F90039401FC9058E9E2F2E0C6
:103E40001BC157FD9058440F551F59F05F3F71F04B
:103E50004795880F97FB991F61F09F3F79F08795F1
:103E60000895121613061406551FF2CF4695F1DF7A
:103E700008C0161617061806991FF1CF869571050A
:103E8000610508940895E894BB2766277727CB013E
:103E900097F90895B8D008F48FEF08959B01AC010D
:103EA00060E070E080E89FE3DECE0BD0A8CF71DF4A
:103EB00028F076DF18F0952309F03DCF42CF11248A
:103EC000E3CFBFDFA0F3959FD1F3950F50E0551FCF
:103ED000629FF001729FBB27F00DB11D639FAA275F
:103EE000F00DB11DAA1F649F6627B00DA11D661FAE
:103EF000829F2227B00DA11D621F739FB00DA11DCF
:103F0000621F839FA00D611D221F749F3327A00D88
:103F1000611D231F849F600D211D822F762F6A2F24
:103F200011249F5750408AF0E1F088234AF0EE0FA9
:103F3000FF1FBB1F661F771F881F91505040A9F7B6
:103F40009E3F510570F0F7CE9FCF5F3FECF3983E58
:103F5000DCF3869577956795B795F795E7959F5F1D
:103F6000C1F7FE2B880F911D9695879597F90895B7
:103F70009F931EDF0F9007FCEE5F52CF11F40EF4FB
:103F8000E0CE65C066DFD0F39923D9F3CEF39F5717
:103F9000550B87FF6AD00024A0E640EA90018058C4
:103FA0005695979528F4805C660F771F881F20F040
:103FB00026173707480730F4621B730B840B202940
:103FC00031294A2BA69517940794202531254A2795
:103FD00058F7660F771F881F20F026173707480706
:103FE00030F4620B730B840B200D311D411DA09525
:103FF00081F7B901842F9158880F96958795089578
:104000009B01AC0152CF990F0008550FAA0BE0E8B5
:10401000FEEF16161706E807F907C0F0121613068A
:10402000E407F50798F0621B730B840B950B39F4CA
:104030000A2661F0232B242B252B21F408950A2630
:1040400009F4A140A6958FEF811D811D08959F3F22
:1040500031F0915020F4879577956795B795880F43
:10406000911D9695879597F9089591505040660F48
:10407000771F881FD2F708959F938F937F936F9335
:10408000FF93EF939B01AC0110DFEF91FF915CDE9A
:104090002F913F914F915F9108CF2F923F924F9276
:1040A0005F926F927F928F929F92AF92BF92CF92C8
:1040B000DF92EF92FF920F931F93CF93DF93CDB7D1
:1040C000DEB7CA1BDB0BCDBFDEBF09942A88398857
:1040D00048885F846E847D848C849B84AA84B984A0
:1040E000C884DF80EE80FD800C811B81AA81B981AC
:1040F000CE0FD11DCDBFDEBFED010895CF93DF936D
:10410000AC018230910510F442E050E0E0910324CC
:10411000F091042420E030E0A0E0B0E024C08081F1
:10412000918184179507D0F08417950771F48281E7
:104130009381109729F012968D939C9313972CC01E
:10414000809303249093042427C02115310519F08E
:104150008217930718F49C01BD01EF0192818381BE
:10416000DF01E92FF82F3097D1F621153105F9F04D
:10417000C901841B950B8430910580F48A819B8151
:104180006115710521F0FB018283938304C0809344
:10419000032490930424FE01329642C0FE01E80FEE
:1041A000F91F4193519302978883998339C0809175
:1041B000012490910224009741F480916E21909106
:1041C0006F21809301249093022420916C213091DF
:1041D0006D212115310541F42DB73EB78091702135
:1041E00090917121281B390BE0910124F091022458
:1041F000E217F30798F42E1B3F0B2417350770F0D6
:10420000CA0102962817390748F08E0F9F1F809326
:104210000124909302244193519302C0E0E0F0E026
:10422000CF01DF91CF9108950F931F93CF93DF9329
:104230009C01009709F48CC0DC01129712961D9224
:104240001C921397609103247091042461157105E9
:1042500089F48D919C911197820F931F20910124D5
:10426000309102242817390769F5A0930124B093EF
:1042700002246EC0FB0140E050E001C0FC01EA17DF
:10428000FB0730F482819381AF010097B9F71FC01B
:10429000E9012297EA83FB8308811981C901800F14
:1042A000911F8E179F0759F480819181800F911F74
:1042B000029688839983828193818A839B834115A7
:1042C000510529F4A0930324B093042441C0FA01BA
:1042D000A283B383C191D191EC0FFD1FAE17BF072D
:1042E00081F4F901929182918C0F9D1F0296DA015F
:1042F0008D939C9311978281938112968D939C93B9
:104300001397E0E0F0E002C0FB01BC01DB01129674
:104310008D919C9113970097B9F7CB0102962D913F
:104320003C911197820F931F209101243091022418
:104330002817390769F4309729F410920324109252
:10434000042402C012821382609301247093022419
:10435000DF91CF911F910F910895662777272AC289
:10436000283008F027E03327DA01990F311D87FD47
:10437000916000966105710539F432602E5F3D93BE
:1043800030E32A95E1F708959F3F30F080387105BA
:10439000610509F03C5F3C5F3D93913008F0806817
:1043A000911DDF93CF931F930F93FF92EF92192FDD
:1043B000987F9695E92F96959695E90FFF27E75DEB
:1043C000FC4F99273327EE24FF24A701E70105902E
:1043D0000894079428F4360FE71EF81E491F511D54
:1043E000660F771F881F991F0694A1F70590079401
:1043F00028F4E70EF81E491F561FC11D770F881FAE
:10440000991F661F0694A1F70590079428F4F80EEB
:10441000491F561FC71FD11D880F991F661F771F81
:104420000694A1F70590079420F4490F561FC71F63
:10443000D81F990F661F771F881F0694A9F78491CC
:104440001095177041F0D695C79557954795F794F5
:10445000E7941A95C1F7EFECF2E068941590159186
:1044600035916591959105907FE27395E118F10A78
:10447000430B560BC90BD009C0F7E10CF11E431FCB
:10448000561FC91FD01D7EF4703311F48A95E6CFF4
:10449000E894015030F0080F0AF40027021708F4DE
:1044A000202F2395022F7A3328F079E37D932A95E4
:1044B000E9F710C07D932A9589F60694979567953C
:1044C000379517951794E118F10A430B560BC90B52
:1044D000D00998F023957E9173957A3308F070E3B4
:1044E0007C932013B8F77E9170617D9330F08395B3
:1044F00071E37D9370E32A95E1F71124EF90FF902B
:104500000F911F91CF91DF91992787FD9095089585
:10451000FC010590615070400110D8F7809590958E
:104520008E0F9F1F08954BE751E21DC0FB01DC0178
:104530000D900020E9F7119701900D920020E1F70E
:104540000895FB01DC0101900D920020E1F7089530
:10455000FC016150704001900110D8F78095909552
:104560008E0F9F1F0895FA01A191B081009719F451
:104570001097E1F0CD01DC01CD010D90002011F488
:10458000C00113C0FB012191222319F02015D9F796
:10459000F3CFFB012191201519F41E92119606C04C
:1045A0002223C1F70D900020A1F7D001FA01A193B9
:1045B000B08308950F931F93CF93DF938C01EB018A
:1045C0008B8181FF1BC082FF0DC02E813F818C81BA
:1045D0009D812817390764F4E881F9810193E88304
:1045E000F98306C0E885F985802F0995009731F495
:1045F0008E819F8101968E839F8302C00FEF1FEFF4
:10460000C801DF91CF911F910F910895AEE0B0E006
:10461000EBE0F3E250CD0D891E8986E08C8309839F
:104620001A838FEF9FE78D839E83AE01475E5F4FB6
:10463000CE0101966F89788D0E94FB19EF81F88574
:10464000E00FF11F10822E96E4E04ECDFA01AA276A
:10465000283051F1203181F1E8946F936E7F6E5FC5
:104660007F4F8F4F9F4FAF4FB1E03ED0B4E03CD073
:10467000670F781F891F9A1FA11D680F791F8A1F56
:10468000911DA11D6A0F711D811D911DA11D20D0BD
:1046900009F468943F912AE0269F11243019305D77
:1046A0003193DEF6CF010895462F4770405D419368
:1046B000B3E00FD0C9F7F6CF462F4F70405D4A33B5
:1046C00018F0495D31FD4052419302D0A9F7EACF7D
:1046D000B4E0A6959795879577956795BA95C9F7AC
:1046E00000976105710508959B01AC010A2E06949F
:1046F0005795479537952795BA95C9F7620F731F58
:10470000841F951FA01D0895E0ECF1E0A785A7FD8B
:10471000FDCFA485A860A4876050704FCBC1DC0199
:10472000A40FB51F4150504040F0CB01840F951F9E
:104730002E9105D041505040D8F70895262F2ED005
:104740000080021611F004D0019701970895262FDA
:10475000E0ECF1E0378537FDFDCF3485377F3487D6
:10476000378531FF09C036E3328738ED34BF31E099
:104770003387378537FDFDCF33E3328780839183DD
:104780001282248325E3228728ED31E024BF33877A
:104790000196089503D0808199270895E0ECF1E017
:1047A000378537FDFDCF348538603487FC01E05014
:1047B000F04F0895A0E0B0E0EFEDF3E272CC5B01C2
:1047C0006115710521F0DB018C9311969C937C019E
:1047D000E7010894E11CF11C08816701802F90E03B
:1047E00049D10097A9F70D3241F4098142E0C42E66
:1047F000D12CCC0EDD1E11E009C00B3231F4098141
:1048000032E0C32ED12CCC0EDD1E10E0E601219744
:10481000CE0169EC73E043E050E034D10097C9F475
:10482000E6012296CE016CEC73E045E050E02AD11F
:10483000009711F4E6012796A114B10419F0F501CF
:10484000C083D18330E020E090E8112309F405C152
:10485000FFC0CE0161ED73E043E050E013D100975B
:1048600059F4A114B10409F4F5C0C6010296D501AA
:104870008D939C931197EEC040E050E0BA018824DC
:10488000992400530A3090F51260212F30E0C901BD
:104890008870907012FF06C0009769F50894811C1B
:1048A000911C29C0009719F0089481089108DB0138
:1048B000CA01D2E0880F991FAA1FBB1FDA95D1F752
:1048C000480F591F6A1F7B1F440F551F661F771F14
:1048D000400F511D611D711D4839B9E95B07B9E9E8
:1048E0006B07B9E17B0738F0146005C00E3F39F45F
:1048F00013FD43C01860F60101916F01C2CF05336B
:1049000011F00531D1F5D601EC91ED3211F41061C1
:1049100008C0EB3229F0C601019621E030E008C062
:10492000D6011196EC911197C601029622E030E073
:10493000E053EA3020F06C01C21AD30A1EC0DC0139
:1049400020E030E0FCE020383F075CF4C901880F2C
:10495000991F880F991F280F391F220F331F2E0F01
:10496000311DED91E0536D01EA3060F314FF03C097
:10497000309521953F4F820E931EC12FD0E011FF3D
:1049800008C0A114B10429F0C6010197D5018D9387
:104990009C93CB01BA019BD06B017C01CE0183704B
:1049A00090708330910521F4F7FAF094F7F8F094C1
:1049B000C701B60120E030E0A90185D0882309F4C1
:1049C00042C097FE07C09094819491089394C0E0F0
:1049D000D4E002C0C8EED3E098EE692E9FEF792EA6
:1049E0006C0E7D1E20E2A22EB12C0EC0FE010591A0
:1049F000159125913491C701B601A901980155DAA5
:104A00006B017C018A189B088A149B047CF724970D
:104A1000B594A794C615D705B9F7C601D7012A2FB3
:104A2000220F2B2F221F2F3F41F0BC01CD0120E090
:104A300030E0A90148D0882331F482E290E08093ED
:104A40000524909306243C2D2D2D9E2D8F2D06C0E0
:104A50008FEF04C030E020E090EC8FE7B901AC01AB
:104A6000872F922FA52FB42FBC01CD01CDB7DEB774
:104A7000EEE030CB911168C0803219F0895085503A
:104A8000D0F70895FB01DC014150504088F08D9132
:104A900081341CF08B350CF4805E659161341CF020
:104AA0006B350CF4605E861B611171F3990B0895F0
:104AB000881BFCCFFB01DC0102C001900D9241502C
:104AC0005040D8F708959FDA08F481E00895E894FB
:104AD00009C097FB3EF490958095709561957F4F46
:104AE0008F4F9F4F9923A9F0F92F96E9BB279395F4
:104AF000F695879577956795B795F111F8CFFAF404
:104B0000BB0F11F460FF1BC06F5F7F4F8F4F9F4F34
:104B100016C0882311F096E911C0772321F09EE892
:104B2000872F762F05C0662371F096E8862F70E0F8
:104B300060E02AF09A95660F771F881FDAF7880FD2
:104B40009695879597F90895992788270895F89459
:024B5000FFCF95
:104B52000000000000000000000000000000000053
:104B62000000000000000000000000000000000043
:104B72000000000000000000000000000000000033
:104B82002C00244750524D432C37312E3133322CD6
:104B9200412C343233302E30302C4E2C2D373133E1
:104BA200302E30302C452C31312E322C302E302C00
:104BB2003236313230362C302E302C452A35300DFB
:104BC2000A00256600426567696E0044656C61797A
:104BD20020636F6D706C6574650057616B6520753D
:104BE20070206770730043686172616374657273E9
:104BF2002073656E7420746F206368616E67652030
:104C020062617564207261746500A0A2001881025D
:104C12000101000101010501010100010001000182
:104C2200000100012580013AB0B3526563656976DF
:104C32006520636861726163746572730041542B0D
:104C4200434D47463D310041542B434D47533D228E
:104C52000041542B43504F57443D310041542B43A4
:104C620046554E3D300041542B4346554E3D310092
:104C720053796E630041540050494E4700546578A1
:104C820074204D6F64650041542B434D47463D3FB0
:104C920000436865636B204D6F6465002B313330D0
:104CA2003432343933303539004C21CDCC4C3E7D51
:104CB200878EC2C62B2942FF21FF21000000072454
:024CC2002000D0
:00000001FF
