:10000000BEC10000D8C10000D6C10000D4C10000AC
:10001000D2C10000D0C10000CEC10000CCC10000A0
:10002000CAC10000C8C10000C6C10000C4C10000B0
:10003000C2C10000C0C10000BEC10000BCC10000C0
:10004000BAC10000B8C10000B6C10000B4C10000D0
:10005000B2C10000B0C10000AEC10000ACC10000E0
:10006000AAC10000A8C10000A6C10000A4C10000F0
:10007000A2C10000A0C100009EC100009CC1000000
:100080009AC1000098C1000096C1000094C1000010
:1000900092C1000090C100008EC100008CC1000020
:1000A0008AC1000088C1000086C1000084C1000030
:1000B00082C1000080C100007EC100007CC1000040
:1000C0007AC1000078C1000076C1000074C1000050
:1000D00072C1000070C100006EC100006CC1000060
:1000E0006AC1000068C1000066C1000064C1000070
:1000F00062C1000060C100005EC100005CC1000080
:100100005AC1000058C1000056C1000054C100008F
:1001100052C1000050C100004EC100004CC100009F
:100120004AC1000048C1000046C1000044C10000AF
:1001300042C1000040C100003EC100003CC10000BF
:100140003AC1000038C1000036C1000034C10000CF
:1001500032C1000030C100002EC100002CC10000DF
:100160002AC1000028C1000026C1000024C10000EF
:1001700022C1000020C100001EC100001CC10000FF
:100180001AC1000018C1000016C1000014C100000F
:1001900012C1000010C100000EC100000CC100001F
:1001A0000AC1000008C1000006C1000004C100002F
:1001B00002C1000000C10000FEC00000FCC0000041
:1001C000FAC00000F8C00000F6C00000F4C0000053
:1001D000F2C00000F0C00000EEC00000ECC0000063
:1001E000EAC00000E8C00000E6C00000E4C0000073
:1001F000E2C00000FCC300003EC4000046575F564A
:10020000455253494F4E0048575F56455253494F48
:100210004E0014034600720061006D006500770017
:100220006F0072006B0000001C034E006F006E0038
:100230006F006C0069007400680020004C006100D1
:100240006200730000000403090409022000010198
:100250000080FA0904000002FF0000000705810287
:100260004000000705020220000012011001FF00FB
:100270000040E35900F000020102DC016E616E00F3
:10028000696E660000407A10F35A00A0724E180999
:100290000010A5D4E80000E87648170000E40B54ED
:1002A000020000CA9A3B000000E1F50500008096BC
:1002B0009800000040420F000000A08601000000EE
:1002C000102700000000E8030000000064000000A8
:1002D00000000A00000000000100000000002C7671
:1002E000D888DC674F0823DFC1DFAE59E1B1B7968C
:1002F000E5E3E453C63AE651997696E8E6C28426E9
:10030000EB898C9B62ED407C6FFCEFBC9C9F40F2C4
:10031000BAA56FA5F490055A2AF75C936B6CF96740
:100320006DC11BFCE0E40D47FEF520E6B500D0ED05
:10033000902E0300943577050080841E080000206D
:100340004E0A000000C80C333333330F986E12830B
:100350001141EF8D2114893BE65516CFFEE6DB18DF
:10036000D1844B381BF77C1D901DA4BBE4242032A4
:1003700084725E228100C9F124ECA1E53D2711249D
:100380001FBECFEFDFE2DEBFCDBF10E2A0E0B0E2E4
:10039000E4E7F6E202C005900D92A83CB107D9F758
:1003A00013E2A8ECB0E201C01D92AA35B107E1F753
:1003B00044D60C94381324CE089580E00895CF934A
:1003C000DF93C0ECD1E022E02A87EAE1F0E0E4919B
:1003D000A0ECB4E0DA96EC93DA972A87EBE1F0E050
:1003E000E491DB96EC93DB9783E0E0E4F0E0848338
:1003F00080E090E216968D939C93179713961C922B
:1004000013971092002033E43093012084E191E2AD
:100410008093042090930520209308203093092096
:1004200082ED90E280930C2090930D2082EC8C93CF
:1004300011968C911197816011968C931197DF9191
:10044000CF91089583E0E0E4F0E08483E0ECF4E011
:1004500080E090E28683978313821092002023E449
:100460002093012084E191E2809304209093052061
:1004700082E0809308202093092082ED90E280930F
:100480000C2090930D2082EC808381818160818398
:1004900008950F939C01E0ECF1E01286611571055F
:1004A000D1F0CB0142ED50E2DA01F9012F5F3F4F6D
:1004B000E491ED930197C9F770E040930C205093BD
:1004C0000D2060930A2070930B20E8E0F0E202E236
:1004D00006930F91089542ED50E2EECF84E0E0E5FF
:1004E000F0E0868382E0E0ECF1E08287ECE1F0E08E
:1004F000E491A0E6B0E01396EC9313978BE1159688
:100500008C93159787EB16968C93169781E08093C2
:10051000600088ED84BF83E080935000809151009B
:1005200081FFFCCF80E1E0E5F0E0858388ED84BFCA
:1005300083E1809350008091510084FFFCCF81E0E3
:100540008093680088ED84BF84E080934000E0E4FD
:10055000F0E0118208950F93CF93DF9300D0CDB7D1
:10056000DEB780911421807679F480911521863050
:1005700009F4C7C0873088F0893009F44BC08A304D
:1005800038F5883009F47EC084E191E2E8D30F9019
:100590000F90DF91CF910F910895813031F181302B
:1005A00008F086C01092D2201092D32082ED90E203
:1005B00080930C2090930D2082E090E080930A209D
:1005C00090930B20E8E0F0E202E2069381E0DFCFB7
:1005D0008A3009F450C08B30B9F6809118216091AF
:1005E0001621EBDE882309F446C082ED90E2809369
:1005F0000C2090930D2010920A2010920B20E8E01E
:10060000F0E202E2069381E00F900F90DF91CF912C
:100610000F91089580E091E060E0AE014F5F5F4F81
:10062000D6D4882341F1E0ECF1E01286E981FA8129
:100630007196E49120911621E217E8F082ED90E2A4
:1006400080930C2090930D2010920A2010920B2082
:10065000E8E0F0E202E20693209313218091132157
:10066000882309F4B4C084E080931221809113217F
:1006700097D181E08CCF80E00F900F90DF91CF91E8
:100680000F910895809113218093D22082ED90E202
:1006900080930C2090930D2081E090E080930A20BD
:1006A00090930B20E8E0F0E202E2069381E06FCF46
:1006B000833009F49ACF853009F066CF2091162156
:1006C0002F77E0E0F0E202E7069382ED90E280937C
:1006D0000C2090930D2010920A2010920B20389637
:1006E00002E206938091082085FFFCCFE0ECF4E065
:1006F0002383222309F059C082E08093122181E0F4
:1007000046CFE0ECF1E012868091162190911721FE
:1007100023E08C3D9207C1F060911821AE014F5F3C
:100720005F4F55D4009709F4A6CF29813A814091B3
:100730001A2150911B21BC014817590708F4BA012E
:10074000C901A7DE81E023CF83E08093D32062ED4F
:1007500070E28AE38093D22082E08287E8E0F0E0D2
:10076000E491DB01129681E090E048E020EC31E07A
:1007700052E0EF70EA30B0F0F0E0F796ED93FD93C1
:10078000F1E2AC30BF0799F0F9015287E42FF0E0B5
:10079000E49180FF03C0E295EF704F5F0196EF7028
:1007A000EA3050F7F0E0F096E9CF83E0A6CF60930F
:1007B0000C2070930D208AE390E080930A209093A0
:1007C0000B20E8E0F0E202E2069381E0E0CE8091C7
:1007D000C304882321F084E08093122147CF81E075
:1007E000FBCF0F9381E08093CD202FB7F8948091B9
:1007F0001820867009F03BC02FBF82E0E0ECF4E0E7
:10080000858736E09FB7F8948091CD20882339F111
:1008100080E09FBF882309F58091CB20882391F346
:100820002FB7F8941092BF2084E591E28093BD2009
:100830009093BE208093BB209093BC20E8E1F0E22F
:1008400006E0059308E006931092CD201092CE208A
:100850001092CF201092CC202FBF0F91089580913D
:10086000BF20232F281B81E012169CF2D1CF30919C
:10087000BF2013160CF040C08091BB209091BC208B
:100880004091CC2051E0413009F450E05093CC200D
:10089000442319F580931C2090931D2040E450E0E0
:1008A00040931A2050931B20E8E1F0E202E2069305
:1008B00031503093BF20805C9F4F8093BB2090933A
:1008C000BC2033E28435930709F096CF84E591E2AA
:1008D0008093BB209093BC208FCF80931420909363
:1008E000152040E450E04093122050931320E8E19B
:1008F000F0E204E10693DCCF8091CD208130E1F07D
:10090000823009F079CF809118208670863009F006
:1009100073CF1092CD201092CE201092CF20109243
:10092000BF2084E591E28093BD209093BE20809308
:10093000BB209093BC2060CF82E08093CD2060915B
:10094000BB203091BC204091CE205091CF2080918F
:10095000CC2091E0813011F19093CC20882379F460
:10096000862F932F80931C2090931D2040931A2054
:1009700050931B20E8E1F0E202E206933DCF862F80
:10098000932F80931420909315204093122050931E
:100990001320E8E1F0E204E106932ECF90E0DCCFF3
:1009A0002FB7F8941092BF2084E591E28093BD2088
:1009B0009093BE208093BB209093BC2088E190E26E
:1009C00036E03093182033E930931920FC01379733
:1009D0001082089732E0FC0130831092CC201092F4
:1009E000CD201092CE201092CF202FBF08951F92BD
:1009F0000F920FB60F9211242F933F934F935F9353
:100A00006F937F938F939F93AF93BF93EF93FF93D6
:100A1000E0ECF4E08091CA0487FD2AC08091CA040A
:100A20008E7081F48091CA0480FD1FC080E78287A8
:100A30008091C20480FF08C08091C2048E7F8283AF
:100A4000BEDC02C08EE08287FF91EF91BF91AF9133
:100A50009F918F917F916F915F914F913F912F91D6
:100A60000F900FBE0F901F90189581E08287ECCFFA
:100A700080E88287E9CF1F920F920FB60F92112460
:100A80000F932F933F934F935F936F937F938F9326
:100A90009F93AF93BF93EF93FF93E0ECF4E0148246
:100AA00083E084872FB7F894809118208670C9F46A
:100AB0002FBF8091002084FD4FC085FD74C0FF9141
:100AC000EF91BF91AF919F918F917F916F915F91C6
:100AD0004F913F912F910F910F900FBE0F901F904C
:100AE00018953091BF2013160CF07BC08091BB206D
:100AF0009091BC204091CC2051E0413009F43EC09F
:100B00005093CC20442309F43FC080931420909349
:100B1000152040E450E04093122050931320E8E168
:100B2000F0E204E1069331503093BF20805C9F4F88
:100B30008093BB209093BC2033E28435930709F067
:100B4000B7CF84E591E28093BB209093BC202FBF68
:100B50008091002084FFB1CFFEDC882351F4809186
:100B6000012084608093012080910920846080931B
:100B70000920E0E0F0E202E70693A1CF50E05093B5
:100B8000CC20442309F0C1CF80931C2090931D20DA
:100B900040E450E040931A2050931B20E8E1F0E23B
:100BA00002E20693C0CF4091022050910320809131
:100BB000C920813EF1F66091C82070E0002476954E
:100BC00067950794769567950794762F602D84E155
:100BD00091E250E00E94E412E0E0F0E202E70693C6
:100BE0006ECF8091CD208130E1F0823009F060CF6E
:100BF000809118208670863009F05ACF1092CD204F
:100C00001092CE201092CF201092BF2084E591E266
:100C10008093BD209093BE208093BB209093BC20F6
:100C200047CF82E08093CD207091BB206091BC20A3
:100C30008091CE209091CF203091CC2041E0313076
:100C400001F14093CC20472F562F332369F4409372
:100C50001C2050931D2080931A2090931B20E8E1C4
:100C6000F0E202E2069324CF409314205093152023
:100C70008093122090931320E8E1F0E204E10693C0
:100C800017CF40E0DECFEF92FF920F931F93CF93E9
:100C9000DF93F82EE92E162F072FA82FB92FED017D
:100CA00009900020E9F79E01E62FF72FEF01099048
:100CB0000020E9F7CE0101978E1B9F0B8A1B9B0B2F
:100CC000820F931F0E94F60FD82FC92F6F2D7E2DF4
:100CD0000E9416128D2F9C2F612F702F0E940B12D5
:100CE0008D2F9C2FDF91CF911F910F91FF90EF904F
:100CF0000895EF92FF920F931F93CF93DF93CDB799
:100D0000DEB7C05AD040CDBFDEBF7B0160E370E2EA
:100D10000E940812009779F08E010D5F1F4F80E04E
:100D200090E060E370E20E940812F80181939193D1
:100D30008F010097A1F78F819885F70180839183B8
:100D40008B859C8582839383C056DF4FCDBFDEBFEA
:100D5000DF91CF911F910F91FF90EF9008950F9326
:100D60001F93CF93DF939C01A2EDB0E28D0182E14E
:100D700091E2FD01119241E2E231F407D9F71092BC
:100D8000C920F901C081D0E0C076D070C034D1054F
:100D900031F080E0DF91CF911F910F910895418153
:100DA000463109F4E7C0473108F14B3B09F490C0E4
:100DB0004C3B08F048C0473161F70480F581E02DD5
:100DC00080818093D22081818093D32000930C2056
:100DD00010930D2082E090E080930A2090930B20E6
:100DE000E8E0F0E202E2069381E0D4CF423009F479
:100DF000A0C0433068F4442361F684819581009754
:100E000009F4C8C08130910509F4BDC081E0C2CFAA
:100E10004830A9F1493009F0BCCF0480F581E02DBC
:100E200080818093D22000930C2010930D2081E0CC
:100E300090E080930A2090930B20E8E0F0E202E239
:100E4000069381E0A7CF403E19F1413E09F0A1CFC2
:100E50004093C92084818093C82000930C20109374
:100E60000D2010920A2010920B20E8E0F0E202E23E
:100E7000069381E0DF91CF911F910F910895D901E1
:100E80000480F581E02D12968C9112978083E5CF36
:100E9000F9016481758100247695679507947695AC
:100EA00067950794762F602D82ED90E240E450E044
:100EB0000E94D91200930C2010930D20C0930A2099
:100EC000D0930B20E8E0F0E202E2069381E062CFEB
:100ED000F89400930C2010930D2010920A20109289
:100EE0000B20E8E0F0E202E20693389702E706936F
:100EF0008091002085FFFCCF8FEF99EFA0E081501B
:100F00009040A040E1F700C000008091C1048E7FB6
:100F1000E0ECF4E081838FEF93ECA9E08150904006
:100F2000A040E1F700C00000ECEFF7E4099581E094
:100F300031CF3091542320915523C32FD22FFE015E
:100F400001900020E9F73197E31B29912D938A172F
:100F50009B07D9F78E2F90E000930C2010930D2063
:100F600080930A2090930B20E8E0F0E202E20693DF
:100F700081E010CFF901828193810480F581E02D19
:100F8000808391836ACF8CEF91E06BE070E081DA2F
:100F900081E000CF87E092E06BE070E07ADA81E0F8
:100FA000F9CE462F2091C920213E09F008952091C5
:100FB000C82030E00024369527950794369527956C
:100FC0000794322F202DB90150E00C94E412923096
:100FD000F9F09330A1F0913049F080E090E0E0E04A
:100FE000F0E0DA01ED93FC931197089582E190E02F
:100FF000EAE6F2E0DA01ED93FC931197089581306F
:1010000081F0813098F4E6E4F2E0849190E0E9CF59
:1010100080E290E0EAE4F2E0DA01ED93FC931197CC
:101020000895E8E2F2E0849190E0DBCF8230A9F607
:10103000E2E1F2E0849190E0D4CFCF93DF93CDB79B
:10104000DEB7CC5AD040CDBFDEBF48DAB8D9E0EC2D
:10105000F4E082E4808783E08187E0EAF0E0828345
:101060007894BFDB82E390E289839A8389E790E2F8
:101070008B839C839E012F5F3F4FC755DF4F288393
:101080003983C95AD0409E012B5F3F4FCB55DF4F6C
:1010900028833983C55AD04044E5A42E41E2B42EBA
:1010A00058E1652E50E2752E66E0F62E71E0C72EEF
:1010B000D12CA2E0EA2EB0E48B2E912CC755DF4F45
:1010C000E881F981C95AD04081919191C755DF4F8C
:1010D000E883F983C95AD04060E370E20E940812A5
:1010E000009779F08E01095F1F4F80E090E060E388
:1010F00070E20E940812F801819391938F0100978A
:10110000A1F78B859C852F85C555DF4F2883CB5A4A
:10111000D0403889C455DF4F3883CC5AD040FC01C9
:10112000DF010D900020E9F71197AE1BBF0BF9010D
:1011300001900020E9F72F01089441085108421A54
:10114000530A1A161B060CF03EC0C955DF4F8883A0
:10115000C75AD040C855DF4F9883C85AD040222480
:101160003324C955DF4FE881F981C75AD040319106
:10117000C955DF4FE883F983C75AD0409FB7F89429
:101180008091CD20882309F4A5C080E09FBF8823EB
:10119000A9F38091CE209091CF20E091BD20F091D5
:1011A000BE20E80FF91F308301968093CE209093E4
:1011B000CF208034910509F4B1C00894211C311C62
:1011C000A215B30571F69FB7F8948091CD208823BE
:1011D00009F49BC080E09FBF8823A9F38091CE20B3
:1011E0009091CF20E091BD20F091BE20E80FF91F33
:1011F00020E2208301968093CE209093CF208034EC
:10120000910509F4F6C11414150494F5C555DF4F82
:101210002880CB5AD040C455DF4F3880CC5AD040BC
:10122000A0E0B0E0F10121911F019FB7F8948091F7
:10123000CD20882309F457C080E09FBF8823A9F3FD
:101240008091CE209091CF20E091BD20F091BE20E2
:10125000E80FF91F208301968093CE209093CF2032
:101260008034910509F4DFC011964A165B06D1F669
:101270009FB7F8948091CD20882309F43DC080E089
:101280009FBF8823A9F38091CE209091CF20E09139
:10129000BD20F091BE20E80FF91F2AE020830196BF
:1012A0008093CE209093CF208034910509F422C200
:1012B000C755DF4F28813981C95AD040CB55DF4F00
:1012C00088819981C55AD0402817390709F0F6CE90
:1012D00088DAFFCF8091BF202F2D281B81E01216C6
:1012E0000CF454CF52CF8091BF203F2D381B81E0AA
:1012F00013160CF4A2CFA0CF8091BF202F2D281B56
:1013000081E012160CF4BCCFBACF8091BF202F2DF4
:10131000281B81E012160CF45ECF5CCF1FB7F89447
:101320001092CE201092CF208091BF208F5F8093AB
:10133000BF208091BD209091BE20805C9F4F809304
:10134000BD209093BE20F3E284359F0721F4A09244
:10135000BD20B092BE205FB7F894809118208670AF
:1013600019F45FBF1FBF29CF2091BF2012160CF0C8
:101370003BC06091BB207091BC203091CC20832F6A
:1013800090E041E08C159D0509F440E04093CC20AD
:101390003323F1F460931C2070931D2080921A2057
:1013A00090921B20F30102E2069321502093BF206C
:1013B000CB01805C9F4F8093BB209093BC20F3E2D5
:1013C00084359F0771F6A092BB20B092BC20C9CF94
:1013D0006093142070931520809212209092132015
:1013E000F30104E10693E1CF8091CD20813009F42F
:1013F000C3C0823009F0B5CF809118208670863046
:1014000009F0AFCF1092CD201092CE201092CF20B5
:101410001092BF20A092BD20B092BE20A092BB200F
:10142000B092BC209ECF1FB7F8941092CE2010929D
:10143000CF208091BF208F5F8093BF208091BD20FF
:101440009091BE20805C9F4F8093BD209093BE20E2
:10145000F3E284359F0721F4A092BD20B092BE2014
:101460007FB7F89480911820867019F47FBF1FBF52
:10147000FBCE4091BF2014160CF03BC02091BB2046
:101480003091BC205091CC20852F90E061E08C15EC
:101490009D0509F460E06093CC205523F1F420937E
:1014A0001C2030931D2080921A2090921B20F30163
:1014B00002E2069341504093BF20C901805C9F4FD8
:1014C0008093BB209093BC20F3E284359F0771F694
:1014D000A092BB20B092BC20C9CF2093142030939F
:1014E00015208092122090921320F30104E10693BC
:1014F000E1CF8091CD208130D1F0823009F0B6CF9C
:10150000809118208670863009F0B0CF1092CD20DF
:101510001092CE201092CF201092BF20A092BD201A
:10152000B092BE20A092BB20B092BC209FCFE09290
:10153000CD206091BB20E091BC202091CE20309145
:10154000CF205091CC20852F90E041E08C159D0557
:1015500009F440E04093CC20862F9E2F552389F537
:1015600080931C2090931D2020931A2030931B20E1
:10157000F30102E206937ACFE092CD207091BB2076
:10158000E091BC202091CE203091CF206091CC20E2
:10159000862F90E041E08C159D0509F440E04093D2
:1015A000CC20872F9E2F6623C1F480931C2090931C
:1015B0001D2020931A2030931B20F30102E2069392
:1015C000D0CE809314209093152020931220309336
:1015D0001320F30104E1069349CF809314209093E4
:1015E00015202093122030931320F30104E1069379
:1015F000B8CEBFB7F8941092CE201092CF20809131
:10160000BF208F5F8093BF208091BD209091BE202E
:10161000805C9F4F8093BD209093BE2033E2843541
:10162000930721F4A092BD20B092BE20AFB7F894EA
:1016300080911820867019F4AFBFBFBFE4CD4091F0
:10164000BF2014160CF03BC02091BB203091BC2071
:101650005091CC20852F90E061E08C159D0509F418
:1016600060E06093CC205523F1F420931C2030934C
:101670001D2080921A2090921B20F30102E2069313
:1016800041504093BF20C901805C9F4F8093BB2095
:101690009093BC20F3E284359F0771F6A092BB20A3
:1016A000B092BC20C9CF2093142030931520809293
:1016B000122090921320F30104E10693E1CF809170
:1016C000CD20813009F496C0823009F0B5CF8091E9
:1016D00018208670863009F0AFCF1092CD2010927E
:1016E000CE201092CF201092BF20A092BD20B092A9
:1016F000BE20D4CF7FB7F8941092CE201092CF2086
:101700008091BF208F5F8093BF208091BD209091FA
:10171000BE20805C9F4F8093BD209093BE2033E21B
:101720008435930721F4A092BD20B092BE206FB7FC
:10173000F89480911820867019F46FBF7FBFB8CDE0
:101740004091BF2014160CF03BC02091BB2030917B
:10175000BC205091CC20852F90E0E1E08C159D05B8
:1017600009F4E0E0E093CC205523F1F420931C2011
:1017700030931D2080921A2090921B20F30102E2E8
:10178000069341504093BF20C901805C9F4F8093D6
:10179000BB209093BC20F3E284359F0771F6A092A2
:1017A000BB20B092BC20C9CF2093142030931520C9
:1017B0008092122090921320F30104E10693E1CF6E
:1017C0008091CD208130C9F1823009F0B6CF80916F
:1017D00018208670863009F0B0CF1092CD2010927C
:1017E000CE201092CF201092BF20A092BD20B092A8
:1017F000BE20D5CFE092CD204091BB205091BC209F
:101800002091CE203091CF206091CC20862F90E087
:1018100071E08C159D0509F470E07093CC2066236F
:1018200079F540931C2050931D2020931A2030936B
:101830001B20F30102E20693FFCEE092CD204091FF
:10184000BB205091BC202091CE203091CF20E09140
:10185000CC208E2F90E0F1E08C159D0509F4F0E08E
:10186000F093CC20EE23C1F440931C2050931D2014
:1018700020931A2030931B20F30102E206935DCFE0
:10188000409314205093152020931220309313205E
:10189000F30104E10693D0CE409314205093152019
:1018A0002093122030931320F30104E1069345CFD7
:1018B000A5E1B0E0EDE5FCE068C34C016E877F87F1
:1018C000FC0116821782838181FD04C059C34C85B7
:1018D0005D8504C01E010894211C311CF401938114
:1018E000EE85FF8593FD859193FF8191EE87FF87BC
:1018F000882309F441C3853241F493FD859193FF18
:101900008191EE87FF87853251F490E0B4014C8BD2
:101910005D8BC5D54C895D894C875D87D8CFFF2409
:10192000DD2410E01032B0F48B3269F08C3228F4F0
:10193000803251F0833271F40BC08D3239F0803334
:1019400049F411602CC01260146029C0186027C0CF
:10195000106125C017FD2EC0282F20532A3098F47F
:1019600016FF08C08F2D880FF82EFF0CFF0CF80E05
:10197000F20E15C08D2D880FD82EDD0CDD0CD80E83
:10198000D20E10620CC08E3221F416FDF5C2106426
:1019900006C08C3611F4106802C0883659F4EE8502
:1019A000FF8593FD859193FF8191EE87FF878823C3
:1019B00009F0B8CF982F9554933018F41061805ED9
:1019C00006C0982F9556933008F092C11F7E16FDE1
:1019D00002C0E6E0FE2E1F73853611F4106406C0C7
:1019E000863611F4106802C0F110FA9417FF07C090
:1019F000FBE3FF1548F0EF2CE39427E00DC027E050
:101A00002F1530F02F2D07C027E07CE3E72E04C010
:101A100027E067E0F62EEE24CA0104968C879D87A6
:101A2000FA016081718182819381A1010E2D0DD413
:101A30005C01C9802C2D30E0288B398BC0FE03C09F
:101A4000388933FF06C011FD06C012FF06C000E250
:101A500005C00DE203C00BE201C000E0888999894E
:101A60008C709070009709F439C0002311F084E065
:101A700001C083E08D1550F4D81A13FD08C080E230
:101A800090E0B4010CD5DA94D1F701C0DD24002335
:101A900021F0802F90E0B40102D5888983FD05C034
:101AA00030E8E32E32E0F32E10C02CE7E22E22E0E5
:101AB000F22E0BC00115110509F0805290E0B4011F
:101AC000EED40894E11CF11C04C0012F10E0007159
:101AD0001070F7018491882369F74BC217FF0EC07D
:101AE000EA0CF889F4FF04C08A81813309F4EA948E
:101AF0001E144CF528E02E1548F12CC016FD2AC006
:101B00008F2D90E08A159B0544F03CEFA3163FEF24
:101B1000B3061CF0106801C0FA94FF2049F0E2E01F
:101B2000F0E0EC0FFD1FEF0DF11D80818033A1F37C
:101B300017FF10C0EF2CE3948F2D90E0A816B90684
:101B400044F4FA1807C0EE24E39404C098E0E92EA8
:101B500001C0FF2417FF07C01A141B043CF49501B1
:101B60002F5F3F4F05C025E030E002C021E030E0AC
:101B7000002311F02F5F3F4FFF2029F08F2D90E0C1
:101B80000196280F391F8D2D90E02817390714F47E
:101B9000D21A01C0DD24612E7724C30189709070B0
:101BA000009741F405C080E290E0B40178D4DA9463
:101BB000DD20C9F7002321F0802F90E0B4016FD41D
:101BC00063FC08C005C080E390E0B40168D4DA94F7
:101BD000DD20C9F717FF46C08501B7FE02C000E04F
:101BE00010E06624772495012E1931092A8B3B8B4E
:101BF0002501401A510A420C531C6F2D70E0EE244F
:101C0000FF24E61AF70A3FEF0F3F130721F48EE295
:101C100090E0B40144D4A016B10654F02A893B895F
:101C2000201731072CF4F201E60DF71D818101C068
:101C300080E3015010400894611C711C0E151F05B3
:101C400024F090E0B4012BD4DECF0A151B0541F43B
:101C50009A81963320F4953319F4388934FF81E35F
:101C600090E043C08A81813311F09FEEC92290E059
:101C7000B40115D4FF2079F08EE290E0B4010FD4C6
:101C800012E0F101E10FF11D1F5F808190E0B401CE
:101C900006D4FA94B1F764FE03C085E490E002C074
:101CA00085E690E0B401FBD3B7FC05C0A114B104F4
:101CB00041F4C4FE06C0B094A194B108B3948DE27F
:101CC00001C08BE290E0B401EAD380E305C08F5FEE
:101CD000E6EFFFEFAE0EBF1EFAE0AF16B104BCF7A1
:101CE00090E0B401DCD3C501C096B401D8D341C1A2
:101CF000833631F0833789F0833509F055C021C030
:101D00009A012E5F3F4F2C873D87FA01808189839E
:101D100081E0E82EF12C510112C09A012E5F3F4F55
:101D20002C873D87FA01A080B18016FF03C06F2D7C
:101D300070E002C06FEF7FEFC5017FD37C011F779A
:101D400013C09A012E5F3F4F2C873D87FA01A08078
:101D5000B18016FF03C06F2D70E002C06FEF7FEF00
:101D6000C5014BD37C01106813FD1AC005C080E289
:101D700090E0B40194D3DA948D2D90E0E816F90642
:101D8000B0F30EC0F50117FD859117FF81915F013A
:101D900090E0B40184D3D110DA940894E108F108FA
:101DA000E114F10479F7E5C0843611F0893669F55C
:101DB0009A0117FF0AC02C5F3F4F2C873D87FA011D
:101DC00080819181A281B3810BC02E5F3F4F2C8710
:101DD0003D87FA0180819181AA2797FDA095BA2FAE
:101DE000012F0F76B7FF08C0B095A095909581950B
:101DF0009F4FAF4FBF4F0068BC01CD01A1012AE04A
:101E000030E079D3E82EE21840C0853721F41F7EF8
:101E10002AE030E020C0197F8F36A9F0803720F407
:101E2000883509F0A9C00BC0803721F0883709F048
:101E3000A3C001C0106114FF09C0146007C014FFE3
:101E400008C0166006C028E030E005C020E130E0A0
:101E500002C020E132E0CA0117FF09C004968C8756
:101E60009D87FA01608171818281938108C0029609
:101E70008C879D87FA016081718180E090E0A101EB
:101E80003AD3E82EE218012F0F7706FF09C00E7F24
:101E9000EF1430F404FF06C002FD04C00F7E02C040
:101EA0001E2D01C01F2D802F90E004FF0CC0FE01ED
:101EB000EE0DF11D2081203311F4097E09C002FFCF
:101EC00006C01E5F05C086789070009709F01F5FFE
:101ED000A02EBB2403FD11C000FF0CC0FE2C1D155D
:101EE00048F4FD0CF11A1D2D05C080E290E0B4010C
:101EF000D6D21F5F1D15C8F304C01D1510F4D11AEA
:101F000001C0DD24A4FE0EC080E390E0B401C7D27E
:101F1000A2FE1DC0A1FE03C088E590E010C088E7C6
:101F200090E00DC0C50186789070009781F0A1FC0B
:101F300002C080E201C08BE207FD8DE290E0B401B7
:101F4000AED205C080E390E0B401A9D2FA94EF14B8
:101F5000C8F3EA94F101EE0DF11D808190E0B40127
:101F60009ED2EE20B1F705C080E290E0B40197D296
:101F7000DA94DD20C9F7ABCCF4018681978102C0E9
:101F80008FEF9FEF6596E2E119C02F923F924F923B
:101F90005F926F927F928F929F92AF92BF92CF92F9
:101FA000DF92EF92FF920F931F93CF93DF93CDB702
:101FB000DEB7CA1BDB0BCDBFDEBF09942A88398888
:101FC00048885F846E847D848C849B84AA84B984D1
:101FD000C884DF80EE80FD800C811B81AA81B981DD
:101FE000CE0FD11DCDBFDEBFED010895CF93DF939E
:101FF000AC018230910510F442E050E0E0915823AA
:10200000F091592320E030E0A0E0B0E024C08081CE
:10201000918184179507D0F08417950771F4828118
:102020009381109729F012968D939C9313972CC04F
:10203000809358239093592327C02115310519F017
:102040008217930718F49C01BD01EF0192818381EF
:10205000DF01E92FF82F3097D1F621153105F9F07E
:10206000C901841B950B8430910580F48A819B8182
:102070006115710521F0FB018283938304C0809375
:10208000582390935923FE01329642C0FE01E80F77
:10209000F91F4193519302978883998339C08091A6
:1020A000562390915723009741F48091C42090913A
:1020B000C52080935623909357232091C2203091BE
:1020C000C3202115310541F42DB73EB78091C620BC
:1020D0009091C720281B390BE0915623F09157238C
:1020E000E217F30798F42E1B3F0B2417350770F007
:1020F000CA0102962817390748F08E0F9F1F809358
:102100005623909357234193519302C0E0E0F0E0AF
:10211000CF01DF91CF9108950F931F93CF93DF935A
:102120009C01009709F48CC0DC01129712961D9255
:102130001C92139760915823709159236115710572
:1021400089F48D919C911197820F931F20915623B2
:10215000309157232817390769F5A0935623B09378
:1021600057236EC0FB0140E050E001C0FC01EA17BC
:10217000FB0730F482819381AF010097B9F71FC04C
:10218000E9012297EA83FB8308811981C901800F45
:10219000911F8E179F0759F480819181800F911FA5
:1021A000029688839983828193818A839B834115D8
:1021B000510529F4A0935823B093592341C0FA0143
:1021C000A283B383C191D191EC0FFD1FAE17BF075E
:1021D00081F4F901929182918C0F9D1F0296DA0190
:1021E0008D939C9311978281938112968D939C93EA
:1021F0001397E0E0F0E002C0FB01BC01DB011296A6
:102200008D919C9113970097B9F7CB0102962D9170
:102210003C911197820F931F2091562330915723A1
:102220002817390769F4309729F41092582310922F
:10223000592302C01282138260935623709357234E
:10224000DF91CF911F910F910895283008F027E07A
:102250003327DA01990F311D87FD916000966105E2
:10226000710539F432602E5F3D9330E32A95E1F732
:1022700008959F3F30F080387105610509F03C5F9B
:102280003C5F3D93913008F08068911DDF93CF93C0
:102290001F930F93FF92EF92192F987F9695E92F36
:1022A00096959695E90FFF27E252FD4F9927332720
:1022B000EE24FF24A701E70105900894079428F471
:1022C000360FE71EF81E491F511D660F771F881F26
:1022D000991F0694A1F70590079428F4E70EF81EBD
:1022E000491F561FC11D770F881F991F661F06942F
:1022F000A1F70590079428F4F80E491F561FC71F31
:10230000D11D880F991F661F771F0694A1F70590AE
:10231000079420F4490F561FC71FD81F990F661F37
:10232000771F881F0694A9F784911095177041F0C4
:10233000D695C79557954795F794E7941A95C1F7A1
:10234000E4E8F2E0689415901591359165919591C6
:1023500005907FE27395E118F10A430B560BC90B08
:10236000D009C0F7E10CF11E431F561FC91FD01D35
:102370007EF4703311F48A95E6CFE894015030F082
:10238000080F0AF40027021708F4202F2395022FC4
:102390007A3328F079E37D932A95E9F710C07D938D
:1023A0002A9589F60694979567953795179517940A
:1023B000E118F10A430B560BC90BD00998F023958D
:1023C0007E9173957A3308F070E37C932013B8F70D
:1023D0007E9170617D9330F0839571E37D9370E31E
:1023E0002A95E1F71124EF90FF900F911F91CF9163
:1023F000DF91992787FD90950895FC010590615024
:1024000070400110D8F7809590958E0F9F1F08950A
:1024100040ED50E21DC0FB01DC010D900020E9F70A
:10242000119701900D920020E1F70895FB01DC0166
:1024300001900D920020E1F70895FC016150704079
:1024400001900110D8F7809590958E0F9F1F0895E9
:10245000FA01A191B081009719F41097E1F0CD0134
:10246000DC01CD010D90002011F4C00113C0FB016F
:102470002191222319F02015D9F7F3CFFB012191E7
:10248000201519F41E92119606C02223C1F70D9053
:102490000020A1F7D001FA01A193B08308950F9312
:1024A0001F93CF93DF938C01EB018B8181FF1BC0C6
:1024B00082FF0DC02E813F818C819D8128173907B5
:1024C00064F4E881F9810193E883F98306C0E88523
:1024D000F985802F0995009731F48E819F810196AF
:1024E0008E839F8302C00FEF1FEFC801DF91CF9152
:1024F0001F910F910895FA01AA27283051F1203138
:1025000081F1E8946F936E7F6E5F7F4F8F4F9F4F87
:10251000AF4FB1E03ED0B4E03CD0670F781F891FC9
:102520009A1FA11D680F791F8A1F911DA11D6A0F97
:10253000711D811D911DA11D20D009F468943F914A
:102540002AE0269F11243019305D3193DEF6CF0149
:102550000895462F4770405D4193B3E00FD0C9F70F
:10256000F6CF462F4F70405D4A3318F0495D31FD7C
:102570004052419302D0A9F7EACFB4E0A6959795CF
:10258000879577956795BA95C9F7009761057105A5
:1025900008959B01AC010A2E0694579547953795EF
:1025A0002795BA95C9F7620F731F841F951FA01D49
:1025B0000895E0ECF1E0A785A7FDFDCFA485A86014
:1025C000A4876050704F4BC0DC01A40FB51F415071
:1025D000504040F0CB01840F951F2E9105D0415003
:1025E0005040D8F70895262F2ED00080021611F003
:1025F00004D0019701970895262FE0ECF1E037858C
:1026000037FDFDCF3485377F3487378531FF09C0EB
:1026100036E3328738ED34BF31E03387378537FD15
:10262000FDCF33E33287808391831282248325E3B5
:10263000228728ED31E024BF33870196089503D027
:10264000808199270895E0ECF1E0378537FDFDCFD3
:10265000348538603487FC01E050F04F0895FB0169
:10266000DC0102C001900D9241505040D8F708950E
:04267000F894FFCF0C
:102674000000000000000000000000000000000056
:102684000000000000000000000000000000000046
:102694000000000000000000000000000000000036
:1026A4002C00244750524D432C3137333834332CCB
:1026B400412C333334392E3839362C4E2C313138C1
:1026C40030382E3532312C572C3030302E302C33DC
:1026D40036302E302C3233303130382C3031332EEA
:1026E400342C452A36390D0A00244750524D432CC8
:1026F4003131313630392E31342C412C35303031B2
:102704002E32372C4E2C333631332E30362C452C8A
:1027140031312E322C302E302C3236313230362CB0
:10272400302E302C452A35300D0A00542154210016
:082734002C0000005A232000D4
:00000001FF
