:1000000001C200001CC200001AC2000018C2000099
:1000100016C2000014C2000012C2000010C200008C
:100020000EC200000CC200000AC2000008C200009C
:1000300006C2000004C2000002C2000000C20000AC
:10004000FEC10000FCC10000FAC10000F8C10000C0
:10005000F6C10000F4C10000F2C10000F0C10000D0
:10006000EEC10000ECC10000EAC10000E8C10000E0
:10007000E6C10000E4C10000E2C10000E0C10000F0
:10008000DEC10000DCC10000DAC10000D8C1000000
:10009000D6C10000D4C10000D2C10000D0C1000010
:1000A000CEC10000CCC10000CAC10000C8C1000020
:1000B000C6C10000C4C10000C2C10000C0C1000030
:1000C000BEC10000BCC10000BAC10000B8C1000040
:1000D000B6C10000B4C10000B2C10000B0C1000050
:1000E000AEC10000ACC10000AAC10000A8C1000060
:1000F000A6C10000A4C10000A2C10000A0C1000070
:100100009EC100009CC100009AC1000098C100007F
:1001100096C1000094C1000092C1000090C100008F
:100120008EC100008CC100008AC1000088C100009F
:1001300086C1000084C1000082C1000080C10000AF
:100140007EC100007CC100007AC1000078C10000BF
:1001500076C1000074C1000072C1000070C10000CF
:100160006EC100006CC100006AC1000068C10000DF
:1001700066C1000064C1000062C1000060C10000EF
:100180005EC100005CC100005AC1000058C10000FF
:1001900056C1000054C1000052C1000050C100000F
:1001A0004EC100004CC100004AC1000048C100001F
:1001B00046C1000044C1000042C1000040C100002F
:1001C0003EC100003CC100003AC1000038C100003F
:1001D00036C1000034C1000032C1000030C100004F
:1001E0002EC100002CC100002AC1000028C100005F
:1001F00026C100006EC30000B0C30000084AD73B10
:100200003BCE016E84BCBFFDC12F3D6C74319ABDE5
:1002100056833DDA3D00C77F11BED9E4BB4C3E9109
:100220006BAAAABE000000803F05A84CCDB2D44EF8
:10023000B93836A9020C50B9918688083CA6AAAAFA
:100240002ABE000000803F46575F56455253494F33
:100250004E0048575F56455253494F4E00140346CF
:1002600000720061006D00650077006F0072006B26
:100270000000001C034E006F006E006F006C0069F0
:10028000007400680020004C0061006200730000F0
:1002900000040309040902200001010080FA090496
:1002A000000002FF00000007058102400000070572
:1002B000020220000012011001FF000040E359007B
:1002C000F000020102DC016E616E00696E660000E2
:1002D000407A10F35A00A0724E18090010A5D4E815
:1002E0000000E87648170000E40B54020000CA9AA8
:1002F0003B000000E1F505000080969800000040FA
:10030000420F000000A0860100000010270000003E
:1003100000E803000000006400000000000A000084
:100320000000000100000000002C76D888DC674F38
:100330000823DFC1DFAE59E1B1B796E5E3E453C668
:100340003AE651997696E8E6C28426EB898C9B6260
:10035000ED407C6FFCEFBC9C9F40F2BAA56FA5F40A
:1003600090055A2AF75C936B6CF9676DC11BFCE032
:10037000E40D47FEF520E6B500D0ED902E03009485
:100380003577050080841E080000204E0A0000001A
:10039000C80C333333330F986E12831141EF8D2124
:1003A00014893BE65516CFFEE6DB18D1844B381B8B
:1003B000F77C1D901DA4BBE424203284725E228150
:1003C00000C9F124ECA1E53D27494E46494E495468
:1003D000594E414E000020410000C84200401C46DA
:1003E00020BCBE4CCA1B0E5AAEC59D74CDCCCC3DB4
:1003F0000AD7233C17B7D13877CC2B329595E62412
:100400001FB14F0A11241FBECFEFDFE2DEBFCDBF09
:1004100010E2A0E0B0E2E8EEF3E402C005900D9235
:10042000A03CB107D9F713E2A0ECB0E201C01D92E5
:10043000A435B107E1F70E943C150C94F221E0CD00
:10044000089580E00895CF93DF93C0ECD1E022E0DF
:100450002A87EAE1F0E0E491A0ECB4E0DA96EC93CC
:10046000DA972A87EBE1F0E0E491DB96EC93DB97F7
:1004700083E0E0E4F0E0848380E090E216968D93E0
:100480009C93179713961C9213971092002033E4B5
:10049000309301208CE091E280930420909305201A
:1004A00020930820309309208AEC90E280930C205E
:1004B00090930D2082EC8C9311968C911197816012
:1004C00011968C931197DF91CF91089583E0E0E42A
:1004D000F0E08483E0ECF4E080E090E286839783B0
:1004E00013821092002023E4209301208CE091E2FB
:1004F000809304209093052082E08093082020932D
:1005000009208AEC90E280930C2090930D2082ECDD
:10051000808381818160818308950F939C01E0EC49
:10052000F1E0128661157105D1F0CB014AEC50E281
:10053000DA01F9012F5F3F4FE491ED930197C9F77D
:1005400070E040930C2050930D2060930A2070932C
:100550000B20E8E0F0E202E206930F9108954AECE6
:1005600050E2EECF84E0E0E5F0E0868382E0E0EC6C
:10057000F1E08287ECE1F0E0E491A0E6B0E01396D0
:10058000EC9313978BE115968C93159787EB169642
:100590008C93169781E08093600088ED84BF83E0A0
:1005A000809350008091510081FFFCCF80E1E0E515
:1005B000F0E0858388ED84BF83E1809350008091D3
:1005C000510084FFFCCF81E08093680088ED84BFF8
:1005D00084E080934000E0E4F0E0118208950F93FE
:1005E000CF93DF9300D0CDB7DEB780910C2180761A
:1005F00079F480910D21863009F4C9C0873090F0DC
:10060000893009F44CC08A3040F5883009F480C044
:100610008CE091E20E94CC130F900F90DF91CF916C
:100620000F910895813031F1813008F087C0109228
:10063000CA201092CB208AEC90E280930C209093F9
:100640000D2082E090E080930A2090930B20E8E058
:10065000F0E202E2069381E0DFCF8A3009F451C074
:100660008B30B1F68091102160910E21EADE882353
:1006700009F447C08AEC90E280930C2090930D20FF
:1006800010920A2010920B20E8E0F0E202E20693BA
:1006900081E00F900F90DF91CF910F91089580E04E
:1006A00091E060E0AE014F5F5F4F0E940615882326
:1006B00041F1E0ECF1E01286E981FA817196E49172
:1006C00020910E21E217E8F08AEC90E280930C2052
:1006D00090930D2010920A2010920B20E8E0F0E297
:1006E00002E2069320930B2180910B21882309F4C9
:1006F000B5C084E080930A2180910B21C3D081E0B2
:100700008BCF80E00F900F90DF91CF910F910895E4
:1007100080910B218093CA208AEC90E280930C2078
:1007200090930D2081E090E080930A2090930B201D
:10073000E8E0F0E202E2069381E06ECF833009F454
:1007400099CF853009F064CF20910E212F77E0E01A
:10075000F0E202E706938AEC90E280930C209093FB
:100760000D2010920A2010920B20389602E2069378
:100770008091082085FFFCCFE0ECF4E02383222366
:1007800009F05AC082E080930A2181E045CFE0EC75
:10079000F1E0128680910E2190910F2123E08C3D93
:1007A0009207C9F060911021AE014F5F5F4F0E9428
:1007B0000615009709F4A5CF29813A8140911221AD
:1007C00050911321BC014817590708F4BA01C90117
:1007D000A4DE81E021CF83E08093CB206AEC70E23D
:1007E0008AE38093CA2082E08287E8E0F0E0E49127
:1007F000DB01129681E090E048E020EC31E052E02D
:10080000EF70EA30B0F0F0E0F796ED93FD93F1E28F
:10081000A430BF0799F0F9015287E42FF0E0E4918A
:1008200080FF03C0E295EF704F5F0196EF70EA30F2
:1008300050F7F0E0F096E9CF83E0A5CF60930C206D
:1008400070930D208AE390E080930A2090930B2010
:10085000E8E0F0E202E2069381E0DECE8091C3049C
:10086000882321F084E080930A2146CF81E0FBCFEA
:100870008091A10985FFFCCF8DE08093A00980E0E5
:1008800090E008952FB7F8941092B6208CE491E28E
:100890008093B4209093B5208093B2209093B3209E
:1008A00088E190E236E03093182033E93093192044
:1008B000FC0137971082089732E0FC0130831092D8
:1008C000C4201092C5201092C6201092C7202FBFBE
:1008D00008951F920F920FB60F9211242F933F93FA
:1008E0004F935F936F937F938F939F93AF93BF9338
:1008F000EF93FF93E0ECF4E08091CA0487FD2AC0F7
:100900008091CA048E7081F48091CA0480FD1FC05A
:1009100080E782878091C20480FF08C08091C20472
:100920008E7F828390DD02C08EE08287FF91EF91FF
:10093000BF91AF919F918F917F916F915F914F91F7
:100940003F912F910F900FBE0F901F90189581E04F
:100950008287ECCF80E88287E9CF1F920F920FB693
:100960000F9211240F932F933F934F935F936F93A5
:100970007F938F939F93AF93BF93EF93FF93E0EC9D
:10098000F4E0148283E084872FB7F89480911820D4
:100990008670C9F42FBF8091002084FD4FC085FD73
:1009A00074C0FF91EF91BF91AF919F918F917F9113
:1009B0006F915F914F913F912F910F910F900FBECB
:1009C0000F901F9018953091B62013160CF07BC035
:1009D0008091B2209091B3204091C42051E04130E9
:1009E00009F43EC05093C420442309F43FC08093CF
:1009F00014209093152040E450E04093122050932F
:100A00001320E8E1F0E204E1069331503093B62080
:100A1000805C9F4F8093B2209093B32033E28C345C
:100A2000930709F0B7CF8CE491E28093B2209093C2
:100A3000B3202FBF8091002084FFB1CFD0DD882369
:100A400051F48091012084608093012080910920DD
:100A5000846080930920E0E0F0E202E70693A1CFF2
:100A600050E05093C420442309F0C1CF80931C2050
:100A700090931D2040E450E040931A2050931B2097
:100A8000E8E1F0E202E20693C0CF409102205091EB
:100A900003208091C120813EF1F66091C02070E07A
:100AA0000024769567950794769567950794762F39
:100AB000602D8CE091E250E00E94E61FE0E0F0E261
:100AC00002E706936ECF8091C5208130E1F082303D
:100AD00009F060CF809118208670863009F05ACFD7
:100AE0001092C5201092C6201092C7201092B620F6
:100AF0008CE491E28093B4209093B5208093B2204F
:100B00009093B32047CF82E08093C5207091B220AC
:100B10006091B3208091C6209091C7203091C4206D
:100B200041E0313001F14093C420472F562F332349
:100B300069F440931C2050931D2080931A209093B9
:100B40001B20E8E1F0E202E2069324CF4093142058
:100B5000509315208093122090931320E8E1F0E247
:100B600004E1069317CF40E0DECF6F927F928F9221
:100B70009F92AF92BF92CF92DF92EF92FF920F932C
:100B80001F93CF93DF93DC010D900020E9F75D0107
:100B90000894A108B108A81AB90A1A141B04ACF5E4
:100BA0004C01CC24DD2446E0A8E1B0E29CE4692EAF
:100BB00091E2792EC1E0D0E020E4E22EF12CF401A4
:100BC00031914F019FB7F8948091C520882361F13E
:100BD00080E09FBF8823B1F38091C6209091C72009
:100BE000E091B420F091B520E80FF91F3083019611
:100BF0008093C6209093C72080349105E9F0089433
:100C0000C11CD11CAC14BD04D1F6DF91CF911F9152
:100C10000F91FF90EF90DF90CF90BF90AF909F909B
:100C20008F907F906F9008958091B620242F281B7D
:100C300081E0121674F2CCCF1FB7F8941092C62040
:100C40001092C7208091B6208F5F8093B62080914C
:100C5000B4209091B520805C9F4F8093B4209093F6
:100C6000B520F3E28C349F0721F46092B420709297
:100C7000B5206FB7F89480911820867019F46FBF73
:100C80001FBFBDCF5091B62015160CF03BC0209170
:100C9000B2203091B3207091C420872F90E0E1E022
:100CA0008C179D0709F4E0E0E093C4207723F1F46A
:100CB00020931C2030931D20E0921A20F0921B20DC
:100CC000FD0102E2069351505093B620C901805CA9
:100CD0009F4F8093B2209093B320F3E28C349F0710
:100CE00071F66092B2207092B320C9CF2093142085
:100CF00030931520E0921220F0921320FD0104E1C0
:100D00000693E1CF8091C5208130D1F0823009F087
:100D1000B6CF809118208670863009F0B0CF10923F
:100D2000C5201092C6201092C7201092B620609263
:100D3000B4207092B5206092B2207092B3209FCF01
:100D400022E02093C520E091B220F091B3202091C1
:100D5000C6203091C7207091C420872F90E051E0C9
:100D60008C179D0709F450E05093C420772361F459
:100D7000E0931C20F0931D2020931A2030931B2019
:100D8000FD0102E206937BCFE0931420F09315203F
:100D90002093122030931320FD0104E106936FCFBE
:100DA0008FEF97EAA1E681509040A040E1F700C0A4
:100DB0000000E0E6F6E080E28183878308950895ED
:100DC0008FEF97EAA1E681509040A040E1F700C084
:100DD0000000E0E6F6E080E28183878388E081839B
:100DE00085838CE08093A60980E18093A709E0EADF
:100DF000F9E0138288E1848383E085830895089570
:100E0000E0E6F6E088E08183858386E08093A609AA
:100E10001092A709E0EAF9E0138288E1848383E075
:100E200085830895EF92FF920F931F93CF93DF93E3
:100E3000F82EE92E162F072FA82FB92FED010990B4
:100E40000020E9F79E01E62FF72FEF01099000201F
:100E5000E9F7CE0101978E1B9F0B8A1B9B0B820F1C
:100E6000931F0E94CD1CD82FC92F6F2D7E2D0E945D
:100E7000F81E8D2F9C2F612F702F0E94ED1E8D2F3D
:100E80009C2FDF91CF911F910F91FF90EF900895CC
:100E9000EF92FF920F931F93CF93DF93CDB7DEB7FF
:100EA000A897CDBFDEBF7B0160E370E20E94EA1E1F
:100EB000009779F08E010D5F1F4F80E090E060E3B6
:100EC00070E20E94EA1EF801819391938F010097CE
:100ED000A1F70B851C858F8198850E94FC1D20E061
:100EE00030E048EC52E40E94821ADC01CB01F701A9
:100EF00080839183A283B383C8010E94FC1D20E0FC
:100F000030E048EC52E40E94821ADC01CB01F70188
:100F100084839583A683B783A896CDBFDEBFDF9178
:100F2000CF911F910F91FF90EF9008952F923F92D4
:100F30004F925F926F927F928F929F92AF92BF92E9
:100F4000CF92DF92EF92FF920F931F93CF93DF9395
:100F5000CDB7DEB72697CDBFDEBF4B015C0129833D
:100F60003A834B835C83C090AE20D090AF20E0905A
:100F7000B020F090B120A70196010E94B41925E39A
:100F80003AEF4EE85CE30E94C81B20E030E040E00E
:100F90005FE30E94C81B0E942B1C9B01AC010E94B6
:100FA000C81B362E272E8D839E83C701B60125E3ED
:100FB0003AEF4EE85CE30E94C81B0E947F1A7B0157
:100FC0008C01C501B40125E33AEF4EE85CE30E94D1
:100FD000C81B0E947F1A2B013C0169817A818B8199
:100FE0009C812091AA203091AB204091AC2050915F
:100FF000AD200E94B41925E33AEF4EE85CE30E946D
:10100000C81B20E030E040E05FE30E94C81B0E9464
:101010002B1C9B01AC010E94C81BB62ED72E882E1C
:10102000C92EC801B701A30192010E94C81B0B2D54
:101030001D2D282D3C2DA90198010E94C81B9B0144
:10104000AC01F1017D816E818F2F9E2FA72FB62FCE
:10105000BC01CD010E94B519862E072F382E492ECE
:10106000982F482D502F692F742DCB01BA010E9463
:10107000351C6B017C0160E070E080E89FE3E02FAD
:10108000082D1E2F232D342DA90198010E94B4197B
:101090000E94351C9B01AC01C701B6010E94281AB1
:1010A0009B01AC010E94B51920E038EF46EC55E4F5
:1010B0000E94C81B462F572F682F792FCB01BA01EA
:1010C0002696CDBFDEBFDF91CF911F910F91FF908C
:1010D000EF90DF90CF90BF90AF909F908F907F90D8
:1010E0006F905F904F903F902F9008952F923F9276
:1010F0004F925F926F927F928F929F92AF92BF9228
:10110000CF92DF92EF92FF920F931F93CF93DF93D3
:10111000CDB7DEB7C253D140CDBFDEBF82E390E290
:1011200060E370E20E94EA1E009779F08E010D5F85
:101130001F4F80E090E060E370E20E94EA1ED80159
:101140008D939D938D010097A1F70B851C858F8151
:1011500098850E94FC1D20E030E048EC52E40E949B
:10116000821A862E672E482E292EC8010E94FC1D49
:1011700020E030E048EC52E40E94821A962E772E4E
:10118000582E392E882D962DA42DB22DBC01CD01BF
:10119000092D172D252D332DA9019801C7DE6B01CF
:1011A0007C012091A6203091A7204091A820509149
:1011B000A9200E94BD1B18160CF4C2C081E08093C8
:1011C000C5202FB7F89480911820867081F1309156
:1011D000B62013160CF093C08091B2209091B320EA
:1011E0004091C42051E0413009F450E05093C420B4
:1011F000442309F06EC080931C2090931D2040E48E
:1012000050E040931A2050931B20E8E1F0E202E204
:10121000069331503093B620805C9F4F8093B2206C
:101220009093B320F3E28C349F0709F461C02FBF81
:1012300082E0E0ECF4E0858796E02FB7F8948091A7
:10124000C520882309F43CC080E02FBF882309F51E
:101250008091C320882389F32FB7F8941092B62089
:101260008CE491E28093B4209093B5208093B220D7
:101270009093B320E8E1F0E206E0059308E00693DE
:101280001092C5201092C6201092C7201092C42040
:101290002FBFCE5CDE4FCDBFDEBFDF91CF911F9160
:1012A0000F91FF90EF90DF90CF90BF90AF909F9005
:1012B0008F907F906F905F904F903F902F90089508
:1012C0008091B620392F381B81E013160CF4BDCF66
:1012D000BBCF809314209093152040E450E04093BE
:1012E000122050931320E8E1F0E204E1069391CF3D
:1012F0008CE491E28093B2209093B32098CF8091B8
:10130000C520813009F440C3823009F090CF80912C
:1013100018208670863009F08ACF1092C52010926E
:10132000C6201092C7201092B6208CE491E28093E0
:10133000B4209093B5208093B2209093B32077CFC0
:10134000EDB7FEB73897EDBFFEBF31968E0107535C
:101350001F4FADB7BEB711960D931C93129742E77E
:10136000A42E40E2B42EA282B382282D362D442D25
:10137000522DC901DA0184839583A683B7830E9425
:101380005D1FEDB7FEB731969E012B593F4FC15DF2
:10139000DE4F28833983CF52D140ADB7BEB7119607
:1013A0002D933C931297A282B382292D372D452D80
:1013B000532DC901DA0184839583A683B7830E94E4
:1013C0005D1FEDB7FEB731969E012F5F3F4FC35DA6
:1013D000DE4F28833983CD52D140ADB7BEB71196C9
:1013E0002D933C931297A282B382C482D582E68267
:1013F000F7820E945D1FF80101900020E9F7319704
:10140000E01BF10BC15DDE4FA881B981CF52D14005
:101410000D900020E9F72D01089441085108C15DA5
:10142000DE4F28813981CF52D140421A530AC35D21
:10143000DE4FA881B981CD52D1400D900020E9F74F
:101440001D01089421083108C35DDE4F28813981D0
:10145000CD52D140221A330A8DB79EB708968DBF60
:101460009EBF1E161F060CF045C04801D801AE0FE6
:10147000BF1FCF5CDE4FA883B983C153D14056E074
:1014800088E1E82E80E2F82E9CE4692E91E2792E24
:1014900012E021E0C22ED12C30E4A32EB12CF401B5
:1014A00021914F019FB7F8948091C520882309F4BA
:1014B000DFC080E09FBF8823A9F38091C620909170
:1014C000C720E091B420F091B520E80FF91F2083E8
:1014D00001968093C6209093C7208034910509F42B
:1014E000D0C0CF5CDE4F28813981C153D1408216F4
:1014F0009306A9F696E02FB7F8948091C52088232B
:1015000009F474C180E02FBF8823A9F38091C6201D
:101510009091C720E091B420F091B520E80FF91F19
:1015200020E2208301968093C6209093C7208034C8
:10153000910509F44EC214141504DCF575E6872EE6
:10154000912C8C0E9D1E480C591C36E0E8E1EE2EC5
:10155000E0E2FE2EFCE46F2EF1E27F2E12E0A1E02D
:10156000CA2ED12CB0E4AB2EB12CD4012D919FB753
:10157000F8948091C520882309F441C180E09FBF81
:101580008823A9F38091C6209091C720E091B420D0
:10159000F091B520E80FF91F208301968093C620B3
:1015A0009093C7208034910509F432C1A415B50584
:1015B000E9F696E02FB7F8948091C520882309F4C6
:1015C000DAC180E02FBF8823A9F38091C6209091D3
:1015D000C720E091B420F091B520E80FF91F20E278
:1015E000208301968093C6209093C7208034910574
:1015F00009F458C3121413040CF0E0CD5E010894F2
:10160000A11CB11C2A0C3B1C46E0A8E1B0E23CE462
:10161000632E31E2732E12E051E0E52EF12C60E4EE
:10162000C62ED12CF50121915F019FB7F8948091CE
:10163000C520882309F47AC280E09FBF8823A9F3DC
:101640008091C6209091C720E091B420F091B52000
:10165000E80FF91F208301968093C6209093C7203E
:101660008034910509F46BC2A214B304D9F6A6CD57
:101670008091B620352F381B81E013160CF41ACF59
:1016800018CFBFB7F8941092C6201092C72080914F
:10169000B6208F5F8093B6208091B4209091B520C2
:1016A000805C9F4F8093B4209093B520F3E28C34FC
:1016B0009F0721F46092B4207092B520AFB7F894E0
:1016C00080911820867019F4AFBFBFBF0ACF209158
:1016D000B62012160CF03BC06091B2207091B3207E
:1016E0003091C420832F90E041E08C159D0509F4D2
:1016F00040E04093C4203323F1F460931C207093A6
:101700001D20A0921A20B0921B20F70102E206933E
:1017100021502093B620CB01805C9F4F8093B22054
:101720009093B320F3E28C349F0771F66092B2205D
:101730007092B320C9CF6093142070931520A092AB
:101740001220B0921320F70104E10693E1CF8091BB
:10175000C5208130D1F0823009F0B6CF80911820B9
:101760008670863009F0B0CF1092C5201092C62046
:101770001092C7201092B6206092B4207092B520CB
:101780006092B2207092B3209FCF1093C5207091C9
:10179000B220E091B3202091C6203091C720609103
:1017A000C420862F90E041E08C159D0509F440E0AF
:1017B0004093C420872F9E2F662361F480931C20C2
:1017C00090931D2020931A2030931B20F70102E2F2
:1017D00006937ACF809314209093152020931220A3
:1017E00030931320F70104E106936ECF8091B62069
:1017F000392F381B81E013160CF485CE83CE8091EF
:10180000B620432F481B81E014160CF4B8CEB6CE98
:101810009FB6F8941092C6201092C7208091B620EF
:101820008F5F8093B6208091B4209091B520805C2A
:101830009F4F8093B4209093B520E3E28C349E07B1
:1018400021F46092B4207092B5206FB7F894809123
:101850001820867019F46FBF9FBEA8CE2091B620C5
:1018600012160CF03BC04091B2205091B320709101
:10187000C420872F90E0E1E08C159D0509F4E0E09D
:10188000E093C4207723F1F440931C2050931D2053
:10189000A0921A20B0921B20F70102E20693215079
:1018A0002093B620CA01805C9F4F8093B220909312
:1018B000B320F3E28C349F0771F66092B2207092ED
:1018C000B320C9CF4093142050931520A09212202A
:1018D000B0921320F70104E10693E1CF8091C52077
:1018E0008130D1F0823009F0B6CF80911820867017
:1018F000863009F0B0CF1092C5201092C620109209
:10190000C7201092B6206092B4207092B5206092E9
:10191000B2207092B3209FCF1093C520E091B220E7
:10192000F091B3204091C6205091C7207091C420FF
:10193000872F90E021E08C159D0509F420E020938D
:10194000C420772361F4E0931C20F0931D20409382
:101950001A2050931B20F70102E206937CCFE093FC
:101960001420F09315204093122050931320F70178
:1019700004E1069370CF8091B620392F381B81E0A7
:1019800013160CF41FCE1DCE82E08093C52060910B
:10199000B2203091B3204091C6205091C720809151
:1019A000C42091E0813009F490E09093C420882312
:1019B00009F026C2862F932F80931C2090931D2020
:1019C00040931A2050931B20E8E1F0E202E20693D4
:1019D0002ECC7FB7F8941092C6201092C720809129
:1019E000B6208F5F8093B6208091B4209091B5206F
:1019F000805C9F4F8093B4209093B52033E28C3469
:101A0000930731F48CE491E28093B4209093B52055
:101A10006FB7F89480911820867071F14091B620CC
:101A200014160CF03BC08091B2209091B32020910D
:101A3000C42031E0213009F430E03093C420222367
:101A4000F1F480931C2090931D2020E430E020933B
:101A50001A2030931B20E8E1F0E202E206934150A5
:101A60004093B620805C9F4F8093B2209093B32028
:101A7000A3E28C349A0781F16FBF7FBF5CCD809366
:101A800014209093152020E430E02093122030930E
:101A90001320E8E1F0E204E10693E1CF8091C52054
:101AA000813009F1823041F78091182086708630AC
:101AB00019F71092C5201092C6201092C7201092DC
:101AC000B6208CE491E28093B4209093B52080936B
:101AD000B2209093B320D0CF8CE491E28093B220D7
:101AE0009093B320C9CF82E08093C5204091B2206B
:101AF0005091B3208091C6209091C7202091C4209E
:101B000031E0213009F430E03093C420222309F081
:101B100086C140931C2050931D2080931A209093DF
:101B20001B20E8E1F0E202E20693A6CF8091B62006
:101B3000342F381B81E013160CF47FCD7DCD9FB67A
:101B4000F8941092C6201092C7208091B6208F5F23
:101B50008093B6208091B4209091B520805C9F4FF7
:101B60008093B4209093B520F3E28C349F0721F446
:101B70006092B4207092B5203FB7F89480911820FD
:101B8000867019F43FBF9FBE6FCD2091B62012160C
:101B90000CF03BC06091B2207091B3205091C420F2
:101BA000852F90E0E1E08E159F0509F4E0E0E093D9
:101BB000C4205523F1F460931C2070931D20C09223
:101BC0001A20D0921B20FD0102E20693215020939F
:101BD000B620CB01805C9F4F8093B2209093B320BE
:101BE000F3E28C349F0771F66092B2207092B320BA
:101BF000C9CF6093142070931520C0921220D09208
:101C00001320FD0104E10693E1CF8091C5208130CE
:101C1000D1F0823009F0B6CF8091182086708630DE
:101C200009F0B0CF1092C5201092C6201092C720A4
:101C30001092B6206092B4207092B5206092B220CB
:101C40007092B3209FCF1093C520E091B220F09105
:101C5000B3206091C6207091C7205091C420852F79
:101C600090E021E08E159F0509F420E02093C42028
:101C7000552361F4E0931C20F0931D2060931A20FB
:101C800070931B20FD0102E206937CCFE0931420A9
:101C9000F09315206093122070931320FD0104E14E
:101CA000069370CF6FB7F8941092C6201092C72099
:101CB0008091B6208F5F8093B6208091B420909160
:101CC000B520805C9F4F8093B4209093B520F3E2C1
:101CD0008C349F0731F48CE491E28093B42090938C
:101CE000B5205FB7F89480911820867071F140910B
:101CF000B62014160CF03BC08091B2209091B32016
:101D00002091C42031E0213009F430E03093C42028
:101D10002223F1F480931C2090931D2020E430E0D6
:101D200020931A2030931B20E8E1F0E202E20693B0
:101D300041504093B620805C9F4F8093B220909397
:101D4000B32023E28C34920781F15FBF6FBF52CC86
:101D5000809314209093152020E430E020931220EB
:101D600030931320E8E1F0E204E10693E1CF8091A3
:101D7000C520813009F1823041F7809118208670AA
:101D8000863019F71092C5201092C6201092C720F5
:101D90001092B6208CE491E28093B4209093B52009
:101DA0008093B2209093B320D0CF8CE491E28093C3
:101DB000B2209093B320C9CF82E08093C520709168
:101DC000B2204091B3208091C6209091C7202091ED
:101DD000C42031E0213009F430E03093C4202223C4
:101DE00059F5272F342F20931C2030931D208093EA
:101DF0001A2090931B20E8E1F0E202E20693A5CFBF
:101E0000862F932F809314209093152040931220B7
:101E100050931320E8E1F0E204E1069308CA4093EE
:101E20001420509315208093122090931320E8E102
:101E3000F0E204E1069320CE272F342F20931420C4
:101E4000309315208093122090931320E8E1F0E264
:101E500004E106937ACF8A3049F09091A10995FF69
:101E6000FCCF8093A00980E090E008959091A109B3
:101E700095FFFCCF9DE09093A009EFCF8091A10941
:101E80008B76E1F38091A00908958A3049F0909112
:101E9000A10995FFFCCF8093A00980E090E0089510
:101EA0009091A10995FFFCCF9DE09093A009EFCF01
:101EB0008091A1098B76E1F38091A0090895DF92CA
:101EC000EF92FF920F931F93CF93DF93EC01F62EC7
:101ED000E72E8091A10985FFFCCF8DE08093A009BA
:101EE0008FEF97EAA1E681509040A040E1F700C053
:101EF00000008FEF97EAA1E681509040A040E1F703
:101F000000C00000E5E7F0E22DE091919A3009F47D
:101F1000A1C18091A10985FFFCCF9093A00990E217
:101F2000E138F90791F78FEF93ECA9E081509040E9
:101F3000A040E1F700C0000081E08093C5205FB7BA
:101F4000F89480911820867009F094C15FBF82E0F8
:101F5000E0ECF4E0858736E09FB7F8948091C520E7
:101F6000882309F47EC180E09FBF882309F5809112
:101F7000C320882389F32FB7F8941092B6208CE4FD
:101F800091E28093B4209093B5208093B2209093F7
:101F9000B320E8E1F0E206E0059308E00693109232
:101FA000C5201092C6201092C7201092C4202FBFC7
:101FB000DE010D900020E9F7CD018C1B9D0B0996E9
:101FC0000E94CD1C8C01FC01A0E8B0E28AE00D90DB
:101FD00001928150E1F7C801BE010E94ED1ED801B7
:101FE0000D900020E9F7CD01801B910B02960E9415
:101FF000CD1CD92EC82FD92FCE01B8010E94F81EB2
:10200000AC2FBD2DFD0101900020E9F73197EA1BAF
:10201000FB0BEC0FFD1FAAE8B0E283E00D900192EC
:102020008150E1F7AC2FBD2FFD0101900020E9F7B1
:10203000EA1BFB0B31961E161F068CF480E090E025
:102040004DE039913A3009F4AEC12091A10925FF44
:10205000FCCF3093A00901968E179F0794F38FEF62
:1020600093ECA9E081509040A040E1F700C000004F
:1020700081E08093C5202FB7F89480911820867056
:1020800009F028C22FBF82E0E0ECF4E0858736E05B
:102090009FB7F8948091C520882309F49BC180E004
:1020A0009FBF882309F58091C320882389F32FB728
:1020B000F8941092B6208CE491E28093B42090932F
:1020C000B5208093B2209093B320E8E1F0E206E0DF
:1020D000059308E006931092C5201092C620109236
:1020E000C7201092C4202FBFAF2DBE2DFD0101903F
:1020F0000020E9F7EA1BFB0B32961E161F068CF434
:1021000080E090E04DE03D913A3009F453C12091D8
:10211000A10925FFFCCF3093A00901968E179F07D8
:1021200094F38FEF93ECA9E081509040A040E1F749
:1021300000C0000081E08093C5202FB7F894809103
:102140001820867009F058C12FBF82E0E0ECF4E05F
:10215000858736E09FB7F8948091C520882309F4DD
:1021600042C180E09FBF882309F58091C320882366
:1021700089F32FB7F8941092B6208CE491E2809303
:10218000B4209093B5208093B2209093B320E8E1DF
:10219000F0E206E0059308E006931092C520109245
:1021A000C6201092C7201092C4202FBF8091A10991
:1021B00085FFFCCF8AE18093A0098FEF93ECA9E023
:1021C00081509040A040E1F700C0000081E0809382
:1021D000C5202FB7F89480911820867009F043C16C
:1021E0002FBF82E0E0ECF4E0858736E09FB7F894FB
:1021F0008091C520882309F4E4C080E09FBF882334
:1022000009F58091C320882389F32FB7F8941092A1
:10221000B6208CE491E28093B4209093B520809313
:10222000B2209093B320E8E1F0E206E0059308E0E5
:1022300006931092C5201092C6201092C7201092CB
:10224000C4202FBFDF91CF911F910F91FF90EF908E
:10225000DF9008958091A10985FFFCCF2093A0090C
:1022600058CE8091B620232F281B81E012160CF443
:102270007BCE79CE4091B62014160CF040C08091F0
:10228000B2209091B3202091C42031E0213009F494
:1022900030E03093C420222319F580931C209093C2
:1022A0001D2020E430E020931A2030931B20E8E129
:1022B000F0E202E2069341504093B620805C9F4FCB
:1022C0008093B2209093B320A3E28C349A0709F054
:1022D0003DCE8CE491E28093B2209093B32036CE31
:1022E000809314209093152020E430E02093122056
:1022F00030931320E8E1F0E204E10693DCCF809113
:10230000C5208130E1F0823009F020CE8091182084
:102310008670863009F01ACE1092C5201092C62021
:102320001092C7201092B6208CE491E28093B420E2
:102330009093B5208093B2209093B32007CE82E093
:102340008093C5206091B2204091B3208091C62037
:102350009091C7202091C42031E0213011F13093B9
:10236000C420222379F4262F342F20931C2030936D
:102370001D2080931A2090931B20E8E1F0E202E2F6
:102380000693E4CD262F342F20931420309315206C
:102390008093122090931320E8E1F0E204E1069389
:1023A000D5CD30E0DCCF2091A10925FFFCCF4093B3
:1023B000A0094BCE2091A10925FFFCCF4093A00995
:1023C000A6CE8091B620232F281B81E012160CF494
:1023D00015CF13CF8091B620232F281B81E0121632
:1023E0000CF45ECE5CCE8091B620232F281B81E0BA
:1023F00012160CF4B7CEB5CE3091B62013160CF0F1
:102400000FC18091B2209091B3204091C42051E03F
:10241000413009F450E05093C420442309F091C0A6
:1024200080931C2090931D2040E450E040931A209C
:1024300050931B20E8E1F0E202E206933150309322
:10244000B620805C9F4F8093B2209093B320A3E28C
:102450008C349A0709F078CE8CE491E28093B22014
:102460009093B32071CE3091B62013160CF0B7C004
:102470008091B2209091B3204091C42051E041302E
:1024800009F450E05093C420442309F069C08093BC
:102490001C2090931D2040E450E040931A2050935C
:1024A0001B20E8E1F0E202E2069331503093B620BF
:1024B000805C9F4F8093B2209093B320A3E28C3432
:1024C0009A0709F08DCE8CE491E28093B22090932C
:1024D000B32086CE3091B62013160CF05FC08091E9
:1024E000B2209091B3204091C42051E0413009F4D2
:1024F00050E05093C420442309F041C080931C2035
:1025000090931D2040E450E040931A2050931B20EC
:10251000E8E1F0E202E2069331503093B620805CAD
:102520009F4F8093B2209093B320A3E28C349A07FC
:1025300009F0A8CD8CE491E28093B2209093B3206F
:10254000A1CD809314209093152040E450E0409357
:10255000122050931320E8E1F0E204E106936ECFDD
:10256000809314209093152040E450E04093122073
:1025700050931320E8E1F0E204E1069396CF8093B4
:1025800014209093152040E450E040931220509383
:102590001320E8E1F0E204E10693BECF8091C5206C
:1025A000813009F45EC0823009F06CCD8091182032
:1025B0008670863009F066CD1092C5201092C62034
:1025C0001092C7201092B6208CE491E28093B42040
:1025D0009093B5208093B2209093B32053CD8091F7
:1025E000C520813009F462C0823009F0F9CD8091B4
:1025F00018208670863009F0F3CD1092C520109215
:10260000C6201092C7201092B6208CE491E28093ED
:10261000B4209093B5208093B2209093B320E0CD66
:102620008091C520813009F466C0823009F08CCDDC
:10263000809118208670863009F086CD1092C520D2
:102640001092C6201092C7201092B6208CE491E21E
:102650008093B4209093B5208093B2209093B320C0
:1026600073CD82E08093C5206091B2203091B32079
:102670008091C6209091C7204091C42051E0413004
:1026800009F450E05093C420442309F058C0462F69
:10269000532F40931C2050931D2080931A20909319
:1026A0001B20E8E1F0E202E20693ECCC82E08093AA
:1026B000C5206091B2203091B3204091C620509146
:1026C000C7208091C42091E0813009F490E090937C
:1026D000C420882309F042C0862F932F80931C20AA
:1026E00090931D2040931A2050931B20E8E1F0E2C4
:1026F00002E2069375CD82E08093C5206091B220FE
:102700003091B3204091C6205091C7208091C420C1
:1027100091E0813009F490E09093C420882369F51A
:10272000862F932F80931C2090931D2040931A2076
:1027300050931B20E8E1F0E202E2069305CD462F1C
:10274000532F409314205093152080931220909380
:102750001320E8E1F0E204E1069394CC862F932F56
:1027600080931420909315204093122050931320AF
:10277000E8E1F0E204E1069333CD862F932F8093B6
:102780001420909315204093122050931320E8E1D9
:10279000F0E204E10693D8CC0F931F93CF93DF931D
:1027A0009C01AAECB0E28D018AE091E2FD01119258
:1027B00041E2EA30F407D9F71092C120F901C08153
:1027C000D0E0C076D070C034D10531F080E0DF9128
:1027D000CF911F910F9108954181463109F4E7C0CF
:1027E000473108F14B3B09F490C04C3B08F048C01E
:1027F000473161F70480F581E02D80818093CA2004
:1028000081818093CB2000930C2010930D2082E0D7
:1028100090E080930A2090930B20E8E0F0E202E23F
:10282000069381E0D4CF423009F4A0C0433068F46D
:10283000442361F684819581009709F4C9C08130F1
:10284000910509F4BDC081E0C2CF4830A9F14930FB
:1028500009F0BCCF0480F581E02D80818093CA20EF
:1028600000930C2010930D2081E090E080930A20CB
:1028700090930B20E8E0F0E202E2069381E0A7CF1C
:10288000403E19F1413E09F0A1CF4093C12084811F
:102890008093C02000930C2010930D2010920A20EA
:1028A00010920B20E8E0F0E202E2069381E0DF9173
:1028B000CF911F910F910895D9010480F581E02DEA
:1028C00012968C9112978083E5CFF901648175810E
:1028D0000024769567950794769567950794762FEB
:1028E000602D8AEC90E240E450E00E94DB1F0093F0
:1028F0000C2010930D20C0930A20D0930B20E8E009
:10290000F0E202E2069381E062CFF89400930C209B
:1029100010930D2010920A2010920B20E8E0F0E2B4
:1029200002E20693389702E706938091002085FF24
:10293000FCCF8FEF99EFA0E081509040A040E1F7ED
:1029400000C000008091C1048E7FE0ECF4E0818340
:102950008FEF93ECA9E081509040A040E1F700C0D8
:102960000000ECEFF7E4099581E031CF30914C2382
:1029700020914D23C32FD22FFE0101900020E9F7B3
:102980003197E31B29912D938A179B07D9F78E2F37
:1029900090E000930C2010930D2080930A209093D8
:1029A0000B20E8E0F0E202E2069381E010CFF901AB
:1029B000828193810480F581E02D808391836ACFA9
:1029C00087E492E06BE070E00E948D0281E0FFCE30
:1029D00082E592E06BE070E00E948D0281E0F7CE2C
:1029E000462F2091C120213E09F008952091C0205A
:1029F00030E000243695279507943695279507945F
:102A0000322F202DB90150E00C94E61F9230F9F0DE
:102A10009330A1F0913049F080E090E0E0E0F0E008
:102A2000DA01ED93FC931197089582E190E0E5EBD4
:102A3000F2E0DA01ED93FC9311970895813081F073
:102A4000813098F4E1E9F2E0849190E0E9CF80E20E
:102A500090E0E5E9F2E0DA01ED93FC931197089537
:102A6000E3E7F2E0849190E0DBCF8230A9F6EDE578
:102A7000F2E0849190E0D4CF0E94B2020E9423023F
:102A8000E0ECF4E082E4808783E08187E0EAF0E034
:102A900082837894E0E6F6E098E09183958396E06F
:102AA0009093A6091092A709E0EAF9E0138298E151
:102AB0009483858381E08093C5202FB7F89480911B
:102AC0001820867009F477C03091B62013160CF0E8
:102AD0006CC08091B2209091B3204091C42051E00D
:102AE000413009F450E05093C420442309F0ADC0B4
:102AF00080931C2090931D2040E450E040931A20C6
:102B000050931B20E8E1F0E202E20693315030934B
:102B1000B620805C9F4F8093B2209093B32033E225
:102B20008C34930709F48AC08CE491E22FBF22E031
:102B3000A0ECB4E01D962C931D9736E04FB7F894A7
:102B40002091C520222349F120E04FBF2223E9F440
:102B50002091C320222391F32FB7F8941092B6202E
:102B60008093B4209093B5208093B2209093B320AB
:102B700006E0059308E006931092C5201092C62047
:102B80001092C7201092C4202FBF0E9476088DE8B3
:102B900090E26AE970E293D9FFCF2091B620532FDB
:102BA000521B21E015168CF2CFCF8091C5208130C9
:102BB000F9F0823019F0E8E1F0E2B6CF8091182008
:102BC00086708630C1F71092C5201092C6201092F0
:102BD000C7201092B6208CE491E28093B4209093A9
:102BE000B5208093B2209093B320E8E1F0E29ECF2D
:102BF00082E08093C5206091B2203091B320409153
:102C0000C6205091C7208091C42091E0813009F402
:102C100090E09093C420882339F5862F932F8093DA
:102C20001C2090931D2040931A2050931B20E8E114
:102C3000F0E202E206938CE491E278CF8CE491E238
:102C40008093B2209093B32071CF809314209093FF
:102C5000152040E450E04093122050931320E8E107
:102C6000F0E204E1069352CF862F932F8093142035
:102C7000909315204093122050931320E8E1F0E246
:102C800004E106938CE491E251CFA5E1B0E0EAE4DF
:102C9000F6E152C64C016E877F87FC0116821782CF
:102CA000838181FD04C05BC34C855D8504C01E012A
:102CB0000894211C311CF4019381EE85FF8593FD5E
:102CC000859193FF8191EE87FF87882309F443C3A1
:102CD000853241F493FD859193FF8191EE87FF87C3
:102CE000853259F490E0B4014C8B5D8B0E94311F0A
:102CF0004C895D894C875D87D7CFFF24DD2410E0A8
:102D00001032B0F48B3269F08C3228F4803251F0FA
:102D1000833271F40BC08D3239F0803349F4116085
:102D20002CC01260146029C0186027C0106125C033
:102D300017FD2EC0282F20532A3098F416FF08C004
:102D40008F2D880FF82EFF0CFF0CF80EF20E15C019
:102D50008D2D880FD82EDD0CDD0CD80ED20E106212
:102D60000CC08E3221F416FDF6C2106406C08C36FB
:102D700011F4106802C0883659F4EE85FF8593FD82
:102D8000859193FF8191EE87FF87882309F0B8CF63
:102D9000982F9554933018F41061805E06C0982FD8
:102DA0009556933008F093C11F7E16FD02C0E6E0F1
:102DB000FE2E1F73853611F4106406C0863611F49A
:102DC000106802C0F110FA9417FF07C0FBE3FF156B
:102DD00048F0EF2CE39427E00DC027E02F1530F0EA
:102DE0002F2D07C027E07CE3E72E04C027E067E033
:102DF000F62EEE24CA0104968C879D87FA01608125
:102E0000718182819381A1010E2DF9D65C01C98067
:102E10002C2D30E0288B398BC0FE03C0388933FF5E
:102E200006C011FD06C012FF06C000E205C00DE29B
:102E300003C00BE201C000E0888999898C70907012
:102E4000009709F43AC0002311F084E001C083E048
:102E50008D1558F4D81A13FD09C080E290E0B40132
:102E60000E94311FDA94C9F701C0DD24002321F04C
:102E7000802F90E0B401F5D7888983FD05C03BEC35
:102E8000E32E32E0F32E10C027ECE22E22E0F22EE9
:102E90000BC00115110509F0805290E0B401E1D793
:102EA0000894E11CF11C04C0012F10E000711070A7
:102EB000F7018491882369F74BC217FF0EC0EA0C13
:102EC000F889F4FF04C08A81813309F4EA941E145E
:102ED0004CF528E02E1548F12CC016FD2AC08F2D88
:102EE00090E08A159B0544F03CEFA3163FEFB30634
:102EF0001CF0106801C0FA94FF2049F0E2E0F0E015
:102F0000EC0FFD1FEF0DF11D80818033A1F317FF42
:102F100010C0EF2CE3948F2D90E0A816B90644F46E
:102F2000FA1807C0EE24E39404C098E0E92E01C02B
:102F3000FF2417FF07C01A141B043CF495012F5FF0
:102F40003F4F05C025E030E002C021E030E0002323
:102F500011F02F5F3F4FFF2029F08F2D90E0019659
:102F6000280F391F8D2D90E02817390714F4D21A35
:102F700001C0DD24612E7724C30189709070009711
:102F800041F405C080E290E0B4016BD7DA94DD2013
:102F9000C9F7002321F0802F90E0B40162D763FCD1
:102FA00008C005C080E390E0B4015BD7DA94DD206F
:102FB000C9F717FF46C08501B7FE02C000E010E068
:102FC0006624772495012E1931092A8B3B8B250124
:102FD000401A510A420C531C6F2D70E0EE24FF245E
:102FE000E61AF70A3FEF0F3F130721F48EE290E055
:102FF000B40137D7A016B10654F02A893B892017AF
:1030000031072CF4F201E60DF71D818101C080E348
:10301000015010400894611C711C0E151F0524F00E
:1030200090E0B4011ED7DECF0A151B0541F49A814A
:10303000963320F4953319F4388934FF81E390E016
:1030400043C08A81813311F09FEEC92290E0B40120
:1030500008D7FF2079F08EE290E0B40102D712E0A9
:10306000F101E10FF11D1F5F808190E0B401F9D6FD
:10307000FA94B1F764FE03C085E490E002C085E6EF
:1030800090E0B401EED6B7FC05C0A114B10441F440
:10309000C4FE06C0B094A194B108B3948DE201C0FF
:1030A0008BE290E0B401DDD680E305C08F5FE6EFF0
:1030B000FFEFAE0EBF1EFAE0AF16B104BCF790E012
:1030C000B401CFD6C501C096B401CBD641C1833679
:1030D00031F0833789F0833509F055C021C09A015A
:1030E0002E5F3F4F2C873D87FA018081898381E0E5
:1030F000E82EF12C510112C09A012E5F3F4F2C8710
:103100003D87FA01A080B18016FF03C06F2D70E0EB
:1031100002C06FEF7FEFC50172D67C011F7713C02D
:103120009A012E5F3F4F2C873D87FA01A080B18026
:1031300016FF03C06F2D70E002C06FEF7FEFC50177
:103140003ED67C01106813FD1AC005C080E290E0F5
:10315000B40187D6DA948D2D90E0E816F906B0F325
:103160000EC0F50117FD859117FF81915F0190E079
:10317000B40177D6D110DA940894E108F108E1148B
:10318000F10479F7E5C0843611F0893669F59A01C2
:1031900017FF0AC02C5F3F4F2C873D87FA018081C3
:1031A0009181A281B3810BC02E5F3F4F2C873D8759
:1031B000FA0180819181AA2797FDA095BA2F012F4E
:1031C0000F76B7FF08C0B095A095909581959F4F59
:1031D000AF4FBF4F0068BC01CD01A1012AE030E034
:1031E0008CD6E82EE21840C0853721F41F7E2AE0F5
:1031F00030E020C0197F8F36A9F0803720F4883561
:1032000009F0A9C00BC0803721F0883709F0A3C0AE
:1032100001C0106114FF09C0146007C014FF08C08A
:10322000166006C028E030E005C020E130E002C0B2
:1032300020E132E0CA0117FF09C004968C879D8700
:10324000FA01608171818281938108C002968C8726
:103250009D87FA016081718180E090E0A1014DD6E7
:10326000E82EE218012F0F7706FF09C00E7FEF143A
:1032700030F404FF06C002FD04C00F7E02C01E2D04
:1032800001C01F2D802F90E004FF0CC0FE01EE0D49
:10329000F11D2081203311F4097E09C002FF06C010
:1032A0001E5F05C086789070009709F01F5FA02E02
:1032B000BB2403FD11C000FF0CC0FE2C1D1548F4FB
:1032C000FD0CF11A1D2D05C080E290E0B401C9D5B6
:1032D0001F5F1D15C8F304C01D1510F4D11A01C0DD
:1032E000DD24A4FE0EC080E390E0B401BAD5A2FEB6
:1032F0001DC0A1FE03C088E590E010C088E790E003
:103300000DC0C50186789070009781F0A1FC02C0C5
:1033100080E201C08BE207FD8DE290E0B401A1D50F
:1033200005C080E390E0B4019CD5FA94EF14C8F393
:10333000EA94F101EE0DF11D808190E0B40191D588
:10334000EE20B1F705C080E290E0B4018AD5DA94AE
:10335000DD20C9F7A9CCF4018681978102C08FEFE7
:103360009FEF6596E2E101C35058BB27AA270ED014
:10337000B9C182D130F087D120F031F49F3F11F4F0
:103380001EF452C10EF4E095E7FB48C1E92FCCD101
:1033900080F3BA17620773078407950718F071F472
:1033A0009EF5E4C10EF4E0950B2EBA2FA02D0B0173
:1033B000B90190010C01CA01A0011124FF27591B7A
:1033C00099F0593F50F4503E68F11A16F040A22F80
:1033D000232F342F4427585FF3CF469537952795F1
:1033E000A795F0405395C9F77EF41F16BA0B620BF0
:1033F000730B840BBAF09150A1F0FF0FBB1F661F37
:10340000771F881FC2F70EC0BA0F621F731F841F79
:1034100048F4879577956795B795F7959E3F08F09F
:10342000B3CF9395880F08F09927EE0F979587955E
:10343000089522D158F080E891E009F49EEF23D15D
:1034400028F040E851E059F45EEF09C0EDC08EC1AC
:10345000E92FE07869D168F3092E052AC1F3261710
:1034600037074807590738F00E2E07F8E02569F0AE
:10347000E025E0640AC0EF6307F8009407FADB0177
:10348000B9019D01DC01CA01AD01EF934AD02AD1F7
:103490000AD05F91552331F02BED3FE049E450FD18
:1034A00049EC63CF0895DF93DD27B92FBF7740E85C
:1034B0005FE31616170648075B0710F4D92F61D192
:1034C0009F938F937F936F930ED2ECEFF1E0AFD089
:1034D00009D12F913F914F915F9166D1DD2349F042
:1034E0009058A2EA2AED3FE049EC5FE3D0785D27EF
:1034F0004DDFDF91F7C06ED008F481E00895CBD0A6
:10350000E39501C10CD0EEC0BED040F0B5D030F094
:1035100021F45F3F19F082C0511129C185C004D147
:1035200098F39923C9F35523B1F3951B550BBB278A
:10353000AA2762177307840738F09F5F5F4F220F37
:10354000331F441FAA1FA9F333D00E2E3AF0E0E830
:1035500030D091505040E695001CCAF729D0FE2F7C
:1035600027D0660F771F881FBB1F2617370748070E
:10357000AB07B0E809F0BB0B802DBF01FF279358C4
:103580005F4F2AF09E3F510568F048C0F0C05F3F92
:10359000ECF3983EDCF3869577956795B795F795AC
:1035A0009F5FC9F7880F911D9695879597F90895A4
:1035B000E1E0660F771F881FBB1F62177307840740
:1035C000BA0720F0621B730B840BBA0BEE1F88F74F
:1035D000E0950895990F0008550FAA0BE0E8FEEF5B
:1035E00016161706E807F907C0F012161306E407C7
:1035F000F50798F0621B730B840B950B39F40A26C0
:1036000061F0232B242B252B21F408950A2609F49D
:10361000A140A6958FEF811D811D089597F99F67A1
:1036200080E870E060E008959FEF80EC0895DF93FC
:10363000CF931F930F93FF92EF92DF927B018C0148
:10364000689405C0DA2EEF01AFD0FE01E894A59191
:103650002591359145915591AEF3EF0197DEFE012D
:103660009701A801DA9479F7DF90EF90FF900F911E
:103670001F91CF91DF91089500240A941616170622
:1036800018060906089500240A9412161306140653
:1036900005060895C9CF50D0E8F3E894E0E0BB27D1
:1036A0009F57F0F02AED3FE049EC06C0EE0FBB0F4C
:1036B000661F771F881F28F0B23A620773078407D6
:1036C00028F0B25A620B730B840BE3959A9572F74C
:1036D000803830F49A95BB0F661F771F881FD2F78A
:1036E000904806C1092E0394000C11F4882352F06F
:1036F000BB0F40F4BF2B11F460FF04C06F5F7F4F1E
:103700008F4F9F4F0895EF93E0FF06C0A2EA2AED86
:103710003FE049EC5FEB3ADEE5DF0F90039401FCFC
:103720009058E9E2F2E0F7C057FD9058440F551F5A
:1037300059F05F3F71F04795880F97FB991F61F033
:103740009F3F79F087950895121613061406551FAA
:10375000F2CF4695F1DF08C0161617061806991F16
:10376000F1CF86957105610508940895E894BB270B
:1037700066277727CB0197F908952CDF08F48FEFA0
:1037800008959B01AC0160E070E080E89FE3BACE51
:103790000BD0A8CF71DF28F076DF18F0952309F061
:1037A0003DCF42CF1124E3CFBFDFA0F3959FD1F3EC
:1037B000950F50E0551F629FF001729FBB27F00DDF
:1037C000B11D639FAA27F00DB11DAA1F649F662734
:1037D000B00DA11D661F829F2227B00DA11D621F83
:1037E000739FB00DA11D621F839FA00D611D221F3D
:1037F000749F3327A00D611D231F849F600D211D21
:10380000822F762F6A2F11249F5750408AF0E1F0C3
:1038100088234AF0EE0FFF1FBB1F661F771F881F0C
:1038200091505040A9F79E3F510570F0F7CE9FCFC1
:103830005F3FECF3983EDCF3869577956795B795F7
:10384000F795E7959F5FC1F7FE2B880F911D969521
:10385000879597F908959F931EDF0F9007FCEE5F01
:1038600052CF11F40EF4E0CE41C066DFD0F39923BD
:10387000D9F3CEF39F57550B87FF46D00024A0E61F
:1038800040EA900180585695979528F4805C660F21
:10389000771F881F20F026173707480730F4621B70
:1038A000730B840B202931294A2BA6951794079472
:1038B000202531254A2758F7660F771F881F20F0EB
:1038C00026173707480730F4620B730B840B200D63
:1038D000311D411DA09581F7B901842F9158880FA2
:1038E0009695879508959B01AC0152CF9F3F31F08B
:1038F000915020F4879577956795B795880F911D1E
:103900009695879597F9089591505040660F771FC7
:10391000881FD2F708959F938F937F936F93FF93A0
:10392000EF939B01AC0134DFEF91FF9180DE2F918B
:103930003F914F915F912CCF2F923F924F925F9288
:103940006F927F928F929F92AF92BF92CF92DF92AF
:10395000EF92FF920F931F93CF93DF93CDB7DEB714
:10396000CA1BDB0BCDBFDEBF09942A883988488883
:103970005F846E847D848C849B84AA84B984C8848B
:10398000DF80EE80FD800C811B81AA81B981CE0F82
:10399000D11DCDBFDEBFED010895CF93DF93AC0104
:1039A0008230910510F442E050E0E0915023F09114
:1039B000512320E030E0A0E0B0E024C0808191817C
:1039C00084179507D0F08417950771F4828193814D
:1039D000109729F012968D939C9313972CC0809387
:1039E00050239093512327C02115310519F08217D8
:1039F000930718F49C01BD01EF0192818381DF01DF
:103A0000E92FF82F3097D1F621153105F9F0C901CA
:103A1000841B950B8430910580F48A819B8161150C
:103A2000710521F0FB018283938304C080935023AE
:103A300090935123FE01329642C0FE01E80FF91F18
:103A40004193519302978883998339C080914E2383
:103A500090914F23009741F48091BB209091BC201E
:103A600080934E2390934F232091B9203091BA2018
:103A70002115310541F42DB73EB78091BD209091BD
:103A8000BE20281B390BE0914E23F0914F23E21703
:103A9000F30798F42E1B3F0B2417350770F0CA016B
:103AA00002962817390748F08E0F9F1F80934E23E8
:103AB00090934F234193519302C0E0E0F0E0CF0197
:103AC000DF91CF9108950F931F93CF93DF939C01C4
:103AD000009709F48CC0DC01129712961D921C927B
:103AE000139760915023709151236115710589F4EA
:103AF0008D919C911197820F931F20914E233091AD
:103B00004F232817390769F5A0934E23B0934F230D
:103B10006EC0FB0140E050E001C0FC01EA17FB076A
:103B200030F482819381AF010097B9F71FC0E9019A
:103B30002297EA83FB8308811981C901800F911FB5
:103B40008E179F0759F480819181800F911F0296F3
:103B500088839983828193818A839B834115510550
:103B600029F4A0935023B093512341C0FA01A283BA
:103B7000B383C191D191EC0FFD1FAE17BF0781F444
:103B8000F901929182918C0F9D1F0296DA018D931B
:103B90009C9311978281938112968D939C93139796
:103BA000E0E0F0E002C0FB01BC01DB0112968D9168
:103BB0009C9113970097B9F7CB0102962D913C91F8
:103BC0001197820F931F20914E2330914F23281776
:103BD000390769F4309729F4109250231092512339
:103BE00002C01282138260934E2370934F23DF91A1
:103BF000CF911F910F9108956627772732C2283001
:103C000008F027E03327DA01990F311D87FD916015
:103C100000966105710539F432602E5F3D9330E303
:103C20002A95E1F708959F3F30F0803871056105CE
:103C300009F03C5F3C5F3D93913008F08068911D36
:103C4000DF93CF931F930F93FF92EF92192F987FDB
:103C50009695E92F96959695E90FFF27E75DFC4F1E
:103C600099273327EE24FF24A701E7010590089444
:103C7000079428F4360FE71EF81E491F511D660FE2
:103C8000771F881F991F0694A1F70590079428F4C1
:103C9000E70EF81E491F561FC11D770F881F991F79
:103CA000661F0694A1F70590079428F4F80E491FA3
:103CB000561FC71FD11D880F991F661F771F0694B7
:103CC000A1F70590079420F4490F561FC71FD81F6E
:103CD000990F661F771F881F0694A9F78491109586
:103CE000177041F0D695C79557954795F794E79487
:103CF0001A95C1F7EFECF2E06894159015913591A3
:103D00006591959105907FE27395E118F10A430B57
:103D1000560BC90BD009C0F7E10CF11E431F561F0B
:103D2000C91FD01D7EF4703311F48A95E6CFE89454
:103D3000015030F0080F0AF40027021708F4202F72
:103D40002395022F7A3328F079E37D932A95E9F7BA
:103D500010C07D932A9589F60694979567953795B7
:103D600017951794E118F10A430B560BC90BD009AC
:103D700098F023957E9173957A3308F070E37C93E5
:103D80002013B8F77E9170617D9330F0839571E3D5
:103D90007D9370E32A95E1F71124EF90FF900F9146
:103DA0001F91CF91DF91992787FD909508959111EB
:103DB000B8C2803219F089508550D0F70895FC01BF
:103DC0000590615070400110D8F7809590958E0F46
:103DD0009F1F089548EC50E21DC0FB01DC010D90CF
:103DE0000020E9F7119701900D920020E1F7089566
:103DF000FB01DC0101900D920020E1F70895FC0128
:103E00006150704001900110D8F7809590958E0F09
:103E10009F1F0895FA01A191B081009719F410979E
:103E2000E1F0CD01DC01CD010D90002011F4C001C5
:103E300013C0FB012191222319F02015D9F7F3CFEC
:103E4000FB012191201519F41E92119606C0222320
:103E5000C1F70D900020A1F7D001FA01A193B08322
:103E600008950F931F93CF93DF938C01EB018B8108
:103E700081FF1BC082FF0DC02E813F818C819D81FF
:103E80002817390764F4E881F9810193E883F983FD
:103E900006C0E885F985802F0995009731F48E8159
:103EA0009F8101968E839F8302C00FEF1FEFC80191
:103EB000DF91CF911F910F910895AEE0B0E0E2E65F
:103EC000FFE148CD0D891E8986E08C8309831A8322
:103ED0008FEF9FE78D839E83AE01475E5F4FCE01DC
:103EE00001966F89788D0E944516EF81F885E00F65
:103EF000F11F10822E96E4E046CDFA01AA27283061
:103F000051F1203181F1E8946F936E7F6E5F7F4FA6
:103F10008F4F9F4FAF4FB1E03ED0B4E03CD0670F22
:103F2000781F891F9A1FA11D680F791F8A1F911D75
:103F3000A11D6A0F711D811D911DA11D20D009F4C5
:103F400068943F912AE0269F11243019305D319307
:103F5000DEF6CF010895462F4770405D4193B3E0F0
:103F60000FD0C9F7F6CF462F4F70405D4A3318F097
:103F7000495D31FD4052419302D0A9F7EACFB4E048
:103F8000A6959795879577956795BA95C9F7009700
:103F90006105710508959B01AC010A2E06945795A1
:103FA000479537952795BA95C9F7620F731F841FF8
:103FB000951FA01D0895E0ECF1E0A785A7FDFDCFBA
:103FC000A485A860A4876050704FC6C1DC01A40F0F
:103FD000B51F4150504040F0CB01840F951F2E91EA
:103FE00005D041505040D8F70895262F2ED000809C
:103FF000021611F004D0019701970895262FE0ECE6
:10400000F1E0378537FDFDCF3485377F348737853D
:1040100031FF09C036E3328738ED34BF31E03387F2
:10402000378537FDFDCF33E332878083918312825A
:10403000248325E3228728ED31E024BF33870196CE
:10404000089503D0808199270895E0ECF1E0378549
:1040500037FDFDCF348538603487FC01E050F04FE8
:104060000895A0E0B0E0E6E3F0E26ACC5B01611500
:10407000710521F0DB018C9311969C937C01E70183
:104080000894E11CF11C08816701802F90E08FDE0D
:104090000097A9F70D3241F4098142E0C42ED12CDA
:1040A000CC0EDD1E11E009C00B3231F4098132E083
:1040B000C32ED12CCC0EDD1E10E0E6012197CE01DF
:1040C00069EC73E043E050E02FD10097C9F4E601BA
:1040D0002296CE016CEC73E045E050E025D10097CC
:1040E00011F4E6012796A114B10419F0F501C0837B
:1040F000D18330E020E090E8112309F405C1FFC02E
:10410000CE0161ED73E043E050E00ED1009759F429
:10411000A114B10409F4F5C0C6010296D5018D932E
:104120009C931197EEC040E050E0BA018824992496
:1041300000530A3090F51260212F30E0C9018870D9
:10414000907012FF06C0009769F50894811C911CBD
:1041500029C0009719F0089481089108DB01CA0171
:10416000D2E0880F991FAA1FBB1FDA95D1F7480F1D
:10417000591F6A1F7B1F440F551F661F771F400F73
:10418000511D611D711D4839B9E95B07B9E96B071C
:10419000B9E17B0738F0146005C00E3F39F413FD18
:1041A00043C01860F60101916F01C2CF053311F0D1
:1041B0000531D1F5D601EC91ED3211F4106108C052
:1041C000EB3229F0C601019621E030E008C0D601AB
:1041D0001196EC911197C601029622E030E0E0536F
:1041E000EA3020F06C01C21AD30A1EC0DC0120E0C4
:1041F00030E0FCE020383F075CF4C901880F991FCC
:10420000880F991F280F391F220F331F2E0F311DC2
:10421000ED91E0536D01EA3060F314FF03C0309577
:1042200021953F4F820E931EC12FD0E011FF08C091
:10423000A114B10429F0C6010197D5018D939C9377
:10424000CB01BA0192D06B017C01CE0183709070DA
:104250008330910521F4F7FAF094F7F8F094C70150
:10426000B60120E030E0A90146D9882309F442C014
:1042700097FE07C09094819491089394C0E0D4E095
:1042800002C0C8EED3E098EE692E9FEF792E6C0E37
:104290007D1E20E2A22EB12C0EC0FE0105911591CB
:1042A00025913491C701B601A901980171DA6B011A
:1042B0007C018A189B088A149B047CF72497B59488
:1042C000A794C615D705B9F7C601D7012A2F220F23
:1042D0002B2F221F2F3F41F0BC01CD0120E030E009
:1042E000A90109D9882331F482E290E08093522316
:1042F000909353233C2D2D2D9E2D8F2D06C08FEF97
:1043000004C030E020E090EC8FE7B901AC01872FCA
:10431000922FA52FB42FBC01CD01CDB7DEB7EEE0B3
:1043200028CB992788270895FB01DC014150504094
:1043300088F08D9181341CF08B350CF4805E659192
:1043400061341CF06B350CF4605E861B611171F3F7
:10435000990B0895881BFCCFFB01DC0102C0019082
:104360000D9241505040D8F70895E89409C097FB4A
:104370003EF490958095709561957F4F8F4F9F4F3C
:104380009923A9F0F92F96E9BB279395F695879580
:1043900077956795B795F111F8CFFAF4BB0F11F443
:1043A00060FF1BC06F5F7F4F8F4F9F4F16C08823EA
:1043B00011F096E911C0772321F09EE8872F762F20
:1043C00005C0662371F096E8862F70E060E02AF061
:1043D0009A95660F771F881FDAF7880F969587954D
:0843E00097F90895F894FFCF4E
:1043E80000000000000000000000000000000000C5
:1043F80000000000000000000000000000000000B5
:1044080000000000000000000000000000000000A4
:104418002C00244750524D432C37312E3133322C47
:10442800412C343233302E30302C4E2C2D37313352
:10443800302E30302C452C31312E322C302E302C71
:104448003236313230362C302E302C452A35300D6C
:104458000A0025660041542B434D47463D310D0067
:1044680041542B434D47533D2200220D002B31323E
:104478003135333136363236320068656C6C6F2030
:10448800776F726C6400CDCC4C3E7D878EC2C62B94
:1044980029424C214C21002C00000054232000000C
:00000001FF
