:1000000001C200001CC200001AC2000018C2000099
:1000100016C2000014C2000012C2000010C200008C
:100020000EC200000CC200000AC2000008C200009C
:1000300006C2000004C2000002C2000000C20000AC
:10004000FEC10000FCC10000FAC10000F8C10000C0
:10005000F6C10000F4C10000F2C10000F0C10000D0
:10006000EEC10000ECC10000EAC10000E8C10000E0
:10007000E6C10000E4C10000E2C10000E0C10000F0
:10008000DEC10000DCC10000DAC10000D8C1000000
:10009000D6C10000D4C10000D2C10000D0C1000010
:1000A000CEC10000CCC10000CAC10000C8C1000020
:1000B000C6C10000C4C10000C2C10000C0C1000030
:1000C000BEC10000BCC10000BAC10000B8C1000040
:1000D000B6C10000B4C10000B2C10000B0C1000050
:1000E000AEC10000ACC10000AAC10000A8C1000060
:1000F000A6C10000A4C10000A2C10000A0C1000070
:100100009EC100009CC100009AC1000098C100007F
:1001100096C1000094C1000092C1000090C100008F
:100120008EC100008CC100008AC1000088C100009F
:1001300086C1000084C1000082C1000080C10000AF
:100140007EC100007CC100007AC1000078C10000BF
:1001500076C1000074C1000072C1000070C10000CF
:100160006EC100006CC100006AC1000068C10000DF
:1001700066C1000064C1000062C1000060C10000EF
:100180005EC100005CC100005AC1000058C10000FF
:1001900056C1000054C1000052C1000050C100000F
:1001A0004EC100004CC100004AC1000048C100001F
:1001B00046C1000044C1000042C1000040C100002F
:1001C0003EC100003CC100003AC1000038C100003F
:1001D00036C1000034C1000032C1000030C100004F
:1001E0002EC100002CC100002AC1000028C100005F
:1001F00026C1000064C30000A6C30000084AD73B24
:100200003BCE016E84BCBFFDC12F3D6C74319ABDE5
:1002100056833DDA3D00C77F11BED9E4BB4C3E9109
:100220006BAAAABE000000803F05A84CCDB2D44EF8
:10023000B93836A9020C50B9918688083CA6AAAAFA
:100240002ABE000000803F46575F56455253494F33
:100250004E0048575F56455253494F4E00140346CF
:1002600000720061006D00650077006F0072006B26
:100270000000001C034E006F006E006F006C0069F0
:10028000007400680020004C0061006200730000F0
:1002900000040309040902200001010080FA090496
:1002A000000002FF00000007058102400000070572
:1002B000020220000012011001FF000040E359007B
:1002C000F000020102DC016E616E00696E660000E2
:1002D000407A10F35A00A0724E18090010A5D4E815
:1002E0000000E87648170000E40B54020000CA9AA8
:1002F0003B000000E1F505000080969800000040FA
:10030000420F000000A0860100000010270000003E
:1003100000E803000000006400000000000A000084
:100320000000000100000000002C76D888DC674F38
:100330000823DFC1DFAE59E1B1B796E5E3E453C668
:100340003AE651997696E8E6C28426EB898C9B6260
:10035000ED407C6FFCEFBC9C9F40F2BAA56FA5F40A
:1003600090055A2AF75C936B6CF9676DC11BFCE032
:10037000E40D47FEF520E6B500D0ED902E03009485
:100380003577050080841E080000204E0A0000001A
:10039000C80C333333330F986E12831141EF8D2124
:1003A00014893BE65516CFFEE6DB18D1844B381B8B
:1003B000F77C1D901DA4BBE424203284725E228150
:1003C00000C9F124ECA1E53D27494E46494E495468
:1003D000594E414E000020410000C84200401C46DA
:1003E00020BCBE4CCA1B0E5AAEC59D74CDCCCC3DB4
:1003F0000AD7233C17B7D13877CC2B329595E62412
:100400001FB14F0A11241FBECFEFDFE2DEBFCDBF09
:1004100011E2A0E0B0E2E4EEFFE402C005900D922C
:10042000AE34B107D9F713E2AEE4B1E201C01D92D8
:10043000A63EB107E1F70E94141B0C94F027E0CD13
:10044000089580E00895CF93DF93C0ECD1E022E0DF
:100450002A87EAE1F0E0E491A0ECB4E0DA96EC93CC
:10046000DA972A87EBE1F0E0E491DB96EC93DB97F7
:1004700083E0E0E4F0E0848380E090E216968D93E0
:100480009C93179713961C9213971092002033E4B5
:10049000309301208BE991E2809304209093052012
:1004A000209308203093092089E591E280930C2065
:1004B00090930D2082EC8C9311968C911197816012
:1004C00011968C931197DF91CF91089583E0E0E42A
:1004D000F0E08483E0ECF4E080E090E286839783B0
:1004E00013821092002023E4209301208BE991E2F3
:1004F000809304209093052082E08093082020932D
:10050000092089E591E280930C2090930D2082ECE4
:10051000808381818160818308950F939C01E0EC49
:10052000F1E0128661157105D1F0CB0149E551E288
:10053000DA01F9012F5F3F4FE491ED930197C9F77D
:1005400070E040930C2050930D2060930A2070932C
:100550000B20E8E0F0E202E206930F91089549E5EE
:1005600051E2EECF84E0E0E5F0E0868382E0E0EC6B
:10057000F1E08287ECE1F0E0E491A0E6B0E01396D0
:10058000EC9313978BE115968C93159787EB169642
:100590008C93169781E08093600088ED84BF83E0A0
:1005A000809350008091510081FFFCCF80E1E0E515
:1005B000F0E0858388ED84BF83E1809350008091D3
:1005C000510084FFFCCF81E08093680088ED84BFF8
:1005D00084E080934000E0E4F0E0118208950F93FE
:1005E000CF93DF9300D0CDB7DEB780919B2180768B
:1005F00079F480919C21863009F4C9C0873090F04D
:10060000893009F44CC08A3040F5883009F480C044
:100610008BE991E20E94A4190F900F90DF91CF9186
:100620000F910895813031F1813008F087C0109228
:10063000592110925A2189E591E280930C209093E0
:100640000D2082E090E080930A2090930B20E8E058
:10065000F0E202E2069381E0DFCF8A3009F451C074
:100660008B30B1F680919F2160919D21EADE882335
:1006700009F447C089E591E280930C2090930D2006
:1006800010920A2010920B20E8E0F0E202E20693BA
:1006900081E00F900F90DF91CF910F91089580E04E
:1006A00091E060E0AE014F5F5F4F0E94DE1A882349
:1006B00041F1E0ECF1E01286E981FA817196E49172
:1006C00020919D21E217E8F089E591E280930C20CA
:1006D00090930D2010920A2010920B20E8E0F0E297
:1006E00002E2069320939A2180919A21882309F4AB
:1006F000B5C084E08093992180919A21B9D081E09E
:100700008BCF80E00F900F90DF91CF910F910895E4
:1007100080919A218093592189E591E280930C2060
:1007200090930D2081E090E080930A2090930B201D
:10073000E8E0F0E202E2069381E06ECF833009F454
:1007400099CF853009F064CF20919D212F77E0E08B
:10075000F0E202E7069389E591E280930C20909302
:100760000D2010920A2010920B20389602E2069378
:100770008091082085FFFCCFE0ECF4E02383222366
:1007800009F05AC082E08093992181E045CFE0ECE6
:10079000F1E0128680919D2190919E2123E08C3D75
:1007A0009207C9F060919F21AE014F5F5F4F0E9499
:1007B000DE1A009709F4A5CF29813A814091A12141
:1007C0005091A221BC014817590708F4BA01C90188
:1007D000A4DE81E021CF83E080935A2169E571E2B4
:1007E0008AE38093592182E08287E8E0F0E0E49197
:1007F000DB01129681E090E048E020EC31E052E02D
:10080000EF70EA30B0F0F0E0F796ED93FD93F1E28F
:10081000A339BF0799F0F9015287E42FF0E0E49182
:1008200080FF03C0E295EF704F5F0196EF70EA30F2
:1008300050F7F0E0F096E9CF83E0A5CF60930C206D
:1008400070930D208AE390E080930A2090930B2010
:10085000E8E0F0E202E2069381E0DECE8091C3049C
:10086000882321F084E08093992146CF81E0FBCF5B
:100870002FB7F894109246218BED91E2809344219A
:1008800090934521809342219093432188E190E207
:1008900036E03093182033E930931920FC01379764
:1008A0001082089732E0FC0130831092532110929D
:1008B000542110925521109256212FBF08951F9256
:1008C0000F920FB60F9211242F933F934F935F9384
:1008D0006F937F938F939F93AF93BF93EF93FF9308
:1008E000E0ECF4E08091CA0487FD2AC08091CA043C
:1008F0008E7081F48091CA0480FD1FC080E78287DA
:100900008091C20480FF08C08091C2048E7F8283E0
:100910009ADD02C08EE08287FF91EF91BF91AF9187
:100920009F918F917F916F915F914F913F912F9107
:100930000F900FBE0F901F90189581E08287ECCF2B
:1009400080E88287E9CF1F920F920FB60F92112491
:100950000F932F933F934F935F936F937F938F9357
:100960009F93AF93BF93EF93FF93E0ECF4E0148277
:1009700083E084872FB7F894809118208670C9F49B
:100980002FBF8091002084FD4FC085FD74C0FF9172
:10099000EF91BF91AF919F918F917F916F915F91F7
:1009A0004F913F912F910F910F900FBE0F901F907D
:1009B00018953091462113160CF07BC0809142218E
:1009C000909143214091532151E0413009F43EC0C0
:1009D00050935321442309F43FC0809314209093F3
:1009E000152040E450E04093122050931320E8E19A
:1009F000F0E204E10693315030934621805C9F4F32
:100A0000809342219093432133E28B3D930709F079
:100A1000B7CF8BED91E280934221909343212FBF7A
:100A20008091002084FFB1CFDADD882351F48091DA
:100A3000012084608093012080910920846080934C
:100A40000920E0E0F0E202E70693A1CF50E05093E6
:100A50005321442309F0C1CF80931C2090931D2083
:100A600040E450E040931A2050931B20E8E1F0E26C
:100A700002E20693C0CF4091022050910320809162
:100A80004F21813EF1F660914E2170E00024769571
:100A900067950794769567950794762F602D8BE977
:100AA00091E250E00E94D825E0E0F0E202E70693F0
:100AB0006ECF809154218130E1F0823009F060CF17
:100AC000809118208670863009F05ACF10925421F8
:100AD0001092552110925621109246218BED91E2F1
:100AE0008093442190934521809342219093432108
:100AF00047CF82E08093542170914221609143213D
:100B000080915521909156213091532141E031300F
:100B100001F140935321472F562F332369F440931B
:100B20001C2050931D2080931A2090931B20E8E1F5
:100B3000F0E202E2069324CF409314205093152054
:100B40008093122090931320E8E1F0E204E10693F1
:100B500017CF40E0DECF6F927F928F929F92AF923D
:100B6000BF92CF92DF92EF92FF920F931F93CF939A
:100B7000DF93DC010D900020E9F75D010894A108E6
:100B8000B108A81AB90A1A141B04BCF54C01CC24EC
:100B9000DD2446E0A8E1B0E29BED692E91E2792EDA
:100BA000C1E0D0E020E4E22EF12CF40131914F01BC
:100BB0009FB7F89480915421882309F469C080E09C
:100BC0009FBF8823A9F38091552190915621E091F0
:100BD0004421F0914521E80FF91F3083019680935D
:100BE0005521909356218034910509F463C00894EF
:100BF000C11CD11CAC14BD04C1F681E0809354210A
:100C00002FB7F89480911820867009F0FCC02FBF90
:100C100082E0E0ECF4E0858736E09FB7F8948091BD
:100C20005421882309F43DC080E09FBF882309F543
:100C300080915221882389F32FB7F894109246218E
:100C40008BED91E280934421909345218093422142
:100C500090934321E8E1F0E206E0059308E0069373
:100C60001092542110925521109256211092532126
:100C70002FBFDF91CF911F910F91FF90EF90DF90E9
:100C8000CF90BF90AF909F908F907F906F9008957E
:100C900080914621242F281B81E012160CF490CF5E
:100CA0008ECF80914621232F281B81E012160CF451
:100CB000BCCFBACF1FB7F89410925521109256218D
:100CC000809146218F5F80934621809144219091AD
:100CD0004521805C9F4F8093442190934521F3E20E
:100CE0008B3D9F0721F460924421709245216FB79C
:100CF000F89480911820867019F46FBF1FBF77CFCA
:100D00005091462115160CF03BC0209142213091A4
:100D1000432170915321872F90E0E1E08C179D07CC
:100D200009F4E0E0E09353217723F1F420931C20B1
:100D300030931D20E0921A20F0921B20FD0102E268
:100D40000693515050934621C901805C9F4F809378
:100D5000422190934321F3E28B3D9F0771F660920D
:100D6000422170924321C9CF209314203093152043
:100D7000E0921220F0921320FD0104E10693E1CFEE
:100D8000809154218130D1F0823009F0B6CF80912A
:100D900018208670863009F0B0CF1092542110923E
:100DA0005521109256211092462160924421709252
:100DB000452160924221709243219FCF22E02093EF
:100DC0005421E0914221F09143212091552130910D
:100DD000562170915321872F90E051E08C179D0789
:100DE00009F450E050935321772309F042C0E09377
:100DF0001C20F0931D2020931A2030931B20FD010E
:100E000002E206937ACF3091462113160CF04CC0C3
:100E100080914221909143214091532151E04130F2
:100E200009F450E050935321442379F580931C201A
:100E300090931D2040E450E040931A2050931B20D3
:100E4000E8E1F0E202E20693315030934621805C03
:100E50009F4F8093422190934321F3E28B3D9F0764
:100E600009F0D5CE8BED91E28093422190934321FE
:100E7000CECEE0931420F0931520209312203093CF
:100E80001320FD0104E1069338CF80931420909342
:100E9000152040E450E04093122050931320E8E1E5
:100EA000F0E204E10693D0CF809154218130E1F04B
:100EB000823009F0ACCE809118208670863009F01F
:100EC000A6CE1092542110925521109256211092C4
:100ED00046218BED91E280934421909345218093AC
:100EE00042219093432193CE82E0809354216091DC
:100EF00042213091432140915521509156218091BA
:100F0000532191E0813009F490E09093532188239C
:100F100079F4862F932F80931C2090931D2040936B
:100F20001A2050931B20E8E1F0E202E206936FCE14
:100F3000862F932F80931420909315204093122096
:100F400050931320E8E1F0E204E1069360CEEF92C3
:100F5000FF920F931F93CF93DF93F82EE92E162F56
:100F6000072FA82FB92FED0109900020E9F79E0166
:100F7000E62FF72FEF0109900020E9F7CE01019746
:100F80008E1B9F0B8A1B9B0B820F931F0E94A2221A
:100F9000D82FC92F6F2D7E2D0E94D0248D2F9C2FEE
:100FA000612F702F0E94BA248D2F9C2FDF91CF913B
:100FB0001F910F91FF90EF9008952F923F924F92C3
:100FC0005F926F927F928F929F92AF92BF92CF92D9
:100FD000DF92EF92FF920F931F93CF93DF93CDB7E2
:100FE000DEB72697CDBFDEBF4B015C0129833A8374
:100FF0004B835C83C0903E21D0903F21E090402104
:10100000F0904121A70196010E948D1F25E33AEF40
:101010004EE85CE30E94792120E030E040E05FE3AD
:101020000E9479210E94DC219B01AC010E94792160
:10103000362E272E8D839E83C701B60125E33AEF16
:101040004EE85CE30E9479210E9454207B018C01D0
:10105000C501B40125E33AEF4EE85CE30E94792133
:101060000E9454202B013C0169817A818B819C81F3
:1010700020913A2130913B2140913C2150913D21DA
:101080000E948D1F25E33AEF4EE85CE30E94792130
:1010900020E030E040E05FE30E9479210E94DC2103
:1010A0009B01AC010E947921B62ED72E882EC92E25
:1010B000C801B701A30192010E9479210B2D1D2DBA
:1010C000282D3C2DA90198010E9479219B01AC019A
:1010D000F1017D816E818F2F9E2FA72FB62FBC012E
:1010E000CD010E948E1F862E072F382E492E982F55
:1010F000482D502F692F742DCB01BA010E94E62193
:101100006B017C0160E070E080E89FE3E02F082D38
:101110001E2F232D342DA90198010E948D1F0E949E
:10112000E6219B01AC01C701B6010E9401209B0191
:10113000AC010E948E1F20E038EF46EC55E40E947F
:101140007921462F572F682F792FCB01BA01269688
:10115000CDBFDEBFDF91CF911F910F91FF90EF9038
:10116000DF90CF90BF90AF909F908F907F906F90C7
:101170005F904F903F902F900895EF92FF920F93C2
:101180001F93CF93DF93CDB7DEB7A897CDBFDEBF58
:101190007B0160E370E20E94B724009779F08E0132
:1011A0000D5F1F4F80E090E060E370E20E94B72483
:1011B000F801819391938F010097A1F70B851C850E
:1011C0008F8198850E94D12320E030E048EC52E4E2
:1011D0000E945720DC01CB01F70180839183A28319
:1011E000B383C8010E94D12320E030E048EC52E4F0
:1011F0000E945720DC01CB01F70184839583A683ED
:10120000B783A896CDBFDEBFDF91CF911F910F911D
:10121000FF90EF9008952F923F924F925F926F92BE
:101220007F928F929F92AF92BF92CF92DF92EF9276
:10123000FF920F931F93CF93DF93CDB7DEB7C653C3
:10124000D140CDBFDEBF82E390E260E370E20E9456
:10125000B724009779F08E010D5F1F4F80E090E07A
:1012600060E370E20E94B724D8018D939D938D01B5
:101270000097A1F70B851C858F8198850E94D1234B
:1012800020E030E048EC52E40E945720A62E872E42
:10129000482E292EC8010E94D12320E030E048ECDE
:1012A00052E40E945720B62E972E382EC15DDE4F95
:1012B0009883CF52D1408A2D982DA42DB22DBC01F8
:1012C000CD01C15DDE4F4881CF52D1400B2D192D8C
:1012D000232D342FA901980170DE6B017C018CE372
:1012E00090E00E94A222CD5CDE4F8883C353D140A0
:1012F000CC5CDE4F9883C453D140C701B601209126
:1013000036213091372140913821509139210E9466
:101310006E2118160CF4CAC081E0809354215FB787
:10132000F89480911820867081F14091462114161E
:101330000CF09BC080914221909143212091532138
:1013400031E0213009F430E030935321222309F0B9
:1013500076C080931C2090931D2020E430E02093E1
:101360001A2030931B20E8E1F0E202E2069341509C
:1013700040934621805C9F4F80934221909343216C
:10138000B3E28B3D9B0709F469C05FBF82E0E0ECEC
:10139000F4E0858796E02FB7F89480915421882354
:1013A00009F444C080E02FBF882309F580915221C1
:1013B000882389F32FB7F894109246218BED91E2A0
:1013C000809344219093452180934221909343211F
:1013D000E8E1F0E206E0059308E00693109254215C
:1013E0001092552110925621109253212FBFCD5C9F
:1013F000DE4FE881F981C353D14080819181CA5C7D
:10140000DE4FCDBFDEBFDF91CF911F910F91FF90D7
:10141000EF90DF90CF90BF90AF909F908F907F9094
:101420006F905F904F903F902F900895809146214C
:10143000392F381B81E013160CF4B5CFB3CF80934E
:1014400014209093152020E430E020931220309354
:101450001320E8E1F0E204E1069389CF8BED91E2FD
:10146000809342219093432190CF809154218130E9
:1014700009F4A8C3823009F088CF809118208670C3
:10148000863009F082CF109254211092552110928B
:101490005621109246218BED91E280934421909346
:1014A000452180934221909343216FCFEDB7FEB742
:1014B0003897EDBFFEBF319639EC632E712C6C0E60
:1014C0007D1EADB7BEB711966D927C92129702E762
:1014D00010E2028313832A2D382D442D522DC90189
:1014E000DA0184839583A683B7830E944F25EDB7E5
:1014F000FEB7319645E6442E512C4C0E5D1EADB71D
:10150000BEB711964D925C921297028313832B2DD6
:10151000392D432DC15DDE4F5881CF52D140C901D5
:10152000DA0184839583A683B7830E944F25EDB7A4
:10153000FEB731969E012F5F3F4FC35DDE4F28837C
:101540003983CD52D140ADB7BEB711962D933C93A0
:10155000129702831383C482D582E682F7820E94A7
:101560004F25F30101900020E9F73197E619F709BB
:10157000D2010D900020E9F71197A419B509CF5CAD
:10158000DE4FA883B983C153D140C35DDE4FA8812C
:10159000B981CD52D1400D900020E9F71197C35D7C
:1015A000DE4F28813981CD52D140A21BB30BC15DE2
:1015B000DE4FA883B983CF52D1408DB79EB708962E
:1015C0008DBF9EBF1E161F060CF042C04301D30103
:1015D000AE0FBF1FCB5CDE4FA883B983C553D1408C
:1015E00056E0A8E1B0E28BED282E81E2382E91E0A2
:1015F000E92EF12C20E4A22EB12CF40131914F01FF
:101600009FB7F89480915421882309F44CC180E05D
:101610009FBF8823A9F38091552190915621E09195
:101620004421F0914521E80FF91F30830196809302
:101630005521909356218034910509F43DC1CB5C2E
:10164000DE4F28813981C553D14082169306A9F611
:1016500096E02FB7F89480915421882309F4E2C1D1
:1016600080E02FBF8823A9F38091552190915621C6
:10167000E0914421F0914521E80FF91F20E22083F9
:10168000019680935521909356218034910509F459
:10169000BEC2CF5CDE4F28813981C153D1401216C2
:1016A00013060CF044C04201240D351DCF5CDE4F03
:1016B00028833983C153D14056E0F8E1EF2EF0E2A0
:1016C000FF2EABED2A2EA1E23A2E12E0B1E0CB2E96
:1016D000D12C00E4A02EB12CD4012D914D019FB747
:1016E000F89480915421882309F4A5C180E09FBF1C
:1016F0008823A9F38091552190915621E0914421AE
:10170000F0914521E80FF91F208301968093552120
:10171000909356218034910509F496C1CF5CDE4F39
:1017200028813981C153D14082169306A9F696E0EB
:101730002FB7F89480915421882309F43AC280E0AD
:101740002FBF8823A9F38091552190915621E091D4
:101750004421F0914521E80FF91F20E220830196F2
:1017600080935521909356218034910509F4BEC38E
:10177000C15DDE4F28813981CF52D1401216130648
:101780000CF047C04E010894811C911C280D391D96
:10179000C15DDE4F28833983CF52D14076E048E1E6
:1017A000E42E40E2F42E5BED252E51E2352E12E0C0
:1017B00061E0C62ED12CE0E4AE2EB12CD4012D91E7
:1017C0004D019FB7F89480915421882309F4D0C229
:1017D00080E09FBF8823A9F38091552190915621E5
:1017E000E0914421F0914521E80FF91F20830196F3
:1017F00080935521909356218034910509F4C1C2FC
:10180000C15DDE4F28813981CF52D14082169306C7
:10181000A9F6D3010D900020E9F7CD0186199709AB
:1018200001960E94A222E92E082F192FC801B301A8
:101830000E94D024E02FFE2DDF010D900020E9F75B
:101840001197AE1BBF0BA00FB11F8CE290E08D93E0
:101850009C93A02FBE2DFD0101900020E9F79F0170
:10186000F20101900020E9F7CF0101978419950951
:101870008A1B9B0B820F931F0E94A222E82EC92E67
:10188000B8010E94D0248E2D9C2DB2010E94BA2452
:10189000CD5CDE4FA881B981C353D140EC92119643
:1018A000CC92119739CD80914621252F281B81E0BC
:1018B00012160CF4ADCEABCECFB6F89410925521E3
:1018C00010925621809146218F5F8093462180910E
:1018D000442190914521805C9F4F809344219093B7
:1018E0004521F3E28B3D9F0721F420924421309261
:1018F00045211FB7F89480911820867019F41FBFF6
:10190000CFBE9DCE2091462112160CF03BC06091B7
:1019100042217091432130915321832F90E041E087
:101920008E159F0509F440E0409353213323F1F4D1
:1019300060931C2070931D20A0921A20B0921B204F
:10194000FD0102E20693215020934621CB01805CE9
:101950009F4F8093422190934321F3E28B3D9F0759
:1019600071F62092422130924321C9CF6093142016
:1019700070931520A0921220B0921320FD0104E173
:101980000693E1CF809154218130D1F0823009F06B
:10199000B6CF809118208670863009F0B0CF1092B3
:1019A00054211092552110925621109246212092D6
:1019B00044213092452120924221309243219FCFF1
:1019C00022E02093542170914221E0914321209103
:1019D00055213091562160915321862F90E041E0AE
:1019E0008E159F0509F440E040935321872F9E2FC9
:1019F000662361F480931C2090931D2020931A206D
:101A000030931B20FD0102E2069379CF80931420CE
:101A1000909315202093122030931320FD0104E1B0
:101A200006936DCF80914621392F381B81E0131624
:101A30000CF417CE15CE80914621352F381B81E04E
:101A400013160CF454CE52CEBFB7F8941092552111
:101A500010925621809146218F5F8093462180917C
:101A6000442190914521805C9F4F80934421909325
:101A70004521E3E28B3D9E0721F4209244213092E0
:101A80004521AFB7F89480911820867019F4AFBF44
:101A9000BFBF44CE2091462112160CF03BC060918E
:101AA00042217091432130915321832F90E041E0F6
:101AB0008C159D0509F440E0409353213323F1F444
:101AC00060931C2070931D20A0921A20B0921B20BE
:101AD000F70102E20693215020934621CB01805C5E
:101AE0009F4F8093422190934321F3E28B3D9F07C8
:101AF00071F62092422130924321C9CF6093142085
:101B000070931520A0921220B0921320F70104E1E7
:101B10000693E1CF809154218130D1F0823009F0D9
:101B2000B6CF809118208670863009F0B0CF109221
:101B30005421109255211092562110924621209244
:101B400044213092452120924221309243219FCF5F
:101B50001093542170914221E0914321209155210D
:101B60003091562160915321862F90E041E08C15F1
:101B70009D0509F440E040935321872F9E2F662353
:101B800061F480931C2090931D2020931A203093A1
:101B90001B20F70102E206937ACF809314209093E2
:101BA00015202093122030931320F70104E10693AF
:101BB0006ECF80914621392F381B81E013160CF42B
:101BC000BFCDBDCD82E080935421609142214091F0
:101BD000432180915521909156212091532131E04C
:101BE000213009F430E030935321222309F02AC236
:101BF000262F342F20931C2030931D2080931A20F1
:101C000090931B20E8E1F0E202E20693BECB7FB79F
:101C1000F8941092552110925621809146218F5FA1
:101C2000809346218091442190914521805C9F4F73
:101C3000809344219093452133E28B3D930731F407
:101C40008BED91E280934421909345216FB7F894F6
:101C500080911820867081F14091462114160CF075
:101C60003DC020914221309143219091532181E048
:101C7000913009F480E080935321992301F520935A
:101C80001C2030931D2080E490E080931A209093D4
:101C90001B20E8E1F0E202E20693842F815080935A
:101CA0004621C901805C9F4F80934221909343213C
:101CB000A3E28B3D9A0781F16FBF7FBFEACC2093EF
:101CC00014203093152080E490E0809312209093AC
:101CD0001320E8E1F0E204E10693DFCF8091542184
:101CE000813009F1823041F780911820867086306A
:101CF00019F71092542110925521109256211092EA
:101D000046218BED91E2809344219093452180936D
:101D1000422190934321D0CF8BED91E280934221D9
:101D200090934321C9CF82E0809354214091422176
:101D3000509143218091552190915621309153210A
:101D400021E0313009F420E020935321242F332364
:101D500009F087C1352F20931C2030931D208093DC
:101D60001A2090931B20E8E1F0E202E20693A4CF50
:101D700080914621372F381B81E013160CF429CDB2
:101D800027CDBFB7F894109255211092562180911B
:101D900046218F5F80934621809144219091452177
:101DA000805C9F4F8093442190934521E3E28B3DDB
:101DB0009E0721F42092442130924521AFB7F89438
:101DC00080911820867019F4AFBFBFBF19CD209144
:101DD000462112160CF03BC0409142215091432104
:101DE00030915321832F90E061E08C159D0509F41B
:101DF00060E0609353213323F1F440931C2050930F
:101E00001D20A0921A20B0921B20F70102E2069337
:101E1000215020934621CA01805C9F4F809342212C
:101E200090934321F3E28B3D9F0771F6209242216C
:101E300030924321C9CF4093142050931520A09293
:101E40001220B0921320F70104E10693E1CF8091B4
:101E500054218130D1F0823009F0B6CF8091182022
:101E60008670863009F0B0CF10925421109255211F
:101E70001092562110924621209244213092452101
:101E800020924221309243219FCF109354216091A0
:101E90004221E091432120915521309156215091CA
:101EA0005321852F90E041E08C159D0509F440E019
:101EB00040935321862F9E2F552361F480931C203D
:101EC00090931D2020931A2030931B20F70102E2EB
:101ED00006937ACF8093142090931520209312209C
:101EE00030931320F70104E106936ECF7FB7F89487
:101EF0001092552110925621809146218F5F809338
:101F000046218091442190914521805C9F4F809390
:101F100044219093452133E28B3D930731F48BEDBF
:101F200091E280934421909345216FB7F89480917A
:101F30001820867071F14091462114160CF03BC0B8
:101F400080914221909143212091532131E0213011
:101F500009F430E0309353212223F1F480931C20C4
:101F600090931D2020E430E020931A2030931B2012
:101F7000E8E1F0E202E20693415040934621805CA2
:101F80009F4F8093422190934321A3E28B3D9A0778
:101F900081F16FBF7FBFECCB80931420909315200D
:101FA00020E430E02093122030931320E8E1F0E2A7
:101FB00004E10693E1CF80915421813009F1823010
:101FC00041F7809118208670863019F710925421BD
:101FD0001092552110925621109246218BED91E2DC
:101FE00080934421909345218093422190934321F3
:101FF000D0CF8BED91E28093422190934321C9CFC2
:1020000082E080935421409142215091432180915C
:102010005521909156212091532131E0213009F42E
:1020200030E030935321222351F540931C205093EC
:102030001D2080931A2090931B20E8E1F0E202E239
:102040000693A7CF262F342F2093142030931520EA
:102050008093122090931320E8E1F0E204E10693CC
:1020600094C9352F2093142030931520809312208B
:1020700090931320E8E1F0E204E106931DCE409333
:102080001420509315208093122090931320E8E1A0
:10209000F0E204E106937DCFFB018A3039F09181B3
:1020A00095FFFDCF808380E090E00895918195FFBA
:1020B000FDCF9DE09083F3CFFC01818187FFFDCFB1
:1020C000808108954F925F926F927F928F929F923C
:1020D000AF92BF92CF92DF92EF92FF920F931F9336
:1020E000CF93DF93EC017B01DC010D900020E9F739
:1020F000CD018C1B9D0B01960E94A222A92EC82EF9
:10210000D92EC601BE010E94D024AC2DBA2DFD01EE
:1021100001900020E9F73197EA1BFB0BEC0DFD1D48
:102120008DE090E080839183D6E058E1652E50E207
:10213000752ECBED4C2EC1E25C2E12E001E0A02EFC
:10214000B12C20E4822E912CD601CD916D01CC23AF
:1021500009F45CC0CA3009F4D7C0F701818185FF5A
:10216000FCCFC08380915121813071F7D701119646
:102170008C91119787FFFACF2C919FB7F89480919B
:102180005421882309F458C080E09FBF8823A9F315
:102190008091552190915621E0914421F091452163
:1021A000E80FF91F208301968093552190935621C3
:1021B0008034910549F6AFB7F894109255211092EA
:1021C0005621809146218F5F809346218091442142
:1021D00090914521805C9F4F8093442190934521AD
:1021E000B3E28B3D9B0721F440924421509245215C
:1021F0005FB7F89480911820867039F55FBFAFBF44
:10220000D601CD916D01CC2309F0A4CF809151214D
:10221000813009F4B5C0DF91CF911F910F91FF90EC
:10222000EF90DF90CF90BF90AF909F908F907F9076
:102230006F905F904F900895809146213D2F381BFD
:1022400081E013160CF4A1CF9FCF409146211416C4
:102250000CF03CC0209142213091432160915321E8
:10226000862F90E071E08A159B0509F470E0709369
:1022700053216623F9F420931C2030931D20809273
:102280001A2090921B20F30102E2069341504093E2
:102290004621C901805C9F4F809342219093432146
:1022A000F3E28B3D9F0709F0A9CF40924221509263
:1022B0004321A4CF20931420309315208092122024
:1022C00090921320F30104E10693E0CF8091542112
:1022D0008130F1F0823009F091CF80911820867022
:1022E000863009F08BCF1092542110925521109214
:1022F000562110924621409244215092452140920D
:102300004221509243217ACF8DE0B701C5DE25CF1F
:102310001093542170914221E09143212091552145
:102320003091562160915321862F90E041E08A152B
:102330009B05F1F040935321872F9E2F662361F474
:1023400080931C2090931D2020931A2030931B20F3
:10235000F30102E2069352CF80931420909315204C
:102360002093122030931320F30104E1069346CF0B
:1023700040E040935321872F9E2F662369F7E0CFDB
:10238000809354212FB7F89480911820867009F01B
:102390003BC02FBF82E0E0ECF4E0858736E09FB7DA
:1023A000F89480915421882339F180E09FBF8823DD
:1023B00009F031CF80915221882389F32FB7F89407
:1023C000109246218BED91E2809344219093452118
:1023D0008093422190934321E8E1F0E206E00593E7
:1023E00008E0069310925421109255211092562124
:1023F000109253212FBF0FCF80914621232F281BEE
:1024000081E012169CF2D1CF3091462113160CF0C8
:1024100040C080914221909143214091532151E04D
:10242000413009F450E050935321442319F580932F
:102430001C2090931D2040E450E040931A205093BC
:102440001B20E8E1F0E202E206933150309346218E
:10245000805C9F4F8093422190934321B3E28B3D58
:102460009B0709F096CF8BED91E2809342219093E8
:1024700043218FCF809314209093152040E450E0A7
:102480004093122050931320E8E1F0E204E1069318
:10249000DCCF809154218130E1F0823009F079CF96
:1024A000809118208670863009F073CF10925421E5
:1024B0001092552110925621109246218BED91E2F7
:1024C000809344219093452180934221909343210E
:1024D00060CF82E08093542160914221309143216A
:1024E00040915521509156218091532191E08130A6
:1024F00009F490E090935321882379F4862F932F49
:1025000080931C2090931D2040931A2050931B20F1
:10251000E8E1F0E202E206933CCF862F932F80930E
:102520001420909315204093122050931320E8E13B
:10253000F0E204E106932DCF8FEF97EAA1E68150F8
:102540009040A040E1F700C00000E0E6F6E080E245
:1025500081838783089508958FEF97EAA1E68150DC
:102560009040A040E1F700C00000E0E6F6E080E225
:102570008183878388E0818385838CE08093A609AB
:1025800080E18093A709E0EAF9E0138288E184837F
:1025900083E0858308950895E0E6F6E088E081838E
:1025A000858386E08093A6091092A709E0EAF9E006
:1025B000138288E1848383E085830895BF92CF925C
:1025C000DF92EF92FF920F931F93CF93DF93D82E5A
:1025D000C92E7B01EA01898185FFFDCF8DE08883CB
:1025E0008FEF93ECA9E081509040A040E1F700C04C
:1025F000000085E790E2BE0165DD8FEF93ECA9E076
:1026000081509040A040E1F700C00000ED2DFC2D6E
:10261000DF010D900020E9F7CD018E1B9F0B09967D
:102620000E94A222182F092FE82FF92FAFE7B0E25E
:102630008AE00D9001928150E1F7812F902F6D2D4E
:102640007C2D0E94BA24E12FF02FDF010D90002095
:10265000E9F7CD018E1B9F0B01960E94A222B92E95
:10266000C82ED92EC601612F702F0E94D024AC2D08
:10267000BB2DFD0101900020E9F73197EA1BFB0B10
:10268000EC0DFD1D82E290E080839183C601BE01C6
:1026900019DD8FEF93ECA9E081509040A040E1F765
:1026A00000C00000C701BE010DDD8FEF93ECA9E073
:1026B00081509040A040E1F700C00000898185FF73
:1026C000FDCF8AE188838FEF93ECA9E081509040A1
:1026D000A040E1F700C0000081E0809354212FB7B3
:1026E000F89480911820867009F043C02FBF82E0D3
:1026F000E0ECF4E0858736E09FB7F89480915421B0
:10270000882379F180E09FBF882309F580915221C9
:10271000882391F32FB7F894109246218BED91E224
:1027200080934421909345218093422190934321AB
:10273000E8E1F0E206E0059308E0069310925421E8
:102740001092552110925621109253212FBFDF91E4
:10275000CF911F910F91FF90EF90DF90CF90BF909E
:10276000089580914621232F281B81E012165CF2E8
:10277000C9CF3091462113160CF040C08091422100
:10278000909143214091532151E0413009F450E0B0
:1027900050935321442319F580931C2090931D20BE
:1027A00040E450E040931A2050931B20E8E1F0E20F
:1027B00002E20693315030934621805C9F4F809314
:1027C000422190934321A3E28B3D9A0709F08ECFDB
:1027D0008BED91E2809342219093432187CF8093A8
:1027E00014209093152040E450E040931220509321
:1027F0001320E8E1F0E204E10693DCCF809154215C
:102800008130E1F0823009F071CF8091182086701C
:10281000863009F06BCF10925421109255211092FE
:102820005621109246218BED91E2809344219093A2
:102830004521809342219093432158CF82E0809399
:102840005421609142213091432140915521509172
:1028500056218091532191E0813011F190935321C1
:10286000882379F4862F932F80931C2090931D202A
:1028700040931A2050931B20E8E1F0E202E2069315
:1028800035CF862F932F809314209093152040935B
:10289000122050931320E8E1F0E204E1069326CFE2
:1028A00090E0DCCFEF92FF920F931F93CF93DF93D3
:1028B0007C01D0913421C0913521ED2FFC2FDF0117
:1028C0000D900020E9F7CD018E1B9F0B08960E940A
:1028D000A2228C01FC01A9E8B0E289E00D900192EE
:1028E0008150E1F7C8016D2F7C2F0E94BA24C801E6
:1028F000B701E8DBDF91CF911F910F91FF90EF902F
:102900000895BC0185E790E2DDCB82E990E28093F7
:102910003221909333210895EF92FF920F931F93EA
:10292000CF93DF93D82FC92F7B01E82FF92FDF0139
:102930000D900020E9F7CD018E1B9F0B08960E9499
:10294000A2228C01FC01A3E9B0E289E00D90019282
:102950008150E1F7C8016D2F7C2F0E94BA24C80175
:10296000B701B0DBDF91CF911F910F91FF90EF90F6
:10297000089508958F929F92AF92BF92CF92DF9267
:10298000EF92FF920F931F93CF93DF936C01C0914F
:102990003221D0913321CE016CE970E20E94E22411
:1029A000009761F087EA90E20E94AB0585E790E22C
:1029B000B60188DBC0913221D0913321CE0160ED88
:1029C00070E20E94E2240097B9F1CE016CE270E05F
:1029D0000E94C5240196809334219093352186ED81
:1029E00090E20E94AB0510913421C0913521E12F76
:1029F000FC2FDF010D900020E9F7CD018E1B9F0B0E
:102A000008960E94A222F82E092FE82FF92FA3E999
:102A1000B0E289E00D9001928150E1F78F2D902F67
:102A2000612F7C2F0E94BA248F2D902FB6014ADB94
:102A3000C0913221D0913321CE0164EE70E20E9428
:102A4000E224009709F4E2C1CE016BEE70E20E942D
:102A5000E2245C01009709F4D9C1EC012196C093EE
:102A60003021D093312132E9832E30E2932E8092AF
:102A70002E2190922F21EC2FFD2FDF010D900020B1
:102A8000E9F7CD018E1B9F0B0E94A222192FE82E81
:102A9000F92EF7011082C701BE010E94BA24E0920C
:102AA0002E21F0922F21CE2DD12FDE010D9000206E
:102AB000E9F79D0142E0C42ED12CCA0CDB1CD601E3
:102AC0000D900020E9F7CD0101978C199D098C1B11
:102AD0009D0B820F931F0E94A222182F092FB7016E
:102AE0000E94D024812F902FB6010E94BA24109307
:102AF0002E2100932F21A12FB02FED01099000204E
:102B0000E9F79E0153E0C52ED12CCA0CDB1CE6016F
:102B100009900020E9F7CE0101978C199D098A1BC5
:102B20009B0B820F931F0E94A222F82EE92E612F89
:102B3000702F0E94D0248F2D9E2DB6010E94BA24A2
:102B4000F0922E21E0922F21AF2DBE2DFD0101909C
:102B50000020E9F79F0114E0C12ED12CCA0CDB1C28
:102B6000E60109900020E9F7CE0101978C199D0933
:102B70008A1B9B0B820F931F0E94A222182F092FE2
:102B80006F2D7E2D0E94D024812F902FB6010E94A0
:102B9000BA2410932E2100932F21A12FB02FFD01D5
:102BA00001900020E9F79F0185E0C82ED12CCA0CC6
:102BB000DB1CE60109900020E9F7CE0101978C1992
:102BC0009D098A1B9B0B820F931F0E94A222F82E45
:102BD000E92E612F702F0E94D0248F2D9E2DB601DB
:102BE0000E94BA24F0922E21E0922F21AF2DBE2D0B
:102BF000FD0101900020E9F79F0196E0C92ED12C3C
:102C0000CA0CDB1CE60109900020E9F7CE01019710
:102C10008C199D098A1B9B0B820F931F0E94A22275
:102C2000182F092F6F2D7E2D0E94D024812F902FD9
:102C3000B6010E94BA2410932E2100932F21A12FB8
:102C4000B02FFD0101900020E9F79F0147E0C42E5D
:102C5000D12CCA0CDB1CE60109900020E9F7CE015B
:102C600001978C199D098A1B9B0B820F931F0E9451
:102C7000A222F82EE92E612F702F0E94D0248F2DD2
:102C80009E2DB6010E94BA24F0922E21E0922F21AF
:102C9000AF2DBE2DFD0101900020E9F79F0158E006
:102CA000C52ED12CCA0CDB1CE60109900020E9F7E7
:102CB000CE0101978C199D098A1B9B0B820F931FD4
:102CC0000E94A222182F092F6F2D7E2D0E94D02442
:102CD000812F902FB6010E94BA2410932E210093C9
:102CE0002F21A12FB02FFD0101900020E9F79F01B6
:102CF00089E0C82ED12CCA0CDB1CE601099000200B
:102D0000E9F7CE0101978C199D098A1B9B0B820F55
:102D1000931F0E94A222F82EE92E612F702F0E948D
:102D2000D0248F2D9E2DB6010E94BA24F0922E2120
:102D3000E0922F21AF2DBE2DFD0101900020E9F77B
:102D40009F019AE0C92ED12CCA0CDB1CE601099028
:102D50000020E9F7CE0101978C199D098A1B9B0B76
:102D6000820F931F0E94A222C82F192F6F2D7E2D34
:102D70000E94D0248C2F912FB6010E94BA24C093B8
:102D80002E2110932F21EC2FF12FDF010D90002029
:102D9000E9F71197AE1BBF0B4BE0E42EF12CEA0CC8
:102DA000FB1CF70101900020E9F7CF018E199F0964
:102DB0008A0F9B1F0E94A222C82E092F6C2F712FF1
:102DC0000E94D0248C2D902FB7010E94BA24C0926B
:102DD0002E2100932F218C2D902F0E94AB0581E096
:102DE00090E08093DE239093DF23809232219092B3
:102DF0003321DF91CF911F910F91FF90EF90DF90E2
:102E0000CF90BF90AF909F908F9008958091DE23D8
:102E10009091DF238130910559F082E990E280930F
:102E20003221909333211092DE231092DF23E1CFE1
:102E3000CE010E94AB0500913421F0903521E02FA6
:102E4000FF2DDF010D900020E9F7CD018E1B9F0BB8
:102E500008960E94A222182FC92FE82FF92FA9E85F
:102E6000B0E289E00D9001928150E1F7812F9C2F13
:102E7000602F7F2D0E94BA24812F9C2FB60122D96A
:102E8000CCCFCF93DF9300D0CDB7DEB76C010DED83
:102E900013E2D60111968C91119787FFFACF8C918E
:102EA0008093DD238D3051F18A3099F36091322186
:102EB00070913321FB01DF010D900020E9F7CD0176
:102EC00001978E1B9F0BF80101900020E9F78E0FF0
:102ED0009F1F8D5D934269837A830E94A2227C01A9
:102EE00069817A810E94D024C7016DED73E20E944E
:102EF000BA24E0923221F0923321CBCFC6013ADDE1
:102F0000C8CF4F925F926F927F928F929F92AF92B3
:102F1000BF92CF92DF92EF92FF920F931F93CF93C6
:102F2000DF93EC01898185FFFDCF8DE088838FEFF2
:102F300093ECA9E081509040A040E1F700C0000070
:102F40008EEE90E20E94AB0585E790E2BE01BAD812
:102F50008FEF93ECA9E081509040A040E1F700C0D2
:102F6000000083EF90E20E94AB058DEF90E2BE017E
:102F7000A9D88FEF97EAA1E681509040A040E1F7F1
:102F800000C000008BE091E20E94AB0554E6A52E44
:102F9000B12CA8E1B0E246E044244394E0EC6E2E6C
:102FA000E4E07E2EF2E05F2E1BED812E11E2912EE9
:102FB00001E0E02EF12C20E4C22ED12C898187FF84
:102FC000FDCF38819FB7F89480915421882309F46C
:102FD0006EC080E09FBF8823A9F380915521909116
:102FE0005621E0914421F0914521E80FF91F3083EB
:102FF000019680935521909356218034910509F4D0
:10300000A1C0409254211FB7F89480911820867077
:1030100009F056C01FBFF30155869FB7F894809101
:103020005421882309F43AC080E09FBF8823F1F43B
:1030300080915221882389F38FB7F894109246210A
:103040008092442190924521809242219092432186
:10305000FD0106E0059308E00693109254211092BA
:10306000552110925621109253218FBF0894A10828
:10307000B108A114B10409F0A1CFDF91CF911F9144
:103080000F91FF90EF90DF90CF90BF90AF909F9007
:103090008F907F906F905F904F9008958091462120
:1030A000242F281B81E012160CF4BFCFBDCF8091D6
:1030B0004621242F281B81E012160CF48BCF89CFD8
:1030C0005091462115160CF0E4C020914221309118
:1030D000432160915321862F90E071E08E159F056A
:1030E00009F470E070935321662301F520931C20AE
:1030F00030931D20C0921A20D0921B20FD0102E2C5
:103100000693852F815080934621C901805C9F4F93
:103110008093422190934321F3E28B3D9F0709F076
:1031200079CF809242219092432174CF2093142032
:1031300030931520C0921220D0921320FD0104E19B
:103140000693DFCF1FB7F8941092552110925621A5
:10315000809146218F5F80934621809144219091F8
:103160004521805C9F4F8093442190934521E3E269
:103170008B3D9E0721F480924421909245216FB7A8
:10318000F89480911820867019F46FBF1FBF39CF53
:103190005091462115160CF03BC0209142213091F0
:1031A000432170915321872F90E0E1E08E159F0518
:1031B00009F4E0E0E09353217723F1F420931C20FD
:1031C00030931D20C0921A20D0921B20FD0102E2F4
:1031D0000693515050934621C901805C9F4F8093C4
:1031E000422190934321F3E28B3D9F0771F6809239
:1031F000422190924321C9CF20931420309315206F
:10320000C0921220D0921320FD0104E10693E1CF79
:10321000809154218130D1F0823009F0B6CF809175
:1032200018208670863009F0B0CF10925421109289
:10323000552110925621109246218092442190925D
:10324000452180924221909243219FCF5092542158
:10325000E0914221F0914321209155213091562156
:1032600070915321872F90E051E08E159F0509F44E
:1032700050E050935321772351F5E0931C20F093B5
:103280001D2020931A2030931B20FD0102E206939B
:103290007CCF80915421813031F1823009F0BACE57
:1032A000809118208670863009F0B4CE1092542197
:1032B000109255211092562110924621809244215D
:1032C000909245218092422190924321A3CEE09397
:1032D0001420F09315202093122030931320FD0129
:1032E00004E1069352CF5092542170914221E09113
:1032F0004321209155213091562160915321862FF1
:1033000090E051E08E159F0509F450E05093532151
:10331000872F9E2F662361F480931C2090931D209D
:1033200020931A2030931B20FD0102E2069372CEF7
:103330008093142090931520209312203093132013
:10334000FD0104E1069366CE0F931F93CF93DF93A5
:103350009C01A9E5B1E28D0189E991E2FD0111929B
:1033600041E2E939F407D9F710924F21F901C08100
:10337000D0E0C076D070C034D10531F080E0DF916C
:10338000CF911F910F9108954181463109F4E7C013
:10339000473108F14B3B09F490C04C3B08F048C062
:1033A000473161F70480F581E02D808180935921B8
:1033B000818180935A2100930C2010930D2082E08C
:1033C00090E080930A2090930B20E8E0F0E202E284
:1033D000069381E0D4CF423009F4A0C0433068F4B2
:1033E000442361F684819581009709F4C9C0813036
:1033F000910509F4BDC081E0C2CF4830A9F1493040
:1034000009F0BCCF0480F581E02D808180935921A3
:1034100000930C2010930D2081E090E080930A200F
:1034200090930B20E8E0F0E202E2069381E0A7CF60
:10343000403E19F1413E09F0A1CF40934F218481D4
:1034400080934E2100930C2010930D2010920A209F
:1034500010920B20E8E0F0E202E2069381E0DF91B7
:10346000CF911F910F910895D9010480F581E02D2E
:1034700012968C9112978083E5CFF9016481758152
:103480000024769567950794769567950794762F2F
:10349000602D89E591E240E450E00E94CD25009343
:1034A0000C2010930D20C0930A20D0930B20E8E04D
:1034B000F0E202E2069381E062CFF89400930C20E0
:1034C00010930D2010920A2010920B20E8E0F0E2F9
:1034D00002E20693389702E706938091002085FF69
:1034E000FCCF8FEF99EFA0E081509040A040E1F732
:1034F00000C000008091C1048E7FE0ECF4E0818385
:103500008FEF93ECA9E081509040A040E1F700C01C
:103510000000ECEFF7E4099581E031CF3091DB2337
:103520002091DC23C32FD22FFE0101900020E9F768
:103530003197E31B29912D938A179B07D9F78E2F7B
:1035400090E000930C2010930D2080930A2090931C
:103550000B20E8E0F0E202E2069381E010CFF901EF
:10356000828193810480F581E02D808391836ACFED
:1035700087E492E06BE070E00E948D0281E0FFCE74
:1035800082E592E06BE070E00E948D0281E0F7CE70
:10359000462F20914F21213E09F0089520914E2180
:1035A00030E00024369527950794369527950794A3
:1035B000322F202DB90150E00C94D8259230F9F02B
:1035C0009330A1F0913049F080E090E0E0E0F0E04D
:1035D000DA01ED93FC931197089582E190E0E5EB19
:1035E000F2E0DA01ED93FC9311970895813081F0B8
:1035F000813098F4E1E9F2E0849190E0E9CF80E253
:1036000090E0E5E9F2E0DA01ED93FC93119708957B
:10361000E3E7F2E0849190E0DBCF8230A9F6EDE5BC
:10362000F2E0849190E0D4CF0E94B2020E94230283
:10363000E0ECF4E082E4808783E08187E0EAF0E078
:1036400082837894E0E6F6E098E09183958396E0B3
:103650009093A6091092A709E0EAF9E0138298E195
:103660009483858381E0809354212FB7F8948091CF
:103670001820867009F477C03091462113160CF09B
:103680006CC080914221909143214091532151E09F
:10369000413009F450E050935321442309F0ADC068
:1036A00080931C2090931D2040E450E040931A200A
:1036B00050931B20E8E1F0E202E206933150309390
:1036C0004621805C9F4F809342219093432133E2B7
:1036D0008B3D930709F48AC08BED91E22FBF22E066
:1036E000A0ECB4E01D962C931D9736E04FB7F894EC
:1036F00020915421222349F120E04FBF2223E9F4F5
:1037000020915221222391F32FB7F8941092462151
:1037100080934421909345218093422190934321AB
:1037200006E0059308E0069310925421109255216B
:1037300010925621109253212FBF89E191E20E94ED
:10374000AB0580EA99E0DDDBFFCF20914621532FC6
:10375000521B21E015168CF2CFCF8091542181307D
:10376000F9F0823019F0E8E1F0E2B6CF809118204C
:1037700086708630C1F71092542110925521109214
:103780005621109246218BED91E280934421909333
:1037900045218093422190934321E8E1F0E29ECFBE
:1037A00082E08093542160914221309143214091E5
:1037B0005521509156218091532191E0813009F497
:1037C00090E090935321882339F5862F932F80938F
:1037D0001C2090931D2040931A2050931B20E8E159
:1037E000F0E202E206938BED91E278CF8BED91E26D
:1037F000809342219093432171CF80931420909322
:10380000152040E450E04093122050931320E8E14B
:10381000F0E204E1069352CF862F932F8093142079
:10382000909315204093122050931320E8E1F0E28A
:1038300004E106938BED91E251CFA5E1B0E0E2E225
:10384000FCE14FC64C016E877F87FC011682178210
:10385000838181FD04C05CC34C855D8504C01E016D
:103860000894211C311CF4019381EE85FF8593FDA2
:10387000859193FF8191EE87FF87882309F444C3E4
:10388000853241F493FD859193FF8191EE87FF8707
:10389000853259F490E0B4014C8B5D8B0E94232556
:1038A0004C895D894C875D87D7CFFF24DD2410E0EC
:1038B0001032B0F48B3269F08C3228F4803251F03F
:1038C000833271F40BC08D3239F0803349F41160CA
:1038D0002CC01260146029C0186027C0106125C078
:1038E00017FD2EC0282F20532A3098F416FF08C049
:1038F0008F2D880FF82EFF0CFF0CF80EF20E15C05E
:103900008D2D880FD82EDD0CDD0CD80ED20E106256
:103910000CC08E3221F416FDF7C2106406C08C363E
:1039200011F4106802C0883659F4EE85FF8593FDC6
:10393000859193FF8191EE87FF87882309F0B8CFA7
:10394000982F9554933018F41061805E06C0982F1C
:103950009556933008F094C11F7E16FD02C0E6E034
:10396000FE2E1F73853611F4106406C0863611F4DE
:10397000106802C0F110FA9417FF07C0FBE3FF15AF
:1039800048F0EF2CE39427E00DC027E02F1530F02E
:103990002F2D07C027E07CE3E72E04C027E067E077
:1039A000F62EEE24CA0104968C879D87FA01608169
:1039B000718182819381A1010E2DF6D65C01C980AF
:1039C0002C2D30E0288B398BC0FE03C0388933FFA3
:1039D00006C011FD06C012FF06C000E205C00DE2E0
:1039E00003C00BE201C000E0888999898C70907057
:1039F000009709F43BC0002311F084E001C083E08C
:103A00008D1558F4D81A13FD09C080E290E0B40176
:103A10000E942325DA94C9F701C0DD24002329F090
:103A2000802F90E0B4010E942325888983FD05C082
:103A30003BECE32E32E0F32E10C027ECE22E22E026
:103A4000F22E0BC00115110509F0805290E0B4016F
:103A5000FAD70894E11CF11C04C0012F10E000719A
:103A60001070F7018491882369F74BC217FF0EC0CD
:103A7000EA0CF889F4FF04C08A81813309F4EA94DE
:103A80001E144CF528E02E1548F12CC016FD2AC056
:103A90008F2D90E08A159B0544F03CEFA3163FEF75
:103AA000B3061CF0106801C0FA94FF2049F0E2E070
:103AB000F0E0EC0FFD1FEF0DF11D80818033A1F3CD
:103AC00017FF10C0EF2CE3948F2D90E0A816B906D5
:103AD00044F4FA1807C0EE24E39404C098E0E92EF9
:103AE00001C0FF2417FF07C01A141B043CF4950102
:103AF0002F5F3F4F05C025E030E002C021E030E0FD
:103B0000002311F02F5F3F4FFF2029F08F2D90E011
:103B10000196280F391F8D2D90E02817390714F4CE
:103B2000D21A01C0DD24612E7724C3018970907000
:103B3000009741F405C080E290E0B40184D7DA94A4
:103B4000DD20C9F7002321F0802F90E0B4017BD75E
:103B500063FC08C005C080E390E0B40174D7DA9438
:103B6000DD20C9F717FF46C08501B7FE02C000E09F
:103B700010E06624772495012E1931092A8B3B8B9E
:103B80002501401A510A420C531C6F2D70E0EE249F
:103B9000FF24E61AF70A3FEF0F3F130721F48EE2E6
:103BA00090E0B40150D7A016B10654F02A893B89A1
:103BB000201731072CF4F201E60DF71D818101C0B9
:103BC00080E3015010400894611C711C0E151F0504
:103BD00024F090E0B40137D7DECF0A151B0541F47D
:103BE0009A81963320F4953319F4388934FF81E3B0
:103BF00090E043C08A81813311F09FEEC92290E0AA
:103C0000B40121D7FF2079F08EE290E0B4011BD7F8
:103C100012E0F101E10FF11D1F5F808190E0B4011E
:103C200012D7FA94B1F764FE03C085E490E002C0B5
:103C300085E690E0B40107D7B7FC05C0A114B10434
:103C400041F4C4FE06C0B094A194B108B3948DE2CF
:103C500001C08BE290E0B401F6D680E305C08F5F2F
:103C6000E6EFFFEFAE0EBF1EFAE0AF16B104BCF7F1
:103C700090E0B401E8D6C501C096B401E4D641C1D4
:103C8000833631F0833789F0833509F055C021C080
:103C90009A012E5F3F4F2C873D87FA0180818983EF
:103CA00081E0E82EF12C510112C09A012E5F3F4FA6
:103CB0002C873D87FA01A080B18016FF03C06F2DCD
:103CC00070E002C06FEF7FEFC50171D67C011F77F6
:103CD00013C09A012E5F3F4F2C873D87FA01A080C9
:103CE000B18016FF03C06F2D70E002C06FEF7FEF51
:103CF000C50132D67C01106813FD1AC005C080E2F0
:103D000090E0B401A0D6DA948D2D90E0E816F90683
:103D1000B0F30EC0F50117FD859117FF81915F018A
:103D200090E0B40190D6D110DA940894E108F1083B
:103D3000E114F10479F7E5C0843611F0893669F5AC
:103D40009A0117FF0AC02C5F3F4F2C873D87FA016D
:103D500080819181A281B3810BC02E5F3F4F2C8760
:103D60003D87FA0180819181AA2797FDA095BA2FFE
:103D7000012F0F76B7FF08C0B095A095909581955B
:103D80009F4FAF4FBF4F0068BC01CD01A1012AE09A
:103D900030E0A5D6E82EE21840C0853721F41F7E1A
:103DA0002AE030E020C0197F8F36A9F0803720F458
:103DB000883509F0A9C00BC0803721F0883709F099
:103DC000A3C001C0106114FF09C0146007C014FF34
:103DD00008C0166006C028E030E005C020E130E0F1
:103DE00002C020E132E0CA0117FF09C004968C87A7
:103DF0009D87FA01608171818281938108C002965A
:103E00008C879D87FA016081718180E090E0A1013B
:103E100066D6E82EE218012F0F7706FF09C00E7F45
:103E2000EF1430F404FF06C002FD04C00F7E02C090
:103E30001E2D01C01F2D802F90E004FF0CC0FE013D
:103E4000EE0DF11D2081203311F4097E09C002FF1F
:103E500006C01E5F05C086789070009709F01F5F4E
:103E6000A02EBB2403FD11C000FF0CC0FE2C1D15AD
:103E700048F4FD0CF11A1D2D05C080E290E0B4015C
:103E8000E2D51F5F1D15C8F304C01D1510F4D11A2B
:103E900001C0DD24A4FE0EC080E390E0B401D3D5C0
:103EA000A2FE1DC0A1FE03C088E590E010C088E717
:103EB00090E00DC0C50186789070009781F0A1FC5C
:103EC00002C080E201C08BE207FD8DE290E0B40108
:103ED000BAD505C080E390E0B401B5D5FA94EF14EB
:103EE000C8F3EA94F101EE0DF11D808190E0B40178
:103EF000AAD5EE20B1F705C080E290E0B401A3D5C9
:103F0000DA94DD20C9F7A8CCF4018681978102C03C
:103F10008FEF9FEF6596E2E1FDC25058BB27AA27BD
:103F20000ED091C15AD130F05FD120F031F49F3FD3
:103F300011F41EF42AC10EF4E095E7FB20C1E92F2D
:103F4000A4D180F3BA17620773078407950718F0A6
:103F500071F49EF5BCC10EF4E0950B2EBA2FA02D86
:103F60000B01B90190010C01CA01A0011124FF2726
:103F7000591B99F0593F50F4503E68F11A16F04021
:103F8000A22F232F342F4427585FF3CF4695379520
:103F90002795A795F0405395C9F77EF41F16BA0BE5
:103FA000620B730B840BBAF09150A1F0FF0FBB1F93
:103FB000661F771F881FC2F70EC0BA0F621F731FDC
:103FC000841F48F4879577956795B795F7959E3F39
:103FD00008F0B3CF9395880F08F09927EE0F9795C7
:103FE00087950895FAD058F080E891E009F49EEFA3
:103FF000FBD028F040E851E059F45EEF09C0C5C09D
:1040000066C1E92FE07841D168F3092E052AC1F392
:10401000261737074807590738F00E2E07F8E0250E
:1040200069F0E025E0640AC0EF6307F8009407FA3E
:10403000DB01B9019D01DC01CA01AD01EF9346D05E
:1040400002D10AD05F91552331F02BED3FE049E4D6
:1040500050FD49EC63CF0895DF93DD27B92FBF777B
:1040600040E85FE31616170648075B0710F4D92FE0
:1040700039D19F938F937F936F93E6D1ECEFF1E06B
:1040800087D0E1D02F913F914F915F913ED1DD23B9
:1040900049F09058A2EA2AED3FE049EC5FE3D0787E
:1040A0005D274DDFDF91CFC0A7D0E395DDC00CD0F9
:1040B000CAC09AD040F091D030F021F45F3F19F09F
:1040C0005EC0511105C161C0E0D098F39923C9F3D6
:1040D0005523B1F3951B550BBB27AA27621773070E
:1040E000840738F09F5F5F4F220F331F441FAA1FC2
:1040F000A9F333D00E2E3AF0E0E830D09150504082
:10410000E695001CCAF729D0FE2F27D0660F771F2F
:10411000881FBB1F261737074807AB07B0E809F011
:10412000BB0B802DBF01FF2793585F4F2AF09E3FA6
:10413000510568F024C0CCC05F3FECF3983EDCF33F
:10414000869577956795B795F7959F5FC9F7880F1F
:10415000911D9695879597F90895E1E0660F771F71
:10416000881FBB1F621773078407BA0720F0621B02
:10417000730B840BBA0BEE1F88F7E095089597F93F
:104180009F6780E870E060E008959FEF80EC0895FD
:10419000DF93CF931F930F93FF92EF92DF927B01F8
:1041A0008C01689405C0DA2EEF01AFD0FE01E894CF
:1041B000A5912591359145915591AEF3EF01BFDE63
:1041C000FE019701A801DA9479F7DF90EF90FF9054
:1041D0000F911F91CF91DF91089500240A94161634
:1041E000170618060906089500240A9412161306E5
:1041F000140605060895C9CF50D0E8F3E894E0E02E
:10420000BB279F57F0F02AED3FE049EC06C0EE0FC8
:10421000BB0F661F771F881F28F0B23A620773072B
:10422000840728F0B25A620B730B840BE3959A95BE
:1042300072F7803830F49A95BB0F661F771F881F7E
:10424000D2F790482AC1092E0394000C11F4882358
:1042500052F0BB0F40F4BF2B11F460FF04C06F5F3E
:104260007F4F8F4F9F4F0895EF93E0FF06C0A2EA64
:104270002AED3FE049EC5FEB62DEE5DF0F9003944F
:1042800001FC9058E9E2F2E01BC157FD9058440F41
:10429000551F59F05F3F71F04795880F97FB991FA5
:1042A00061F09F3F79F08795089512161306140662
:1042B000551FF2CF4695F1DF08C0161617061806EF
:1042C000991FF1CF86957105610508940895E894CA
:1042D000BB2766277727CB0197F90895B8D008F454
:1042E0008FEF08959B01AC0160E070E080E89FE3F0
:1042F000DECE0BD0A8CF71DF28F076DF18F0952343
:1043000009F03DCF42CF1124E3CFBFDFA0F3959F4B
:10431000D1F3950F50E0551F629FF001729FBB27AC
:10432000F00DB11D639FAA27F00DB11DAA1F649F58
:104330006627B00DA11D661F829F2227B00DA11D0B
:10434000621F739FB00DA11D621F839FA00D611D91
:10435000221F749F3327A00D611D231F849F600DB2
:10436000211D822F762F6A2F11249F5750408AF0EB
:10437000E1F088234AF0EE0FFF1FBB1F661F771F77
:10438000881F91505040A9F79E3F510570F0F7CE1D
:104390009FCF5F3FECF3983EDCF38695779567956A
:1043A000B795F795E7959F5FC1F7FE2B880F911D95
:1043B0009695879597F908959F931EDF0F9007FCB8
:1043C000EE5F52CF11F40EF4E0CE65C066DFD0F39D
:1043D0009923D9F3CEF39F57550B87FF6AD000245A
:1043E000A0E640EA900180585695979528F4805CA5
:1043F000660F771F881F20F026173707480730F40D
:10440000621B730B840B202931294A2BA695179424
:104410000794202531254A2758F7660F771F881FF4
:1044200020F026173707480730F4620B730B840B14
:10443000200D311D411DA09581F7B901842F9158A0
:10444000880F9695879508959B01AC0152CF990FDF
:104450000008550FAA0BE0E8FEEF16161706E8074E
:10446000F907C0F012161306E407F50798F0621B6F
:10447000730B840B950B39F40A2661F0232B242B44
:10448000252B21F408950A2609F4A140A6958FEF63
:10449000811D811D08959F3F31F0915020F4879533
:1044A00077956795B795880F911D9695879597F99C
:1044B000089591505040660F771F881FD2F70895D6
:1044C0009F938F937F936F93FF93EF939B01AC0127
:1044D00010DFEF91FF915CDE2F913F914F915F9143
:1044E00008CF2F923F924F925F926F927F928F925E
:1044F0009F92AF92BF92CF92DF92EF92FF920F9373
:104500001F93CF93DF93CDB7DEB7CA1BDB0BCDBFB5
:10451000DEBF09942A88398848885F846E847D8448
:104520008C849B84AA84B984C884DF80EE80FD805B
:104530000C811B81AA81B981CE0FD11DCDBFDEBFF9
:10454000ED010895CF93DF93AC018230910510F413
:1045500042E050E0E091E223F091E32320E030E0FC
:10456000A0E0B0E024C08081918184179507D0F04D
:104570008417950771F482819381109729F0129620
:104580008D939C9313972CC08093E2239093E32305
:1045900027C02115310519F08217930718F49C01E3
:1045A000BD01EF0192818381DF01E92FF82F309760
:1045B000D1F621153105F9F0C901841B950B843022
:1045C000910580F48A819B816115710521F0FB01C1
:1045D0008283938304C08093E2239093E323FE01BC
:1045E000329642C0FE01E80FF91F419351930297A2
:1045F0008883998339C08091E0239091E1230097CB
:1046000041F48091492190914A218093E023909335
:10461000E12320914721309148212115310541F4B2
:104620002DB73EB780914B2190914C21281B390B1F
:10463000E091E023F091E123E217F30798F42E1BB9
:104640003F0B2417350770F0CA0102962817390767
:1046500048F08E0F9F1F8093E0239093E1234193B6
:10466000519302C0E0E0F0E0CF01DF91CF910895D7
:104670000F931F93CF93DF939C01009709F48CC095
:10468000DC01129712961D921C9213976091E223FF
:104690007091E3236115710589F48D919C911197B7
:1046A000820F931F2091E0233091E12328173907CF
:1046B00069F5A093E023B093E1236EC0FB0140E0D5
:1046C00050E001C0FC01EA17FB0730F482819381BE
:1046D000AF010097B9F71FC0E9012297EA83FB8376
:1046E00008811981C901800F911F8E179F0759F406
:1046F00080819181800F911F0296888399838281A6
:1047000093818A839B834115510529F4A093E22369
:10471000B093E32341C0FA01A283B383C191D19145
:10472000EC0FFD1FAE17BF0781F4F9019291829142
:104730008C0F9D1F0296DA018D939C9311978281B5
:10474000938112968D939C931397E0E0F0E002C062
:10475000FB01BC01DB0112968D919C911397009790
:10476000B9F7CB0102962D913C911197820F931FBF
:104770002091E0233091E1232817390769F430971D
:1047800029F41092E2231092E32302C012821382D2
:104790006093E0237093E123DF91CF911F910F91FC
:1047A0000895662777274FC2283008F027E033277F
:1047B000DA01990F311D87FD916000966105710541
:1047C00039F432602E5F3D9330E32A95E1F7089586
:1047D0009F3F30F080387105610509F03C5F3C5F18
:1047E0003D93913008F08068911DDF93CF931F9324
:1047F0000F93FF92EF92192F987F9695E92F969538
:104800009695E90FFF27E75DFC4F99273327EE24A4
:10481000FF24A701E70105900894079428F4360FB8
:10482000E71EF81E491F511D660F771F881F991F2D
:104830000694A1F70590079428F4E70EF81E491F87
:10484000561FC11D770F881F991F661F0694A1F779
:104850000590079428F4F80E491F561FC71FD11D55
:10486000880F991F661F771F0694A1F7059007947C
:1048700020F4490F561FC71FD81F990F661F771FB7
:10488000881F0694A9F784911095177041F0D6956A
:10489000C79557954795F794E7941A95C1F7EFECAC
:1048A000F2E0689415901591359165919591059078
:1048B0007FE27395E118F10A430B560BC90BD0093F
:1048C000C0F7E10CF11E431F561FC91FD01D7EF417
:1048D000703311F48A95E6CFE894015030F0080F58
:1048E0000AF40027021708F4202F2395022F7A33A9
:1048F00028F079E37D932A95E9F710C07D932A95F6
:1049000089F6069497956795379517951794E1184A
:10491000F10A430B560BC90BD00998F023957E91F1
:1049200073957A3308F070E37C932013B8F77E9187
:1049300070617D9330F0839571E37D9370E32A95E8
:10494000E1F71124EF90FF900F911F91CF91DF912C
:10495000992787FD90950895FC010590615070405E
:104960000110D8F7809590958E0F9F1F089547E509
:1049700051E242C0FB01DC010D900020E9F71197E4
:1049800001900D920020E1F70895FC0181918617B6
:1049900021F08823D9F7992708953197CF010895F9
:1049A000FB01DC0101900D920020E1F70895FC016C
:1049B0006150704001900110D8F7809590958E0F4E
:1049C0009F1F0895FB0151915523A9F0BF01DC0100
:1049D0004D9145174111E1F759F4CD0101900020A7
:1049E00049F04D9140154111C9F3FB014111EFCF41
:1049F00081E090E001970895FA01A191B0810097BC
:104A000019F41097E1F0CD01DC01CD010D900020EB
:104A100011F4C00113C0FB012191222319F02015CC
:104A2000D9F7F3CFFB012191201519F41E921196AD
:104A300006C02223C1F70D900020A1F7D001FA0192
:104A4000A193B08308950F931F93CF93DF938C01AD
:104A5000EB018B8181FF1BC082FF0DC02E813F8146
:104A60008C819D812817390764F4E881F9810193CD
:104A7000E883F98306C0E885F985802F09950097BA
:104A800031F48E819F8101968E839F8302C00FEF48
:104A90001FEFC801DF91CF911F910F910895AEE0F4
:104AA000B0E0E4E5F5E22BCD0D891E8986E08C832C
:104AB00009831A838FEF9FE78D839E83AE01475E44
:104AC0005F4FCE0101966F89788D0E941D1CEF818A
:104AD000F885E00FF11F10822E96E4E029CDFA014F
:104AE000AA27283051F1203181F1E8946F936E7F2D
:104AF0006E5F7F4F8F4F9F4FAF4FB1E03ED0B4E01E
:104B00003CD0670F781F891F9A1FA11D680F791F5E
:104B10008A1F911DA11D6A0F711D811D911DA11D6F
:104B200020D009F468943F912AE0269F112430197F
:104B3000305D3193DEF6CF010895462F4770405D1A
:104B40004193B3E00FD0C9F7F6CF462F4F70405DC9
:104B50004A3318F0495D31FD4052419302D0A9F724
:104B6000EACFB4E0A6959795879577956795BA951E
:104B7000C9F700976105710508959B01AC010A2EE4
:104B800006945795479537952795BA95C9F7620FBB
:104B9000731F841F951FA01D0895E0ECF1E0A78509
:104BA000A7FDFDCFA485A860A4876050704FCBC13E
:104BB000DC01A40FB51F4150504040F0CB01840FE1
:104BC000951F2E9105D041505040D8F70895262FBB
:104BD0002ED00080021611F004D00197019708959D
:104BE000262FE0ECF1E0378537FDFDCF3485377FA8
:104BF0003487378531FF09C036E3328738ED34BF5B
:104C000031E03387378537FDFDCF33E3328780834B
:104C100091831282248325E3228728ED31E024BF8B
:104C200033870196089503D0808199270895E0EC99
:104C3000F1E0378537FDFDCF348538603487FC01DE
:104C4000E050F04F0895A0E0B0E0E8E2F6E24DCC8D
:104C50005B016115710521F0DB018C9311969C932A
:104C60007C01E7010894E11CF11C08816701802F99
:104C700090E049D10097A9F70D3241F4098142E053
:104C8000C42ED12CCC0EDD1E11E009C00B3231F444
:104C9000098132E0C32ED12CCC0EDD1E10E0E601DE
:104CA0002197CE0169EC73E043E050E034D10097E6
:104CB000C9F4E6012296CE016CEC73E045E050E0C9
:104CC0002AD1009711F4E6012796A114B10419F036
:104CD000F501C083D18330E020E090E8112309F48E
:104CE00005C1FFC0CE0161ED73E043E050E013D198
:104CF000009759F4A114B10409F4F5C0C601029655
:104D0000D5018D939C931197EEC040E050E0BA011D
:104D10008824992400530A3090F51260212F30E046
:104D2000C9018870907012FF06C0009769F5089459
:104D3000811C911C29C0009719F0089481089108E2
:104D4000DB01CA01D2E0880F991FAA1FBB1FDA95A9
:104D5000D1F7480F591F6A1F7B1F440F551F661F4D
:104D6000771F400F511D611D711D4839B9E95B075F
:104D7000B9E96B07B9E17B0738F0146005C00E3F55
:104D800039F413FD43C01860F60101916F01C2CFE1
:104D9000053311F00531D1F5D601EC91ED3211F466
:104DA000106108C0EB3229F0C601019621E030E025
:104DB00008C0D6011196EC911197C601029622E027
:104DC00030E0E053EA3020F06C01C21AD30A1EC072
:104DD000DC0120E030E0FCE020383F075CF4C90152
:104DE000880F991F880F991F280F391F220F331F13
:104DF0002E0F311DED91E0536D01EA3060F314FF89
:104E000003C0309521953F4F820E931EC12FD0E0F5
:104E100011FF08C0A114B10429F0C6010197D50102
:104E20008D939C93CB01BA019BD06B017C01CE0189
:104E3000837090708330910521F4F7FAF094F7F8BD
:104E4000F094C701B60120E030E0A90185D08823A5
:104E500009F442C097FE07C09094819491089394FE
:104E6000C0E0D4E002C0C8EED3E098EE692E9FEF18
:104E7000792E6C0E7D1E20E2A22EB12C0EC0FE01FA
:104E80000591159125913491C701B601A9019801A9
:104E900030DA6B017C018A189B088A149B047CF72A
:104EA0002497B594A794C615D705B9F7C601D701BD
:104EB0002A2F220F2B2F221F2F3F41F0BC01CD01A3
:104EC00020E030E0A90148D0882331F482E290E06C
:104ED0008093E4239093E5233C2D2D2D9E2D8F2D43
:104EE00006C08FEF04C030E020E090EC8FE7B901FE
:104EF000AC01872F922FA52FB42FBC01CD01CDB7C8
:104F0000DEB7EEE00BCB911168C0803219F089500A
:104F10008550D0F70895FB01DC014150504088F0E6
:104F20008D9181341CF08B350CF4805E6591613479
:104F30001CF06B350CF4605E861B611171F3990BEC
:104F40000895881BFCCFFB01DC0102C001900D928B
:104F500041505040D8F708957ADA08F481E0089576
:104F6000E89409C097FB3EF4909580957095619503
:104F70007F4F8F4F9F4F9923A9F0F92F96E9BB27B9
:104F80009395F695879577956795B795F111F8CF35
:104F9000FAF4BB0F11F460FF1BC06F5F7F4F8F4FA0
:104FA0009F4F16C0882311F096E911C0772321F096
:104FB0009EE8872F762F05C0662371F096E8862F2E
:104FC00070E060E02AF09A95660F771F881FDAF785
:104FD000880F9695879597F90895992788270895BA
:044FE000F894FFCF73
:104FE40000000000000000000000000000000000BD
:104FF40000000000000000000000000000000000AD
:10500400000000000000000000000000000000009C
:105014002C00244750524D432C37312E3133322C3F
:10502400412C343233302E30302C4E2C2D3731334A
:10503400302E30302C452C31312E322C302E302C69
:105044003236313230362C302E302C452A35300D64
:105054000A0025660041542B434D47463D3100412B
:10506400542B434D47533D220041542B434D474459
:105074003D000041542B434D47523D0043616C6C4D
:105084002052656164790047505253205368696522
:105094006C642072656769737465726564206F6EF1
:1050A400204D6F62696C65204E6574776F726B007A
:1050B4002B434D5449004D65737361676520666FDA
:1050C400756E64002B434D47523A002B3100504912
:1050D4004E470054657874204D6F64650041542B2D
:1050E400434D474C3D22414C4C22005265616420A3
:1050F4004D6573736167657300426567696E002B64
:105104003133303432343933303539001F21922071
:10511400922092209220CDCC4C3E7D878EC2C62B0D
:0E5124002942DB21DB21000000E623200000F1
:00000001FF
