:1000000001C200001CC200001AC2000018C2000099
:1000100016C2000014C2000012C2000010C200008C
:100020000EC200000CC200000AC2000008C200009C
:1000300006C2000004C2000002C2000000C20000AC
:10004000FEC10000FCC10000FAC10000F8C10000C0
:10005000F6C10000F4C10000F2C10000F0C10000D0
:10006000EEC10000ECC10000EAC10000E8C10000E0
:10007000E6C10000E4C10000E2C10000E0C10000F0
:10008000DEC10000DCC10000DAC10000D8C1000000
:10009000D6C10000D4C10000D2C10000D0C1000010
:1000A000CEC10000CCC10000CAC10000C8C1000020
:1000B000C6C10000C4C10000C2C10000C0C1000030
:1000C000BEC10000BCC10000BAC10000B8C1000040
:1000D000B6C10000B4C10000B2C10000B0C1000050
:1000E000AEC10000ACC10000AAC10000A8C1000060
:1000F000A6C10000A4C10000A2C10000A0C1000070
:100100009EC100009CC100009AC1000098C100007F
:1001100096C1000094C1000092C1000090C100008F
:100120008EC100008CC100008AC1000088C100009F
:1001300086C1000084C1000082C1000080C10000AF
:100140007EC100007CC100007AC1000078C10000BF
:1001500076C1000074C1000072C1000070C10000CF
:100160006EC100006CC100006AC1000068C10000DF
:1001700066C1000064C1000062C1000060C10000EF
:100180005EC100005CC100005AC1000058C10000FF
:1001900056C1000054C1000052C1000050C100000F
:1001A0004EC100004CC100004AC1000048C100001F
:1001B00046C1000044C1000042C1000040C100002F
:1001C0003EC100003CC100003AC1000038C100003F
:1001D00036C1000034C1000032C1000030C100004F
:1001E0002EC100002CC100002AC1000028C100005F
:1001F00026C100000AC400004CC40000084AD73BD6
:100200003BCE016E84BCBFFDC12F3D6C74319ABDE5
:1002100056833DDA3D00C77F11BED9E4BB4C3E9109
:100220006BAAAABE000000803F05A84CCDB2D44EF8
:10023000B93836A9020C50B9918688083CA6AAAAFA
:100240002ABE000000803F46575F56455253494F33
:100250004E0048575F56455253494F4E00140346CF
:1002600000720061006D00650077006F0072006B26
:100270000000001C034E006F006E006F006C0069F0
:10028000007400680020004C0061006200730000F0
:1002900000040309040902200001010080FA090496
:1002A000000002FF00000007058102400000070572
:1002B000020220000012011001FF000040E359007B
:1002C000F000020102DC016E616E00696E660000E2
:1002D000407A10F35A00A0724E18090010A5D4E815
:1002E0000000E87648170000E40B54020000CA9AA8
:1002F0003B000000E1F505000080969800000040FA
:10030000420F000000A0860100000010270000003E
:1003100000E803000000006400000000000A000084
:100320000000000100000000002C76D888DC674F38
:100330000823DFC1DFAE59E1B1B796E5E3E453C668
:100340003AE651997696E8E6C28426EB898C9B6260
:10035000ED407C6FFCEFBC9C9F40F2BAA56FA5F40A
:1003600090055A2AF75C936B6CF9676DC11BFCE032
:10037000E40D47FEF520E6B500D0ED902E03009485
:100380003577050080841E080000204E0A0000001A
:10039000C80C333333330F986E12831141EF8D2124
:1003A00014893BE65516CFFEE6DB18D1844B381B8B
:1003B000F77C1D901DA4BBE424203284725E228150
:1003C00000C9F124ECA1E53D27494E46494E495468
:1003D000594E414E000020410000C84200401C46DA
:1003E00020BCBE4CCA1B0E5AAEC59D74CDCCCC3DB4
:1003F0000AD7233C17B7D13877CC2B329595E62412
:100400001FB14F0A11241FBECFEFDFE2DEBFCDBF09
:1004100011E2A0E0B0E2E4EFF5E702C005900D9232
:10042000A838B107D9F714E2A8E8B1E201C01D92DB
:10043000AD31B107E1F70E94F92C0C94F83AE0CD08
:10044000089580E00895CF93DF93C0ECD1E022E0DF
:100450002A87EAE1F0E0E491A0ECB4E0DA96EC93CC
:10046000DA972A87EBE1F0E0E491DB96EC93DB97F7
:1004700083E0E0E4F0E0848380E090E216968D93E0
:100480009C93179713961C9213971092002033E4B5
:100490003093012085ED91E2809304209093052014
:1004A000209308203093092083E991E280930C2067
:1004B00090930D2082EC8C9311968C911197816012
:1004C00011968C931197DF91CF91089583E0E0E42A
:1004D000F0E08483E0ECF4E080E090E286839783B0
:1004E00013821092002023E42093012085ED91E2F5
:1004F000809304209093052082E08093082020932D
:10050000092083E991E280930C2090930D2082ECE6
:10051000808381818160818308950F939C01E0EC49
:10052000F1E0128661157105D1F0CB0143E951E28A
:10053000DA01F9012F5F3F4FE491ED930197C9F77D
:1005400070E040930C2050930D2060930A2070932C
:100550000B20E8E0F0E202E206930F91089543E9F0
:1005600051E2EECF84E0E0E5F0E0868382E0E0EC6B
:10057000F1E08287ECE1F0E0E491A0E6B0E01396D0
:10058000EC9313978BE115968C93159787EB169642
:100590008C93169781E08093600088ED84BF83E0A0
:1005A000809350008091510081FFFCCF80E1E0E515
:1005B000F0E0858388ED84BF83E1809350008091D3
:1005C000510084FFFCCF81E08093680088ED84BFF8
:1005D00084E080934000E0E4F0E0118208950F93FE
:1005E000CF93DF9300D0CDB7DEB78091D521807651
:1005F00079F48091D621863009F4C9C0873090F013
:10060000893009F44CC08A3040F5883009F480C044
:1006100085ED91E20E94892B0F900F90DF91CF9191
:100620000F910895813031F1813008F087C0109228
:1006300093211092942183E991E280930C2090936E
:100640000D2082E090E080930A2090930B20E8E058
:10065000F0E202E2069381E0DFCF8A3009F451C074
:100660008B30B1F68091D9216091D721EADE8823C1
:1006700009F447C083E991E280930C2090930D2008
:1006800010920A2010920B20E8E0F0E202E20693BA
:1006900081E00F900F90DF91CF910F91089580E04E
:1006A00091E060E0AE014F5F5F4F0E94C32C882352
:1006B00041F1E0ECF1E01286E981FA817196E49172
:1006C0002091D721E217E8F083E991E280930C2092
:1006D00090930D2010920A2010920B20E8E0F0E297
:1006E00002E206932093D4218091D421882309F437
:1006F000B5C084E08093D3218091D4215FD181E083
:100700008BCF80E00F900F90DF91CF910F910895E4
:100710008091D4218093932183E991E280930C20EE
:1007200090930D2081E090E080930A2090930B201D
:10073000E8E0F0E202E2069381E06ECF833009F454
:1007400099CF853009F064CF2091D7212F77E0E051
:10075000F0E202E7069383E991E280930C20909304
:100760000D2010920A2010920B20389602E2069378
:100770008091082085FFFCCFE0ECF4E02383222366
:1007800009F05AC082E08093D32181E045CFE0ECAC
:10079000F1E012868091D7219091D82123E08C3D01
:1007A0009207C9F06091D921AE014F5F5F4F0E945F
:1007B000C32C009709F4A5CF29813A814091DB2110
:1007C0005091DC21BC014817590708F4BA01C9014E
:1007D000A4DE81E021CF83E08093942163E971E27C
:1007E0008AE38093932182E08287E8E0F0E0E4915D
:1007F000DB01129681E090E048E020EC31E052E02D
:10080000EF70EA30B0F0F0E0F796ED93FD93F1E28F
:10081000AD3CBF0799F0F9015287E42FF0E0E49175
:1008200080FF03C0E295EF704F5F0196EF70EA30F2
:1008300050F7F0E0F096E9CF83E0A5CF60930C206D
:1008400070930D208AE390E080930A2090930B2010
:10085000E8E0F0E202E2069381E0DECE8091C3049C
:10086000882321F084E08093D32146CF81E0FBCF21
:100870000F932FB7F89480911820867019F42FBF2A
:100880000F9108953091802113160CF045C080918E
:100890007C2190917D2140918D2151E0413041F1A9
:1008A00050938D21442349F1809314209093152077
:1008B00040E450E04093122050931320E8E1F0E22E
:1008C00004E10693315030938021805C9F4F8093E8
:1008D0007C2190937D2134E28531930781F685E177
:1008E00092E280937C2190937D212FBF0F910895F8
:1008F00050E050938D214423B9F680931C209093AF
:100900001D2040E450E040931A2050931B20E8E162
:10091000F0E202E20693D6CF80918E218130E1F0A1
:10092000823009F0ACCF809118208670863009F0B3
:10093000A6CF10928E2110928F21109290211092AA
:10094000802185E192E280937E2190937F218093A4
:100950007C2190937D2193CF82E080938E217091B2
:100960007C2160917D2180918F2190919021309107
:100970008D2141E0313001F140938D21472F562FD9
:10098000332369F440931C2050931D2080931A2038
:1009900090931B20E8E1F0E202E2069370CF4093CF
:1009A0001420509315208093122090931320E8E197
:1009B000F0E204E1069363CF40E0DECF2FB7F89476
:1009C0001092802185E192E280937E2190937F2195
:1009D00080937C2190937D2188E190E236E03093F2
:1009E000182033E930931920FC01379710820897BB
:1009F00032E0FC01308310928D2110928E211092F2
:100A00008F21109290212FBF08951F920F920FB641
:100A10000F9211242F933F934F935F936F937F9384
:100A20008F939F93AF93BF93EF93FF93E0ECF4E02A
:100A30008091CA0487FD2AC08091CA048E7081F417
:100A40008091CA0480FD1FC080E782878091C20424
:100A500080FF08C08091C2048E7F8283F4DC02C0D4
:100A60008EE08287FF91EF91BF91AF919F918F911F
:100A70007F916F915F914F913F912F910F900FBE9A
:100A80000F901F90189581E08287ECCF80E88287D5
:100A9000E9CF1F920F920FB60F9211240F932F934D
:100AA0003F934F935F936F937F938F939F93AF93F6
:100AB000BF93EF93FF93E0ECF4E0148283E084872C
:100AC0002FB7F894809118208670C9F42FBF8091B9
:100AD000002084FD4FC085FD74C0FF91EF91BF9150
:100AE000AF919F918F917F916F915F914F913F91C6
:100AF0002F910F910F900FBE0F901F90189530916E
:100B0000802113160CF07BC080917C2190917D2177
:100B100040918D2151E0413009F43EC050938D2128
:100B2000442309F43FC0809314209093152040E49F
:100B300050E04093122050931320E8E1F0E204E1EA
:100B40000693315030938021805C9F4F80937C21AD
:100B500090937D2134E28531930709F0B7CF85E189
:100B600092E280937C2190937D212FBF8091002081
:100B700084FFB1CF34DD882351F48091012084605B
:100B80008093012080910920846080930920E0E017
:100B9000F0E202E70693A1CF50E050938D21442369
:100BA00009F0C1CF80931C2090931D2040E450E0B9
:100BB00040931A2050931B20E8E1F0E202E20693F2
:100BC000C0CF409102205091032080918921813E25
:100BD000F1F66091882170E000247695679507947E
:100BE000769567950794762F602D85ED91E250E01C
:100BF0000E94E038E0E0F0E202E706936ECF8091D9
:100C00008E218130E1F0823009F060CF8091182090
:100C10008670863009F05ACF10928E2110928F2163
:100C2000109290211092802185E192E280937E21A2
:100C300090937F2180937C2190937D2147CF82E008
:100C400080938E2170917C2160917D2180918F21F4
:100C50009091902130918D2141E0313001F140930C
:100C60008D21472F562F332369F440931C20509336
:100C70001D2080931A2090931B20E8E1F0E202E20D
:100C8000069324CF40931420509315208093122074
:100C900090931320E8E1F0E204E1069317CF40E0DF
:100CA000DECFAF92BF92CF92DF92EF92FF920F937F
:100CB0001F93CF93DF93FC012081222309F473C09B
:100CC000009709F470C06C010894C11CD11C46E067
:100CD00068E170E235E1A32E32E2B32EC1E0D0E04C
:100CE00050E4E52EF12C9FB7F89480918E21882353
:100CF00039F180E09FBF8823B1F380918F219091DB
:100D00009021E0917E21F0917F21E80FF91F20834F
:100D1000019680938F219093902180349105C1F0AA
:100D2000F6012191222309F43EC0C114D10409F433
:100D30003AC06F019FB7F89480918E218823C9F63D
:100D400080918021342F381B81E013169CF2D1CF83
:100D5000BFB7F89410928F2110929021809180213A
:100D60008F5F8093802180917E2190917F21805C94
:100D70009F4F80937E2190937F21F4E285319F07DE
:100D800021F4A0927E21B0927F215FB7F8948091E8
:100D90001820867009F04EC05FBFBFBFF6012191D9
:100DA000222309F0C2CF81E080938E212FB7F894DF
:100DB00080911820867009F0CCC02FBF82E0E0EC53
:100DC000F4E0858736E09FB7F89480918E218823E0
:100DD00009F4B6C080E09FBF882309F580918C217B
:100DE000882389F32FB7F8941092802185E192E24D
:100DF00080937E2190937F2180937C2190937D210D
:100E0000E8E1F0E206E0059308E0069310928E21F7
:100E100010928F211092902110928D212FBFDF917F
:100E2000CF911F910F91FF90EF90DF90CF90BF90E7
:100E3000AF900895A09180211A160CF03CC020912B
:100E40007C2130917D21E0918D218E2F90E0F1E089
:100E50008C179D0709F4F0E0F0938D21EE23F9F44F
:100E600020931C2030931D20E0921A20F0921B202A
:100E7000FB0102E20693A150A0938021C901805C8E
:100E80009F4F80937C2190937D21F4E285319F07D1
:100E900009F082CFA0927C21B0927D217DCF20935A
:100EA000142030931520E0921220F0921320FB01C1
:100EB00004E10693E0CF80918E218130D1F0823021
:100EC00009F06ACF809118208670863009F064CFCF
:100ED00010928E2110928F211092902110928021D9
:100EE000A0927E21B0927F21A0927C21B0927D21A0
:100EF00053CF22E020938E21A0917C2110917D215F
:100F000020918F2130919021F0918D218F2F90E0B1
:100F1000E1E08C179D0709F4E0E0E0938D218A2F32
:100F2000912FFF2309F04BC080931C2090931D202C
:100F300020931A2030931B20FB0102E206932CCF52
:100F400080918021232F281B81E012160CF443CFBF
:100F500041CF3091802113160CF04CC080917C2140
:100F600090917D2140918D2151E0413009F450E074
:100F700050938D21442379F580931C2090931D205C
:100F800040E450E040931A2050931B20E8E1F0E247
:100F900002E20693315030938021805C9F4F809312
:100FA0007C2190937D21F4E285319F0709F005CFE4
:100FB00085E192E280937C2190937D21FECE809307
:100FC0001420909315202093122030931320FB01BE
:100FD00004E10693E1CE809314209093152040E421
:100FE00050E04093122050931320E8E1F0E204E136
:100FF0000693D0CF80918E218130E1F0823009F0CC
:10100000DCCE809118208670863009F0D6CE109202
:101010008E2110928F21109290211092802185E1D3
:1010200092E280937E2190937F2180937C21909304
:101030007D21C3CE82E080938E2160917C2130910E
:101040007D2140918F215091902180918D2191E0BF
:10105000813009F490E090938D21882379F4862FD4
:10106000932F80931C2090931D2040931A2050931F
:101070001B20E8E1F0E202E206939FCE862F932F39
:1010800080931420909315204093122050931320A6
:10109000E8E1F0E204E1069390CEEF92FF920F9325
:1010A0001F93CF93DF93F82EE92E162F072FA82F2B
:1010B000B92FED0109900020E9F79E01E62FF72FE7
:1010C000EF0109900020E9F7CE0101978E1B9F0BDD
:1010D0008A1B9B0B820F931F0E94CF35D82FC92FDD
:1010E0006F2D7E2D0E94F2378D2F9C2F612F702F38
:1010F0000E94E7378D2F9C2FDF91CF911F910F9189
:10110000FF90EF9008952F923F924F925F926F92CF
:101110007F928F929F92AF92BF92CF92DF92EF9287
:10112000FF920F931F93CF93DF93CDB7DEB7269730
:10113000CDBFDEBF4B015C0129833A834B835C83C7
:10114000C0907821D0907921E0907A21F0907B2195
:10115000A70196010E94BA3225E33AEF4EE85CE31C
:101160000E94A63420E030E040E05FE30E94A63415
:101170000E9409359B01AC010E94A634362E272E11
:101180008D839E83C701B60125E33AEF4EE85CE309
:101190000E94A6340E9481337B018C01C501B401F9
:1011A00025E33AEF4EE85CE30E94A6340E948133C7
:1011B0002B013C0169817A818B819C812091742172
:1011C0003091752140917621509177210E94BA3259
:1011D00025E33AEF4EE85CE30E94A63420E030E0DD
:1011E00040E05FE30E94A6340E9409359B01AC01F8
:1011F0000E94A634B62ED72E882EC92EC801B7015C
:10120000A30192010E94A6340B2D1D2D282D3C2DEB
:10121000A90198010E94A6349B01AC01F1017D81D6
:101220006E818F2F9E2FA72FB62FBC01CD010E945C
:10123000BB32862E072F382E492E982F482D502F3F
:10124000692F742DCB01BA010E9413356B017C010B
:1012500060E070E080E89FE3E02F082D1E2F232D33
:10126000342DA90198010E94BA320E9413359B01C6
:10127000AC01C701B6010E942E339B01AC010E9454
:10128000BB3220E038EF46EC55E40E94A634462FEE
:10129000572F682F792FCB01BA012696CDBFDEBF1D
:1012A000DF91CF911F910F91FF90EF90DF90CF9042
:1012B000BF90AF909F908F907F906F905F904F9076
:1012C0003F902F900895EF92FF920F931F93CF932B
:1012D000DF93CDB7DEB7A897CDBFDEBF7B0160E35C
:1012E00070E20E94E437009779F08E010D5F1F4F86
:1012F00080E090E060E370E20E94E437F8018193BF
:1013000091938F010097A1F70B851C858F8198859C
:101310000E94FE3620E030E048EC52E40E94843324
:10132000DC01CB01F70180839183A283B383C801E1
:101330000E94FE3620E030E048EC52E40E94843304
:10134000DC01CB01F70184839583A683B783A8963C
:10135000CDBFDEBFDF91CF911F910F91FF90EF9036
:1013600008952F923F924F925F926F927F928F9249
:101370009F92AF92BF92CF92DF92EF92FF920F9324
:101380001F93CF93DF93CDB7DEB7C653D140CDBF08
:10139000DEBF82E390E260E370E20E94E4370097F0
:1013A00079F08E010D5F1F4F80E090E060E370E206
:1013B0000E94E437D8018D939D938D010097A1F78A
:1013C0000B851C858F8198850E94FE3620E030E0D9
:1013D00048EC52E40E948433A62E872E482E292EF4
:1013E000C8010E94FE3620E030E048EC52E40E9442
:1013F0008433B62E972E382EC15DDE4F9883CF52A0
:10140000D1408A2D982DA42DB22DBC01CD01C15DF6
:10141000DE4F4881CF52D1400B2D192D232D342F73
:10142000A901980170DE6B017C018CE390E00E94C1
:10143000CF35CD5CDE4F8883C353D140CC5CDE4FCB
:101440009883C453D140C701B601209170213091D7
:10145000712140917221509173210E949B34181682
:101460000CF4CAC081E080938E215FB7F89480911C
:101470001820867081F14091802114160CF09BC0D9
:1014800080917C2190917D2120918D2131E021302E
:1014900009F430E030938D21222309F076C0809347
:1014A0001C2090931D2020E430E020931A203093DC
:1014B0001B20E8E1F0E202E20693415040938021D4
:1014C000805C9F4F80937C2190937D21B4E2853195
:1014D0009B0709F469C05FBF82E0E0ECF4E0858718
:1014E00096E02FB7F89480918E21882309F444C0A8
:1014F00080E02FBF882309F580918C21882389F310
:101500002FB7F8941092802185E192E280937E219A
:1015100090937F2180937C2190937D21E8E1F0E2FC
:1015200006E0059308E0069310928E2110928F2119
:101530001092902110928D212FBFCD5CDE4FE8815B
:10154000F981C353D14080819181CA5CDE4FCDBF08
:10155000DEBFDF91CF911F910F91FF90EF90DF9051
:10156000CF90BF90AF909F908F907F906F905F9043
:101570004F903F902F90089580918021392F381BF4
:1015800081E013160CF4B5CFB3CF80931420909361
:10159000152020E430E02093122030931320E8E15E
:1015A000F0E204E1069389CF85E192E280937C2109
:1015B00090937D2190CF80918E21813009F4A8C332
:1015C000823009F088CF809118208670863009F02B
:1015D00082CF10928E2110928F2110929021109222
:1015E000802185E192E280937E2190937F218093F8
:1015F0007C2190937D216FCFEDB7FEB73897EDBF7B
:10160000FEBF319649EC642E712C6C0E7D1EADB779
:10161000BEB711966D927C92129702E710E2028398
:1016200013832A2D382D442D522DC901DA018483CC
:101630009583A683B7830E945738EDB7FEB73196DE
:1016400055E6452E512C4C0E5D1EADB7BEB711961A
:101650004D925C921297028313832B2D392D432DCB
:10166000C15DDE4F5881CF52D140C901DA01848378
:101670009583A683B7830E945738EDB7FEB731969E
:101680009E012F5F3F4FC35DDE4F28833983CD52CC
:10169000D140ADB7BEB711962D933C9312970283FC
:1016A0001383C482D582E682F7820E945738F30101
:1016B00001900020E9F73197E619F709D2010D9062
:1016C0000020E9F71197A419B509CF5CDE4FA88374
:1016D000B983C153D140C35DDE4FA881B981CD52DA
:1016E000D1400D900020E9F71197C35DDE4F2881AE
:1016F0003981CD52D140A21BB30BC15DDE4FA8830F
:10170000B983CF52D1408DB79EB708968DBF9EBF8B
:101710001E161F060CF042C04301D301AE0FBF1FBF
:10172000CB5CDE4FA883B983C553D14056E0A8E116
:10173000B0E295E1292E92E2392E21E0E22EF12C41
:1017400030E4A32EB12CF40131914F019FB7F894EE
:1017500080918E21882309F44CC180E09FBF8823AB
:10176000A9F380918F2190919021E0917E21F091B9
:101770007F21E80FF91F3083019680938F2190938A
:1017800090218034910509F43DC1CB5CDE4F288166
:101790003981C553D14082169306A9F696E02FB73A
:1017A000F89480918E21882309F4E2C180E02FBF54
:1017B0008823A9F380918F2190919021E0917E213F
:1017C000F0917F21E80FF91F20E22083019680939A
:1017D0008F21909390218034910509F4BEC2CF5C93
:1017E000DE4F28813981C153D140121613060CF007
:1017F00044C04201240D351DCF5CDE4F2883398360
:10180000C153D14056E0B8E1EB2EB0E2FB2E15E11A
:10181000212E12E2312E12E001E0C02ED12C80E404
:10182000A82EB12CD4012D914D019FB7F894809131
:101830008E21882309F4A5C180E09FBF8823A9F3E6
:1018400080918F2190919021E0917E21F0917F21D4
:10185000E80FF91F2083019680938F2190939021A8
:101860008034910509F496C1CF5CDE4F288139811F
:10187000C153D14082169306A9F696E02FB7F8948B
:1018800080918E21882309F43AC280E02FBF8823FB
:10189000A9F380918F2190919021E0917E21F09188
:1018A0007F21E80FF91F20E22083019680938F218A
:1018B000909390218034910509F4BEC3C15DDE4F41
:1018C00028813981CF52D140121613060CF047C03F
:1018D0004E010894811C911C280D391DC15DDE4FFD
:1018E00028833983CF52D14076E068E1E62E60E26A
:1018F000F62EE5E12E2EE2E23E2E12E0F1E0CF2EB2
:10190000D12CA0E4AA2EB12CD4012D914D019FB76A
:10191000F89480918E21882309F4D0C280E09FBF83
:101920008823A9F380918F2190919021E0917E21CD
:10193000F0917F21E80FF91F2083019680938F217A
:10194000909390218034910509F4C1C2C15DDE4FAE
:1019500028813981CF52D14082169306A9F6D3014E
:101960000D900020E9F7CD018619970901960E9494
:10197000CF35E92E082F192FC801B3010E94F23785
:10198000E02FFE2DDF010D900020E9F71197AE1B2F
:10199000BF0BA00FB11F8CE290E08D939C93A02F02
:1019A000BE2DFD0101900020E9F79F01F201019099
:1019B0000020E9F7CF010197841995098A1B9B0B39
:1019C000820F931F0E94CF35E82EC92EB8010E94C6
:1019D000F2378E2D9C2DB2010E94E737CD5CDE4F91
:1019E000A881B981C353D140EC921196CC92119742
:1019F00039CD80918021252F281B81E012160CF40F
:101A0000ADCEABCECFB6F89410928F21109290212C
:101A1000809180218F5F8093802180917E219091A1
:101A20007F21805C9F4F80937E2190937F21F4E201
:101A300085319F0721F420927E2130927F211FB7AC
:101A4000F89480911820867019F41FBFCFBE9DCEE8
:101A50002091802112160CF03BC060917C21709186
:101A60007D2130918D21832F90E041E08E159F05DF
:101A700009F440E040938D213323F1F460931C205E
:101A800070931D20A0921A20B0921B20FD0102E24B
:101A90000693215020938021CB01805C9F4F80933F
:101AA0007C2190937D21F4E285319F0771F620928D
:101AB0007C2130927D21C9CF609314207093152032
:101AC000A0921220B0921320FD0104E10693E1CF11
:101AD00080918E218130D1F0823009F0B6CF809193
:101AE00018208670863009F0B0CF10928E211092A7
:101AF0008F21109290211092802120927E2130928D
:101B00007F2120927C2130927D219FCF22E0209363
:101B10008E2170917C21E0917D2120918F21309147
:101B2000902160918D21862F90E041E08E159F05D8
:101B300009F440E040938D21872F9E2F662361F4A6
:101B400080931C2090931D2020931A2030931B20FB
:101B5000FD0102E2069379CF809314209093152023
:101B60002093122030931320FD0104E106936DCFE2
:101B700080918021392F381B81E013160CF417CE89
:101B800015CE80918021352F381B81E013160CF47F
:101B900054CE52CEBFB7F89410928F21109290215C
:101BA000809180218F5F8093802180917E21909110
:101BB0007F21805C9F4F80937E2190937F21E4E280
:101BC00085319E0721F420927E2130927F21AFB78C
:101BD000F89480911820867019F4AFBFBFBF44CE2F
:101BE0002091802112160CF03BC060917C217091F5
:101BF0007D2130918D21832F90E041E08C159D0552
:101C000009F440E040938D213323F1F460931C20CC
:101C100070931D20A0921A20B0921B20F70102E2BF
:101C20000693215020938021CB01805C9F4F8093AD
:101C30007C2190937D21F4E285319F0771F62092FB
:101C40007C2130927D21C9CF6093142070931520A0
:101C5000A0921220B0921320F70104E10693E1CF85
:101C600080918E218130D1F0823009F0B6CF809101
:101C700018208670863009F0B0CF10928E21109215
:101C80008F21109290211092802120927E213092FB
:101C90007F2120927C2130927D219FCF10938E2135
:101CA00070917C21E0917D2120918F2130919021B4
:101CB00060918D21862F90E041E08C159D0509F4FF
:101CC00040E040938D21872F9E2F662361F48093FF
:101CD0001C2090931D2020931A2030931B20F70185
:101CE00002E206937ACF80931420909315202093DC
:101CF000122030931320F70104E106936ECF8091F8
:101D00008021392F381B81E013160CF4BFCDBDCDD7
:101D100082E080938E2160917C2140917D21809191
:101D20008F219091902120918D2131E0213009F473
:101D300030E030938D21222309F02AC2262F342F40
:101D400020931C2030931D2080931A2090931B20F9
:101D5000E8E1F0E202E20693BECB7FB7F89410927E
:101D60008F2110929021809180218F5F809380211C
:101D700080917E2190917F21805C9F4F80937E2176
:101D800090937F2134E28531930731F485E192E22B
:101D900080937E2190937F216FB7F89480911820D3
:101DA000867081F14091802114160CF03DC0209185
:101DB0007C2130917D2190918D2181E0913009F439
:101DC00080E080938D21992301F520931C2030938E
:101DD0001D2080E490E080931A2090931B20E8E17E
:101DE000F0E202E20693842F815080938021C901A2
:101DF000805C9F4F80937C2190937D21A4E285316C
:101E00009A0781F16FBF7FBFEACC209314203093F3
:101E1000152080E490E08093122090931320E8E155
:101E2000F0E204E10693DFCF80918E21813009F149
:101E3000823041F7809118208670863019F7109211
:101E40008E2110928F21109290211092802185E195
:101E500092E280937E2190937F2180937C219093C6
:101E60007D21D0CF85E192E280937C2190937D21EA
:101E7000C9CF82E080938E2140917C2150917D21B9
:101E800080918F219091902130918D2121E03130EE
:101E900009F420E020938D21242F332309F087C1FA
:101EA000352F20931C2030931D2080931A2090936F
:101EB0001B20E8E1F0E202E20693A4CF80918021AA
:101EC000372F381B81E013160CF429CD27CDBFB76F
:101ED000F89410928F2110929021809180218F5F31
:101EE0008093802180917E2190917F21805C9F4F03
:101EF00080937E2190937F21E4E285319E0721F437
:101F000020927E2130927F21AFB7F89480911820E3
:101F1000867019F4AFBFBFBF19CD20918021121672
:101F20000CF03BC040917C2150917D2130918D215E
:101F3000832F90E061E08C159D0509F460E06093CB
:101F40008D213323F1F440931C2050931D20A09247
:101F50001A20B0921B20F70102E206932150209331
:101F60008021CA01805C9F4F80937C2190937D21CA
:101F7000F4E285319F0771F620927C2130927D2119
:101F8000C9CF4093142050931520A0921220B092F4
:101F90001320F70104E10693E1CF80918E21813077
:101FA000D1F0823009F0B6CF80911820867086304B
:101FB00009F0B0CF10928E2110928F2110929021B3
:101FC0001092802120927E2130927F2120927C21CC
:101FD00030927D219FCF10938E2160917C21E091E2
:101FE0007D2120918F213091902150918D21852F3D
:101FF00090E041E08C159D0509F440E040938D216F
:10200000862F9E2F552361F480931C2090931D20D2
:1020100020931A2030931B20F70102E206937ACF17
:102020008093142090931520209312203093132036
:10203000F70104E106936ECF7FB7F89410928F21D9
:1020400010929021809180218F5F809380218091D8
:102050007E2190917F21805C9F4F80937E21909381
:102060007F2134E28531930731F485E192E2809358
:102070007E2190937F216FB7F8948091182086700D
:1020800071F14091802114160CF03BC080917C21AD
:1020900090917D2120918D2131E0213009F430E0B3
:1020A00030938D212223F1F480931C2090931D20E6
:1020B00020E430E020931A2030931B20E8E1F0E286
:1020C00002E20693415040938021805C9F4F8093B1
:1020D0007C2190937D21A4E285319A0781F16FBF25
:1020E0007FBFECCB809314209093152020E430E048
:1020F0002093122030931320E8E1F0E204E10693EC
:10210000E1CF80918E21813009F1823041F78091B9
:1021100018208670863019F710928E2110928F2128
:10212000109290211092802185E192E280937E218D
:1021300090937F2180937C2190937D21D0CF85E166
:1021400092E280937C2190937D21C9CF82E080939D
:102150008E2140917C2150917D2180918F21909101
:10216000902120918D2131E0213009F430E030932D
:102170008D21222351F540931C2050931D208093E4
:102180001A2090931B20E8E1F0E202E20693A7CF29
:10219000262F342F20931420309315208093122063
:1021A00090931320E8E1F0E204E1069394C9352FFF
:1021B00020931420309315208093122090931320A5
:1021C000E8E1F0E204E106931DCE40931420509321
:1021D00015208093122090931320E8E1F0E204E1AF
:1021E00006937DCFFB018A3039F0918195FFFDCFB9
:1021F000808380E090E00895918195FFFDCF9DE080
:102200009083F3CFFC01818187FFFDCF808108950A
:102210004F925F926F927F928F929F92AF92BF92F6
:10222000CF92DF92EF92FF920F931F93CF93DF93A2
:10223000EC017B01DC010D900020E9F7CD018C1B46
:102240009D0B01960E94CF35A92EC82ED92EC6010E
:10225000BE010E94F237AC2DBA2DFD010190002085
:10226000E9F73197EA1BFB0BEC0DFD1D8DE090E0CB
:1022700080839183D6E0C8E16C2EC0E27C2E15E10C
:10228000412E12E2512E12E001E0A02EB12C20E4EA
:10229000822E912CD601CD916D01CC2309F45CC026
:1022A000CA3009F4D7C0F701818185FFFCCFC08314
:1022B00080918B21813071F7D70111968C91119704
:1022C00087FFFACF2C919FB7F89480918E218823B5
:1022D00009F458C080E09FBF8823A9F380918F2123
:1022E00090919021E0917E21F0917F21E80FF91FDC
:1022F0002083019680938F219093902180349105C3
:1023000049F6AFB7F89410928F21109290218091E6
:1023100080218F5F8093802180917E2190917F2109
:10232000805C9F4F80937E2190937F21B4E2853122
:102330009B0721F440927E2150927F215FB7F89451
:1023400080911820867039F55FBFAFBFD601CD915F
:102350006D01CC2309F0A4CF80918B21813009F449
:10236000B5C0DF91CF911F910F91FF90EF90DF905B
:10237000CF90BF90AF909F908F907F906F905F9025
:102380004F900895809180213D2F381B81E01316D6
:102390000CF4A1CF9FCF4091802114160CF03CC0CB
:1023A00020917C2130917D2160918D21862F90E0BC
:1023B00071E08A159B0509F470E070938D21662306
:1023C000F9F420931C2030931D2080921A209092C3
:1023D0001B20F30102E20693415040938021C90182
:1023E000805C9F4F80937C2190937D21F4E2853126
:1023F0009F0709F0A9CF40927C2150927D21A4CF64
:102400002093142030931520809212209092132054
:10241000F30104E10693E0CF80918E218130F1F049
:10242000823009F091CF809118208670863009F0B3
:102430008BCF10928E2110928F21109290211092AA
:10244000802140927E2150927F2140927C215092A7
:102450007D217ACF8DE0B701C5DE25CF10938E2187
:1024600070917C21E0917D2120918F2130919021EC
:1024700060918D21862F90E041E08A159B05F1F057
:1024800040938D21872F9E2F662361F480931C201B
:1024900090931D2020931A2030931B20F30102E219
:1024A000069352CF809314209093152020931220EE
:1024B00030931320F30104E1069346CF40E04093AC
:1024C0008D21872F9E2F662369F7E0CF80938E2181
:1024D0002FB7F89480911820867009F03BC02FBF69
:1024E00082E0E0ECF4E0858736E09FB7F8948091D5
:1024F0008E21882339F180E09FBF882309F031CFF6
:1025000080918C21882389F32FB7F8941092802131
:1025100085E192E280937E2190937F2180937C21BC
:1025200090937D21E8E1F0E206E0059308E0069350
:1025300010928E2110928F211092902110928D2155
:102540002FBF0FCF80918021232F281B81E01216EF
:102550009CF2D1CF3091802113160CF040C08091B5
:102560007C2190917D2140918D2151E0413009F4F1
:1025700050E050938D21442319F580931C209093B3
:102580001D2040E450E040931A2050931B20E8E1C6
:10259000F0E202E20693315030938021805C9F4F3D
:1025A00080937C2190937D21B4E285319B0709F0D3
:1025B00096CF85E192E280937C2190937D218FCF0D
:1025C000809314209093152040E450E04093122013
:1025D00050931320E8E1F0E204E10693DCCF809110
:1025E0008E218130E1F0823009F079CF809118207E
:1025F0008670863009F073CF10928E2110928F2151
:10260000109290211092802185E192E280937E21A8
:1026100090937F2180937C2190937D2160CF82E0F5
:1026200080938E2160917C2130917D2140918F217A
:102630005091902180918D2191E0813009F490E0BA
:1026400090938D21882379F4862F932F80931C20DB
:1026500090931D2040931A2050931B20E8E1F0E254
:1026600002E206933CCF862F932F80931420909301
:1026700015204093122050931320E8E1F0E204E18A
:1026800006932DCFAF92BF92CF92DF92EF92FF923F
:102690000F931F93CF93DF932FEF37EA41E621503B
:1026A00030404040E1F700C0000080916106806248
:1026B000E0E6F6E081834091610636E09FB7F8944A
:1026C00080918E21882309F45AC180E09FBF88231E
:1026D000A9F380918F2190919021E0917E21F0913A
:1026E0007F21E80FF91F4083019680938F219093FB
:1026F00090218034910509F49BC381E080938E2161
:102700000E94380482E0E0ECF4E0858736E09FB771
:10271000F89480918E21882309F428C180E09FBF1E
:10272000882309F580918C21882389F32FB7F894A9
:102730001092802185E192E280937E2190937F2107
:1027400080937C2190937D21E8E1F0E206E00593FF
:1027500008E0069310928E2110928F211092902102
:1027600010928D212FBF809165068F7DE0E6F6E007
:1027700085834091650636E09FB7F89480918E215D
:10278000882309F40EC180E09FBF8823A9F38091BC
:102790008F2190919021E0917E21F0917F21E80F8F
:1027A000F91F4083019680938F219093902180346C
:1027B000910509F448C681E080938E210E94380477
:1027C00082E0E0ECF4E0858736E09FB7F8948091F2
:1027D0008E21882309F4DCC080E09FBF882309F59F
:1027E00080918C21882389F32FB7F894109280214F
:1027F00085E192E280937E2190937F2180937C21DA
:1028000090937D21E8E1F0E206E0059308E006936D
:1028100010928E2110928F211092902110928D2172
:102820002FBF809165068061E0E6F6E085834091E8
:10283000650636E09FB7F89480918E21882309F4CD
:10284000C2C080E09FBF8823A9F380918F2190911F
:102850009021E0917E21F0917F21E80FF91F4083C4
:10286000019680938F21909390218034910509F4F3
:10287000D0C481E080938E210E94380482E0E0EC95
:10288000F4E0858736E09FB7F89480918E21882305
:1028900009F490C080E09FBF882309F580918C21C6
:1028A000882389F32FB7F8941092802185E192E272
:1028B00080937E2190937F2180937C2190937D2132
:1028C000E8E1F0E206E0059308E0069310928E211D
:1028D00010928F211092902110928D212FBF36E7F8
:1028E000C32E30E2D32E24E546E068E170E255E1E4
:1028F000A52E52E2B52EC1E0D0E0E0E4EE2EF12CA0
:102900009FB7F89480918E21882341F180E09FBF8A
:102910008823B1F380918F2190919021E0917E21C5
:10292000F0917F21E80FF91F2083019680938F217A
:10293000909390218034910509F44EC0F6012191C5
:10294000222309F474C0C114D10409F470C06F01CA
:102950009FB7F89480918E218823C1F680918021C1
:10296000342F381B81E0131694F2D0CF8091802150
:10297000232F281B81E012160CF4D1CECFCE8091EC
:102980008021232F281B81E012160CF49FCE9DCEB0
:1029900080918021232F281B81E012160CF41DCF7B
:1029A0001BCF80918021232F281B81E012160CF46D
:1029B000EBCEE9CE80918021232F281B81E01216D7
:1029C0000CF469CF67CF80918021232F281B81E0F1
:1029D00012160CF437CF35CFBFB7F89410928F2171
:1029E00010929021809180218F5F8093802180912F
:1029F0007E2190917F21805C9F4F80937E219093D8
:102A00007F2124E28531920721F4A0927E21B092A9
:102A10007F215FB7F89480911820867009F040C13B
:102A20005FBFBFBFF6012191222309F08CCF81E067
:102A300080938E210E94380482E0E0ECF4E08587E8
:102A400036E09FB7F89480918E21882309F4AEC1B7
:102A500080E09FBF882309F580918C21882389F32A
:102A60002FB7F8941092802185E192E280937E2125
:102A700090937F2180937C2190937D21E8E1F0E287
:102A800006E0059308E0069310928E2110928F21A4
:102A90001092902110928D212FBFE0E6F6E080E2A7
:102AA00087832FEF39E648E1215030404040E1F77D
:102AB00000C0000087834091670636E09FB7F89416
:102AC00080918E21882309F48CC180E09FBF8823E8
:102AD000A9F380918F2190919021E0917E21F09136
:102AE0007F21E80FF91F4083019680938F219093F7
:102AF00090218034910509F419C484E59DECADE280
:102B0000B3E081509040A040B040D9F700C000C071
:102B10000000809161068860E0E6F6E081834091E4
:102B2000610636E09FB7F89480918E21882309F4DE
:102B30004FC180E09FBF8823A9F380918F2190919E
:102B40009021E0917E21F0917F21E80FF91F4083D1
:102B5000019680938F21909390218034910509F400
:102B6000CBC281E080938E210E94380482E0E0ECA9
:102B7000F4E0858736E09FB7F89480918E21882312
:102B800009F41DC180E09FBF882309F580918C2145
:102B9000882389F32FB7F8941092802185E192E27F
:102BA00080937E2190937F2180937C2190937D213F
:102BB000E8E1F0E206E0059308E0069310928E212A
:102BC00010928F211092902110928D212FBF809111
:102BD00065068860E0E6F6E085834091650636E0AC
:102BE0009FB7F89480918E21882309F40CC180E06E
:102BF0009FBF8823A9F380918F2190919021E0912C
:102C00007E21F0917F21E80FF91F40830196809388
:102C10008F21909390218034910509F496C181E031
:102C200080938E210E94380482E0E0ECF4E08587F6
:102C300036E09FB7F89480918E21882309F4DAC09A
:102C400080E09FBF882309F580918C21882389F338
:102C50002FB7F8941092802185E192E280937E2133
:102C600090937F2180937C2190937D21E8E1F0E295
:102C700006E0059308E0069310928E2110928F21B2
:102C80001092902110928D212FBFDF91CF911F9133
:102C90000F91FF90EF90DF90CF90BF90AF9008958D
:102CA000A09180211A160CF03CC020917C2130911B
:102CB0007D21E0918D218E2F90E0F1E08C179D0712
:102CC00009F4F0E0F0938D21EE23F9F420931C2019
:102CD00030931D20E0921A20F0921B20FB0102E2AB
:102CE0000693A150A0938021C901805C9F4F8093DF
:102CF0007C2190937D21F4E285319F0709F090CEED
:102D0000A0927C21B0927D218BCE20931420309311
:102D10001520E0921220F0921320FB0104E10693AB
:102D2000E0CF80918E218130D1F0823009F078CED1
:102D3000809118208670863009F072CE10928E2114
:102D400010928F211092902110928021A0927E21CA
:102D5000B0927F21A0927C21B0927D2161CE22E0B1
:102D600020938E21A0917C2110917D2120918F2193
:102D700030919021F0918D218F2F90E0E1E08C1720
:102D80009D0709F4E0E0E0938D218A2F912FFF2326
:102D900009F042C080931C2090931D2020931A209C
:102DA00030931B20FB0102E206933ACE80918021F2
:102DB000232F281B81E012160CF44BCE49CE8091B4
:102DC0008021232F281B81E012160CF4DCCEDACEF2
:102DD00080918021232F281B81E012160CF4AACEAB
:102DE000A8CE80918021232F281B81E012160CF49D
:102DF0006DCE6BCE80918021232F281B81E012168F
:102E00000CF41FCF1DCF80918021232F281B81E040
:102E100012160CF4EDCEEBCE809314209093152077
:102E20002093122030931320FB0104E10693F8CD88
:102E30003FB7F89410928F211092902180918021B9
:102E40008F5F8093802180917E2190917F21805C93
:102E50009F4F80937E2190937F2144E28531940798
:102E600031F485E192E280937E2190937F212FB708
:102E7000F89480911820867019F42FBF3FBF3DCC85
:102E80006091802116160CF03FC080917C219091BA
:102E90007D2140918D2151E0413009F450E0509363
:102EA0008D21442311F580931C2090931D2040E434
:102EB00050E040931A2050931B20E8E1F0E202E238
:102EC0000693615060938021805C9F4F80937C21AA
:102ED00090937D2154E28531950779F685E192E260
:102EE00080937C2190937D21C8CF80931420909370
:102EF000152040E450E04093122050931320E8E165
:102F0000F0E204E10693DDCF80918E21813009F457
:102F1000A9C0823009F0B1CF809118208670863028
:102F200009F0ABCF10928E2110928F211092902138
:102F30001092802185E192E280937E2190937F21FF
:102F400080937C2190937D2198CF3FB7F894109285
:102F50008F2110929021809180218F5F809380211A
:102F600080917E2190917F21805C9F4F80937E2174
:102F700090937F21E4E285319E0731F485E192E26E
:102F800080937E2190937F212FB7F8948091182011
:102F9000867019F42FBF3FBF42CE60918021161674
:102FA0000CF03FC080917C2190917D2140918D213A
:102FB00051E0413009F450E050938D21442311F544
:102FC00080931C2090931D2040E450E040931A20F1
:102FD00050931B20E8E1F0E202E206936150609317
:102FE0008021805C9F4F80937C2190937D21F4E22F
:102FF00085319F0779F685E192E280937C21909359
:103000007D21C8CF809314209093152040E450E098
:103010004093122050931320E8E1F0E204E106937C
:10302000DDCF80918E21813009F441C0823009F0DA
:10303000B1CF809118208670863009F0ABCF109206
:103040008E2110928F21109290211092802185E183
:1030500092E280937E2190937F2180937C219093B4
:103060007D2198CF82E080938E2170917C216091A8
:103070007D2140918F215091902180918D2191E06F
:10308000813009F490E090938D21882309F0FBC2F0
:10309000872F962F80931C2090931D2040931A20F9
:1030A00050931B20E8E1F0E202E20693E6CE82E0D4
:1030B00080938E2170917C2160917D2140918F21A0
:1030C0005091902180918D2191E0813009F490E020
:1030D00090938D21882309F0F4C2872F962F809337
:1030E0001C2090931D2040931A2050931B20E8E150
:1030F000F0E202E206934ECF3FB7F89410928F2190
:1031000010929021809180218F5F80938021809107
:103110007E2190917F21805C9F4F80937E219093B0
:103120007F21A4E285319A0731F485E192E2809310
:103130007E2190937F212FB7F8948091182086707C
:1031400019F42FBF3FBF0DCD6091802116160CF0F2
:103150003FC080917C2190917D2140918D2151E053
:10316000413009F450E050938D21442311F58093B0
:103170001C2090931D2040E450E040931A2050936F
:103180001B20E8E1F0E202E20693615060938021A7
:10319000805C9F4F80937C2190937D21B4E28531A8
:1031A0009B0779F685E192E280937C2190937D21C3
:1031B000C8CF809314209093152040E450E04093B2
:1031C000122050931320E8E1F0E204E10693DDCFF2
:1031D00080918E21813009F4E8C1823009F0B1CFAD
:1031E000809118208670863009F0ABCF10928E2126
:1031F00010928F21109290211092802185E192E20D
:1032000080937E2190937F2180937C2190937D21D8
:1032100098CF3FB7F89410928F211092902180910F
:1032200080218F5F8093802180917E2190917F21EA
:10323000805C9F4F80937E2190937F21E4E28531D3
:103240009E0731F485E192E280937E2190937F2165
:103250002FB7F89480911820867019F42FBF3FBFC4
:1032600008CB6091802116160CF03FC080917C2124
:1032700090917D2140918D2151E0413009F450E041
:1032800050938D21442311F580931C2090931D2091
:1032900040E450E040931A2050931B20E8E1F0E214
:1032A00002E20693615060938021805C9F4F80937F
:1032B0007C2190937D21F4E285319F0779F685E1A9
:1032C00092E280937C2190937D21C8CF809314203B
:1032D0009093152040E450E0409312205093132027
:1032E000E8E1F0E204E10693DDCF80918E218130A8
:1032F00009F436C1823009F0B1CF80911820867070
:10330000863009F0ABCF10928E2110928F2110924F
:1033100090211092802185E192E280937E2190930A
:103320007F2180937C2190937D2198CF3FB7F894A3
:1033300010928F2110929021809180218F5F809335
:10334000802180917E2190917F21805C9F4F80938E
:103350007E2190937F2144E28531940731F485E109
:1033600092E280937E2190937F212FB7F8948091F1
:103370001820867019F42FBF3FBFBFCB609180210A
:1033800016160CF03FC080917C2190917D214091D8
:103390008D2151E0413009F450E050938D214423B8
:1033A00011F580931C2090931D2040E450E0409341
:1033B0001A2050931B20E8E1F0E202E206936150EC
:1033C00060938021805C9F4F80937C2190937D212E
:1033D00054E28531950779F685E192E280937C216C
:1033E00090937D21C8CF809314209093152040E4C2
:1033F00050E04093122050931320E8E1F0E204E102
:103400000693DDCF80918E21813009F418C182307E
:1034100009F0B1CF809118208670863009F0ABCFCB
:1034200010928E2110928F21109290211092802163
:1034300085E192E280937E2190937F2180937C218D
:1034400090937D2198CF3FB7F89410928F211092DE
:103450009021809180218F5F8093802180917E21B7
:1034600090917F21805C9F4F80937E2190937F215C
:10347000A4E285319A0731F485E192E280937E21BE
:1034800090937F212FB7F89480911820867019F4BB
:103490002FBF3FBF90C96091802116160CF03FC02E
:1034A00080917C2190917D2140918D2151E041308E
:1034B00009F450E050938D21442311F580931C2092
:1034C00090931D2040E450E040931A2050931B201D
:1034D000E8E1F0E202E20693615060938021805CB3
:1034E0009F4F80937C2190937D21B4E285319B078F
:1034F00079F685E192E280937C2190937D21C8CF7B
:10350000809314209093152040E450E040931220C3
:1035100050931320E8E1F0E204E10693DDCF8091BF
:103520008E21813009F466C0823009F0B1CF8091DC
:1035300018208670863009F0ABCF10928E21109241
:103540008F21109290211092802185E192E2809348
:103550007E2190937F2180937C2190937D2198CF31
:1035600082E080938E2170917C2160917D21409139
:103570008F215091902180918D2191E0813009F42B
:1035800090E090938D21882309F0B9C0872F962F62
:1035900080931C2090931D2040931A2050931B2051
:1035A000E8E1F0E202E2069359CE82E080938E21B8
:1035B00070917C2160917D2140918F2150919021CB
:1035C00080918D2191E0813009F490E090938D21DC
:1035D000882309F085C0872F962F80931C20909315
:1035E0001D2040931A2050931B20E8E1F0E202E2F4
:1035F0000693A7CD82E080938E2170917C2160910B
:103600007D2140918F215091902180918D2191E0D9
:10361000813009F490E090938D21882309F07EC0D9
:10362000872F962F80931C2090931D2040931A2063
:1036300050931B20E8E1F0E202E2069329CF82E0FA
:1036400080938E2170917C2160917D2140918F210A
:103650005091902180918D2191E0813009F490E08A
:1036600090938D218823F1F4872F962F80931C202F
:1036700090931D2040931A2050931B20E8E1F0E224
:1036800002E2069378CE872F962F80931420909392
:1036900015204093122050931320E8E1F0E204E15A
:1036A0000693EBCB872F962F8093142090931520B1
:1036B0004093122050931320E8E1F0E204E10693D6
:1036C0005ACE872F962F80931420909315204093E5
:1036D000122050931320E8E1F0E204E106935ACC63
:1036E000872F962F809314209093152040931220BB
:1036F00050931320E8E1F0E204E1069322CD872FF6
:10370000962F80931420909315204093122050936D
:103710001320E8E1F0E204E10693A0CD872F962F75
:1037200080931420909315204093122050931320DF
:10373000E8E1F0E204E10693ABCEE0E6F6E0818159
:10374000806281838781806287838FEF97EAA1E619
:1037500081509040A040E1F700C0000008958F9292
:103760009F92AF92BF92CF92DF92EF92FF920F9310
:103770001F93CF93DF93CDB7DEB7A097CDBFDEBF4A
:103780000E9442138BE08093A60980E98093A709E9
:10379000E0EAF9E0138288E1848383E0858391E99C
:1037A000A92E90E2B92E23E546E0A8E1B0E235E18A
:1037B000832E32E2932E51E0E52EF12C60E4C62EEA
:1037C000D12C9FB7F89480918E21882339F180E025
:1037D0009FBF8823B1F380918F2190919021E09138
:1037E0007E21F0917F21E80FF91F208301968093BD
:1037F0008F219093902180349105C1F0F5012191A2
:10380000222309F43EC0A114B10409F43AC05F01B7
:103810009FB7F89480918E218823C9F680918021EA
:10382000342F381B81E013169CF2D1CF1FB7F894C8
:1038300010928F2110929021809180218F5F809330
:10384000802180917E2190917F21805C9F4F809389
:103850007E2190937F2124E28531920721F480928A
:103860007E2190927F215FB7F89480911820867016
:1038700009F0ACC05FBF1FBFF5012191222309F001
:10388000C2CF81E080938E212FB7F89480911820C9
:10389000867009F028C12FBF82E0E0ECF4E0858754
:1038A00036E09FB7F89480918E21882309F412C1E5
:1038B00080E09FBF882309F580918C21882389F3BC
:1038C0002FB7F8941092802185E192E280937E21B7
:1038D00090937F2180937C2190937D21E8E1F0E219
:1038E00006E0059308E0069310928E2110928F2136
:1038F0001092902110928D212FBFDE011196E2EEE1
:10390000F0E280E201900D928150E1F7EE24FF2475
:1039100081E090E08C0F9D1F8E0D9F1D60EA79E085
:103920000E9408110894E11CF11C20E2E216F10447
:1039300079F78CE08093A6091092A709FEEBAF2ED1
:10394000F0E2BF2E27E446E0A8E1B0E215E1812EC7
:1039500012E2912E01E0E02EF12C80E4C82ED12C51
:103960009FB7F89480918E21882341F180E09FBF1A
:103970008823B1F380918F2190919021E0917E2155
:10398000F0917F21E80FF91F2083019680938F210A
:10399000909390218034910509F417C1F50121918C
:1039A000222309F43DC1A114B10409F439C15F0116
:1039B0009FB7F89480918E218823C1F68091802151
:1039C000342F381B81E0131694F2D0CF6091802100
:1039D00016160CF03CC020917C2130917D21709115
:1039E0008D21872F90E0E1E08E159F0509F4E0E03E
:1039F000E0938D217723F9F420931C2030931D2030
:103A0000C0921A20D0921B20FD0102E20693615061
:103A100060938021C901805C9F4F80937C219093AB
:103A20007D21F4E285319F0709F024CF80927C212B
:103A300090927D211FCF2093142030931520C092A7
:103A40001220D0921320FD0104E10693E0CF809173
:103A50008E218130D1F0823009F00CCF8091182076
:103A60008670863009F006CF10928E2110928F2139
:103A7000109290211092802180927E2190927F213D
:103A800080927C2190927D21F5CE22E020938E21A0
:103A9000E0917C21F0917D2120918F213091902126
:103AA00070918D21872F90E061E08E159F0509F4BC
:103AB00060E060938D21772309F04BC0E0931C20D8
:103AC000F0931D2020931A2030931B20FD0102E269
:103AD0000693D0CE80918021232F281B81E01216DF
:103AE0000CF4E7CEE5CE3091802113160CF04CC0DB
:103AF00080917C2190917D2140918D2151E0413038
:103B000009F450E050938D21442379F580931C20D3
:103B100090931D2040E450E040931A2050931B20C6
:103B2000E8E1F0E202E20693315030938021805CBC
:103B30009F4F80937C2190937D21F4E285319F07F4
:103B400009F0A9CE85E192E280937C2190937D21BA
:103B5000A2CEE0931420F0931520209312203093EE
:103B60001320FD0104E1069385CE809314209093E9
:103B7000152040E450E04093122050931320E8E1D8
:103B8000F0E204E10693D0CF80918E21813009F4D8
:103B900092C1823009F07FCE8091182086708630E5
:103BA00009F079CE10928E2110928F2110929021DF
:103BB0001092802185E192E280937E2190937F2173
:103BC00080937C2190937D2166CE1FB7F89410924C
:103BD0008F2110929021809180218F5F809380218E
:103BE00080917E2190917F21805C9F4F80937E21E8
:103BF00090937F2134E28531930721F480927E21D6
:103C000090927F215FB7F89480911820867009F018
:103C100053C05FBF1FBFF5012191222309F0C3CE1E
:103C200081E080938E212FB7F894809118208670C0
:103C300009F0CFC02FBF82E0E0ECF4E0858736E0EA
:103C40009FB7F89480918E21882309F4B9C080E051
:103C50009FBF882309F580918C21882389F32FB792
:103C6000F8941092802185E192E280937E219093D6
:103C70007F2180937C2190937D21E8E1F0E206E0B2
:103C8000059308E0069310928E2110928F211092D6
:103C9000902110928D212FBFA096CDBFDEBFDF9166
:103CA000CF911F910F91FF90EF90DF90CF90BF9039
:103CB000AF909F908F9008956091802116160CF020
:103CC0003CC020917C2130917D2170918D21872FE6
:103CD00090E0E1E08E159F0509F4E0E0E0938D218E
:103CE0007723F9F420931C2030931D20C0921A20D2
:103CF000D0921B20FD0102E2069361506093802167
:103D0000C901805C9F4F80937C2190937D21F4E2D8
:103D100085319F0709F07DCF80927C2190927D2193
:103D200078CF2093142030931520C0921220D09287
:103D30001320FD0104E10693E0CF80918E218130B4
:103D4000D1F0823009F065CF8091182086708630DE
:103D500009F05FCF10928E2110928F211092902146
:103D60001092802180927E2190927F2180927C21EE
:103D700090927D214ECF22E020938E21E0917C21F4
:103D8000F0917D2120918F213091902170918D2192
:103D9000872F90E061E08E159F0509F460E0609345
:103DA0008D21772309F04BC0E0931C20F0931D2058
:103DB00020931A2030931B20FD0102E2069329CFA5
:103DC00080918021232F281B81E012160CF440CF14
:103DD0003ECF3091802113160CF04CC080917C2195
:103DE00090917D2140918D2151E0413009F450E0C6
:103DF00050938D21442379F580931C2090931D20AE
:103E000040E450E040931A2050931B20E8E1F0E298
:103E100002E20693315030938021805C9F4F809363
:103E20007C2190937D21F4E285319F0709F002CF38
:103E300085E192E280937C2190937D21FBCEE093FB
:103E40001420F09315202093122030931320FD01AD
:103E500004E10693DECE809314209093152040E475
:103E600050E04093122050931320E8E1F0E204E187
:103E70000693D0CF80918E21813009F440C08230EA
:103E800009F0D8CE809118208670863009F0D2CE05
:103E900010928E2110928F211092902110928021E9
:103EA00085E192E280937E2190937F2180937C2113
:103EB00090937D21BFCE82E080938E2160917C2102
:103EC00030917D2140918F215091902180918D21C1
:103ED00091E0813009F490E090938D21882399F549
:103EE000862F932F80931C2090931D2040931A209F
:103EF00050931B20E8E1F0E202E20693CCCC82E092
:103F000080938E2160917C2130917D2140918F2181
:103F10005091902180918D2191E0813009F490E0C1
:103F200090938D218823F1F4862F932F80931C206A
:103F300090931D2040931A2050931B20E8E1F0E25B
:103F400002E2069377CE862F932F809314209093CE
:103F500015204093122050931320E8E1F0E204E191
:103F6000069399CC862F932F80931420909315203D
:103F70004093122050931320E8E1F0E204E106930D
:103F800059CE8F929F92AF92BF92CF92DF92EF92D3
:103F9000FF920F931F93CF93DF93CDB7DEB7C45635
:103FA000D040CDBFDEBFFE013196CE018D599F4F6F
:103FB0002091A10927FFFCCF2091A0092193E817A8
:103FC000F907B1F7A5961FAEA5972981222309F419
:103FD00072C072E0A72EB12CAC0EBD1E46E0A8E167
:103FE000B0E2E5E18E2EE2E29E2EF1E0EF2EF12C22
:103FF00010E4C12ED12C9FB7F89480918E21882394
:1040000039F180E09FBF8823B1F380918F21909197
:104010009021E0917E21F0917F21E80FF91F20830C
:10402000019680938F219093902180349105C1F067
:10403000F5012191222309F43EC0A114B10409F431
:104040003AC05F019FB7F89480918E218823C9F60A
:1040500080918021342F381B81E013169CF2D1CF40
:104060001FB7F89410928F21109290218091802197
:104070008F5F8093802180917E2190917F21805C51
:104080009F4F80937E2190937F2124E28531920778
:1040900021F480927E2190927F215FB7F8948091E5
:1040A0001820867009F054C05FBF1FBFF501219131
:1040B000222309F0C2CF81E080938E212FB7F8949C
:1040C00080911820867009F0D0C02FBF82E0E0EC0C
:1040D000F4E0858736E09FB7F89480918E2188239D
:1040E00009F4BAC080E09FBF882309F580918C2134
:1040F000882389F32FB7F8941092802185E192E20A
:1041000080937E2190937F2180937C2190937D21C9
:10411000E8E1F0E206E0059308E0069310928E21B4
:1041200010928F211092902110928D212FBFCC5987
:10413000DF4FCDBFDEBFDF91CF911F910F91FF9079
:10414000EF90DF90CF90BF90AF909F908F900895A9
:104150006091802116160CF03CC020917C2130919A
:104160007D2170918D21872F90E0E1E08E159F05D4
:1041700009F4E0E0E0938D217723F9F420931C20EB
:1041800030931D20C0921A20D0921B20FD0102E224
:104190000693615060938021C901805C9F4F80939A
:1041A0007C2190937D21F4E285319F0709F07CCF3B
:1041B00080927C2190927D2177CF209314203093A0
:1041C0001520C0921220D0921320FD0104E1069325
:1041D000E0CF80918E218130D1F0823009F064CF20
:1041E000809118208670863009F05ECF10928E2163
:1041F00010928F21109290211092802180927E2126
:1042000090927F2180927C2190927D214DCF22E05F
:1042100020938E21E0917C21F0917D2120918F21AE
:104220003091902170918D21872F90E061E08E1563
:104230009F0509F460E060938D21772309F04BC05E
:10424000E0931C20F0931D2020931A2030931B2014
:10425000FD0102E2069328CF80918021232F281BA5
:1042600081E012160CF43FCF3DCF30918021131620
:104270000CF04CC080917C2190917D2140918D214A
:1042800051E0413009F450E050938D21442379F5F9
:1042900080931C2090931D2040E450E040931A200E
:1042A00050931B20E8E1F0E202E206933150309394
:1042B0008021805C9F4F80937C2190937D21F4E24C
:1042C00085319F0709F001CF85E192E280937C213F
:1042D00090937D21FACEE0931420F0931520209343
:1042E000122030931320FD0104E10693DDCE80936C
:1042F00014209093152040E450E0409312205093F6
:104300001320E8E1F0E204E10693D0CF80918E2102
:104310008130E1F0823009F0D8CE8091182086708B
:10432000863009F0D2CE10928E2110928F211092F9
:1043300090211092802185E192E280937E219093DA
:104340007F2180937C2190937D21BFCE82E080935A
:104350008E2160917C2130917D2140918F2150915F
:10436000902180918D2191E0813009F490E090932B
:104370008D21882379F4862F932F80931C2090938E
:104380001D2040931A2050931B20E8E1F0E202E246
:1043900006939BCE862F932F809314209093152005
:1043A0004093122050931320E8E1F0E204E10693D9
:1043B0008CCE0895E0E6F6E088E08183858386E090
:1043C0008093A6091092A709E0EAF9E0138288E138
:1043D000848383E085830895BF92CF92DF92EF922A
:1043E000FF920F931F93CF93DF93D82EC92E7B019B
:1043F000EA01898185FFFDCF8DE088838FEF93EC03
:10440000A9E081509040A040E1F700C0000082E0A8
:1044100091E2BE010E9408118FEF93ECA9E0815058
:104420009040A040E1F700C00000ED2DFC2DDF0121
:104430000D900020E9F7CD018E1B9F0B09960E947D
:10444000CF35182F092FE82FF92FACE0B1E28AE021
:104450000D9001928150E1F7812F902F6D2D7C2DD1
:104460000E94E737E12FF02FDF010D900020E9F7E0
:10447000CD018E1B9F0B01960E94CF35B92EC82E01
:10448000D92EC601612F702F0E94F237AC2DBB2DA3
:10449000FD0101900020E9F73197EA1BFB0BEC0DC1
:1044A000FD1D82E290E080839183C601BE010E94DF
:1044B00008118FEF93ECA9E081509040A040E1F704
:1044C00000C00000C701BE010E9408118FEF93ECED
:1044D000A9E081509040A040E1F700C00000898130
:1044E00085FFFDCF8AE188838FEF93ECA9E08150AF
:1044F0009040A040E1F700C0000081E080938E2151
:104500002FB7F89480911820867009F043C02FBF10
:1045100082E0E0ECF4E0858736E09FB7F894809184
:104520008E21882379F180E09FBF882309F580914F
:104530008C21882391F32FB7F8941092802185E184
:1045400092E280937E2190937F2180937C219093AF
:104550007D21E8E1F0E206E0059308E00693109281
:104560008E2110928F211092902110928D212FBFB9
:10457000DF91CF911F910F91FF90EF90DF90CF903F
:10458000BF90089580918021232F281B81E012166F
:104590005CF2C9CF3091802113160CF040C080919D
:1045A0007C2190917D2140918D2151E0413009F491
:1045B00050E050938D21442319F580931C20909353
:1045C0001D2040E450E040931A2050931B20E8E166
:1045D000F0E202E20693315030938021805C9F4FDD
:1045E00080937C2190937D21A4E285319A0709F084
:1045F0008ECF85E192E280937C2190937D2187CFBD
:10460000809314209093152040E450E040931220B2
:1046100050931320E8E1F0E204E10693DCCF8091AF
:104620008E218130E1F0823009F071CF8091182025
:104630008670863009F06BCF10928E2110928F21F8
:10464000109290211092802185E192E280937E2148
:1046500090937F2180937C2190937D2158CF82E09D
:1046600080938E2160917C2130917D2140918F211A
:104670005091902180918D2191E0813011F19093A2
:104680008D21882379F4862F932F80931C2090937B
:104690001D2040931A2050931B20E8E1F0E202E233
:1046A000069335CF862F932F809314209093152057
:1046B0004093122050931320E8E1F0E204E10693C6
:1046C00026CF90E0DCCFBC0182E091E20C9408118F
:1046D000BC0186E191E20C940811BC0181E291E2F7
:1046E0000C940811BC018BE291E20C9408112F92FA
:1046F0003F924F925F926F927F928F929F92AF9272
:10470000BF92CF92DF92EF92FF920F931F93CF93BE
:10471000DF9300D0CDB7DEB74C018DB79EB789834C
:104720009A8300D02DB63EB60894211C311CD401CA
:1047300011968C91119785FFFACF81E48C9386E3D3
:10474000682E81E2782E43E536E098E1E92E90E28A
:10475000F92E25E1422E22E2522E12E051E0C52E22
:10476000D12C60E4A62EB12C9FB7F89480918E21B5
:10477000882339F180E09FBF8823B1F380918F2196
:1047800090919021E0917E21F0917F21E80FF91F17
:104790004083019680938F219093902180349105DE
:1047A000C1F0F3014191442309F43EC06114710446
:1047B00009F43AC03F019FB7F89480918E21882375
:1047C000C9F680918021232F281B81E012169CF2CC
:1047D000D1CFBFB7F89410928F2110929021809181
:1047E00080218F5F8093802180917E2190917F2115
:1047F000805C9F4F80937E2190937F21E4E28531FE
:104800009E0721F440927E2150927F21AFB7F89409
:1048100080911820867009F098C0AFBFBFBFF30128
:104820004191442309F0C2CF81E080938E210E9400
:10483000380482E0E0ECF4E0858736E09FB7F89436
:1048400080918E21882309F405C180E09FBF8823D1
:1048500009F580918C21882389F32FB7F894109261
:10486000802185E192E280937E2190937F21809345
:104870007C2190937D21E8E1F0E206E0059308E0D9
:10488000069310928E2110928F21109290211092F7
:104890008D212FBF8FEF93E2A4EFB0E081509040C5
:1048A000A040B040D9F700C000008AE391E2B40113
:1048B0000E940811EEE36E2EE1E27E2E40E536E026
:1048C000F8E1EF2EF0E2FF2EA5E14A2EA2E25A2EE9
:1048D00012E0B1E0CB2ED12C00E4A02EB12C9FB77A
:1048E000F89480918E21882341F180E09FBF882336
:1048F000B1F380918F2190919021E0917E21F091F0
:104900007F21E80FF91F4083019680938F219093B8
:1049100090218034910509F4A6C0F301419144230C
:1049200009F4CCC06114710409F4C8C03F019FB7F9
:10493000F89480918E218823C1F680918021232FC5
:10494000281B81E0121694F2D0CF209180211216FC
:104950000CF03CC040917C2150917D2160918D21D3
:10496000862F90E071E08C159D0509F470E070933E
:104970008D216623F9F440931C2050931D20A092B2
:104980001A20B0921B20F70102E2069321502093D7
:104990008021CA01805C9F4F80937C2190937D2170
:1049A000F4E285319F0709F038CF40927C21509284
:1049B0007D2133CF4093142050931520A0921220D4
:1049C000B0921320F70104E10693E0CF80918E218D
:1049D0008130D1F0823009F020CF8091182086708C
:1049E000863009F01ACF10928E2110928F211092EA
:1049F00090211092802140927E2150927F214092FE
:104A00007C2150927D2109CF10938E2170917C21C1
:104A1000E0917D2140918F215091902160918D21D5
:104A2000862F90E021E08C159D0509F420E020936D
:104A30008D21872F9E2F662309F05FC180931C2054
:104A400090931D2040931A2050931B20F70102E2FF
:104A50000693E3CE80918021232F281B81E012163C
:104A60000CF4F4CEF2CEBFB7F89410928F211092CE
:104A70009021809180218F5F8093802180917E2181
:104A800090917F21805C9F4F80937E2190937F2126
:104A9000A4E285319A0721F440927E2150927F2131
:104AA000AFB7F89480911820867009F0A1C0AFBF0D
:104AB000BFBFF3014191442309F034CF81E08093DB
:104AC0008E215FB7F89480911820867009F05CC23F
:104AD0005FBF82E0E0ECF4E0858736E09FB7F894B2
:104AE00080918E21882309F414C180E09FBF882320
:104AF00009F580918C21882389F32FB7F8941092BF
:104B0000802185E192E280937E2190937F218093A2
:104B10007C2190937D21E8E1F0E206E0059308E036
:104B2000069310928E2110928F2110929021109254
:104B30008D212FBF8FEF93ECA9E081509040A040D2
:104B4000E1F700C00000D40111968C91119787FF06
:104B5000FACF4C91F10140831182442309F40DC135
:104B600051010894A11CB11C36E0A8E1B0E255E166
:104B7000452E52E2552E12E061E0E62EF12C70E453
:104B8000C72ED12C9FB7F89480918E21882341F1B4
:104B900080E09FBF8823B1F380918F219091902175
:104BA000E0917E21F0917F21E80FF91F408301966B
:104BB00080938F21909390218034910509F4B2C0A5
:104BC000F5014191442309F4D8C0A114B10409F4BA
:104BD000D4C05F019FB7F89480918E218823C1F6DD
:104BE00080918021232F281B81E0121694F2D0CFD0
:104BF0002091802112160CF03CC040917C215091F4
:104C00007D2160918D21862F90E071E08C159D05AE
:104C100009F470E070938D216623F9F440931C2011
:104C200050931D20A0921A20B0921B20F70102E29F
:104C30000693215020938021CA01805C9F4F80936E
:104C40007C2190937D21F4E285319F0709F02FCFDD
:104C500040927C2150927D212ACF40931420509382
:104C60001520A0921220B0921320F70104E10693C0
:104C7000E0CF80918E218130D1F0823009F017CFC2
:104C8000809118208670863009F011CF10928E2105
:104C900010928F21109290211092802140927E21BB
:104CA00050927F2140927C2150927D2100CF109321
:104CB0008E2170917C21E0917D2140918F21509136
:104CC000902160918D21862F90E021E08C159D052B
:104CD00009F420E020938D21872F9E2F662309F071
:104CE0003BC480931C2090931D2040931A20509326
:104CF0001B20F70102E20693DACE809314209093F2
:104D000015204093122050931320F70104E10693DD
:104D100084CD80918021232F281B81E012160CF472
:104D2000E5CEE3CE6FB6F89410928F2110929021C9
:104D3000809180218F5F8093802180917E2190914E
:104D40007F21805C9F4F80937E2190937F21F4E2AE
:104D500085319F0721F440927E2150927F216FB7C9
:104D6000F89480911820867009F08BC06FBF6FBED9
:104D7000F5014191442309F028CF81E080938E21F1
:104D80000E94380482E0E0ECF4E0858736E09FB7CB
:104D9000F89480918E21882309F42DC180E09FBF73
:104DA000882309F580918C21882389F32FB7F89403
:104DB0001092802185E192E280937E2190937F2161
:104DC00080937C2190937D21E8E1F0E206E0059359
:104DD00008E0069310928E2110928F21109290215C
:104DE00010928D212FBF82E091E2B4010E94081140
:104DF000F3E4AF2EF1E2BF2E44E536E0A8E1B0E2E5
:104E000015E1412E12E2512E12E001E0E02EF12CCC
:104E100020E4C22ED12C9FB7F89480918E21882354
:104E200041F180E09FBF8823B1F380918F21909161
:104E30009021E0917E21F0917F21E80FF91F4083BE
:104E4000019680938F21909390218034910509F4ED
:104E5000DBC0F5014191442309F401C1A114B1045F
:104E600009F4FDC05F019FB7F89480918E218823DB
:104E7000C1F680918021232F281B81E0121694F225
:104E8000D0CF2091802112160CF03CC040917C21A3
:104E900050917D2170918D21872F90E0E1E08E155A
:104EA0009F0509F4E0E0E0938D217723F9F4409326
:104EB0001C2050931D20C0921A20D0921B20FD016F
:104EC00002E20693215020938021CA01805C9F4F0B
:104ED00080937C2190937D21F4E285319F0709F036
:104EE00045CF40927C2150927D2140CF40931420A9
:104EF00050931520C0921220D0921320FD0104E19E
:104F00000693E0CF80918E218130D1F0823009F07C
:104F10002DCF809118208670863009F027CF10920F
:104F20008E2110928F211092902110928021409218
:104F30007E2150927F2140927C2150927D2116CF7C
:104F400010938E21E0917C21F0917D2140918F2161
:104F50005091902170918D21872F90E021E08E1546
:104F60009F0509F420E020938D21772309F000C3E9
:104F7000E0931C20F0931D2040931A2050931B2097
:104F8000FD0102E20693F2CE4091802114160CF04E
:104F900039C380917C2190917D2120918D2131E038
:104FA000213009F430E030938D21222309F0FBC237
:104FB00080931C2090931D2020E430E020931A2041
:104FC00030931B20E8E1F0E202E206934150409367
:104FD0008021805C9F4F80937C2190937D21F4E21F
:104FE00085319F0709F074CD85E192E280937C21A1
:104FF00090937D216DCD80918021232F281B81E00E
:1050000012160CF4CCCECACE6FB6F89410928F2143
:1050100010929021809180218F5F809380218091D8
:105020007E2190917F21805C9F4F80937E21909381
:105030007F21F4E285319F0721F440927E21509236
:105040007F216FB7F89480911820867009F09AC07C
:105050006FBF6FBEF5014191442309F0FFCE81E09F
:1050600080938E215FB7F89480911820867009F0A4
:105070001BC25FBF82E0E0ECF4E0858736E09FB7BB
:10508000F89480918E21882309F4FFC080E09FBFAF
:10509000882309F580918C21882389F32FB7F89410
:1050A0001092802185E192E280937E2190937F216E
:1050B00080937C2190937D21E8E1F0E206E0059366
:1050C00008E0069310928E2110928F211092902169
:1050D00010928D212FBF8FEF9FE1AEE48150904061
:1050E000A040E1F700C000008CE491E2B4010E940E
:1050F000081107E5A02E01E2B02E23E446E0A8E166
:10510000B0E235E1632E32E2732E12E051E0E52E7B
:10511000F12CE0E4CE2ED12C9FB7F89480918E2113
:10512000882341F180E09FBF8823B1F380918F21D4
:1051300090919021E0917E21F0917F21E80FF91F5D
:105140002083019680938F21909390218034910544
:1051500009F4A4C0F5012191222309F4CAC0A114C5
:10516000B10409F4C6C05F019FB7F89480918E2105
:105170008823C1F680918021342F381B81E01316DB
:1051800094F2D0CF2091802112160CF03CC04091B7
:105190007C2150917D2170918D21872F90E0E1E05D
:1051A0008E159F0509F4E0E0E0938D217723F9F453
:1051B00040931C2050931D20C0921A20D0921B2097
:1051C000FD0102E20693215020938021CA01805CF8
:1051D0009F4F80937C2190937D21F4E285319F073E
:1051E00009F036CF40927C2150927D2131CF4093FF
:1051F000142050931520C0921220D0921320FD014C
:1052000004E10693E0CF80918E218130D1F082308D
:1052100009F01ECF809118208670863009F018CFD3
:1052200010928E2110928F21109290211092802145
:1052300040927E2150927F2140927C2150927D218C
:1052400007CF10938E21E0917C21F0917D21409138
:105250008F215091902170918D21872F90E021E036
:105260008E159F0509F420E020938D21772309F006
:105270005BC1E0931C20F0931D2040931A205093B3
:105280001B20FD0102E20693E3CE80918021232FB3
:10529000281B81E012160CF4FACEF8CE8FB6F894E3
:1052A00010928F2110929021809180218F5F8093A6
:1052B000802180917E2190917F21805C9F4F8093FF
:1052C0007E2190937F21E4E285319E0721F4609254
:1052D0007E2170927F216FB7F8948091182086709C
:1052E00009F05FC06FBF8FBEF5012191222309F045
:1052F00036CF81E080938E210E94380482E0E0EC7A
:10530000F4E0858736E09FB7F89480918E2188235A
:1053100009F401C180E09FBF882309F580918C21A9
:10532000882389F32FB7F8941092802185E192E2C7
:1053300080937E2190937F2180937C2190937D2187
:10534000E8E1F0E206E0059308E0069310928E2172
:1053500010928F211092902110928D212FBF8FEFEC
:1053600097EAA1E681509040A040E1F700C000001C
:10537000A981BA81ADBFBEBF0F900F90DF91CF91D1
:105380001F910F91FF90EF90DF90CF90BF90AF9063
:105390009F908F907F906F905F904F903F902F9055
:1053A00008955091802115160CF03CC020917C216D
:1053B00030917D2170918D21872F90E0E1E08E1555
:1053C0009F0509F4E0E0E0938D217723F9F4209321
:1053D0001C2030931D20C0921A20D0921B20FD016A
:1053E00002E20693515050938021C901805C9F4F87
:1053F00080937C2190937D21F4E285319F0709F011
:1054000071CF60927C2170927D216CCF209314200B
:1054100030931520C0921220D0921320FD0104E198
:105420000693E0CF80918E218130D1F0823009F057
:1054300059CF809118208670863009F053CF109292
:105440008E2110928F2110929021109280216092D3
:105450007E2170927F2160927C2170927D2142CFCB
:1054600010938E21E0917C21F0917D2120918F215C
:105470003091902170918D21872F90E051E08E1511
:105480009F0509F450E050938D21772309F058C00F
:10549000E0931C20F0931D2020931A2030931B20B2
:1054A000FD0102E206931ECF4091802114160CF0FC
:1054B00089C080917C2190917D2120918D2131E0C6
:1054C000213009F430E030938D21222309F05CC0B3
:1054D00080931C2090931D2020E430E020931A201C
:1054E00030931B20E8E1F0E202E206934150409342
:1054F0008021805C9F4F80937C2190937D21F4E2FA
:1055000085319F0709F0B5CD85E192E280937C213A
:1055100090937D21AECD80918021232F281B81E0A7
:1055200012160CF4F8CEF6CEE0931420F09315206A
:105530004093122050931320FD0104E1069388CD7F
:10554000E0931420F0931520209312203093132021
:10555000FD0104E10693C6CE80931420909315209C
:105560004093122050931320F70104E106939FCA41
:10557000E0931420F09315204093122050931320B1
:10558000FD0104E10693F2CB809314209093152043
:1055900020E430E02093122030931320E8E1F0E281
:1055A00004E10693A3CF809314209093152020E468
:1055B00030E02093122030931320E8E1F0E204E180
:1055C000069304CD80918E218130E9F1823009F07B
:1055D00050CD809118208670863009F04ACD109207
:1055E0008E2110928F21109290211092802185E1BE
:1055F00092E280937E2190937F2180937C219093EF
:105600007D2137CD80918E21813009F440C08230D8
:1056100009F05ECA809118208670863009F058CA59
:1056200010928E2110928F21109290211092802141
:1056300085E192E280937E2190937F2180937C216B
:1056400090937D2145CA82E080938E2160917C21D8
:1056500040917D2180918F219091902120918D21E9
:1056600031E0213009F430E030938D21222399F587
:10567000262F342F20931C2030931D2080931A2036
:1056800090931B20E8E1F0E202E20693F2CC82E084
:1056900080938E2160917C2140917D2180918F218A
:1056A0009091902120918D2131E0213009F430E05A
:1056B00030938D212223F1F4262F342F20931C20A8
:1056C00030931D2080931A2090931B20E8E1F0E294
:1056D00002E20693FDC9262F342F20931420309325
:1056E00015208093122090931320E8E1F0E204E16A
:1056F0000693BFCC262F342F2093142030931520EF
:105700008093122090931320E8E1F0E204E10693E5
:10571000DFC90F931F93CF93DF939C01A3E9B1E2FD
:105720008D0183ED91E2FD01119241E2E33DF40729
:10573000D9F710928921F901C081D0E0C076D070EC
:10574000C034D10531F080E0DF91CF911F910F91EE
:1057500008954181463109F4E7C0473108F14B3BD8
:1057600009F490C04C3B08F048C0473161F7048011
:10577000F581E02D80818093932181818093942114
:1057800000930C2010930D2082E090E080930A207B
:1057900090930B20E8E0F0E202E2069381E0D4CFA0
:1057A000423009F4A0C0433068F4442361F6848198
:1057B0009581009709F4C9C08130910509F4BDC0F5
:1057C00081E0C2CF4830A9F1493009F0BCCF048054
:1057D000F581E02D80818093932100930C2010931C
:1057E0000D2081E090E080930A2090930B20E8E068
:1057F000F0E202E2069381E0A7CF403E19F1413E7C
:1058000009F0A1CF4093892184818093882100935E
:105810000C2010930D2010920A2010920B20E8E02B
:10582000F0E202E2069381E0DF91CF911F910F91A8
:105830000895D9010480F581E02D12968C9112977C
:105840008083E5CFF90164817581002476956795A1
:105850000794769567950794762F602D83E991E2FA
:1058600040E450E00E94D53800930C2010930D20A6
:10587000C0930A20D0930B20E8E0F0E202E2069306
:1058800081E062CFF89400930C2010930D201092C9
:105890000A2010920B20E8E0F0E202E2069338972B
:1058A00002E706938091002085FFFCCF8FEF99EFF0
:1058B000A0E081509040A040E1F700C0000080913E
:1058C000C1048E7FE0ECF4E081838FEF93ECA9E0DC
:1058D00081509040A040E1F700C00000ECEFF7E4F9
:1058E000099581E031CF3091152420911624C32FE2
:1058F000D22FFE0101900020E9F73197E31B299197
:105900002D938A179B07D9F78E2F90E000930C20D8
:1059100010930D2080930A2090930B20E8E0F0E292
:1059200002E2069381E010CFF90182819381048025
:10593000F581E02D808391836ACF87E492E06BE06C
:1059400070E00E948D0281E0FFCE82E592E06BE084
:1059500070E00E948D0281E0F7CE462F20918921D0
:10596000213E09F008952091882130E000243695E9
:1059700027950794369527950794322F202DB90146
:1059800050E00C94E0389230F9F09330A1F091306F
:1059900049F080E090E0E0E0F0E0DA01ED93FC9384
:1059A0001197089582E190E0E5EBF2E0DA01ED93E2
:1059B000FC9311970895813081F0813098F4E1E9EA
:1059C000F2E0849190E0E9CF80E290E0E5E9F2E056
:1059D000DA01ED93FC9311970895E3E7F2E08491E7
:1059E00090E0DBCF8230A9F6EDE5F2E0849190E023
:1059F000D4CFCF93DF93CDB7DEB7C456D040CDBF61
:105A0000DEBF0E94B2020E94230220ECE22E24E0BC
:105A1000F22E82E4F701808783E08187E0EAF0E0FC
:105A2000828378940E94AF1B81E080938E210E9434
:105A3000380482E0F701858796E02FB7F8948091CB
:105A40008021392F381B81E013160CF080E0309153
:105A50008E21311180E02FBF882329F580918C2180
:105A6000882359F38FB7F8941092802195E1A92EDD
:105A700092E2B92EA0927E21B0927F21A0927C2149
:105A8000B0927D21A8E1B0E2FD0106E0059308E0B7
:105A9000069310928E2110928F21109290211092D5
:105AA0008D218FBF06C0E5E1AE2EE2E2BE2EA8E159
:105AB000B0E280E090E0F2E07F2E46E011E0E12EDF
:105AC000F12C00E4C02ED12C823691058CF420916B
:105AD000A10927FFFCCF2091A009E1E0F0E0EC0F45
