:1000000001C200001CC200001AC2000018C2000099
:1000100016C2000014C2000012C2000010C200008C
:100020000EC200000CC200000AC2000008C200009C
:1000300006C2000004C2000002C2000000C20000AC
:10004000FEC10000FCC10000FAC10000F8C10000C0
:10005000F6C10000F4C10000F2C10000F0C10000D0
:10006000EEC10000ECC10000EAC10000E8C10000E0
:10007000E6C10000E4C10000E2C10000E0C10000F0
:10008000DEC10000DCC10000DAC10000D8C1000000
:10009000D6C10000D4C10000D2C10000D0C1000010
:1000A000CEC10000CCC10000CAC10000C8C1000020
:1000B000C6C10000C4C10000C2C10000C0C1000030
:1000C000BEC10000BCC10000BAC10000B8C1000040
:1000D000B6C10000B4C10000B2C10000B0C1000050
:1000E000AEC10000ACC10000AAC10000A8C1000060
:1000F000A6C10000A4C10000A2C10000A0C1000070
:100100009EC100009CC100009AC1000098C100007F
:1001100096C1000094C1000092C1000090C100008F
:100120008EC100008CC100008AC1000088C100009F
:1001300086C1000084C1000082C1000080C10000AF
:100140007EC100007CC100007AC1000078C10000BF
:1001500076C1000074C1000072C1000070C10000CF
:100160006EC100006CC100006AC1000068C10000DF
:1001700066C1000064C1000062C1000060C10000EF
:100180005EC100005CC100005AC1000058C10000FF
:1001900056C1000054C1000052C1000050C100000F
:1001A0004EC100004CC100004AC1000048C100001F
:1001B00046C1000044C1000042C1000040C100002F
:1001C0003EC100003CC100003AC1000038C100003F
:1001D00036C1000034C1000032C1000030C100004F
:1001E0002EC100002CC100002AC1000028C100005F
:1001F00026C1000064C30000A6C30000084AD73B24
:100200003BCE016E84BCBFFDC12F3D6C74319ABDE5
:1002100056833DDA3D00C77F11BED9E4BB4C3E9109
:100220006BAAAABE000000803F05A84CCDB2D44EF8
:10023000B93836A9020C50B9918688083CA6AAAAFA
:100240002ABE000000803F46575F56455253494F33
:100250004E0048575F56455253494F4E00140346CF
:1002600000720061006D00650077006F0072006B26
:100270000000001C034E006F006E006F006C0069F0
:10028000007400680020004C0061006200730000F0
:1002900000040309040902200001010080FA090496
:1002A000000002FF00000007058102400000070572
:1002B000020220000012011001FF000040E359007B
:1002C000F000020102DC016E616E00696E660000E2
:1002D000407A10F35A00A0724E18090010A5D4E815
:1002E0000000E87648170000E40B54020000CA9AA8
:1002F0003B000000E1F505000080969800000040FA
:10030000420F000000A0860100000010270000003E
:1003100000E803000000006400000000000A000084
:100320000000000100000000002C76D888DC674F38
:100330000823DFC1DFAE59E1B1B796E5E3E453C668
:100340003AE651997696E8E6C28426EB898C9B6260
:10035000ED407C6FFCEFBC9C9F40F2BAA56FA5F40A
:1003600090055A2AF75C936B6CF9676DC11BFCE032
:10037000E40D47FEF520E6B500D0ED902E03009485
:100380003577050080841E080000204E0A0000001A
:10039000C80C333333330F986E12831141EF8D2124
:1003A00014893BE65516CFFEE6DB18D1844B381B8B
:1003B000F77C1D901DA4BBE424203284725E228150
:1003C00000C9F124ECA1E53D27494E46494E495468
:1003D000594E414E000020410000C84200401C46DA
:1003E00020BCBE4CCA1B0E5AAEC59D74CDCCCC3DB4
:1003F0000AD7233C17B7D13877CC2B329595E62412
:100400001FB14F0A11241FBECFEFDFE2DEBFCDBF09
:1004100010E2A0E0B0E2ECEAF1E402C005900D9237
:10042000A43EB107D9F713E2A4EEB0E201C01D92D9
:10043000AB38B107E1F70E940F110C94D420E0CD46
:10044000089580E00895CF93DF93C0ECD1E022E0DF
:100450002A87EAE1F0E0E491A0ECB4E0DA96EC93CC
:10046000DA972A87EBE1F0E0E491DB96EC93DB97F7
:1004700083E0E0E4F0E0848380E090E216968D93E0
:100480009C93179713961C9213971092002033E4B5
:100490003093012082E391E2809304209093052021
:1004A000209308203093092080EF90E280930C2065
:1004B00090930D2082EC8C9311968C911197816012
:1004C00011968C931197DF91CF91089583E0E0E42A
:1004D000F0E08483E0ECF4E080E090E286839783B0
:1004E00013821092002023E42093012082E391E202
:1004F000809304209093052082E08093082020932D
:10050000092080EF90E280930C2090930D2082ECE4
:10051000808381818160818308950F939C01E0EC49
:10052000F1E0128661157105D1F0CB0140EF50E288
:10053000DA01F9012F5F3F4FE491ED930197C9F77D
:1005400070E040930C2050930D2060930A2070932C
:100550000B20E8E0F0E202E206930F91089540EFED
:1005600050E2EECF84E0E0E5F0E0868382E0E0EC6C
:10057000F1E08287ECE1F0E0E491A0E6B0E01396D0
:10058000EC9313978BE115968C93159787EB169642
:100590008C93169781E08093600088ED84BF83E0A0
:1005A000809350008091510081FFFCCF80E1E0E515
:1005B000F0E0858388ED84BF83E1809350008091D3
:1005C000510084FFFCCF81E08093680088ED84BFF8
:1005D00084E080934000E0E4F0E0118208950F93FE
:1005E000CF93DF9300D0CDB7DEB7809132218076F4
:1005F00079F480913321863009F4C9C0873090F0B6
:10060000893009F44CC08A3040F5883009F480C044
:1006100082E391E20E949F0F0F900F90DF91CF91A4
:100620000F910895813031F1813008F087C0109228
:10063000F0201092F12080EF90E280930C209093B4
:100640000D2082E090E080930A2090930B20E8E058
:10065000F0E202E2069381E0DFCF8A3009F451C074
:100660008B30B1F68091362160913421EADE882307
:1006700009F447C080EF90E280930C2090930D2006
:1006800010920A2010920B20E8E0F0E202E20693BA
:1006900081E00F900F90DF91CF910F91089580E04E
:1006A00091E060E0AE014F5F5F4F0E94D910882358
:1006B00041F1E0ECF1E01286E981FA817196E49172
:1006C00020913421E217E8F080EF90E280930C2033
:1006D00090930D2010920A2010920B20E8E0F0E297
:1006E00002E206932093312180913121882309F47D
:1006F000B5C084E08093302180913121B9D081E070
:100700008BCF80E00F900F90DF91CF910F910895E4
:10071000809131218093F02080EF90E280930C2033
:1007200090930D2081E090E080930A2090930B201D
:10073000E8E0F0E202E2069381E06ECF833009F454
:1007400099CF853009F064CF209134212F77E0E0F4
:10075000F0E202E7069380EF90E280930C20909302
:100760000D2010920A2010920B20389602E2069378
:100770008091082085FFFCCFE0ECF4E02383222366
:1007800009F05AC082E08093302181E045CFE0EC4F
:10079000F1E01286809134219091352123E08C3D47
:1007A0009207C9F060913621AE014F5F5F4F0E9402
:1007B000D910009709F4A5CF29813A8140913821B9
:1007C00050913921BC014817590708F4BA01C901F1
:1007D000A4DE81E021CF83E08093F12060EF70E21E
:1007E0008AE38093F02082E08287E8E0F0E0E49101
:1007F000DB01129681E090E048E020EC31E052E02D
:10080000EF70EA30B0F0F0E0F796ED93FD93F1E28F
:10081000AA32BF0799F0F9015287E42FF0E0E49182
:1008200080FF03C0E295EF704F5F0196EF70EA30F2
:1008300050F7F0E0F096E9CF83E0A5CF60930C206D
:1008400070930D208AE390E080930A2090930B2010
:10085000E8E0F0E202E2069381E0DECE8091C3049C
:10086000882321F084E08093302146CF81E0FBCFC4
:100870002FB7F8941092DC2082E891E28093DA207E
:100880009093DB208093D8209093D92088E190E248
:1008900036E03093182033E930931920FC01379764
:1008A0001082089732E0FC0130831092EA20109207
:1008B000EB201092EC201092ED202FBF08951F9294
:1008C0000F920FB60F9211242F933F934F935F9384
:1008D0006F937F938F939F93AF93BF93EF93FF9308
:1008E000E0ECF4E08091CA0487FD2AC08091CA043C
:1008F0008E7081F48091CA0480FD1FC080E78287DA
:100900008091C20480FF08C08091C2048E7F8283E0
:100910009ADD02C08EE08287FF91EF91BF91AF9187
:100920009F918F917F916F915F914F913F912F9107
:100930000F900FBE0F901F90189581E08287ECCF2B
:1009400080E88287E9CF1F920F920FB60F92112491
:100950000F932F933F934F935F936F937F938F9357
:100960009F93AF93BF93EF93FF93E0ECF4E0148277
:1009700083E084872FB7F894809118208670C9F49B
:100980002FBF8091002084FD4FC085FD74C0FF9172
:10099000EF91BF91AF919F918F917F916F915F91F7
:1009A0004F913F912F910F910F900FBE0F901F907D
:1009B00018953091DC2013160CF07BC08091D82064
:1009C0009091D9204091EA2051E0413009F43EC095
:1009D0005093EA20442309F43FC08093142090935D
:1009E000152040E450E04093122050931320E8E19A
:1009F000F0E204E1069331503093DC20805C9F4F9D
:100A00008093D8209093D92033E28238930709F05D
:100A1000B7CF82E891E28093D8209093D9202FBF5E
:100A20008091002084FFB1CFDADD882351F48091DA
:100A3000012084608093012080910920846080934C
:100A40000920E0E0F0E202E70693A1CF50E05093E6
:100A5000EA20442309F0C1CF80931C2090931D20ED
:100A600040E450E040931A2050931B20E8E1F0E26C
:100A700002E20693C0CF4091022050910320809162
:100A8000E520813EF1F66091E42070E00024769547
:100A900067950794769567950794762F602D82E386
:100AA00091E250E00E94C01EE0E0F0E202E706930F
:100AB0006ECF8091EB208130E1F0823009F060CF81
:100AC000809118208670863009F05ACF1092EB2062
:100AD0001092EC201092ED201092DC2082E891E23E
:100AE0008093DA209093DB208093D8209093D920B4
:100AF00047CF82E08093EB207091D8206091D9207D
:100B00008091EC209091ED203091EA2041E031304D
:100B100001F14093EA20472F562F332369F4409385
:100B20001C2050931D2080931A2090931B20E8E1F5
:100B3000F0E202E2069324CF409314205093152054
:100B40008093122090931320E8E1F0E204E10693F1
:100B500017CF40E0DECFAF92BF92CF92DF92EF92FD
:100B6000FF920F931F93CF93DF93FC0120812223E9
:100B700009F473C0009709F470C06C010894C11C9B
:100B8000D11C46E068E170E232E8A32E31E2B32ED8
:100B9000C1E0D0E050E4E52EF12C9FB7F8948091AD
:100BA000EB20882339F180E09FBF8823B1F3809147
:100BB000EC209091ED20E091DA20F091DB20E80F1D
:100BC000F91F208301968093EC209093ED208034D0
:100BD0009105C1F0F6012191222309F43EC0C11410
:100BE000D10409F43AC06F019FB7F8948091EB20CB
:100BF0008823C9F68091DC20342F381B81E013163E
:100C00009CF2D1CFBFB7F8941092EC201092ED2057
:100C10008091DC208F5F8093DC208091DA2090919E
:100C2000DB20805C9F4F8093DA209093DB20F3E2FF
:100C300082389F0721F4A092DA20B092DB205FB7C0
:100C4000F89480911820867009F04EC05FBFBFBF36
:100C5000F6012191222309F0C2CF81E08093EB209D
:100C60002FB7F89480911820867009F0CCC02FBF60
:100C700082E0E0ECF4E0858736E09FB7F89480915D
:100C8000EB20882309F4B6C080E09FBF882309F5D4
:100C90008091E920882389F32FB7F8941092DC2003
:100CA00082E891E28093DA209093DB208093D82031
:100CB0009093D920E8E1F0E206E0059308E006937E
:100CC0001092EB201092EC201092ED201092EA206E
:100CD0002FBFDF91CF911F910F91FF90EF90DF9089
:100CE000CF90BF90AF900895A091DC201A160CF021
:100CF0003CC02091D8203091D920E091EA208E2F5D
:100D000090E0F1E08C179D0709F4F0E0F093EA2001
:100D1000EE23F9F420931C2030931D20E0921A203A
:100D2000F0921B20FB0102E20693A150A093DC206D
:100D3000C901805C9F4F8093D8209093D920F3E223
:100D400082389F0709F082CFA092D820B092D92094
:100D50007DCF2093142030931520E0921220F09242
:100D60001320FB0104E10693E0CF8091EB2081305A
:100D7000D1F0823009F06ACF8091182086708630D9
:100D800009F064CF1092EB201092EC201092ED202D
:100D90001092DC20A092DA20B092DB20A092D82022
:100DA000B092D92053CF22E02093EB20A091D820FD
:100DB0001091D9202091EC203091ED20F091EA2083
:100DC0008F2F90E0E1E08C179D0709F4E0E0E093BD
:100DD000EA208A2F912FFF2309F04BC080931C201B
:100DE00090931D2020931A2030931B20FB0102E2D8
:100DF00006932CCF8091DC20232F281B81E0121634
:100E00000CF443CF41CF3091DC2013160CF04CC0D2
:100E10008091D8209091D9204091EA2051E0413032
:100E200009F450E05093EA20442379F580931C2084
:100E300090931D2040E450E040931A2050931B20D3
:100E4000E8E1F0E202E2069331503093DC20805C6E
:100E50009F4F8093D8209093D920F3E282389F0748
:100E600009F005CF82E891E28093D8209093D920B1
:100E7000FECE80931420909315202093122030935F
:100E80001320FB0104E10693E1CE8093142090939C
:100E9000152040E450E04093122050931320E8E1E5
:100EA000F0E204E10693D0CF8091EB208130E1F0B5
:100EB000823009F0DCCE809118208670863009F0EF
:100EC000D6CE1092EB201092EC201092ED201092D2
:100ED000DC2082E891E28093DA209093DB208093FB
:100EE000D8209093D920C3CE82E08093EB206091EC
:100EF000D8203091D9204091EC205091ED20809164
:100F0000EA2091E0813009F490E09093EA20882370
:100F100079F4862F932F80931C2090931D2040936B
:100F20001A2050931B20E8E1F0E202E206939FCEE4
:100F3000862F932F80931420909315204093122096
:100F400050931320E8E1F0E204E1069390CEEF9293
:100F5000FF920F931F93CF93DF93F82EE92E162F56
:100F6000072FA82FB92FED0109900020E9F79E0166
:100F7000E62FF72FEF0109900020E9F7CE01019746
:100F80008E1B9F0B8A1B9B0B820F931F0E94AF1B14
:100F9000D82FC92F6F2D7E2D0E94D21D8D2F9C2FF3
:100FA000612F702F0E94C71D8D2F9C2FDF91CF9135
:100FB0001F910F91FF90EF9008952F923F924F92C3
:100FC0005F926F927F928F929F92AF92BF92CF92D9
:100FD000DF92EF92FF920F931F93CF93DF93CDB7E2
:100FE000DEB72697CDBFDEBF4B015C0129833A8374
:100FF0004B835C83C090D420D090D520E090D62045
:10100000F090D720A70196010E94961825E33AEFA9
:101010004EE85CE30E94AA1A20E030E040E05FE383
:101020000E94AA1A0E940D1B9B01AC010E94AA1AE1
:10103000362E272E8D839E83C701B60125E33AEF16
:101040004EE85CE30E94AA1A0E9461197B018C01A0
:10105000C501B40125E33AEF4EE85CE30E94AA1A09
:101060000E9461192B013C0169817A818B819C81ED
:101070002091D0203091D1204091D2205091D32086
:101080000E94961825E33AEF4EE85CE30E94AA1A04
:1010900020E030E040E05FE30E94AA1A0E940D1BAE
:1010A0009B01AC010E94AA1AB62ED72E882EC92EFB
:1010B000C801B701A30192010E94AA1A0B2D1D2D90
:1010C000282D3C2DA90198010E94AA1A9B01AC0170
:1010D000F1017D816E818F2F9E2FA72FB62FBC012E
:1010E000CD010E949718862E072F382E492E982F53
:1010F000482D502F692F742DCB01BA010E94171B68
:101100006B017C0160E070E080E89FE3E02F082D38
:101110001E2F232D342DA90198010E9496180E949C
:10112000171B9B01AC01C701B6010E940A199B0164
:10113000AC010E94971820E038EF46EC55E40E947D
:10114000AA1A462F572F682F792FCB01BA0126965E
:10115000CDBFDEBFDF91CF911F910F91FF90EF9038
:10116000DF90CF90BF90AF909F908F907F906F90C7
:101170005F904F903F902F9008957F928F929F9213
:10118000AF92BF92CF92DF92EF92FF920F931F9395
:10119000CF93DF93CDB7DEB7A897CDBFDEBF7B017E
:1011A00060E370E20E94C41D0097B1F010E01F5F81
:1011B00080E090E060E370E20E94C41DE12FF0E067
:1011C000EE0FFF1F21E030E02C0F3D1FE20FF31F59
:1011D00080839183009759F7EB81FC811D810E81FB
:1011E000D984CA848081D7011C968C931C978081F6
:1011F0008134B1F0F701148682E390E2ACDCA8966A
:10120000CDBFDEBFDF91CF911F910F91FF90EF9087
:10121000DF90CF90BF90AF909F908F907F90089578
:10122000772473941C967C92ED2DFC2DDF010D909C
:101230000020E9F7CD018E1B9F0B01960E94AF1B8A
:10124000B92E882E992E80E290E0F401808391835C
:10125000C4016D2D7C2D0E94C71DA12FB02FFD0153
:1012600001900020E9F79F01482D5B2DFA010190C4
:101270000020E9F7CF010197841B950B8A1B9B0B7C
:10128000820F931F0E94AF1B5C01612F702F0E9481
:10129000D21DC501B4010E94C71DC5015CDC812FB0
:1012A000902F0E94DE1C20E030E048EC52E40E94C7
:1012B0006419DC01CB01F70180839183A283B3839E
:1012C0008D2D9C2D0E94DE1C20E030E048EC52E485
:1012D0000E946419A62F172F382F292FC9014A2FD2
:1012E000512F692F782FF7014483558366837783C5
:1012F0004081518162817381CB01BA01A9010A2F1A
:10130000252F342FA901980158DED70118966D9327
:101310007D938D939C931B972091CC203091CD2071
:101320004091CE205091CF200E949F1A18161CF495
:10133000F701758664CFD7011D961C921D975FCF6C
:101340008F929F92AF92BF92CF92DF92EF92FF92D5
:101350000F931F93CF93DF93CDB7DEB7C659D0401D
:10136000CDBFDEBF7B0109DFD70118966D917D915E
:101370008D919C911B972091CC203091CD20409154
:10138000CE205091CF200E949F1A18160CF0A5C0B5
:10139000EDB7FEB73897EDBFFEBF2DB73EB72F5F55
:1013A0003F4FB5E6AB2EB12CAC0EBD1EA182B28272
:1013B00000E410E2D90112960D931C931397F701E4
:1013C00080819181A281B381F90184839583A68371
:1013D000B7830E94371E2DB73EB72F5F3F4F83E381
:1013E000882E912C8C0E9D1EADB7BEB711968D9296
:1013F0009C921297F90102831383F70184819581EE
:10140000A681B781F90184839583A683B7830E945F
:10141000371E2DB73EB72F5F3F4FCE010196ADB7B8
:10142000BEB711968D939C931297F9010283138393
:10143000F70180859185A285B385F9018483958321
:10144000A683B7830E94371ED5010D900020E9F7CF
:10145000CD018A199B09EDB7FEB73896EDBFFEBFE7
:1014600001960E94AF1B192FC82ED92EC601B501B7
:101470000E94D21DEC2DF12FDF010D900020E9F725
:101480001197AE1BBF0BAC0DBD1D8CE290E08D9390
:101490009C93AC2DB12FFD0101900020E9F79F0135
:1014A000F40101900020E9F7CF010197881999090B
:1014B0008A1B9B0B820F931F0E94AF1B8C01B601EE
:1014C0000E94D21DC801B4010E94C71DD7011E96FB
:1014D0000C931E971F961C931F97CA56DF4FCDBFC4
:1014E000DEBFDF91CF911F910F91FF90EF90DF90C2
:1014F000CF90BF90AF909F908F900895FB018A305E
:1015000039F0918195FFFDCF808380E090E00895D0
:10151000918195FFFDCF9DE09083F3CFFC01818108
:1015200087FFFDCF808108954F925F926F927F92E7
:101530008F929F92AF92BF92CF92DF92EF92FF92E3
:101540000F931F93CF93DF93EC017B01DC010D9090
:101550000020E9F7CD018C1B9D0B01960E94AF1B6B
:10156000A92EC82ED92EC601BE010E94D21DAC2DB7
:10157000BA2DFD0101900020E9F73197EA1BFB0B22
:10158000EC0DFD1D8DE090E080839183D6E028E195
:10159000622E20E2722E32E8432E31E2532E12E008
:1015A00041E0A42EB12C50E4852E912CD601CD9192
:1015B0006D01CC2309F45CC0CA3009F4D7C0F7012F
:1015C000818185FFFCCFC0838091E820813071F755
:1015D000D70111968C91119787FFFACF2C919FB765
:1015E000F8948091EB20882309F458C080E09FBFD5
:1015F0008823A9F38091EC209091ED20E091DA20EE
:10160000F091DB20E80FF91F208301968093EC20F6
:101610009093ED208034910549F6AFB7F89410927D
:10162000EC201092ED208091DC208F5F8093DC20F5
:101630008091DA209091DB20805C9F4F8093DA20AC
:101640009093DB20B3E282389B0721F44092DA20AA
:101650005092DB205FB7F89480911820867039F59E
:101660005FBFAFBFD601CD916D01CC2309F0A4CFF0
:101670008091E820813009F4B5C0DF91CF911F91AE
:101680000F91FF90EF90DF90CF90BF90AF909F9021
:101690008F907F906F905F904F9008958091DC20A5
:1016A0003D2F381B81E013160CF4A1CF9FCF409142
:1016B000DC2014160CF03CC02091D8203091D920A9
:1016C0006091EA20862F90E071E08A159B0509F46D
:1016D00070E07093EA206623F9F420931C20309385
:1016E0001D2080921A2090921B20F30102E20693A3
:1016F00041504093DC20C901805C9F4F8093D820EB
:101700009093D920F3E282389F0709F0A9CF409245
:10171000D8205092D920A4CF2093142030931520A4
:101720008092122090921320F30104E10693E0CFFF
:101730008091EB208130F1F0823009F091CF8091DF
:1017400018208670863009F08BCF1092EB20109213
:10175000EC201092ED201092DC204092DA20509282
:10176000DB204092D8205092D9207ACF8DE0B7016B
:10177000C5DE25CF1093EB207091D820E091D920C1
:101780002091EC203091ED206091EA20862F90E0AE
:1017900041E08A159B05F1F04093EA20872F9E2FA8
:1017A000662361F480931C2090931D2020931A20BF
:1017B00030931B20F30102E2069352CF8093142052
:1017C000909315202093122030931320F30104E10D
:1017D000069346CF40E04093EA20872F9E2F662352
:1017E00069F7E0CF8093EB202FB7F8948091182011
:1017F000867009F03BC02FBF82E0E0ECF4E0858703
:1018000036E09FB7F8948091EB20882339F180E08F
:101810009FBF882309F031CF8091E920882389F385
:101820002FB7F8941092DC2082E891E28093DA20BE
:101830009093DB208093D8209093D920E8E1F0E2C8
:1018400006E0059308E006931092EB201092EC203E
:101850001092ED201092EA202FBF0FCF8091DC2054
:10186000232F281B81E012169CF2D1CF3091DC206F
:1018700013160CF040C08091D8209091D92040914F
:10188000EA2051E0413009F450E05093EA2044232B
:1018900019F580931C2090931D2040E450E0409364
:1018A0001A2050931B20E8E1F0E202E20693315047
:1018B0003093DC20805C9F4F8093D8209093D92078
:1018C000B3E282389B0709F096CF82E891E28093D9
:1018D000D8209093D9208FCF8093142090931520F7
:1018E00040E450E04093122050931320E8E1F0E2EE
:1018F00004E10693DCCF8091EB208130E1F082306F
:1019000009F079CF809118208670863009F073CF66
:101910001092EB201092EC201092ED201092DC201F
:1019200082E891E28093DA209093DB208093D820A4
:101930009093D92060CF82E08093EB206091D820F3
:101940003091D9204091EC205091ED208091EA20F7
:1019500091E0813009F490E09093EA20882379F4B3
:10196000862F932F80931C2090931D2040931A2044
:1019700050931B20E8E1F0E202E206933CCF862F71
:10198000932F80931420909315204093122050930E
:101990001320E8E1F0E204E106932DCFFC018FEF84
:1019A0009FE4A3EC81509040A040E1F700C000000C
:1019B0008581862B85838FEF97E8A3E18150904046
:1019C000A040E1F700C0000067838AEA96EEA6E92E
:1019D000B1E081509040A040B040D9F70000089598
:1019E0000F93FC01DB016FEF7BE782E961507040F0
:1019F0008040E1F700C0000011968C911197842B74
:101A000011968C93119715969C911597842F80951C
:101A1000892315968C93159711968C911197802B8D
:101A200011968C93119715968C911597802B15967E
:101A30008C93159711968C911197282B11962C93B6
:101A400011978CE0868380E58783138288E1848305
:101A500083E085836FEF7FE483EC615070408040CA
:101A6000E1F700C0000015968C911597842B159610
:101A70008C9315976FEF77E883E161507040804059
:101A8000E1F700C0000017964C9317978AEA96EE8C
:101A9000A6E9B1E081509040A040B040D9F70000E5
:101AA0000F9108959F92AF92BF92CF92DF92EF92E3
:101AB000FF920F931F93CF93DF93CDB7DEB7CA5F2B
:101AC000D040CDBFDEBFDC018B0140E050E020E024
:101AD00030E080E090E011966C91119767FFFBCFAA
:101AE0006C918730910561F02130310549F0FC019E
:101AF000ED5BFF4D70817617B9F080E090E0EBCFA1
:101B0000E7E9F0E0EC0FFD1FE40FF51F60834F5F86
:101B10005F4F6D3059F06A3049F0673539F0653400
:101B200029F021E030E0D7CF0196D5CF27E930E08A
:101B30002C0F3D1F420F531FDA011C92C901B8013F
:101B40001CDBF80160857185828593852091CC200E
:101B50003091CD204091CE205091CF200E949F1AED
:101B600018160CF0AAC02DB73EB7285030402DBF34
:101B70003EBF2F5F3F4F65E6E62EF12CEC0EFD1EBB
:101B8000ADB7BEB71196ED92FC92129770E4C72ED6
:101B900070E2D72EF901C282D382F801808191814F
:101BA000A281B381F90184839583A683B7830E94C0
:101BB000371E2DB73EB72F5F3F4F83E3A82EB12CC2
:101BC000AC0EBD1EADB7BEB71196AD92BC921297CA
:101BD000F901C282D382F80184819581A681B781FF
:101BE000F90184839583A683B7830E94371E2DB79E
:101BF0003EB72F5F3F4FCE010196ADB7BEB71196EE
:101C00008D939C931297F901C282D382F80180854B
:101C10009185A285B385F90184839583A683B783D3
:101C20000E94371ED7010D900020E9F7CD018E19D3
:101C30009F09EDB7FEB73896EDBFFEBF01960E9433
:101C4000AF1B992EC82ED92EC601B7010E94D21DF6
:101C5000EC2DF92DDF010D900020E9F71197AE1B57
:101C6000BF0BAC0DBD1D8CE290E08D939C93AC2D11
:101C7000B92DFD0101900020E9F79F01F5010190C8
:101C80000020E9F7CF0101978A199B098A1B9B0B5A
:101C9000820F931F0E94AF1BE82E992EB6010E945F
:101CA000D21D8E2D992DB5010E94C71DD8011E96FB
:101CB000EC921E971F969C921F97C650DF4FCDBF88
:101CC000DEBFDF91CF911F910F91FF90EF90DF90DA
:101CD000CF90BF90AF909F9008950895FC01DB01D5
:101CE00011964C93119715964C9315978CE086831B
:101CF00080E38783138288E1848383E0858308956A
:101D0000AF92BF92CF92DF92EF92FF920F931F9309
:101D1000CF93DF93F82EE92E6B01EA01898185FFCD
:101D2000FDCF8DE088838FEF93ECA9E08150904048
:101D3000A040E1F700C000008BE490E2BE01F4DBBC
:101D40008FEF93ECA9E081509040A040E1F700C0F4
:101D50000000EF2DFE2DDF010D900020E9F7CD01F1
:101D60008E1B9F0B09960E94AF1B182F092FE82F7F
:101D7000F92FA5E5B0E28AE00D9001928150E1F7DC
:101D8000812F902F6F2D7E2D0E94C71DE12FF02FE8
:101D9000DF010D900020E9F7CD018E1B9F0B01960E
:101DA0000E94AF1BF92EA82EB92EC501612F702FEE
:101DB0000E94D21DAA2DBF2DFD0101900020E9F740
:101DC0003197EA1BFB0BEA0DFB1D82E290E080835A
:101DD0009183C501BE01A8DB8FEF93ECA9E0815090
:101DE0009040A040E1F700C00000C601BE019CDBAE
:101DF0008FEF93ECA9E081509040A040E1F700C044
:101E00000000898185FFFDCF8AE188838FEF93EC05
:101E1000A9E081509040A040E1F700C00000DF91B0
:101E2000CF911F910F91FF90EF90DF90CF90BF90D7
:101E3000AF900895BC018BE490E276CBBC018FE5B6
:101E400090E272CBBC018AE690E26ECBBC0184E7E3
:101E500090E26ACBCF92DF92EF92FF920F931F93A3
:101E6000CF93DF93CDB7DEB78C01CDB6DEB600D011
:101E7000EDB6FEB60894E11CF11CD80111968C91C8
:101E8000119785FFFACF81E48C938EE790E20E9450
:101E9000AB058FEF93E2A4EFB0E081509040A040FB
:101EA000B040D9F700C0000083E890E2B8013CDB05
:101EB00086E890E20E94AB058FEF93ECA9E0815099
:101EC0009040A040E1F700C00000D80111968C912D
:101ED000119787FFFACF8C91F70180831182C70198
:101EE0000E94AB058BE490E2B8011EDB8BE890E228
:101EF0000E94AB058FEF9FE1AEE481509040A0407F
:101F0000E1F700C0000085E990E2B8010DDB8FE940
:101F100090E20E94AB058FEF97EAA1E681509040D6
:101F2000A040E1F700C00000CDBEDEBEDF91CF9142
:101F30001F910F91FF90EF90DF90CF9008950F9336
:101F40001F93CF93DF939C01A0EFB0E28D0180E35C
:101F500091E2FD01119241E2E033F407D9F71092CA
:101F6000E520F901C081D0E0C076D070C034D10541
:101F700031F080E0DF91CF911F910F910895418161
:101F8000463109F4E7C0473108F14B3B09F490C0F2
:101F90004C3B08F048C0473161F70480F581E02DE3
:101FA00080818093F02081818093F12000930C2028
:101FB00010930D2082E090E080930A2090930B20F4
:101FC000E8E0F0E202E2069381E0D4CF423009F487
:101FD000A0C0433068F4442361F684819581009762
:101FE00009F4C9C08130910509F4BDC081E0C2CFB8
:101FF0004830A9F1493009F0BCCF0480F581E02DCB
:1020000080818093F02000930C2010930D2081E0BC
:1020100090E080930A2090930B20E8E0F0E202E247
:10202000069381E0A7CF403E19F1413E09F0A1CFD0
:102030004093E52084818093E42000930C2010934A
:102040000D2010920A2010920B20E8E0F0E202E24C
:10205000069381E0DF91CF911F910F910895D901EF
:102060000480F581E02D12968C9112978083E5CF44
:10207000F9016481758100247695679507947695BA
:1020800067950794762F602D80EF90E240E450E052
:102090000E94B51E00930C2010930D20C0930A20BF
:1020A000D0930B20E8E0F0E202E2069381E062CFF9
:1020B000F89400930C2010930D2010920A20109297
:1020C0000B20E8E0F0E202E20693389702E706937D
:1020D0008091002085FFFCCF8FEF99EFA0E0815029
:1020E0009040A040E1F700C000008091C1048E7FC5
:1020F000E0ECF4E081838FEF93ECA9E08150904015
:10210000A040E1F700C00000ECEFF7E4099581E0A2
:1021100031CF3091822320918323C32FD22FFE0110
:1021200001900020E9F73197E31B29912D938A173D
:102130009B07D9F78E2F90E000930C2010930D2071
:1021400080930A2090930B20E8E0F0E202E20693ED
:1021500081E010CFF901828193810480F581E02D27
:10216000808391836ACF87E492E06BE070E00E9405
:102170008D0281E0FFCE82E592E06BE070E00E948C
:102180008D0281E0F7CE462F2091E520213E09F017
:1021900008952091E42030E0002436952795079497
:1021A000369527950794322F202DB90150E00C94D5
:1021B000C01E9230F9F09330A1F0913049F080E0E8
:1021C00090E0E0E0F0E0DA01ED93FC9311970895E0
:1021D00082E190E0E5EBF2E0DA01ED93FC931197F8
:1021E0000895813081F0813098F4E1E9F2E0849142
:1021F00090E0E9CF80E290E0E5E9F2E0DA01ED93EA
:10220000FC9311970895E3E7F2E0849190E0DBCF2F
:102210008230A9F6EDE5F2E0849190E0D4CFCF933F
:10222000DF93CDB7DEB7CA5FD040CDBFDEBF0E941F
:10223000B2020E942302E0ECF4E082E4808783E0B3
:102240008187E0EAF0E082837894E0E4F6E098E0C9
:1022500091839583E0EAF8E09CE0968390E397838E
:10226000138298E19483858380EA99E060E676E0C2
:1022700041E028E000E1B4DB81E08093EB20EFB6A1
:10228000F894B091DC208091D8209091D9200091D1
:10229000EA20A091EB204091EC205091ED2060913C
:1022A000DA207091DB2020911820267009F064C09C
:1022B000E8E1F0E222E831E2EFBE82E0A0ECB4E037
:1022C0001D968C931D9796E04FB7F8948091EB2064
:1022D000882309F468C380E04FBF8823E9F4809124
:1022E000E920882389F38FB7F8941092DC2020939B
:1022F000DA203093DB202093D8203093D92006E0D9
:10230000059308E006931092EB201092EC201092B7
:10231000ED201092EA208FBF60E070E040E050E0D6
:1023200020E030E07E010894E11CF11CE5E6CE2EB1
:10233000D12CCC0EDD1EF0E48F2EF0E29F2EA3E315
:10234000AA2EB12CAC0EBD1E8091A10987FFFCCF37
:102350008091A0092730310509F450C04130510562
:1023600009F44CC0F901ED5BFF4D9081891709F428
:1023700059C020E030E0E8CF1B16ACF511E0013089
:1023800009F410E0002309F043C380931C209093CC
:102390001D2020E430E020931A2030931B20E8E138
:1023A000F0E202E20693B150805C9F4F012F23E2DE
:1023B0008238920709F428C322E831E2B093DC2086
:1023C0008093D8209093D9200093EA20A093EB200B
:1023D0004093EC205093ED20A8EDB0E212966D935F
:1023E0007C93139769CFA13009F4F7C2A23009F4A6
:1023F000E3C2E8E1F0E222E831E2E0CFE7E9F0E031
:10240000EC0FFD1FE60FF71F80836F5F7F4F8D304E
:1024100061F08A3051F0873541F0853431F041E088
:1024200050E092CF2F5F3F4F8FCF87E990E08C0F26
:102430009D1F680F791FDB011C92CE0189569F4FAB
:1024400060E370E20E94C41D009791F010E01F5FEE
:1024500080E090E060E370E20E94C41DE12FF0E0B4
:10246000EE0FFF1FEE0DFF1D80839183009779F71C
:10247000EB81FC815D804E8039842A848081809349
:102480007E2180818134B1F110927E2182E390E23D
:102490000E94AB056091CC207091CD208091CE2020
:1024A0009091CF2020917A2130917B2140917C2105
:1024B00050917D2102D787FDB7C080917E2188236E
:1024C00039F080917F21882309F044C11092E720E0
:1024D0008FEF97E6A9E8B9E081509040A040B04066
:1024E000D9F700C0000060E070E040E050E020E07C
:1024F00030E02ACFB1E0B0937E21E32DF22DDF0151
:102500000D900020E9F7CD018E1B9F0B01960E94D4
:10251000AF1B792E082F192F20E230E0F80120831D
:102520003183C801632D722D0E94C71D452D542D86
:10253000DA010D900020E9F79D01E02FF72DDF0172
:102540000D900020E9F7CD0101978E1B9F0B841B96
:10255000950B820F931F0E94AF1B782E692E652D5D
:10256000742D0E94D21D872D962DB8010E94C71D83
:10257000872D962D0E94AB05852D942D0E94DE1C83
:1025800020E030E048EC52E49FD6DC01CB018093A0
:10259000722190937321A0937421B0937521832DA0
:1025A000922D0E94DE1C20E030E048EC52E48CD6F4
:1025B000F62FE72F382F292FDF01C9014B2F5A2F74
:1025C000692F782F4093762150937721609378215B
:1025D00070937921409172215091732160917421FF
:1025E00070917521CB01BA01A9010B2F1A2F252F4C
:1025F000342FA90198010E94DD0760937A2170931E
:102600007B2180937C2190937D212091CC2030915F
:10261000CD204091CE205091CF2091D718160CF0AC
:10262000BFC1B1E0B0937F21EDB7FEB73897EDBFE2
:10263000FEBF3196ADB7BEB71196CD92DC92129720
:10264000828293828091722190917321A091742152
:10265000B091752184839583A683B7830E94371E2A
:10266000EDB7FEB73196ADB7BEB71196AD92BC923D
:102670001297828293828091762190917721A09106
:102680007821B091792184839583A683B7830E94B2
:10269000371EEDB7FEB73196ADB7BEB71196ED92C6
:1026A000FC9212978282938280917A2190917B2171
:1026B000A0917C21B0917D2184839583A683B783EB
:1026C0000E94371EF60101900020E9F7CF018C1916
:1026D0009D092DB73EB7285F3F4F2DBF3EBF0196E6
:1026E0000E94AF1B792E082F192FC801B6010E9436
:1026F000D21DA02FB72DFD0101900020E9F73197E1
:10270000EA1BFB0BE00FF11F8CE290E080839183CA
:10271000FD0101900020E9F79F01F50101900020E3
:10272000E9F7CF0101978A199B098A1B9B0B820F3E
:10273000931F0E94AF1B782E692EB8010E94D21DF4
:10274000872D962DB5010E94C71D70928021609241
:102750008121B3CE1091C6200091C72040908021E6
:10276000509081218091A10885FFFCCFFDE0F0937E
:10277000A0088FEF93ECA9E081509040A040E1F7D2
:1027800000C000008BE490E260EA78E00E94940AC6
:102790008FEF93ECA9E081509040A040E1F700C09A
:1027A0000000E12FF02FDF010D900020E9F7CD01AF
:1027B0008E1B9F0B0996D3D7782E692EE82FF92F01
:1027C000A5E5B0E28AE00D9001928150E1F7872DF6
:1027D000962D612F702F0E94C71DE72DF62DDF016A
:1027E0000D900020E9F7CD018E1B9F0B0196B7D706
:1027F000392E082F192FC801672D762D0E94D21D62
:10280000A02FB32DFD0101900020E9F73197EA1BBD
:10281000FB0BE00FF11F22E230E020833183C8017F
:1028200060EA78E00E94940A8FEF93ECA9E081506F
:102830009040A040E1F700C00000C20160EA78E0EB
:102840000E94940A8FEF93ECA9E081509040A04041
:10285000E1F700C000008091A10885FFFCCF9AE15C
:102860009093A0088FEF93ECA9E081509040A04096
:10287000E1F700C000001091B7200091B82040900F
:102880008021509081218091A10885FFFCCF9DE09F
:102890009093A0088FEF93ECA9E081509040A04066
:1028A000E1F700C000008BE490E260EA78E00E946B
:1028B000940A8FEF93ECA9E081509040A040E1F79B
:1028C00000C00000E12FF02FDF010D900020E9F79C
:1028D000CD018E1B9F0B099642D7782E692EE82FCB
:1028E000F92FA5E5B0E28AE00D9001928150E1F761
:1028F000872D962D612F702F0E94C71DE72DF62D75
:10290000DF010D900020E9F7CD018E1B9F0B019692
:1029100026D7392E082F192FC801672D762D0E9432
:10292000D21DA02FB32DFD0101900020E9F73197B2
:10293000EA1BFB0BE00FF11F22E230E02083318322
:10294000C80160EA78E00E94940A8FEF93ECA9E056
:1029500081509040A040E1F700C00000C20160EA51
:1029600078E00E94940A8FEF93ECA9E081509040A8
:10297000A040E1F700C000008091A10885FFFCCFD6
:102980009AE19093A0088FEF93ECA9E081509040DA
:10299000A040E1F700C0000091E09093E72098CDBF
:1029A00010927F218ACD8091DC20592F581B81E025
:1029B00015160CF491CC8FCC20911820267026305F
:1029C00009F017CD62E871E240E050E0A0E09B0121
:1029D000CB01B0E0E8E1F0E2F1CC21E0013009F414
:1029E00020E0002321F580931C2090931D2040932C
:1029F0001A2050931B20E8E1F0E202E20693022F36
:102A0000A2E022E831E2DACC82E891E29C01D6CC65
:102A1000809314209093152020E430E0209312201E
:102A200030931320E8E1F0E204E10693BCCC8093FC
:102A30001420909315204093122050931320E8E126
:102A4000F0E204E10693022FA2E022E831E2B6CCE4
:102A5000A5E1B0E0EDE2F5E151C64C016E877F875C
:102A6000FC0116821782838181FD04C05AC34C8504
:102A70005D8504C01E010894211C311CF401938162
:102A8000EE85FF8593FD859193FF8191EE87FF870A
:102A9000882309F442C3853241F493FD859193FF65
:102AA0008191EE87FF87853259F490E0B4014C8B19
:102AB0005D8B0E940B1E4C895D894C875D87D7CF4B
:102AC000FF24DD2410E01032B0F48B3269F08C3238
:102AD00028F4803251F0833271F40BC08D3239F01A
:102AE000803349F411602CC01260146029C0186052
:102AF00027C0106125C017FD2EC0282F20532A3073
:102B000098F416FF08C08F2D880FF82EFF0CFF0CCD
:102B1000F80EF20E15C08D2D880FD82EDD0CDD0CB1
:102B2000D80ED20E10620CC08E3221F416FDF5C202
:102B3000106406C08C3611F4106802C0883659F44F
:102B4000EE85FF8593FD859193FF8191EE87FF8749
:102B5000882309F0B8CF982F9554933018F410615A
:102B6000805E06C0982F9556933008F092C11F7E64
:102B700016FD02C0E6E0FE2E1F73853611F41064C8
:102B800006C0863611F4106802C0F110FA9417FFDF
:102B900007C0FBE3FF1548F0EF2CE39427E00DC0DE
:102BA00027E02F1530F02F2D07C027E07CE3E72E1C
:102BB00004C027E067E0F62EEE24CA0104968C8755
:102BC0009D87FA016081718182819381A1010E2D1F
:102BD000F8D65C01C9802C2D30E0288B398BC0FEE3
:102BE00003C0388933FF06C011FD06C012FF06C0BE
:102BF00000E205C00DE203C00BE201C000E08889DD
:102C000099898C709070009709F439C0002311F0F5
:102C100084E001C083E08D1550F4D81A13FD08C07C
:102C200080E290E0B401F7D7DA94D1F701C0DD2457
:102C3000002321F0802F90E0B401EDD7888983FD37
:102C400005C03BECE32E32E0F32E10C027ECE22E61
:102C500022E0F22E0BC00115110509F0805290E020
:102C6000B401D9D70894E11CF11C04C0012F10E075
:102C700000711070F7018491882369F74BC217FF28
:102C80000EC0EA0CF889F4FF04C08A81813309F48C
:102C9000EA941E144CF528E02E1548F12CC016FDC0
:102CA0002AC08F2D90E08A159B0544F03CEFA316B7
:102CB0003FEFB3061CF0106801C0FA94FF2049F002
:102CC000E2E0F0E0EC0FFD1FEF0DF11D808180339D
:102CD000A1F317FF10C0EF2CE3948F2D90E0A816FE
:102CE000B90644F4FA1807C0EE24E39404C098E04F
:102CF000E92E01C0FF2417FF07C01A141B043CF47F
:102D000095012F5F3F4F05C025E030E002C021E074
:102D100030E0002311F02F5F3F4FFF2029F08F2D6F
:102D200090E00196280F391F8D2D90E02817390764
:102D300014F4D21A01C0DD24612E7724C3018970F6
:102D40009070009741F405C080E290E0B40163D731
:102D5000DA94DD20C9F7002321F0802F90E0B40140
:102D60005AD763FC08C005C080E390E0B40153D794
:102D7000DA94DD20C9F717FF46C08501B7FE02C00F
:102D800000E010E06624772495012E1931092A8B82
:102D90003B8B2501401A510A420C531C6F2D70E0E9
:102DA000EE24FF24E61AF70A3FEF0F3F130721F442
:102DB0008EE290E0B4012FD7A016B10654F02A8914
:102DC0003B89201731072CF4F201E60DF71D8181B4
:102DD00001C080E3015010400894611C711C0E1565
:102DE0001F0524F090E0B40116D7DECF0A151B05AD
:102DF00041F49A81963320F4953319F4388934FFDD
:102E000081E390E043C08A81813311F09FEEC922B3
:102E100090E0B40100D7FF2079F08EE290E0B40199
:102E2000FAD612E0F101E10FF11D1F5F808190E001
:102E3000B401F1D6FA94B1F764FE03C085E490E0E2
:102E400002C085E690E0B401E6D6B7FC05C0A11447
:102E5000B10441F4C4FE06C0B094A194B108B39487
:102E60008DE201C08BE290E0B401D5D680E305C0CD
:102E70008F5FE6EFFFEFAE0EBF1EFAE0AF16B104B4
:102E8000BCF790E0B401C7D6C501C096B401C3D663
:102E900041C1833631F0833789F0833509F055C05D
:102EA00021C09A012E5F3F4F2C873D87FA01808118
:102EB000898381E0E82EF12C510112C09A012E5F26
:102EC0003F4F2C873D87FA01A080B18016FF03C0D9
:102ED0006F2D70E002C06FEF7FEFC5016AD67C01F5
:102EE0001F7713C09A012E5F3F4F2C873D87FA0151
:102EF000A080B18016FF03C06F2D70E002C06FEF9D
:102F00007FEFC50136D67C01106813FD1AC005C0DD
:102F100080E290E0B4017FD6DA948D2D90E0E8163F
:102F2000F906B0F30EC0F50117FD859117FF8191E9
:102F30005F0190E0B4016FD6D110DA940894E108F3
:102F4000F108E114F10479F7E5C0843611F089360F
:102F500069F59A0117FF0AC02C5F3F4F2C873D8708
:102F6000FA0180819181A281B3810BC02E5F3F4F16
:102F70002C873D87FA0180819181AA2797FDA09532
:102F8000BA2F012F0F76B7FF08C0B095A095909586
:102F900081959F4FAF4FBF4F0068BC01CD01A1018C
:102FA0002AE030E084D6E82EE21840C0853721F4CC
:102FB0001F7E2AE030E020C0197F8F36A9F08037CD
:102FC00020F4883509F0A9C00BC0803721F088377C
:102FD00009F0A3C001C0106114FF09C0146007C04C
:102FE00014FF08C0166006C028E030E005C020E1EC
:102FF00030E002C020E132E0CA0117FF09C00496A8
:103000008C879D87FA01608171818281938108C0DC
:1030100002968C879D87FA016081718180E090E043
:10302000A10145D6E82EE218012F0F7706FF09C04F
:103030000E7FEF1430F404FF06C002FD04C00F7EC3
:1030400002C01E2D01C01F2D802F90E004FF0CC078
:10305000FE01EE0DF11D2081203311F4097E09C01F
:1030600002FF06C01E5F05C086789070009709F0C9
:103070001F5FA02EBB2403FD11C000FF0CC0FE2C5F
:103080001D1548F4FD0CF11A1D2D05C080E290E0DD
:10309000B401C1D51F5F1D15C8F304C01D1510F480
:1030A000D11A01C0DD24A4FE0EC080E390E0B4017B
:1030B000B2D5A2FE1DC0A1FE03C088E590E010C0FD
:1030C00088E790E00DC0C50186789070009781F088
:1030D000A1FC02C080E201C08BE207FD8DE290E01E
:1030E000B40199D505C080E390E0B40194D5FA9479
:1030F000EF14C8F3EA94F101EE0DF11D808190E028
:10310000B40189D5EE20B1F705C080E290E0B401AA
:1031100082D5DA94DD20C9F7AACCF40186819781A3
:1031200002C08FEF9FEF6596E2E101C35058BB27C5
:10313000AA270ED0B9C182D130F087D120F031F466
:103140009F3F11F41EF452C10EF4E095E7FB48C115
:10315000E92FCCD180F3BA1762077307840795076C
:1031600018F071F49EF5E4C10EF4E0950B2EBA2F21
:10317000A02D0B01B90190010C01CA01A00111247D
:10318000FF27591B99F0593F50F4503E68F11A1629
:10319000F040A22F232F342F4427585FF3CF4695BA
:1031A00037952795A795F0405395C9F77EF41F16DC
:1031B000BA0B620B730B840BBAF09150A1F0FF0FA6
:1031C000BB1F661F771F881FC2F70EC0BA0F621F92
:1031D000731F841F48F4879577956795B795F79582
:1031E0009E3F08F0B3CF9395880F08F09927EE0F14
:1031F00097958795089522D158F080E891E009F4D9
:103200009EEF23D128F040E851E059F45EEF09C069
:10321000EDC08EC1E92FE07869D168F3092E052A47
:10322000C1F3261737074807590738F00E2E07F85D
:10323000E02569F0E025E0640AC0EF6307F8009438
:1032400007FADB01B9019D01DC01CA01AD01EF9371
:103250004AD02AD10AD05F91552331F02BED3FE0BF
:1032600049E450FD49EC63CF0895DF93DD27B92F82
:10327000BF7740E85FE31616170648075B0710F4B0
:10328000D92F61D19F938F937F936F930ED2ECEFE1
:10329000F1E0AFD009D12F913F914F915F9166D16D
:1032A000DD2349F09058A2EA2AED3FE049EC5FE3C4
:1032B000D0785D274DDFDF91F7C06ED008F481E054
:1032C0000895CBD0E39501C10CD0EEC0BED040F044
:1032D000B5D030F021F45F3F19F082C0511129C1FF
:1032E00085C004D198F39923C9F35523B1F3951BF5
:1032F000550BBB27AA2762177307840738F09F5F17
:103300005F4F220F331F441FAA1FA9F333D00E2E85
:103310003AF0E0E830D091505040E695001CCAF7F2
:1033200029D0FE2F27D0660F771F881FBB1F2617B7
:1033300037074807AB07B0E809F0BB0B802DBF018A
:10334000FF2793585F4F2AF09E3F510568F048C011
:10335000F0C05F3FECF3983EDCF386957795679578
:10336000B795F7959F5FC9F7880F911D969587953B
:1033700097F90895E1E0660F771F881FBB1F62175A
:1033800073078407BA0720F0621B730B840BBA0B18
:10339000EE1F88F7E0950895990F0008550FAA0BC6
:1033A000E0E8FEEF16161706E807F907C0F0121658
:1033B0001306E407F50798F0621B730B840B950B5B
:1033C00039F40A2661F0232B242B252B21F40895B0
:1033D0000A2609F4A140A6958FEF811D811D08954D
:1033E00097F99F6780E870E060E008959FEF80ECB8
:1033F0000895DF93CF931F930F93FF92EF92DF9285
:103400007B018C01689405C0DA2EEF01AFD0FE017C
:10341000E894A5912591359145915591AEF3EF0131
:1034200097DEFE019701A801DA9479F7DF90EF901B
:10343000FF900F911F91CF91DF91089500240A947E
:103440001616170618060906089500240A9412167F
:103450001306140605060895C9CF50D0E8F3E89482
:10346000E0E0BB279F57F0F02AED3FE049EC06C0B3
:10347000EE0FBB0F661F771F881F28F0B23A620756
:103480007307840728F0B25A620B730B840BE39521
:103490009A9572F7803830F49A95BB0F661F771FA4
:1034A000881FD2F7904806C1092E0394000C11F42E
:1034B000882352F0BB0F40F4BF2B11F460FF04C00F
:1034C0006F5F7F4F8F4F9F4F0895EF93E0FF06C0D0
:1034D000A2EA2AED3FE049EC5FEB3ADEE5DF0F9030
:1034E000039401FC9058E9E2F2E0F7C057FD9058D0
:1034F000440F551F59F05F3F71F04795880F97FBB8
:10350000991F61F09F3F79F0879508951216130671
:103510001406551FF2CF4695F1DF08C016161706A0
:103520001806991FF1CF86957105610508940895D5
:10353000E894BB2766277727CB0197F908952CDFFE
:1035400008F48FEF08959B01AC0160E070E080E823
:103550009FE3BACE0BD0A8CF71DF28F076DF18F04A
:10356000952309F03DCF42CF1124E3CFBFDFA0F375
:10357000959FD1F3950F50E0551F629FF001729F08
:10358000BB27F00DB11D639FAA27F00DB11DAA1F27
:10359000649F6627B00DA11D661F829F2227B00D74
:1035A000A11D621F739FB00DA11D621F839FA00DFF
:1035B000611D221F749F3327A00D611D231F849F4F
:1035C000600D211D822F762F6A2F11249F575040A6
:1035D0008AF0E1F088234AF0EE0FFF1FBB1F661F41
:1035E000771F881F91505040A9F79E3F510570F0FA
:1035F000F7CE9FCF5F3FECF3983EDCF3869577954F
:103600006795B795F795E7959F5FC1F7FE2B880FF4
:10361000911D9695879597F908959F931EDF0F90BA
:1036200007FCEE5F52CF11F40EF4E0CE41C066DF2E
:10363000D0F39923D9F3CEF39F57550B87FF46D08C
:103640000024A0E640EA900180585695979528F40A
:10365000805C660F771F881F20F026173707480702
:1036600030F4621B730B840B202931294A2BA69559
:1036700017940794202531254A2758F7660F771F9E
:10368000881F20F026173707480730F4620B730BAA
:10369000840B200D311D411DA09581F7B901842FA8
:1036A0009158880F9695879508959B01AC0152CF4C
:1036B0009F3F31F0915020F4879577956795B795A6
:1036C000880F911D9695879597F9089591505040D0
:1036D000660F771F881FD2F708959F938F937F936C
:1036E0006F93FF93EF939B01AC0134DFEF91FF9158
:1036F00080DE2F913F914F915F912CCF2F923F927F
:103700004F925F926F927F928F929F92AF92BF92F1
:10371000CF92DF92EF92FF920F931F93CF93DF939D
:10372000CDB7DEB7CA1BDB0BCDBFDEBF09942A883D
:10373000398848885F846E847D848C849B84AA84C5
:10374000B984C884DF80EE80FD800C811B81AA8152
:10375000B981CE0FD11DCDBFDEBFED010895CF934E
:10376000DF93AC018230910510F442E050E0E0912B
:103770008723F091882320E030E0A0E0B0E024C06F
:103780008081918184179507D0F08417950771F493
:1037900082819381109729F012968D939C931397B1
:1037A0002CC0809387239093882327C0211531054F
:1037B00019F08217930718F49C01BD01EF01928163
:1037C0008381DF01E92FF82F3097D1F621153105DC
:1037D000F9F0C901841B950B8430910580F48A812E
:1037E0009B816115710521F0FB018283938304C0E5
:1037F0008093872390938823FE01329642C0FE0176
:10380000E80FF91F4193519302978883998339C038
:103810008091852390918623009741F48091DF2049
:103820009091E02080938523909386232091DD2042
:103830003091DE202115310541F42DB73EB780913E
:10384000E1209091E220281B390BE0918523F09133
:103850008623E217F30798F42E1B3F0B2417350736
:1038600070F0CA0102962817390748F08E0F9F1F83
:1038700080938523909386234193519302C0E0E087
:10388000F0E0CF01DF91CF9108950F931F93CF9375
:10389000DF939C01009709F48CC0DC01129712960B
:1038A0001D921C9213976091872370918823611554
:1038B000710589F48D919C911197820F931F20912E
:1038C0008523309186232817390769F5A09385232E
:1038D000B09386236EC0FB0140E050E001C0FC01C4
:1038E000EA17FB0730F482819381AF010097B9F7A3
:1038F0001FC0E9012297EA83FB8308811981C9016E
:10390000800F911F8E179F0759F480819181800F3E
:10391000911F029688839983828193818A839B83F6
:103920004115510529F4A0938723B093882341C002
:10393000FA01A283B383C191D191EC0FFD1FAE17A1
:10394000BF0781F4F901929182918C0F9D1F02961D
:10395000DA018D939C9311978281938112968D93B6
:103960009C931397E0E0F0E002C0FB01BC01DB0197
:1039700012968D919C9113970097B9F7CB010296FF
:103980002D913C911197820F931F209185233091A7
:1039900086232817390769F4309729F41092872372
:1039A0001092882302C01282138260938523709341
:1039B0008623DF91CF911F910F9108956627772776
:1039C0002AC2283008F027E03327DA01990F311D89
:1039D00087FD916000966105710539F432602E5FB4
:1039E0003D9330E32A95E1F708959F3F30F080380A
:1039F0007105610509F03C5F3C5F3D93913008F033
:103A00008068911DDF93CF931F930F93FF92EF92E6
:103A1000192F987F9695E92F96959695E90FFF2790
:103A2000E75DFC4F99273327EE24FF24A701E70128
:103A300005900894079428F4360FE71EF81E491FD6
:103A4000511D660F771F881F991F0694A1F70590D7
:103A5000079428F4E70EF81E491F561FC11D770F63
:103A6000881F991F661F0694A1F70590079428F4F4
:103A7000F80E491F561FC71FD11D880F991F661FBB
:103A8000771F0694A1F70590079420F4490F561F5D
:103A9000C71FD81F990F661F771F881F0694A9F7A5
:103AA00084911095177041F0D695C7955795479515
:103AB000F794E7941A95C1F7EFECF2E0689415904B
:103AC000159135916591959105907FE27395E11877
:103AD000F10A430B560BC90BD009C0F7E10CF11EDC
:103AE000431F561FC91FD01D7EF4703311F48A95F1
:103AF000E6CFE894015030F0080F0AF400270217CF
:103B000008F4202F2395022F7A3328F079E37D9350
:103B10002A95E9F710C07D932A9589F60694979522
:103B20006795379517951794E118F10A430B560BD3
:103B3000C90BD00998F023957E9173957A3308F0DC
:103B400070E37C932013B8F77E9170617D9330F021
:103B5000839571E37D9370E32A95E1F71124EF904B
:103B6000FF900F911F91CF91DF91992787FD90953D
:103B70000895FC010590615070400110D8F78095C0
:103B800090958E0F9F1F08954EEE50E21DC0FB01D1
:103B9000DC010D900020E9F7119701900D920020B3
:103BA000E1F70895FB01DC0101900D920020E1F79F
:103BB0000895FC016150704001900110D8F7809584
:103BC00090958E0F9F1F0895FA01A191B0810097E3
:103BD00019F41097E1F0CD01DC01CD010D9000202A
:103BE00011F4C00113C0FB012191222319F020150B
:103BF000D9F7F3CFFB012191201519F41E921196EC
:103C000006C02223C1F70D900020A1F7D001FA01D0
:103C1000A193B08308950F931F93CF93DF938C01EB
:103C2000EB018B8181FF1BC082FF0DC02E813F8184
:103C30008C819D812817390764F4E881F98101930B
:103C4000E883F98306C0E885F985802F09950097F8
:103C500031F48E819F8101968E839F8302C00FEF86
:103C60001FEFC801DF91CF911F910F910895AEE032
:103C7000B0E0ECE3FEE150CD0D891E8986E08C8337
:103C800009831A838FEF9FE78D839E83AE01475E82
:103C90005F4FCE0101966F89788D0E942815EF81C4
:103CA000F885E00FF11F10822E96E4E04ECDFA0168
:103CB000AA27283051F1203181F1E8946F936E7F6B
:103CC0006E5F7F4F8F4F9F4FAF4FB1E03ED0B4E05C
:103CD0003CD0670F781F891F9A1FA11D680F791F9D
:103CE0008A1F911DA11D6A0F711D811D911DA11DAE
:103CF00020D009F468943F912AE0269F11243019BE
:103D0000305D3193DEF6CF010895462F4770405D58
:103D10004193B3E00FD0C9F7F6CF462F4F70405D07
:103D20004A3318F0495D31FD4052419302D0A9F762
:103D3000EACFB4E0A6959795879577956795BA955C
:103D4000C9F700976105710508959B01AC010A2E22
:103D500006945795479537952795BA95C9F7620FF9
:103D6000731F841F951FA01D0895E0ECF1E0A78547
:103D7000A7FDFDCFA485A860A4876050704FCBC17C
:103D8000DC01A40FB51F4150504040F0CB01840F1F
:103D9000951F2E9105D041505040D8F70895262FF9
:103DA0002ED00080021611F004D0019701970895DB
:103DB000262FE0ECF1E0378537FDFDCF3485377FE6
:103DC0003487378531FF09C036E3328738ED34BF99
:103DD00031E03387378537FDFDCF33E3328780838A
:103DE00091831282248325E3228728ED31E024BFCA
:103DF00033870196089503D0808199270895E0ECD8
:103E0000F1E0378537FDFDCF348538603487FC011C
:103E1000E050F04F0895A0E0B0E0E0E1FFE172CCA7
:103E20005B016115710521F0DB018C9311969C9368
:103E30007C01E7010894E11CF11C08816701802FD7
:103E400090E049D10097A9F70D3241F4098142E091
:103E5000C42ED12CCC0EDD1E11E009C00B3231F482
:103E6000098132E0C32ED12CCC0EDD1E10E0E6011C
:103E70002197CE0169EC73E043E050E034D1009724
:103E8000C9F4E6012296CE016CEC73E045E050E007
:103E90002AD1009711F4E6012796A114B10419F074
:103EA000F501C083D18330E020E090E8112309F4CC
:103EB00005C1FFC0CE0161ED73E043E050E013D1D6
:103EC000009759F4A114B10409F4F5C0C601029693
:103ED000D5018D939C931197EEC040E050E0BA015C
:103EE0008824992400530A3090F51260212F30E085
:103EF000C9018870907012FF06C0009769F5089498
:103F0000811C911C29C0009719F008948108910820
:103F1000DB01CA01D2E0880F991FAA1FBB1FDA95E7
:103F2000D1F7480F591F6A1F7B1F440F551F661F8B
:103F3000771F400F511D611D711D4839B9E95B079D
:103F4000B9E96B07B9E17B0738F0146005C00E3F93
:103F500039F413FD43C01860F60101916F01C2CF1F
:103F6000053311F00531D1F5D601EC91ED3211F4A4
:103F7000106108C0EB3229F0C601019621E030E063
:103F800008C0D6011196EC911197C601029622E065
:103F900030E0E053EA3020F06C01C21AD30A1EC0B0
:103FA000DC0120E030E0FCE020383F075CF4C90190
:103FB000880F991F880F991F280F391F220F331F51
:103FC0002E0F311DED91E0536D01EA3060F314FFC7
:103FD00003C0309521953F4F820E931EC12FD0E034
:103FE00011FF08C0A114B10429F0C6010197D50141
:103FF0008D939C93CB01BA0197D06B017C01CE01CC
:10400000837090708330910521F4F7FAF094F7F8FB
:10401000F094C701B60120E030E0A9014ED9882311
:1040200009F442C097FE07C090948194910893943C
:10403000C0E0D4E002C0C8EED3E098EE692E9FEF56
:10404000792E6C0E7D1E20E2A22EB12C0EC0FE0138
:104050000591159125913491C701B601A9019801E7
:1040600079DA6B017C018A189B088A149B047CF71F
:104070002497B594A794C615D705B9F7C601D701FB
:104080002A2F220F2B2F221F2F3F41F0BC01CD01E1
:1040900020E030E0A90111D9882331F482E290E0D8
:1040A0008093892390938A233C2D2D2D9E2D8F2D37
:1040B00006C08FEF04C030E020E090EC8FE7B9013C
:1040C000AC01872F922FA52FB42FBC01CD01CDB706
:1040D000DEB7EEE030CB911164C0803219F0895028
:1040E0008550D0F70895FB01DC014150504088F025
:1040F0008D9181341CF08B350CF4805E65916134B8
:104100001CF06B350CF4605E861B611171F3990B2A
:104110000895881BFCCFFB01DC0102C001900D92C9
:1041200041505040D8F70895E89409C097FB3EF4F9
:1041300090958095709561957F4F8F4F9F4F9923F4
:10414000A9F0F92F96E9BB279395F6958795779572
:104150006795B795F111F8CFFAF4BB0F11F460FF32
:104160001BC06F5F7F4F8F4F9F4F16C0882311F08A
:1041700096E911C0772321F09EE8872F762F05C09E
:10418000662371F096E8862F70E060E02AF09A9539
:10419000660F771F881FDAF7880F9695879597F92E
:0C41A0000895992788270895F894FFCF10
:1041AC000000000000000000000000000000000003
:1041BC0000000000000000000000000000000000F3
:1041CC0000000000000000000000000000000000E3
:1041DC002C004E6F20475053205369676E616C0062
:1041EC00256600244750524D432C0041542B434D1F
:1041FC0047463D310041542B434D47533D2200412E
:10420C00542B43504F57443D310041542B4346559A
:10421C004E3D300041542B4346554E3D31005379B1
:10422C006E630041540050494E4700546578742029
:10423C004D6F64650041542B434D47463D3F004351
:10424C006865636B204D6F6465002B3133303432FD
:10425C0034393330353900AA202B313835373230E8
:10426C00383032343600B92030753075CDCC4C3EF8
:10427C00000092C200002C42822182210000008B9F
:04428C0023200000EB
:00000001FF
