:1000000001C200001CC200001AC2000018C2000099
:1000100016C2000014C2000012C2000010C200008C
:100020000EC200000CC200000AC2000008C200009C
:1000300006C2000004C2000002C2000000C20000AC
:10004000FEC10000FCC10000FAC10000F8C10000C0
:10005000F6C10000F4C10000F2C10000F0C10000D0
:10006000EEC10000ECC10000EAC10000E8C10000E0
:10007000E6C10000E4C10000E2C10000E0C10000F0
:10008000DEC10000DCC10000DAC10000D8C1000000
:10009000D6C10000D4C10000D2C10000D0C1000010
:1000A000CEC10000CCC10000CAC10000C8C1000020
:1000B000C6C10000C4C10000C2C10000C0C1000030
:1000C000BEC10000BCC10000BAC10000B8C1000040
:1000D000B6C10000B4C10000B2C10000B0C1000050
:1000E000AEC10000ACC10000AAC10000A8C1000060
:1000F000A6C10000A4C10000A2C10000A0C1000070
:100100009EC100009CC100009AC1000098C100007F
:1001100096C1000094C1000092C1000090C100008F
:100120008EC100008CC100008AC1000088C100009F
:1001300086C1000084C1000082C1000080C10000AF
:100140007EC100007CC100007AC1000078C10000BF
:1001500076C1000074C1000072C1000070C10000CF
:100160006EC100006CC100006AC1000068C10000DF
:1001700066C1000064C1000062C1000060C10000EF
:100180005EC100005CC100005AC1000058C10000FF
:1001900056C1000054C1000052C1000050C100000F
:1001A0004EC100004CC100004AC1000048C100001F
:1001B00046C1000044C1000042C1000040C100002F
:1001C0003EC100003CC100003AC1000038C100003F
:1001D00036C1000034C1000032C1000030C100004F
:1001E0002EC100002CC100002AC1000028C100005F
:1001F00026C100000AC400004CC40000084AD73BD6
:100200003BCE016E84BCBFFDC12F3D6C74319ABDE5
:1002100056833DDA3D00C77F11BED9E4BB4C3E9109
:100220006BAAAABE000000803F05A84CCDB2D44EF8
:10023000B93836A9020C50B9918688083CA6AAAAFA
:100240002ABE000000803F46575F56455253494F33
:100250004E0048575F56455253494F4E00140346CF
:1002600000720061006D00650077006F0072006B26
:100270000000001C034E006F006E006F006C0069F0
:10028000007400680020004C0061006200730000F0
:1002900000040309040902200001010080FA090496
:1002A000000002FF00000007058102400000070572
:1002B000020220000012011001FF000040E359007B
:1002C000F000020102DC016E616E00696E660000E2
:1002D000407A10F35A00A0724E18090010A5D4E815
:1002E0000000E87648170000E40B54020000CA9AA8
:1002F0003B000000E1F505000080969800000040FA
:10030000420F000000A0860100000010270000003E
:1003100000E803000000006400000000000A000084
:100320000000000100000000002C76D888DC674F38
:100330000823DFC1DFAE59E1B1B796E5E3E453C668
:100340003AE651997696E8E6C28426EB898C9B6260
:10035000ED407C6FFCEFBC9C9F40F2BAA56FA5F40A
:1003600090055A2AF75C936B6CF9676DC11BFCE032
:10037000E40D47FEF520E6B500D0ED902E03009485
:100380003577050080841E080000204E0A0000001A
:10039000C80C333333330F986E12831141EF8D2124
:1003A00014893BE65516CFFEE6DB18D1844B381B8B
:1003B000F77C1D901DA4BBE424203284725E228150
:1003C00000C9F124ECA1E53D27494E46494E495468
:1003D000594E414E000020410000C84200401C46DA
:1003E00020BCBE4CCA1B0E5AAEC59D74CDCCCC3DB4
:1003F0000AD7233C17B7D13877CC2B329595E62412
:100400001FB14F0A11241FBECFEFDFE2DEBFCDBF09
:1004100010E2A0E0B0E2E6EDFEE502C005900D922C
:10042000AA3FB107D9F713E2AAEFB0E201C01D92CB
:10043000A139B107E1F70E94FF200C94692FE0CDAC
:10044000089580E00895CF93DF93C0ECD1E022E0DF
:100450002A87EAE1F0E0E491A0ECB4E0DA96EC93CC
:10046000DA972A87EBE1F0E0E491DB96EC93DB97F7
:1004700083E0E0E4F0E0848380E090E216968D93E0
:100480009C93179713961C9213971092002033E4B5
:100490003093012087E491E280930420909305201B
:1004A000209308203093092085E091E280930C206E
:1004B00090930D2082EC8C9311968C911197816012
:1004C00011968C931197DF91CF91089583E0E0E42A
:1004D000F0E08483E0ECF4E080E090E286839783B0
:1004E00013821092002023E42093012087E491E2FC
:1004F000809304209093052082E08093082020932D
:10050000092085E091E280930C2090930D2082ECED
:10051000808381818160818308950F939C01E0EC49
:10052000F1E0128661157105D1F0CB0145E051E291
:10053000DA01F9012F5F3F4FE491ED930197C9F77D
:1005400070E040930C2050930D2060930A2070932C
:100550000B20E8E0F0E202E206930F91089545E0F7
:1005600051E2EECF84E0E0E5F0E0868382E0E0EC6B
:10057000F1E08287ECE1F0E0E491A0E6B0E01396D0
:10058000EC9313978BE115968C93159787EB169642
:100590008C93169781E08093600088ED84BF83E0A0
:1005A000809350008091510081FFFCCF80E1E0E515
:1005B000F0E0858388ED84BF83E1809350008091D3
:1005C000510084FFFCCF81E08093680088ED84BFF8
:1005D00084E080934000E0E4F0E0118208950F93FE
:1005E000CF93DF9300D0CDB7DEB7809147218076DF
:1005F00079F480914821863009F4C9C0873090F0A1
:10060000893009F44CC08A3040F5883009F480C044
:1006100087E491E20E948F1F0F900F90DF91CF919E
:100620000F910895813031F1813008F087C0109228
:1006300005211092062185E091E280930C20909391
:100640000D2082E090E080930A2090930B20E8E058
:10065000F0E202E2069381E0DFCF8A3009F451C074
:100660008B30B1F680914B2160914921EADE8823DD
:1006700009F447C085E091E280930C2090930D200F
:1006800010920A2010920B20E8E0F0E202E20693BA
:1006900081E00F900F90DF91CF910F91089580E04E
:1006A00091E060E0AE014F5F5F4F0E94C920882358
:1006B00041F1E0ECF1E01286E981FA817196E49172
:1006C00020914921E217E8F085E091E280930C2027
:1006D00090930D2010920A2010920B20E8E0F0E297
:1006E00002E206932093462180914621882309F453
:1006F000B5C084E080934521809146215FD181E09F
:100700008BCF80E00F900F90DF91CF910F910895E4
:10071000809146218093052185E091E280930C2011
:1007200090930D2081E090E080930A2090930B201D
:10073000E8E0F0E202E2069381E06ECF833009F454
:1007400099CF853009F064CF209149212F77E0E0DF
:10075000F0E202E7069385E091E280930C2090930B
:100760000D2010920A2010920B20389602E2069378
:100770008091082085FFFCCFE0ECF4E02383222366
:1007800009F05AC082E08093452181E045CFE0EC3A
:10079000F1E012868091492190914A2123E08C3D1D
:1007A0009207C9F060914B21AE014F5F5F4F0E94ED
:1007B000C920009709F4A5CF29813A8140914D21A4
:1007C00050914E21BC014817590708F4BA01C901DC
:1007D000A4DE81E021CF83E08093062165E071E211
:1007E0008AE38093052182E08287E8E0F0E0E491EB
:1007F000DB01129681E090E048E020EC31E052E02D
:10080000EF70EA30B0F0F0E0F796ED93FD93F1E28F
:10081000AF33BF0799F0F9015287E42FF0E0E4917C
:1008200080FF03C0E295EF704F5F0196EF70EA30F2
:1008300050F7F0E0F096E9CF83E0A5CF60930C206D
:1008400070930D208AE390E080930A2090930B2010
:10085000E8E0F0E202E2069381E0DECE8091C3049C
:10086000882321F084E08093452146CF81E0FBCFAF
:100870000F932FB7F89480911820867019F42FBF2A
:100880000F9108953091F32013160CF045C080911C
:10089000EF209091F0204091FF2051E0413041F154
:1008A0005093FF20442349F1809314209093152006
:1008B00040E450E04093122050931320E8E1F0E22E
:1008C00004E1069331503093F320805C9F4F809376
:1008D000EF209093F02033E28738930781F687E882
:1008E00091E28093EF209093F0202FBF0F91089515
:1008F00050E05093FF204423B9F680931C2090933E
:100900001D2040E450E040931A2050931B20E8E162
:10091000F0E202E20693D6CF809100218130E1F02F
:10092000823009F0ACCF809118208670863009F0B3
:10093000A6CF109200211092012110920221109254
:10094000F32087E891E28093F1209093F220809346
:10095000EF209093F02093CF82E08093002170915C
:10096000EF206091F020809101219091022130913F
:10097000FF2041E0313001F14093FF20472F562FF7
:10098000332369F440931C2050931D2080931A2038
:1009900090931B20E8E1F0E202E2069370CF4093CF
:1009A0001420509315208093122090931320E8E197
:1009B000F0E204E1069363CF40E0DECF2FB7F89476
:1009C0001092F32087E891E28093F1209093F22037
:1009D0008093EF209093F02088E190E236E030930E
:1009E000182033E930931920FC01379710820897BB
:1009F00032E0FC0130831092FF201092002110920F
:100A00000121109202212FBF08951F920F920FB65D
:100A10000F9211242F933F934F935F936F937F9384
:100A20008F939F93AF93BF93EF93FF93E0ECF4E02A
:100A30008091CA0487FD2AC08091CA048E7081F417
:100A40008091CA0480FD1FC080E782878091C20424
:100A500080FF08C08091C2048E7F8283F4DC02C0D4
:100A60008EE08287FF91EF91BF91AF919F918F911F
:100A70007F916F915F914F913F912F910F900FBE9A
:100A80000F901F90189581E08287ECCF80E88287D5
:100A9000E9CF1F920F920FB60F9211240F932F934D
:100AA0003F934F935F936F937F938F939F93AF93F6
:100AB000BF93EF93FF93E0ECF4E0148283E084872C
:100AC0002FB7F894809118208670C9F42FBF8091B9
:100AD000002084FD4FC085FD74C0FF91EF91BF9150
:100AE000AF919F918F917F916F915F914F913F91C6
:100AF0002F910F910F900FBE0F901F90189530916E
:100B0000F32013160CF07BC08091EF209091F02021
:100B10004091FF2051E0413009F43EC05093FF2046
:100B2000442309F43FC0809314209093152040E49F
:100B300050E04093122050931320E8E1F0E204E1EA
:100B4000069331503093F320805C9F4F8093EF20C9
:100B50009093F02033E28738930709F0B7CF87E806
:100B600091E28093EF209093F0202FBF809100209E
:100B700084FFB1CF34DD882351F48091012084605B
:100B80008093012080910920846080930920E0E017
:100B9000F0E202E70693A1CF50E05093FF204423F8
:100BA00009F0C1CF80931C2090931D2040E450E0B9
:100BB00040931A2050931B20E8E1F0E202E20693F2
:100BC000C0CF40910220509103208091FB20813EB4
:100BD000F1F66091FA2070E000247695679507940D
:100BE000769567950794762F602D87E491E250E023
:100BF0000E94512DE0E0F0E202E706936ECF809173
:100C000000218130E1F0823009F060CF809118201E
:100C10008670863009F05ACF10920021109201217F
:100C2000109202211092F32087E891E28093F12044
:100C30009093F2208093EF209093F02047CF82E0B2
:100C4000809300217091EF206091F020809101212C
:100C5000909102213091FF2041E0313001F1409329
:100C6000FF20472F562F332369F440931C205093C5
:100C70001D2080931A2090931B20E8E1F0E202E20D
:100C8000069324CF40931420509315208093122074
:100C900090931320E8E1F0E204E1069317CF40E0DF
:100CA000DECFAF92BF92CF92DF92EF92FF920F937F
:100CB0001F93CF93DF93FC012081222309F473C09B
:100CC000009709F470C06C010894C11CD11C46E067
:100CD00068E170E237E8A32E31E2B32EC1E0D0E044
:100CE00050E4E52EF12C9FB7F894809100218823E1
:100CF00039F180E09FBF8823B1F380910121909169
:100D00000221E091F120F091F220E80FF91F2083F9
:100D10000196809301219093022180349105C1F0C6
:100D2000F6012191222309F43EC0C114D10409F433
:100D30003AC06F019FB7F894809100218823C9F6CB
:100D40008091F320342F381B81E013169CF2D1CF11
:100D5000BFB7F89410920121109202218091F320E4
:100D60008F5F8093F3208091F1209091F220805C3E
:100D70009F4F8093F1209093F220F3E287389F07F2
:100D800021F4A092F120B092F2205FB7F894809104
:100D90001820867009F04EC05FBFBFBFF6012191D9
:100DA000222309F0C2CF81E0809300212FB7F8946D
:100DB00080911820867009F0CCC02FBF82E0E0EC53
:100DC000F4E0858736E09FB7F8948091002188236E
:100DD00009F4B6C080E09FBF882309F58091FE200A
:100DE000882389F32FB7F8941092F32087E891E2D3
:100DF0008093F1209093F2208093EF209093F02045
:100E0000E8E1F0E206E0059308E006931092002185
:100E100010920121109202211092FF202FBFDF912A
:100E2000CF911F910F91FF90EF90DF90CF90BF90E7
:100E3000AF900895A091F3201A160CF03CC02091B9
:100E4000EF203091F020E091FF208E2F90E0F1E034
:100E50008C179D0709F4F0E0F093FF20EE23F9F4DE
:100E600020931C2030931D20E0921A20F0921B202A
:100E7000FB0102E20693A150A093F320C901805C1C
:100E80009F4F8093EF209093F020F3E287389F07E5
:100E900009F082CFA092EF20B092F0207DCF209376
:100EA000142030931520E0921220F0921320FB01C1
:100EB00004E10693E0CF809100218130D1F08230AF
:100EC00009F06ACF809118208670863009F064CFCF
:100ED0001092002110920121109202211092F32011
:100EE000A092F120B092F220A092EF20B092F020D8
:100EF00053CF22E020930021A091EF201091F02009
:100F00002091012130910221F091FF208F2F90E05C
:100F1000E1E08C179D0709F4E0E0E093FF208A2FC1
:100F2000912FFF2309F04BC080931C2090931D202C
:100F300020931A2030931B20FB0102E206932CCF52
:100F40008091F320232F281B81E012160CF443CF4D
:100F500041CF3091F32013160CF04CC08091EF205C
:100F60009091F0204091FF2051E0413009F450E091
:100F70005093FF20442379F580931C2090931D20EB
:100F800040E450E040931A2050931B20E8E1F0E247
:100F900002E2069331503093F320805C9F4F8093A0
:100FA000EF209093F020F3E287389F0709F005CFF8
:100FB00087E891E28093EF209093F020FECE80931B
:100FC0001420909315202093122030931320FB01BE
:100FD00004E10693E1CE809314209093152040E421
:100FE00050E04093122050931320E8E1F0E204E136
:100FF0000693D0CF809100218130E1F0823009F05A
:10100000DCCE809118208670863009F0D6CE109202
:10101000002110920121109202211092F32087E802
:1010200091E28093F1209093F2208093EF209093AF
:10103000F020C3CE82E0809300216091EF203091B8
:10104000F02040910121509102218091FF2091E0F8
:10105000813009F490E09093FF20882379F4862F63
:10106000932F80931C2090931D2040931A2050931F
:101070001B20E8E1F0E202E206939FCE862F932F39
:1010800080931420909315204093122050931320A6
:10109000E8E1F0E204E1069390CEEF92FF920F9325
:1010A0001F93CF93DF93F82EE92E162F072FA82F2B
:1010B000B92FED0109900020E9F79E01E62FF72FE7
:1010C000EF0109900020E9F7CE0101978E1B9F0BDD
:1010D0008A1B9B0B820F931F0E94402AD82FC92F77
:1010E0006F2D7E2D0E94632C8D2F9C2F612F702FD2
:1010F0000E94582C8D2F9C2FDF91CF911F910F9123
:10110000FF90EF9008952F923F924F925F926F92CF
:101110007F928F929F92AF92BF92CF92DF92EF9287
:10112000FF920F931F93CF93DF93CDB7DEB7269730
:10113000CDBFDEBF4B015C0129833A834B835C83C7
:10114000C090EB20D090EC20E090ED20F090EE20CD
:10115000A70196010E942B2725E33AEF4EE85CE3B6
:101160000E94172920E030E040E05FE30E94172949
:101170000E947A299B01AC010E941729362E272E46
:101180008D839E83C701B60125E33AEF4EE85CE309
:101190000E9417290E94F2277B018C01C501B4012E
:1011A00025E33AEF4EE85CE30E9417290E94F227FC
:1011B0002B013C0169817A818B819C812091E72000
:1011C0003091E8204091E9205091EA200E942B279D
:1011D00025E33AEF4EE85CE30E94172920E030E077
:1011E00040E05FE30E9417290E947A299B01AC012D
:1011F0000E941729B62ED72E882EC92EC801B701F6
:10120000A30192010E9417290B2D1D2D282D3C2D85
:10121000A90198010E9417299B01AC01F1017D8170
:101220006E818F2F9E2FA72FB62FBC01CD010E945C
:101230002C27862E072F382E492E982F482D502FD9
:10124000692F742DCB01BA010E9484296B017C01A6
:1012500060E070E080E89FE3E02F082D1E2F232D33
:10126000342DA90198010E942B270E9484299B01FB
:10127000AC01C701B6010E949F279B01AC010E94EF
:101280002C2720E038EF46EC55E40E941729462F22
:10129000572F682F792FCB01BA012696CDBFDEBF1D
:1012A000DF91CF911F910F91FF90EF90DF90CF9042
:1012B000BF90AF909F908F907F906F905F904F9076
:1012C0003F902F900895EF92FF920F931F93CF932B
:1012D000DF93CDB7DEB7A897CDBFDEBF7B0160E35C
:1012E00070E20E94552C009779F08E010D5F1F4F20
:1012F00080E090E060E370E20E94552CF801819359
:1013000091938F010097A1F70B851C858F8198859C
:101310000E946F2B20E030E048EC52E40E94F52759
:10132000DC01CB01F70180839183A283B383C801E1
:101330000E946F2B20E030E048EC52E40E94F52739
:10134000DC01CB01F70184839583A683B783A8963C
:10135000CDBFDEBFDF91CF911F910F91FF90EF9036
:1013600008952F923F924F925F926F927F928F9249
:101370009F92AF92BF92CF92DF92EF92FF920F9324
:101380001F93CF93DF93CDB7DEB7C653D140CDBF08
:10139000DEBF82E390E260E370E20E94552C00978A
:1013A00079F08E010D5F1F4F80E090E060E370E206
:1013B0000E94552CD8018D939D938D010097A1F724
:1013C0000B851C858F8198850E946F2B20E030E073
:1013D00048EC52E40E94F527A62E872E482E292E8F
:1013E000C8010E946F2B20E030E048EC52E40E94DC
:1013F000F527B62E972E382EC15DDE4F9883CF523B
:10140000D1408A2D982DA42DB22DBC01CD01C15DF6
:10141000DE4F4881CF52D1400B2D192D232D342F73
:10142000A901980170DE6B017C018CE390E00E94C1
:10143000402ACD5CDE4F8883C353D140CC5CDE4F65
:101440009883C453D140C701B6012091E320309165
:10145000E4204091E5205091E6200E940C291816C6
:101460000CF4CAC081E0809300215FB7F8948091AA
:101470001820867081F14091F32014160CF09BC067
:101480008091EF209091F0202091FF2031E02130D9
:1014900009F430E03093FF20222309F076C08093D6
:1014A0001C2090931D2020E430E020931A203093DC
:1014B0001B20E8E1F0E202E2069341504093F32062
:1014C000805C9F4F8093EF209093F020B3E28738A9
:1014D0009B0709F469C05FBF82E0E0ECF4E0858718
:1014E00096E02FB7F89480910021882309F444C036
:1014F00080E02FBF882309F58091FE20882389F39F
:101500002FB7F8941092F32087E891E28093F120AE
:101510009093F2208093EF209093F020E8E1F0E2A6
:1015200006E0059308E00693109200211092012135
:10153000109202211092FF202FBFCD5CDE4FE88178
:10154000F981C353D14080819181CA5CDE4FCDBF08
:10155000DEBFDF91CF911F910F91FF90EF90DF9051
:10156000CF90BF90AF909F908F907F906F905F9043
:101570004F903F902F9008958091F320392F381B82
:1015800081E013160CF4B5CFB3CF80931420909361
:10159000152020E430E02093122030931320E8E15E
:1015A000F0E204E1069389CF87E891E28093EF208F
:1015B0009093F02090CF80910021813009F4A8C34E
:1015C000823009F088CF809118208670863009F02B
:1015D00082CF1092002110920121109202211092CC
:1015E000F32087E891E28093F1209093F22080939A
:1015F000EF209093F0206FCFEDB7FEB73897EDBF97
:10160000FEBF319649EC642E712C6C0E7D1EADB779
:10161000BEB711966D927C92129702E710E2028398
:1016200013832A2D382D442D522DC901DA018483CC
:101630009583A683B7830E94C82CEDB7FEB7319679
:1016400055E6452E512C4C0E5D1EADB7BEB711961A
:101650004D925C921297028313832B2D392D432DCB
:10166000C15DDE4F5881CF52D140C901DA01848378
:101670009583A683B7830E94C82CEDB7FEB7319639
:101680009E012F5F3F4FC35DDE4F28833983CD52CC
:10169000D140ADB7BEB711962D933C9312970283FC
:1016A0001383C482D582E682F7820E94C82CF3019C
:1016B00001900020E9F73197E619F709D2010D9062
:1016C0000020E9F71197A419B509CF5CDE4FA88374
:1016D000B983C153D140C35DDE4FA881B981CD52DA
:1016E000D1400D900020E9F71197C35DDE4F2881AE
:1016F0003981CD52D140A21BB30BC15DDE4FA8830F
:10170000B983CF52D1408DB79EB708968DBF9EBF8B
:101710001E161F060CF042C04301D301AE0FBF1FBF
:10172000CB5CDE4FA883B983C553D14056E0A8E116
:10173000B0E297E8292E91E2392E21E0E22EF12C39
:1017400030E4A32EB12CF40131914F019FB7F894EE
:1017500080910021882309F44CC180E09FBF882339
:10176000A9F38091012190910221E091F120F09163
:10177000F220E80FF91F30830196809301219093A6
:1017800002218034910509F43DC1CB5CDE4F2881F4
:101790003981C553D14082169306A9F696E02FB73A
:1017A000F89480910021882309F4E2C180E02FBFE2
:1017B0008823A9F38091012190910221E091F120E9
:1017C000F091F220E80FF91F20E220830196809328
:1017D0000121909302218034910509F4BEC2CF5CAF
:1017E000DE4F28813981C153D140121613060CF007
:1017F00044C04201240D351DCF5CDE4F2883398360
:10180000C153D14056E0B8E1EB2EB0E2FB2E17E811
:10181000212E11E2312E12E001E0C02ED12C80E405
:10182000A82EB12CD4012D914D019FB7F894809131
:101830000021882309F4A5C180E09FBF8823A9F374
:101840008091012190910221E091F120F091F2200C
:10185000E80FF91F208301968093012190930221C4
:101860008034910509F496C1CF5CDE4F288139811F
:10187000C153D14082169306A9F696E02FB7F8948B
:1018800080910021882309F43AC280E02FBF882389
:10189000A9F38091012190910221E091F120F09132
:1018A000F220E80FF91F20E22083019680930121A6
:1018B000909302218034910509F4BEC3C15DDE4FCF
:1018C00028813981CF52D140121613060CF047C03F
:1018D0004E010894811C911C280D391DC15DDE4FFD
:1018E00028833983CF52D14076E068E1E62E60E26A
:1018F000F62EE7E82E2EE1E23E2E12E0F1E0CF2EAA
:10190000D12CA0E4AA2EB12CD4012D914D019FB76A
:10191000F89480910021882309F4D0C280E09FBF11
:101920008823A9F38091012190910221E091F12077
:10193000F091F220E80FF91F208301968093012196
:10194000909302218034910509F4C1C2C15DDE4F3C
:1019500028813981CF52D14082169306A9F6D3014E
:101960000D900020E9F7CD018619970901960E9494
:10197000402AE92E082F192FC801B3010E94632CB9
:10198000E02FFE2DDF010D900020E9F71197AE1B2F
:10199000BF0BA00FB11F8CE290E08D939C93A02F02
:1019A000BE2DFD0101900020E9F79F01F201019099
:1019B0000020E9F7CF010197841995098A1B9B0B39
:1019C000820F931F0E94402AE82EC92EB8010E9460
:1019D000632C8E2D9C2DB2010E94582CCD5CDE4FC5
:1019E000A881B981C353D140EC921196CC92119742
:1019F00039CD8091F320252F281B81E012160CF49D
:101A0000ADCEABCECFB6F894109201211092022148
:101A10008091F3208F5F8093F3208091F12090914B
:101A2000F220805C9F4F8093F1209093F220F3E2AC
:101A300087389F0721F42092F1203092F2201FB7BF
:101A4000F89480911820867019F41FBFCFBE9DCEE8
:101A50002091F32012160CF03BC06091EF207091A2
:101A6000F0203091FF20832F90E041E08E159F05FC
:101A700009F440E04093FF203323F1F460931C20ED
:101A800070931D20A0921A20B0921B20FD0102E24B
:101A9000069321502093F320CB01805C9F4F8093CD
:101AA000EF209093F020F3E287389F0771F62092A1
:101AB000EF203092F020C9CF60931420709315204E
:101AC000A0921220B0921320FD0104E10693E1CF11
:101AD000809100218130D1F0823009F0B6CF809121
:101AE00018208670863009F0B0CF10920021109235
:101AF0000121109202211092F3202092F1203092C5
:101B0000F2202092EF203092F0209FCF22E020930D
:101B100000217091EF20E091F0202091012130917F
:101B200002216091FF20862F90E041E08E159F05F5
:101B300009F440E04093FF20872F9E2F662361F435
:101B400080931C2090931D2020931A2030931B20FB
:101B5000FD0102E2069379CF809314209093152023
:101B60002093122030931320FD0104E106936DCFE2
:101B70008091F320392F381B81E013160CF417CE17
:101B800015CE8091F320352F381B81E013160CF40D
:101B900054CE52CEBFB7F894109201211092022178
:101BA0008091F3208F5F8093F3208091F1209091BA
:101BB000F220805C9F4F8093F1209093F220E3E22B
:101BC00087389E0721F42092F1203092F220AFB79F
:101BD000F89480911820867019F4AFBFBFBF44CE2F
:101BE0002091F32012160CF03BC06091EF20709111
:101BF000F0203091FF20832F90E041E08C159D056F
:101C000009F440E04093FF203323F1F460931C205B
:101C100070931D20A0921A20B0921B20F70102E2BF
:101C2000069321502093F320CB01805C9F4F80933B
:101C3000EF209093F020F3E287389F0771F620920F
:101C4000EF203092F020C9CF6093142070931520BC
:101C5000A0921220B0921320F70104E10693E1CF85
:101C6000809100218130D1F0823009F0B6CF80918F
:101C700018208670863009F0B0CF109200211092A3
:101C80000121109202211092F3202092F120309233
:101C9000F2202092EF203092F0209FCF109300216D
:101CA0007091EF20E091F0202091012130910221EC
:101CB0006091FF20862F90E041E08C159D0509F48E
:101CC00040E04093FF20872F9E2F662361F480938E
:101CD0001C2090931D2020931A2030931B20F70185
:101CE00002E206937ACF80931420909315202093DC
:101CF000122030931320F70104E106936ECF8091F8
:101D0000F320392F381B81E013160CF4BFCDBDCD65
:101D100082E0809300216091EF204091F02080913B
:101D20000121909102212091FF2031E0213009F41E
:101D300030E03093FF20222309F02AC2262F342FCF
:101D400020931C2030931D2080931A2090931B20F9
:101D5000E8E1F0E202E20693BECB7FB7F89410927E
:101D60000121109202218091F3208F5F8093F32054
:101D70008091F1209091F220805C9F4F8093F12020
:101D80009093F22033E28738930731F487E891E2A9
:101D90008093F1209093F2206FB7F89480911820EF
:101DA000867081F14091F32014160CF03DC0209113
:101DB000EF203091F0209091FF2081E0913009F4E4
:101DC00080E08093FF20992301F520931C2030931D
:101DD0001D2080E490E080931A2090931B20E8E17E
:101DE000F0E202E20693842F81508093F320C90130
:101DF000805C9F4F8093EF209093F020A3E2873880
:101E00009A0781F16FBF7FBFEACC209314203093F3
:101E1000152080E490E08093122090931320E8E155
:101E2000F0E204E10693DFCF80910021813009F1D7
:101E3000823041F7809118208670863019F7109211
:101E4000002110920121109202211092F32087E8C4
:101E500091E28093F1209093F2208093EF20909371
:101E6000F020D0CF87E891E28093EF209093F0208C
:101E7000C9CF82E0809300214091EF205091F02063
:101E800080910121909102213091FF2021E0313099
:101E900009F420E02093FF20242F332309F087C189
:101EA000352F20931C2030931D2080931A2090936F
:101EB0001B20E8E1F0E202E20693A4CF8091F32038
:101EC000372F381B81E013160CF429CD27CDBFB76F
:101ED000F89410920121109202218091F3208F5FDB
:101EE0008093F3208091F1209091F220805C9F4FAD
:101EF0008093F1209093F220E3E287389E0721F44B
:101F00002092F1203092F220AFB7F89480911820FF
:101F1000867019F4AFBFBFBF19CD2091F320121600
:101F20000CF03BC04091EF205091F0203091FF2009
:101F3000832F90E061E08C159D0509F460E06093CB
:101F4000FF203323F1F440931C2050931D20A092D6
:101F50001A20B0921B20F70102E206932150209331
:101F6000F320CA01805C9F4F8093EF209093F02074
:101F7000F3E287389F0771F62092EF203092F0202D
:101F8000C9CF4093142050931520A0921220B092F4
:101F90001320F70104E10693E1CF80910021813005
:101FA000D1F0823009F0B6CF80911820867086304B
:101FB00009F0B0CF1092002110920121109202215D
:101FC0001092F3202092F1203092F2202092EF2004
:101FD0003092F0209FCF109300216091EF20E0918C
:101FE000F02020910121309102215091FF20852F76
:101FF00090E041E08C159D0509F440E04093FF20FE
:10200000862F9E2F552361F480931C2090931D20D2
:1020100020931A2030931B20F70102E206937ACF17
:102020008093142090931520209312203093132036
:10203000F70104E106936ECF7FB7F8941092012167
:10204000109202218091F3208F5F8093F320809182
:10205000F1209091F220805C9F4F8093F12090932B
:10206000F22033E28738930731F487E891E28093D6
:10207000F1209093F2206FB7F89480911820867029
:1020800071F14091F32014160CF03BC08091EF20C9
:102090009091F0202091FF2031E0213009F430E0D0
:1020A0003093FF202223F1F480931C2090931D2075
:1020B00020E430E020931A2030931B20E8E1F0E286
:1020C00002E2069341504093F320805C9F4F80933F
:1020D000EF209093F020A3E287389A0781F16FBF39
:1020E0007FBFECCB809314209093152020E430E048
:1020F0002093122030931320E8E1F0E204E10693EC
:10210000E1CF80910021813009F1823041F7809147
:1021100018208670863019F7109200211092012144
:10212000109202211092F32087E891E28093F1202F
:102130009093F2208093EF209093F020D0CF87E807
:1021400091E28093EF209093F020C9CF82E08093BA
:1021500000214091EF205091F02080910121909139
:1021600002212091FF2031E0213009F430E030934A
:10217000FF20222351F540931C2050931D20809373
:102180001A2090931B20E8E1F0E202E20693A7CF29
:10219000262F342F20931420309315208093122063
:1021A00090931320E8E1F0E204E1069394C9352FFF
:1021B00020931420309315208093122090931320A5
:1021C000E8E1F0E204E106931DCE40931420509321
:1021D00015208093122090931320E8E1F0E204E1AF
:1021E00006937DCFFB018A3039F0918195FFFDCFB9
:1021F000808380E090E00895918195FFFDCF9DE080
:102200009083F3CFFC01818187FFFDCF808108950A
:102210004F925F926F927F928F929F92AF92BF92F6
:10222000CF92DF92EF92FF920F931F93CF93DF93A2
:10223000EC017B01DC010D900020E9F7CD018C1B46
:102240009D0B01960E94402AA92EC82ED92EC601A8
:10225000BE010E94632CAC2DBA2DFD01019000201F
:10226000E9F73197EA1BFB0BEC0DFD1D8DE090E0CB
:1022700080839183D6E0C8E16C2EC0E27C2E17E803
:10228000412E11E2512E12E001E0A02EB12C20E4EB
:10229000822E912CD601CD916D01CC2309F45CC026
:1022A000CA3009F4D7C0F701818185FFFCCFC08314
:1022B0008091FD20813071F7D70111968C91119793
:1022C00087FFFACF2C919FB7F89480910021882343
:1022D00009F458C080E09FBF8823A9F380910121B1
:1022E00090910221E091F120F091F220E80FF91F86
:1022F00020830196809301219093022180349105DF
:1023000049F6AFB7F8941092012110920221809102
:10231000F3208F5F8093F3208091F1209091F22041
:10232000805C9F4F8093F1209093F220B3E2873836
:102330009B0721F44092F1205092F2205FB7F8946D
:1023400080911820867039F55FBFAFBFD601CD915F
:102350006D01CC2309F0A4CF8091FD20813009F4D8
:10236000B5C0DF91CF911F910F91FF90EF90DF905B
:10237000CF90BF90AF909F908F907F906F905F9025
:102380004F9008958091F3203D2F381B81E0131664
:102390000CF4A1CF9FCF4091F32014160CF03CC059
:1023A0002091EF203091F0206091FF20862F90E067
:1023B00071E08A159B0509F470E07093FF20662395
:1023C000F9F420931C2030931D2080921A209092C3
:1023D0001B20F30102E2069341504093F320C90110
:1023E000805C9F4F8093EF209093F020F3E287383A
:1023F0009F0709F0A9CF4092EF205092F020A4CF80
:102400002093142030931520809212209092132054
:10241000F30104E10693E0CF809100218130F1F0D7
:10242000823009F091CF809118208670863009F0B3
:102430008BCF109200211092012110920221109254
:10244000F3204092F1205092F2204092EF205092DF
:10245000F0207ACF8DE0B701C5DE25CF10930021A3
:102460007091EF20E091F020209101213091022124
:102470006091FF20862F90E041E08A159B05F1F0E6
:102480004093FF20872F9E2F662361F480931C20AA
:1024900090931D2020931A2030931B20F30102E219
:1024A000069352CF809314209093152020931220EE
:1024B00030931320F30104E1069346CF40E04093AC
:1024C000FF20872F9E2F662369F7E0CF809300219E
:1024D0002FB7F89480911820867009F03BC02FBF69
:1024E00082E0E0ECF4E0858736E09FB7F8948091D5
:1024F0000021882339F180E09FBF882309F031CF84
:102500008091FE20882389F32FB7F8941092F3204E
:1025100087E891E28093F1209093F2208093EF205E
:102520009093F020E8E1F0E206E0059308E00693DE
:102530001092002110920121109202211092FF208E
:102540002FBF0FCF8091F320232F281B81E012167D
:102550009CF2D1CF3091F32013160CF040C0809143
:10256000EF209091F0204091FF2051E0413009F49C
:1025700050E05093FF20442319F580931C20909342
:102580001D2040E450E040931A2050931B20E8E1C6
:10259000F0E202E2069331503093F320805C9F4FCB
:1025A0008093EF209093F020B3E287389B0709F0E7
:1025B00096CF87E891E28093EF209093F0208FCF21
:1025C000809314209093152040E450E04093122013
:1025D00050931320E8E1F0E204E10693DCCF809110
:1025E00000218130E1F0823009F079CF809118200C
:1025F0008670863009F073CF10920021109201216D
:10260000109202211092F32087E891E28093F1204A
:102610009093F2208093EF209093F02060CF82E09F
:10262000809300216091EF203091F02040910121B2
:10263000509102218091FF2091E0813009F490E0D7
:102640009093FF20882379F4862F932F80931C206A
:1026500090931D2040931A2050931B20E8E1F0E254
:1026600002E206933CCF862F932F80931420909301
:1026700015204093122050931320E8E1F0E204E18A
:1026800006932DCF8FEF9BE7A2E981509040A040A9
:10269000E1F700C00000E0E6F6E08181816081831F
:1026A00085818E7F85838181806181838581806141
:1026B000858381818860818381818B7F81838CE0A8
:1026C0008093A60980E18093A709A0EAB9E0139658
:1026D0001C92139788E114968C93149783E01596B7
:1026E0008C9315978FEF9FE4A3EC81509040A0400E
:1026F000E1F700C000008581816085838FEF97E856
:10270000A3E181509040A040E1F700C0000081E0CB
:10271000878384E59DECADE2B3E081509040A0401A
:10272000B040D9F700C000C000000895E0E6F6E030
:102730008181816081838781816087838FEF97EAC0
:10274000A1E681509040A040E1F700C0000008954C
:102750008FEF9BE7A2E981509040A040E1F700C0D5
:102760000000E0E6F6E081818160818385818E7FD3
:102770008583818180618183858180618583818179
:102780008860818381818B7F81838CE08093A6091F
:1027900080E18093A709A0EAB9E013961C921397F1
:1027A00088E114968C93149783E015968C93159773
:1027B0008FEF9FE4A3EC81509040A040E1F700C070
:1027C00000008581816085838FEF97E8A3E18150C8
:1027D0009040A040E1F700C0000081E0878384E5DD
:1027E0009DECADE2B3E081509040A040B040D9F7FD
:1027F00000C000C000000895AF92BF92CF92DF9258
:10280000EF92FF920F931F93CF93DF9334E6C32E83
:10281000D12C46E068E170E257E8A52E51E2B52ED2
:10282000C1E0D0E0E0E4EE2EF12C8091A10987FF19
:10283000FCCF2091A0099FB7F894809100218823B4
:1028400009F465C080E09FBF8823A9F3809101212E
:1028500090910221E091F120F091F220E80FF91F10
:102860002083019680930121909302218034910569
:1028700009F456C00894C108D108C114D104A9F6BE
:1028800081E0809300212FB7F89480911820867002
:1028900009F005C12FBF82E0E0ECF4E0858796E007
:1028A0002FB7F89480910021882309F4EFC080E0CD
:1028B0002FBF882309F58091FE20882389F32FB745
:1028C000F8941092F32087E891E28093F12090939E
:1028D000F2208093EF209093F020E8E1F0E206E010
:1028E000059308E0069310920021109201211092A6
:1028F00002211092FF202FBFDF91CF911F910F91E6
:10290000FF90EF90DF90CF90BF90AF9008958091AF
:10291000F320342F381B81E013160CF494CF92CFA0
:10292000BFB7F89410920121109202218091F320F8
:102930008F5F8093F3208091F1209091F220805C52
:102940009F4F8093F1209093F22023E287389207E3
:1029500021F4A092F120B092F2205FB7F894809118
:102960001820867019F45FBFBFBF84CFA091F320F9
:102970001A160CF03BC02091EF203091F020E0912E
:10298000FF208E2F90E0F1E08C179D0709F4F0E016
:10299000F093FF20EE23F1F420931C2030931D20B0
:1029A000E0921A20F0921B20FB0102E20693A15054
:1029B000A093F320C901805C9F4F8093EF209093F8
:1029C000F020F3E287389F0771F6A092EF20B092D3
:1029D000F020C9CF2093142030931520E0921220CC
:1029E000F0921320FB0104E10693E1CF80910021D6
:1029F0008130D1F0823009F0B6CF809118208670F6
:102A0000863009F0B0CF109200211092012110926F
:102A100002211092F320A092F120B092F220A09215
:102A2000EF20B092F0209FCF22E020930021A091D0
:102A3000EF201091F0202091012130910221F0919E
:102A4000FF208F2F90E0E1E08C179D0709F4E0E074
:102A5000E093FF208A2F912FFF2361F480931C20A5
:102A600090931D2020931A2030931B20FB0102E23B
:102A7000069379CF809314209093152020931220F1
:102A800030931320FB0104E106936DCF8091F32076
:102A9000392F381B81E013160CF40ACF08CF309180
:102AA000F320131694F58091EF209091F02040913F
:102AB000FF2051E0413009F450E05093FF204423BF
:102AC00009F043C080931C2090931D2040E450E007
:102AD00040931A2050931B20E8E1F0E202E20693B3
:102AE00031503093F320805C9F4F8093EF20909380
:102AF000F020F3E287389F0709F0CCCE87E891E217
:102B00008093EF209093F020C5CE809100218130FA
:102B100059F1823009F0BECE80911820867086303F
:102B200009F0B8CE109200211092012110920221DA
:102B30001092F32087E891E28093F1209093F220A5
:102B40008093EF209093F020A5CE80931420909353
:102B5000152040E450E04093122050931320E8E108
:102B6000F0E204E10693BCCF82E080930021609103
:102B7000EF203091F020409101215091022180916D
:102B8000FF2091E0813009F490E09093FF208823AA
:102B900079F4862F932F80931C2090931D204093CF
:102BA0001A2050931B20E8E1F0E202E2069372CE75
:102BB000862F932F809314209093152040931220FA
:102BC00050931320E8E1F0E204E1069363CE089508
:102BD000E0E6F6E088E08183858386E08093A609BD
:102BE0001092A709E0EAF9E0138288E1848383E088
:102BF00085830895BF92CF92DF92EF92FF920F9359
:102C00001F93CF93DF93D82EC92E7B01EA018981D0
:102C100085FFFDCF8DE088838FEF93ECA9E0815095
:102C20009040A040E1F700C0000085E790E2BE01BF
:102C3000EFDA8FEF93ECA9E081509040A040E1F7EC
:102C400000C00000ED2DFC2DDF010D900020E9F704
:102C5000CD018E1B9F0B09960E94402A182F092F29
:102C6000E82FF92FAFE7B0E28AE00D900192815092
:102C7000E1F7812F902F6D2D7C2D0E94582CE12F94
:102C8000F02FDF010D900020E9F7CD018E1B9F0B87
:102C900001960E94402AB92EC82ED92EC601612F56
:102CA000702F0E94632CAC2DBB2DFD0101900020E4
:102CB000E9F73197EA1BFB0BEC0DFD1D82E290E07A
:102CC00080839183C601BE01A3DA8FEF93ECA9E064
:102CD00081509040A040E1F700C00000C701BE0154
:102CE00097DA8FEF93ECA9E081509040A040E1F794
:102CF00000C00000898185FFFDCF8AE188838FEFC6
:102D000093ECA9E081509040A040E1F700C00000A2
:102D100081E0809300212FB7F8948091182086706D
:102D200009F043C02FBF82E0E0ECF4E0858736E095
:102D30009FB7F89480910021882379F180E09FBFAC
:102D4000882309F58091FE20882391F32FB7F8940A
:102D50001092F32087E891E28093F1209093F22083
:102D60008093EF209093F020E8E1F0E206E00593F5
:102D700008E0069310920021109201211092022186
:102D80001092FF202FBFDF91CF911F910F91FF90E5
:102D9000EF90DF90CF90BF9008958091F320232F84
:102DA000281B81E012165CF2C9CF3091F320131674
:102DB0000CF040C08091EF209091F0204091FF20D6
:102DC00051E0413009F450E05093FF20442319F5BD
:102DD00080931C2090931D2040E450E040931A20E3
:102DE00050931B20E8E1F0E202E206933150309369
:102DF000F320805C9F4F8093EF209093F020A3E21C
:102E000087389A0709F08ECF87E891E28093EF2008
:102E10009093F02087CF809314209093152040E466
:102E200050E04093122050931320E8E1F0E204E1D7
:102E30000693DCCF809100218130E1F0823009F0EF
:102E400071CF809118208670863009F06BCF109278
:102E5000002110920121109202211092F32087E8A4
:102E600091E28093F1209093F2208093EF20909351
:102E7000F02058CF82E0809300216091EF203091C4
:102E8000F02040910121509102218091FF2091E09A
:102E9000813011F19093FF20882379F4862F932FAE
:102EA00080931C2090931D2040931A2050931B2048
:102EB000E8E1F0E202E2069335CF862F932F80936C
:102EC0001420909315204093122050931320E8E192
:102ED000F0E204E1069326CF90E0DCCFBC0185E769
:102EE00090E296C9BC0189E890E292C9BC0184E9EC
:102EF00090E28EC9BC018EE990E28AC92F923F927E
:102F00004F925F926F927F928F929F92AF92BF92F9
:102F1000CF92DF92EF92FF920F931F93CF93DF93A5
:102F200000D0CDB7DEB74C018DB79EB789839A83A9
:102F300000D02DB63EB60894211C311CD401119648
:102F40008C91119785FFFACF81E48C9319EA612E59
:102F500010E2712E43E536E008E1E02E00E2F02EAB
:102F600087E8482E81E2582E12E091E0C92ED12C3C
:102F700020E4A22EB12C9FB7F894809100218823E1
:102F800039F180E09FBF8823B1F3809101219091B6
:102F90000221E091F120F091F220E80FF91F408327
:102FA0000196809301219093022180349105C1F014
:102FB000F3014191442309F43EC06114710409F402
:102FC0003AC03F019FB7F894809100218823C9F649
:102FD0008091F320232F281B81E012169CF2D1CF81
:102FE000BFB7F89410920121109202218091F32032
:102FF0008F5F8093F3208091F1209091F220805C8C
:103000009F4F8093F1209093F220E3E287389E0750
:1030100021F44092F1205092F220AFB7F8948091C1
:103020001820867009F097C0AFBFBFBFF301419170
:10303000442309F0C2CF81E0809300210E9438042C
:1030400082E0E0ECF4E0858736E09FB7F894809169
:103050000021882309F404C180E09FBF882309F57B
:103060008091FE20882389F32FB7F8941092F320E3
:1030700087E891E28093F1209093F2208093EF20F3
:103080009093F020E8E1F0E206E0059308E0069373
:103090001092002110920121109202211092FF2023
:1030A0002FBF8FEF93E2A4EFB0E081509040A0409B
:1030B000B040D9F700C000008DEA90E2B401A8D872
:1030C00021EB622E20E2722E40E536E058E1E52E3B
:1030D00050E2F52EE7E84E2EE1E25E2E12E0F1E03E
:1030E000CF2ED12CA0E4AA2EB12C9FB7F8948091BA
:1030F0000021882341F180E09FBF8823B1F38091B4
:10310000012190910221E091F120F091F220E80F4D
:10311000F91F40830196809301219093022180340E
:10312000910509F4A6C0F3014191442309F4CCC0F0
:103130006114710409F4C8C03F019FB7F8948091ED
:1031400000218823C1F68091F320232F281B81E0E2
:10315000121694F2D0CF2091F32012160CF03CC03E
:103160004091EF205091F0206091FF20862F90E059
:1031700071E08C159D0509F470E07093FF206623C3
:10318000F9F440931C2050931D20A0921A20B09275
:103190001B20F70102E2069321502093F320CA017D
:1031A000805C9F4F8093EF209093F020F3E287386C
:1031B0009F0709F039CF4092EF205092F02034CF92
:1031C0004093142050931520A0921220B092132007
:1031D000F70104E10693E0CF809100218130D1F026
:1031E000823009F021CF809118208670863009F056
:1031F0001BCF1092002110920121109202211092F7
:10320000F3204092F1205092F2204092EF20509211
:10321000F0200ACF109300217091EF20E091F02070
:1032200040910121509102216091FF20862F90E072
:1032300021E08C159D0509F420E02093FF20872FC5
:103240009E2F662309F059C180931C2090931D2066
:1032500040931A2050931B20F70102E20693E4CE1C
:103260008091F320232F281B81E012160CF4F5CE59
:10327000F3CEBFB7F89410920121109202218091F1
:10328000F3208F5F8093F3208091F1209091F220C2
:10329000805C9F4F8093F1209093F220A3E28738C7
:1032A0009A0721F44092F1205092F220AFB7F8949F
:1032B00080911820867009F09BC0AFBFBFBFF3019B
:1032C0004191442309F034CF81E0809300210E9492
:1032D000380482E0E0ECF4E0858736E09FB7F894AC
:1032E00080910021882309F414C180E09FBF8823C6
:1032F00009F58091FE20882389F32FB7F894109266
:10330000F32087E891E28093F1209093F22080935C
:10331000EF209093F020E8E1F0E206E0059308E06A
:103320000693109200211092012110920221109216
:10333000FF202FBF8FEF93ECA9E081509040A04079
:10334000E1F700C00000D40111968C91119787FF1E
:10335000FACF4C91F10140831182442309F40DC14D
:1033600051010894A11CB11C36E0A8E1B0E217E8B5
:10337000412E11E2512E12E001E0E02EF12C80E40A
:10338000C82ED12C9FB7F89480910021882341F159
:1033900080E09FBF8823B1F38091012190910221A9
:1033A000E091F120F091F220E80FF91F408301969F
:1033B00080930121909302218034910509F4B2C0D9
:1033C000F5014191442309F4D8C0A114B10409F4D2
:1033D000D4C05F019FB7F894809100218823C1F683
:1033E0008091F320232F281B81E0121694F2D0CF76
:1033F0002091F32012160CF03CC04091EF20509128
:10340000F0206091FF20862F90E071E08C159D05E3
:1034100009F470E07093FF206623F9F440931C20B8
:1034200050931D20A0921A20B0921B20F70102E2B7
:10343000069321502093F320CA01805C9F4F809314
:10344000EF209093F020F3E287389F0709F035CF03
:103450004092EF205092F02030CF409314205093B0
:103460001520A0921220B0921320F70104E10693D8
:10347000E0CF809100218130D1F0823009F01DCF62
:10348000809118208670863009F017CF10920021A5
:1034900010920121109202211092F3204092F1200B
:1034A0005092F2204092EF205092F02006CF1093DD
:1034B00000217091EF20E091F02040910121509186
:1034C00002216091FF20862F90E021E08C159D0560
:1034D00009F420E02093FF20872F9E2F662309F018
:1034E00029C480931C2090931D2040931A20509350
:1034F0001B20F70102E20693E0CE80931420909304
:1035000015204093122050931320F70104E10693F5
:103510008BCD8091F320232F281B81E012160CF411
:10352000E5CEE3CE6FB6F8941092012110920221FD
:103530008091F3208F5F8093F3208091F120909110
:10354000F220805C9F4F8093F1209093F220F3E271
:1035500087389F0721F44092F1205092F2206FB7F4
:10356000F89480911820867009F08BC06FBF6FBEF1
:10357000F5014191442309F028CF81E08093002197
:103580000E94380482E0E0ECF4E0858736E09FB7E3
:10359000F89480910021882309F4F6C080E09FBF51
:1035A000882309F58091FE20882389F32FB7F894AA
:1035B0001092F32087E891E28093F1209093F2201B
:1035C0008093EF209093F020E8E1F0E206E005938D
:1035D00008E006931092002110920121109202211E
:1035E0001092FF202FBF85E790E2B4010E940811DE
:1035F00046EBA42E40E2B42E44E536E0A8E1B0E26A
:1036000057E8452E51E2552E12E0E1E0EE2EF12C66
:10361000F0E4CF2ED12C9FB7F8948091002188231D
:1036200041F180E09FBF8823B1F380910121909107
:103630000221E091F120F091F220E80FF91F408380
:10364000019680930121909302218034910509F421
:10365000A4C0F5014191442309F4CAC0A114B104E6
:1036600009F4C6C05F019FB7F894809100218823B8
:10367000C1F68091F320232F281B81E0121694F2CB
:10368000D0CF2091F32012160CF03CC04091EF20D7
:103690005091F0207091FF20872F90E0E1E08E158F
:1036A0009F0509F4E0E0E093FF207723F9F44093CD
:1036B0001C2050931D20C0921A20D0921B20FD0187
:1036C00002E2069321502093F320CA01805C9F4FB1
:1036D0008093EF209093F020F3E287389F0709F062
:1036E00045CF4092EF205092F02040CF40931420DD
:1036F00050931520C0921220D0921320FD0104E1B6
:103700000693E0CF809100218130D1F0823009F022
:103710002DCF809118208670863009F027CF109227
:10372000002110920121109202211092F320409268
:10373000F1205092F2204092EF205092F02016CFCC
:1037400010930021E091EF20F091F02040910121B1
:10375000509102217091FF20872F90E021E08E157B
:103760009F0509F420E02093FF20772309F006C38A
:10377000E0931C20F0931D2040931A2050931B20AF
:10378000FD0102E20693F2CE8091F320232F281B45
:1037900081E012160CF403CF01CF6FB6F8941092AB
:1037A0000121109202218091F3208F5F8093F320FA
:1037B0008091F1209091F220805C9F4F8093F120C6
:1037C0009093F220F3E287389F0721F44092F12092
:1037D0005092F2206FB7F89480911820867009F00B
:1037E0009AC06FBF6FBEF5014191442309F036CFF7
:1037F00081E0809300215FB7F89480911820867053
:1038000009F021C25FBF82E0E0ECF4E0858736E09A
:103810009FB7F89480910021882309F4FFC080E0CD
:103820009FBF882309F58091FE20882389F32FB755
:10383000F8941092F32087E891E28093F12090931E
:10384000F2208093EF209093F020E8E1F0E206E090
:10385000059308E006931092002110920121109226
:1038600002211092FF202FBF8FEF9FE1AEE4815025
:103870009040A040E1F700C000008FEB90E2B4015F
:103880000E940811FAECAF2EF0E2BF2E23E446E0CE
:10389000A8E1B0E217E8612E11E2712E12E001E01A
:1038A000E02EF12C30E4C32ED12C9FB7F8948091F8
:1038B0000021882341F180E09FBF8823B1F38091EC
:1038C000012190910221E091F120F091F220E80F86
:1038D000F91F208301968093012190930221803467
:1038E000910509F4A4C0F5012191222309F4CAC06D
:1038F000A114B10409F4C6C05F019FB7F894809188
:1039000000218823C1F68091F320342F381B81E0F9
:10391000131694F2D0CF2091F32012160CF03CC075
:103920004091EF205091F0207091FF20872F90E080
:10393000E1E08E159F0509F4E0E0E093FF20772396
:10394000F9F440931C2050931D20C0921A20D0926D
:103950001B20FD0102E2069321502093F320CA01AF
:10396000805C9F4F8093EF209093F020F3E28738A4
:103970009F0709F036CF4092EF205092F02031CFD0
:103980004093142050931520C0921220D0921320FF
:10399000FD0104E10693E0CF809100218130D1F058
:1039A000823009F01ECF809118208670863009F091
:1039B00018CF109200211092012110920221109232
:1039C000F3204092F1205092F2204092EF2050924A
:1039D000F02007CF10930021E091EF20F091F0202C
:1039E00040910121509102217091FF20872F90E09A
:1039F00021E08E159F0509F420E02093FF20772316
:103A000009F0A4C1E0931C20F0931D2040931A20DC
:103A100050931B20FD0102E20693E3CE8091F32038
:103A2000232F281B81E012160CF4FACEF8CE8FB6A5
:103A3000F89410920121109202218091F3208F5F5F
:103A40008093F3208091F1209091F220805C9F4F31
:103A50008093F1209093F220E3E287389E0721F4CF
:103A60006092F1207092F2206FB7F8948091182044
:103A7000867009F065C06FBF8FBEF50121912223CA
:103A800009F036CF81E0809300215FB7F8948091F0
:103A90001820867009F017C15FBF82E0E0ECF4E007
:103AA000858736E09FB7F89480910021882309F438
:103AB00001C180E09FBF882309F58091FE20882303
:103AC00089F32FB7F8941092F32087E891E280935E
:103AD000F1209093F2208093EF209093F020E8E182
:103AE000F0E206E0059308E00693109200211092A0
:103AF0000121109202211092FF202FBF8FEF97EA31
:103B0000A1E681509040A040E1F700C00000A981EB
:103B1000BA81ADBFBEBF0F900F90DF91CF911F91C3
:103B20000F91FF90EF90DF90CF90BF90AF909F905C
:103B30008F907F906F905F904F903F902F9008955F
:103B40005091F32015160CF03CC02091EF203091DD
:103B5000F0207091FF20872F90E0E1E08E159F0507
:103B600009F4E0E0E093FF207723F9F420931C2090
:103B700030931D20C0921A20D0921B20FD0102E23A
:103B8000069351505093F320C901805C9F4F80935E
:103B9000EF209093F020F3E287389F0709F06BCF76
:103BA0006092EF207092F02066CF20931420309323
:103BB0001520C0921220D0921320FD0104E106933B
:103BC000E0CF809100218130D1F0823009F053CFD5
:103BD000809118208670863009F04DCF1092002118
:103BE00010920121109202211092F3206092F12094
:103BF0007092F2206092EF207092F0203CCF1093F0
:103C00000021E091EF20F091F020209101213091EE
:103C100002217091FF20872F90E051E08E159F05C3
:103C200009F450E05093FF20772309F09BC0E09304
:103C30001C20F0931D2020931A2030931B20FD019F
:103C400002E2069318CF4091F32014160CF0E0C066
:103C50008091EF209091F0202091FF2031E02130E1
:103C600009F430E03093FF20222309F093C08093C1
:103C70001C2090931D2020E430E020931A203093E4
:103C80001B20E8E1F0E202E2069341504093F3206A
:103C9000805C9F4F8093EF209093F020F3E2873871
:103CA0009F0709F0AFCD87E891E28093EF209093D2
:103CB000F020A8CD8091F320232F281B81E012163D
:103CC0000CF4F8CEF6CE4091F32014160CF080C020
:103CD0008091EF209091F0202091FF2031E0213061
:103CE00009F430E03093FF20222309F062C0809372
:103CF0001C2090931D2020E430E020931A20309364
:103D00001B20E8E1F0E202E2069341504093F320E9
:103D1000805C9F4F8093EF209093F020F3E28738F0
:103D20009F0709F0B9CE87E891E28093EF20909346
:103D3000F020B2CE8093142090931520409312204F
:103D400050931320F70104E10693B7CAE0931420BF
:103D5000F09315204093122050931320FD0104E1AD
:103D600006933FCDE0931420F0931520209312206A
:103D700030931320FD0104E106937DCEE0931420DF
:103D8000F09315204093122050931320FD0104E17D
:103D90000693ECCB809314209093152020E430E020
:103DA0002093122030931320E8E1F0E204E106931F
:103DB0006CCF809314209093152020E430E0209362
:103DC000122030931320E8E1F0E204E106939DCF46
:103DD000809100218130E9F1823009F05DCE80913F
:103DE00018208670863009F057CE1092002110926C
:103DF0000121109202211092F32087E891E2809332
:103E0000F1209093F2208093EF209093F02044CE05
:103E100080910021813009F440C0823009F0F2CC59
:103E2000809118208670863009F0ECCC1092002129
:103E300010920121109202211092F32087E891E262
:103E40008093F1209093F2208093EF209093F020C4
:103E5000D9CC82E0809300216091EF204091F02046
:103E600080910121909102212091FF2031E02130A9
:103E700009F430E03093FF20222399F5262F342FC8
:103E800020931C2030931D2080931A2090931B2098
:103E9000E8E1F0E202E20693FFCD82E080930021A8
:103EA0006091EF204091F0208091012190910221BA
:103EB0002091FF2031E0213009F430E03093FF20E1
:103EC0002223F1F4262F342F20931C2030931D2021
:103ED00080931A2090931B20E8E1F0E202E206931F
:103EE00091CC262F342F20931420309315208093CB
:103EF000122090931320E8E1F0E204E10693CCCD88
:103F0000262F342F209314203093152080931220D5
:103F100090931320E8E1F0E204E1069373CC0F9351
:103F20001F93CF93DF939C01A5E0B1E28D0185E45F
:103F300091E2FD01119241E2E534F407D9F71092C4
:103F4000FB20F901C081D0E0C076D070C034D1052B
:103F500031F080E0DF91CF911F910F910895418161
:103F6000463109F4E7C0473108F14B3B09F490C0F2
:103F70004C3B08F048C0473161F70480F581E02DE3
:103F800080818093052181818093062100930C20FC
:103F900010930D2082E090E080930A2090930B20F4
:103FA000E8E0F0E202E2069381E0D4CF423009F487
:103FB000A0C0433068F4442361F684819581009762
:103FC00009F4C9C08130910509F4BDC081E0C2CFB8
:103FD0004830A9F1493009F0BCCF0480F581E02DCB
:103FE00080818093052100930C2010930D2081E0A7
:103FF00090E080930A2090930B20E8E0F0E202E248
:10400000069381E0A7CF403E19F1413E09F0A1CFD0
:104010004093FB2084818093FA2000930C2010931E
:104020000D2010920A2010920B20E8E0F0E202E24C
:10403000069381E0DF91CF911F910F910895D901EF
:104040000480F581E02D12968C9112978083E5CF44
:10405000F9016481758100247695679507947695BA
:1040600067950794762F602D85E091E240E450E05B
:104070000E94462D00930C2010930D20C0930A201F
:10408000D0930B20E8E0F0E202E2069381E062CFF9
:10409000F89400930C2010930D2010920A20109297
:1040A0000B20E8E0F0E202E20693389702E706937D
:1040B0008091002085FFFCCF8FEF99EFA0E0815029
:1040C0009040A040E1F700C000008091C1048E7FC5
:1040D000E0ECF4E081838FEF93ECA9E08150904015
:1040E000A040E1F700C00000ECEFF7E4099581E0A3
:1040F00031CF3091872320918823C32FD22FFE0107
:1041000001900020E9F73197E31B29912D938A173D
:104110009B07D9F78E2F90E000930C2010930D2071
:1041200080930A2090930B20E8E0F0E202E20693ED
:1041300081E010CFF901828193810480F581E02D27
:10414000808391836ACF87E492E06BE070E00E9405
:104150008D0281E0FFCE82E592E06BE070E00E948C
:104160008D0281E0F7CE462F2091FB20213E09F001
:1041700008952091FA2030E0002436952795079481
:10418000369527950794322F202DB90150E00C94D5
:10419000512D9230F9F09330A1F0913049F080E048
:1041A00090E0E0E0F0E0DA01ED93FC9311970895E0
:1041B00082E190E0E5EBF2E0DA01ED93FC931197F8
:1041C0000895813081F0813098F4E1E9F2E0849142
:1041D00090E0E9CF80E290E0E5E9F2E0DA01ED93EA
:1041E000FC9311970895E3E7F2E0849190E0DBCF30
:1041F0008230A9F6EDE5F2E0849190E0D4CF0E9400
:10420000B2020E942302E0ECF4E082E4808783E0C3
:104210008187E0EAF0E0828378940E94421381E093
:10422000809300211FB7F8947091F3208091EF20C4
:104230009091F020E091FF206091002120910121D8
:10424000309102214091F1205091F220F0911820FC
:10425000F67009F0AEC0A8E1B0E2C7E8D1E21FBF36
:1042600082E0E0ECF4E0858796E02FB7F894809147
:10427000F320392F381B81E013160CF080E03091C9
:104280000021311180E02FBF8823F1F48091FE20BE
:10429000882359F38FB7F8941092F320C093F1203C
:1042A000D093F220C093EF20D093F020FD0106E0E0
:1042B000059308E0069310920021109201211092BC
:1042C00002211092FF208FBFAA24BB2446E032E0D7
:1042D000932E51E0E52EF12C60E4C62ED12CF4E6AD
:1042E000AF16B10464F58091A10987FFFCCF20913E
:1042F000A0099FB7F89480910021882309F4ADC0EC
:1043000080E09FBF8823A9F3809101219091022131
:10431000E091F120F091F220E80FF91F208301963F
:1043200080930121909302218034910509F49EC06D
:104330000894A11CB11CF4E6AF16B104A4F281E00C
:10434000809300211FB7F89480911820867009F09F
:104350004FC11FBF9092CD049FB7F8948091002168
:10436000882309F436C180E09FBF882309F03DC14E
:104370008091FE20882381F38FB7F8941092F32068
:10438000C093F120D093F220C093EF20D093F0207F
:10439000FD0106E0059308E00693109200211092BB
:1043A0000121109202211092FF208FBFAA24BB246A
:1043B00096CF17169CF5C1E0E13009F4C0E0EE237A
:1043C00009F03BC080931C2090931D20E0E4F0E0B6
:1043D000E0931A20F0931B20A8E1B0E2FD0102E275
:1043E00006937150805C9F4FEC2FF3E287389F0754
:1043F00001F1C7E8D1E27093F3208093EF2090930E
:10440000F020E093FF20609300212093012130935E
:104410000221EFEEF0E24283538321CF613009F4B1
:1044200077C1623009F463C1A8E1B0E2C7E8D1E224
:10443000E2CF87E891E2EC01DECF809314209093E5
:104440001520E0E4F0E0E0931220F0931320A8E1BF
:10445000B0E2FD0104E10693C4CF8091F320342F34
:10446000381B81E013160CF44CCF4ACF1FB7F894D9
:1044700010920121109202218091F3208F5F80938E
:10448000F3208091F1209091F220805C9F4F8093E7
:10449000F1209093F220F3E287389F0721F4C09334
:1044A000F120D093F2205FB7F894809118208670A5
:1044B00019F45FBF1FBF3CCF6091F32016160CF0BC
:1044C0003BC02091EF203091F0207091FF20872F8A
:1044D00090E0E1E08E159F0509F4E0E0E093FF2015
:1044E0007723F1F420931C2030931D20C0921A20D2
:1044F000D0921B20FD0102E2069361506093F320ED
:10450000C901805C9F4F8093EF209093F020F3E2ED
:1045100087389F0771F6C093EF20D093F020C9CF62
:104520002093142030931520C0921220D092132093
:10453000FD0104E10693E1CF809100218130D1F0AB
:10454000823009F0B6CF809118208670863009F04D
:10455000B0CF1092002110920121109202211092EE
:10456000F320C093F120D093F220C093EF20D0939A
:10457000F0209FCF90920021E091EF20F091F02069
:1045800020910121309102217091FF20872F90E02E
:1045900061E08E159F0509F460E06093FF207723AA
:1045A00061F4E0931C20F0931D2020931A20309397
:1045B0001B20FD0102E206937CCFE0931420F093D0
:1045C00015202093122030931320FD0104E106935F
:1045D00070CF8091F320242F281B81E012160CF05D
:1045E000C2CE9FBF882309F4C3CEAA24BB2477CEB2
:1045F0007091F320171684F52091EF203091F02070
:104600006091FF20862F90E051E08E159F0509F400
:1046100050E05093FF206623C9F520931C2030936F
:104620001D20C0921A20D0921B20FD0102E20693A9
:1046300071507093F320C901805C9F4F8093EF20ED
:104640009093F020F3E287389F0709F082CEC09361
:10465000EF20D093F0207DCE80910021813011F1A8
:10466000823009F076CE809118208670863009F06D
:1046700070CE10920021109201211092022110920E
:10468000F320C093F120D093F220E1CF20931420A7
:1046900030931520C0921220D0921320FD0104E126
:1046A0000693C6CF909200217091EF20E091F02008
:1046B00020910121309102216091FF20862F90E00E
:1046C00051E08E159F0509F450E05093FF20872F8D
:1046D0009E2F6623A1F580931C2090931D2020938C
:1046E0001A2030931B20FD0102E2069332CEF09196
:1046F0001820F670F63009F097CE47E851E220E036
:1047000030E060E0EA01CA0170E0A8E1B0E273CEF7
:10471000E13009F460E0EE23F1F480931C209093E3
:104720001D2020931A2030931B20A8E1B0E2FD0148
:1047300002E20693E62F62E0C7E8D1E25CCE809306
:104740001420909315202093122030931320FD0104
:1047500004E10693FECD80931420909315202093BE
:10476000122030931320A8E1B0E2FD0104E106938A
:10477000E62F62E0C7E8D1E23ECEA5E1B0E0E2EC90
:10478000F3E24DC64C016E877F87FC0116821782CB
:10479000838181FD04C05AC34C855D8504C01E0120
:1047A0000894211C311CF4019381EE85FF8593FD53
:1047B000859193FF8191EE87FF87882309F442C397
:1047C000853241F493FD859193FF8191EE87FF87B8
:1047D000853259F490E0B4014C8B5D8B0E949C2C87
:1047E0004C895D894C875D87D7CFFF24DD2410E09D
:1047F0001032B0F48B3269F08C3228F4803251F0F0
:10480000833271F40BC08D3239F0803349F411607A
:104810002CC01260146029C0186027C0106125C028
:1048200017FD2EC0282F20532A3098F416FF08C0F9
:104830008F2D880FF82EFF0CFF0CF80EF20E15C00E
:104840008D2D880FD82EDD0CDD0CD80ED20E106207
:104850000CC08E3221F416FDF5C2106406C08C36F1
:1048600011F4106802C0883659F4EE85FF8593FD77
:10487000859193FF8191EE87FF87882309F0B8CF58
:10488000982F9554933018F41061805E06C0982FCD
:104890009556933008F092C11F7E16FD02C0E6E0E7
:1048A000FE2E1F73853611F4106406C0863611F48F
:1048B000106802C0F110FA9417FF07C0FBE3FF1560
:1048C00048F0EF2CE39427E00DC027E02F1530F0DF
:1048D0002F2D07C027E07CE3E72E04C027E067E028
:1048E000F62EEE24CA0104968C879D87FA0160811A
:1048F000718182819381A1010E2DF4D65C01C98062
:104900002C2D30E0288B398BC0FE03C0388933FF53
:1049100006C011FD06C012FF06C000E205C00DE290
:1049200003C00BE201C000E0888999898C70907007
:10493000009709F439C0002311F084E001C083E03E
:104940008D1550F4D81A13FD08C080E290E0B40130
:10495000F3D7DA94D1F701C0DD24002321F0802FB2
:1049600090E0B401E9D7888983FD05C03BECE32ED4
:1049700032E0F32E10C027ECE22E22E0F22E0BC024
:104980000115110509F0805290E0B401D5D70894C3
:10499000E11CF11C04C0012F10E000711070F70140
:1049A0008491882369F74BC217FF0EC0EA0CF8897F
:1049B000F4FF04C08A81813309F4EA941E144CF593
:1049C00028E02E1548F12CC016FD2AC08F2D90E04E
:1049D0008A159B0544F03CEFA3163FEFB3061CF08D
:1049E000106801C0FA94FF2049F0E2E0F0E0EC0F1B
:1049F000FD1FEF0DF11D80818033A1F317FF10C063
:104A0000EF2CE3948F2D90E0A816B90644F4FA1821
:104A100007C0EE24E39404C098E0E92E01C0FF240F
:104A200017FF07C01A141B043CF495012F5F3F4F7A
:104A300005C025E030E002C021E030E0002311F0A5
:104A40002F5F3F4FFF2029F08F2D90E00196280F18
:104A5000391F8D2D90E02817390714F4D21A01C0A0
:104A6000DD24612E7724C30189709070009741F492
:104A700005C080E290E0B4015FD7DA94DD20C9F789
:104A8000002321F0802F90E0B40156D763FC08C0CA
:104A900005C080E390E0B4014FD7DA94DD20C9F778
:104AA00017FF46C08501B7FE02C000E010E0662493
:104AB000772495012E1931092A8B3B8B2501401A49
:104AC000510A420C531C6F2D70E0EE24FF24E61AAD
:104AD000F70A3FEF0F3F130721F48EE290E0B40195
:104AE0002BD7A016B10654F02A893B89201731072D
:104AF0002CF4F201E60DF71D818101C080E3015025
:104B000010400894611C711C0E151F0524F090E0E4
:104B1000B40112D7DECF0A151B0541F49A819633F2
:104B200020F4953319F4388934FF81E390E043C0D1
:104B30008A81813311F09FEEC92290E0B401FCD646
:104B4000FF2079F08EE290E0B401F6D612E0F10198
:104B5000E10FF11D1F5F808190E0B401EDD6FA9462
:104B6000B1F764FE03C085E490E002C085E690E002
:104B7000B401E2D6B7FC05C0A114B10441F4C4FEEF
:104B800006C0B094A194B108B3948DE201C08BE249
:104B900090E0B401D1D680E305C08F5FE6EFFFEF70
:104BA000AE0EBF1EFAE0AF16B104BCF790E0B40140
:104BB000C3D6C501C096B401BFD641C1833631F01A
:104BC000833789F0833509F055C021C09A012E5FE3
:104BD0003F4F2C873D87FA018081898381E0E82E51
:104BE000F12C510112C09A012E5F3F4F2C873D8757
:104BF000FA01A080B18016FF03C06F2D70E002C0E3
:104C00006FEF7FEFC50166D67C011F7713C09A0155
:104C10002E5F3F4F2C873D87FA01A080B18016FFA1
:104C200003C06F2D70E002C06FEF7FEFC50132D679
:104C30007C01106813FD1AC005C080E290E0B40149
:104C40007BD6DA948D2D90E0E816F906B0F30EC00D
:104C5000F50117FD859117FF81915F0190E0B40187
:104C60006BD6D110DA940894E108F108E114F1044C
:104C700079F7E5C0843611F0893669F59A0117FF96
:104C80000AC02C5F3F4F2C873D87FA0180819181BC
:104C9000A281B3810BC02E5F3F4F2C873D87FA0165
:104CA00080819181AA2797FDA095BA2F012F0F76B9
:104CB000B7FF08C0B095A095909581959F4FAF4FD5
:104CC000BF4F0068BC01CD01A1012AE030E080D6D1
:104CD000E82EE21840C0853721F41F7E2AE030E03C
:104CE00020C0197F8F36A9F0803720F4883509F06D
:104CF000A9C00BC0803721F0883709F0A3C001C0DC
:104D0000106114FF09C0146007C014FF08C01660CA
:104D100006C028E030E005C020E130E002C020E11C
:104D200032E0CA0117FF09C004968C879D87FA01FB
:104D3000608171818281938108C002968C879D87F2
:104D4000FA016081718180E090E0A10141D6E82EF6
:104D5000E218012F0F7706FF09C00E7FEF1430F421
:104D600004FF06C002FD04C00F7E02C01E2D01C05C
:104D70001F2D802F90E004FF0CC0FE01EE0DF11DF1
:104D80002081203311F4097E09C002FF06C01E5F96
:104D900005C086789070009709F01F5FA02EBB2495
:104DA00003FD11C000FF0CC0FE2C1D1548F4FD0CC6
:104DB000F11A1D2D05C080E290E0B401BDD51F5F42
:104DC0001D15C8F304C01D1510F4D11A01C0DD244F
:104DD000A4FE0EC080E390E0B401AED5A2FE1DC0DB
:104DE000A1FE03C088E590E010C088E790E00DC008
:104DF000C50186789070009781F0A1FC02C080E226
:104E000001C08BE207FD8DE290E0B40195D505C0AD
:104E100080E390E0B40190D5FA94EF14C8F3EA94DB
:104E2000F101EE0DF11D808190E0B40185D5EE20F9
:104E3000B1F705C080E290E0B4017ED5DA94DD20C0
:104E4000C9F7AACCF4018681978102C08FEF9FEF4A
:104E50006596E2E1FDC25058BB27AA270ED091C14A
:104E60005AD130F05FD120F031F49F3F11F41EF49D
:104E70002AC10EF4E095E7FB20C1E92FA4D180F30D
:104E8000BA17620773078407950718F071F49EF547
:104E9000BCC10EF4E0950B2EBA2FA02D0B01B90169
:104EA00090010C01CA01A0011124FF27591B99F0A0
:104EB000593F50F4503E68F11A16F040A22F232FAC
:104EC000342F4427585FF3CF469537952795A795FC
:104ED000F0405395C9F77EF41F16BA0B620B730BA3
:104EE000840BBAF09150A1F0FF0FBB1F661F771F14
:104EF000881FC2F70EC0BA0F621F731F841F48F4C9
:104F0000879577956795B795F7959E3F08F0B3CF4E
:104F10009395880F08F09927EE0F97958795089538
:104F2000FAD058F080E891E009F49EEFFBD028F029
:104F300040E851E059F45EEF09C0C5C066C1E92FF1
:104F4000E07841D168F3092E052AC1F32617370707
:104F50004807590738F00E2E07F8E02569F0E025DC
:104F6000E0640AC0EF6307F8009407FADB01B901B7
:104F70009D01DC01CA01AD01EF9346D002D10AD0F8
:104F80005F91552331F02BED3FE049E450FD49ECB2
:104F900063CF0895DF93DD27B92FBF7740E85FE344
:104FA0001616170648075B0710F4D92F39D19F93BF
:104FB0008F937F936F93E6D1ECEFF1E087D0E1D050
:104FC0002F913F914F915F913ED1DD2349F0905851
:104FD000A2EA2AED3FE049EC5FE3D0785D274DDFA0
:104FE000DF91CFC0A7D0E395DDC00CD0CAC09AD066
:104FF00040F091D030F021F45F3F19F05EC05111C4
:1050000005C161C0E0D098F39923C9F35523B1F3EA
:10501000951B550BBB27AA2762177307840738F027
:105020009F5F5F4F220F331F441FAA1FA9F333D086
:105030000E2E3AF0E0E830D091505040E695001C3A
:10504000CAF729D0FE2F27D0660F771F881FBB1FF6
:10505000261737074807AB07B0E809F0BB0B802DD0
:10506000BF01FF2793585F4F2AF09E3F510568F01C
:1050700024C0CCC05F3FECF3983EDCF38695779577
:105080006795B795F7959F5FC9F7880F911D96951E
:10509000879597F90895E1E0660F771F881FBB1F7A
:1050A000621773078407BA0720F0621B730B840B27
:1050B000BA0BEE1F88F7E095089597F99F6780E88F
:1050C00070E060E008959FEF80EC0895DF93CF9348
:1050D0001F930F93FF92EF92DF927B018C016894F4
:1050E00005C0DA2EEF01AFD0FE01E894A59125911D
:1050F000359145915591AEF3EF01BFDEFE01970169
:10510000A801DA9479F7DF90EF90FF900F911F914B
:10511000CF91DF91089500240A94161617061806F9
:105120000906089500240A941216130614060506AB
:105130000895C9CF50D0E8F3E894E0E0BB279F572B
:10514000F0F02AED3FE049EC06C0EE0FBB0F661F02
:10515000771F881F28F0B23A62077307840728F088
:10516000B25A620B730B840BE3959A9572F78038F1
:1051700030F49A95BB0F661F771F881FD2F79048AF
:105180002AC1092E0394000C11F4882352F0BB0F9E
:1051900040F4BF2B11F460FF04C06F5F7F4F8F4F4F
:1051A0009F4F0895EF93E0FF06C0A2EA2AED3FE08B
:1051B00049EC5FEB62DEE5DF0F90039401FC905851
:1051C000E9E2F2E01BC157FD9058440F551F59F01A
:1051D0005F3F71F04795880F97FB991F61F09F3FE4
:1051E00079F087950895121613061406551FF2CF0D
:1051F0004695F1DF08C0161617061806991FF1CF5D
:1052000086957105610508940895E894BB27662783
:105210007727CB0197F90895B8D008F48FEF089558
:105220009B01AC0160E070E080E89FE3DECE0BD034
:10523000A8CF71DF28F076DF18F0952309F03DCF75
:1052400042CF1124E3CFBFDFA0F3959FD1F3950F99
:1052500050E0551F629FF001729FBB27F00DB11DFA
:10526000639FAA27F00DB11DAA1F649F6627B00D8A
:10527000A11D661F829F2227B00DA11D621F739F73
:10528000B00DA11D621F839FA00D611D221F749F81
:105290003327A00D611D231F849F600D211D822FC8
:1052A000762F6A2F11249F5750408AF0E1F088230F
:1052B0004AF0EE0FFF1FBB1F661F771F881F91501C
:1052C0005040A9F79E3F510570F0F7CE9FCF5F3F4A
:1052D000ECF3983EDCF3869577956795B795F7954F
:1052E000E7959F5FC1F7FE2B880F911D96958795D7
:1052F00097F908959F931EDF0F9007FCEE5F52CF42
:1053000011F40EF4E0CE65C066DFD0F39923D9F333
:10531000CEF39F57550B87FF6AD00024A0E640EAE2
:10532000900180585695979528F4805C660F771FFA
:10533000881F20F026173707480730F4621B730BCD
:10534000840B202931294A2BA695179407942025F0
:1053500031254A2758F7660F771F881F20F0261738
:105360003707480730F4620B730B840B200D311D97
:10537000411DA09581F7B901842F9158880F96950A
:10538000879508959B01AC0152CF990F0008550FE6
:10539000AA0BE0E8FEEF16161706E807F907C0F0BB
:1053A00012161306E407F50798F0621B730B840BC3
:1053B000950B39F40A2661F0232B242B252B21F49D
:1053C00008950A2609F4A140A6958FEF811D811D3D
:1053D00008959F3F31F0915020F487957795679518
:1053E000B795880F911D9695879597F908959150D7
:1053F0005040660F771F881FD2F708959F938F93B1
:105400007F936F93FF93EF939B01AC0110DFEF91BC
:10541000FF915CDE2F913F914F915F9108CF2F92CA
:105420003F924F925F926F927F928F929F92AF9234
:10543000BF92CF92DF92EF92FF920F931F93CF9381
:10544000DF93CDB7DEB7CA1BDB0BCDBFDEBF099440
:105450002A88398848885F846E847D848C849B8404
:10546000AA84B984C884DF80EE80FD800C811B8112
:10547000AA81B981CE0FD11DCDBFDEBFED01089548
:10548000CF93DF93AC018230910510F442E050E0FD
:10549000E0918D23F0918E2320E030E0A0E0B0E099
:1054A00024C08081918184179507D0F084179507D7
:1054B00071F482819381109729F012968D939C93B9
:1054C00013972CC080938D2390938E2327C0211592
:1054D000310519F08217930718F49C01BD01EF0103
:1054E00092818381DF01E92FF82F3097D1F62115C2
:1054F0003105F9F0C901841B950B8430910580F4C6
:105500008A819B816115710521F0FB018283938360
:1055100004C080938D2390938E23FE01329642C067
:10552000FE01E80FF91F41935193029788839983F5
:1055300039C080918B2390918C23009741F4809106
:10554000F6209091F72080938B2390938C232091C9
:10555000F4203091F5202115310541F42DB73EB7E7
:105560008091F8209091F920281B390BE0918B2332
:10557000F0918C23E217F30798F42E1B3F0B2417AE
:10558000350770F0CA0102962817390748F08E0FC8
:105590009F1F80938B2390938C234193519302C040
:1055A000E0E0F0E0CF01DF91CF9108950F931F93DA
:1055B000CF93DF939C01009709F48CC0DC01129714
:1055C00012961D921C92139760918D2370918E23D9
:1055D0006115710589F48D919C911197820F931F2C
:1055E00020918B2330918C232817390769F5A093DC
:1055F0008B23B0938C236EC0FB0140E050E001C0D0
:10560000FC01EA17FB0730F482819381AF01009718
:10561000B9F71FC0E9012297EA83FB83088119814A
:10562000C901800F911F8E179F0759F480819181C6
:10563000800F911F029688839983828193818A8348
:105640009B834115510529F4A0938D23B0938E239C
:1056500041C0FA01A283B383C191D191EC0FFD1F28
:10566000AE17BF0781F4F901929182918C0F9D1FB3
:105670000296DA018D939C93119782819381129601
:105680008D939C931397E0E0F0E002C0FB01BC0116
:10569000DB0112968D919C9113970097B9F7CB017E
:1056A00002962D913C911197820F931F20918B238D
:1056B00030918C232817390769F4309729F4109218
:1056C0008D2310928E2302C01282138260938B234B
:1056D00070938C23DF91CF911F910F9108956627CE
:1056E00077272AC2283008F027E03327DA01990FFC
:1056F000311D87FD916000966105710539F43260B6
:105700002E5F3D9330E32A95E1F708959F3F30F0F7
:1057100080387105610509F03C5F3C5F3D93913035
:1057200008F08068911DDF93CF931F930F93FF9232
:10573000EF92192F987F9695E92F96959695E90FF8
:10574000FF27E75DFC4F99273327EE24FF24A701AD
:10575000E70105900894079428F4360FE71EF81E19
:10576000491F511D660F771F881F991F0694A1F7C7
:105770000590079428F4E70EF81E491F561FC11D17
:10578000770F881F991F661F0694A1F7059007944D
:1057900028F4F80E491F561FC71FD11D880F991FE7
:1057A000661F771F0694A1F70590079420F4490F10
:1057B000561FC71FD81F990F661F771F881F069493
:1057C000A9F784911095177041F0D695C795579514
:1057D0004795F794E7941A95C1F7EFECF2E06894D7
:1057E0001590159135916591959105907FE273958E
:1057F000E118F10A430B560BC90BD009C0F7E10CB5
:10580000F11E431F561FC91FD01D7EF4703311F4C3
:105810008A95E6CFE894015030F0080F0AF400278B
:10582000021708F4202F2395022F7A3328F079E30A
:105830007D932A95E9F710C07D932A9589F6069401
:1058400097956795379517951794E118F10A430BCB
:10585000560BC90BD00998F023957E9173957A3336
:1058600008F070E37C932013B8F77E9170617D930C
:1058700030F0839571E37D9370E32A95E1F711246D
:10588000EF90FF900F911F91CF91DF91992787FDA6
:1058900090950895FC010590615070400110D8F773
:1058A000809590958E0F9F1F089543E051E21DC093
:1058B000FB01DC010D900020E9F7119701900D929A
:1058C0000020E1F70895FB01DC0101900D9200201A
:1058D000E1F70895FC016150704001900110D8F784
:1058E000809590958E0F9F1F0895FA01A191B08128
:1058F000009719F41097E1F0CD01DC01CD010D9076
:10590000002011F4C00113C0FB012191222319F0E2
:105910002015D9F7F3CFFB012191201519F41E9220
:10592000119606C02223C1F70D900020A1F7D001E7
:10593000FA01A193B08308950F931F93CF93DF9340
:105940008C01EB018B8181FF1BC082FF0DC02E817A
:105950003F818C819D812817390764F4E881F981A2
:105960000193E883F98306C0E885F985802F0995BE
:10597000009731F48E819F8101968E839F8302C0B0
:105980000FEF1FEFC801DF91CF911F910F91089585
:10599000AEE0B0E0EDECFCE250CD0D891E8986E072
:1059A0008C8309831A838FEF9FE78D839E83AE01DB
:1059B000475E5F4FCE0101966F89788D0E94BD23AF
:1059C000EF81F885E00FF11F10822E96E4E04ECDB6
:1059D000FA01AA27283051F1203181F1E8946F9320
:1059E0006E7F6E5F7F4F8F4F9F4FAF4FB1E03ED0C6
:1059F000B4E03CD0670F781F891F9A1FA11D680F64
:105A0000791F8A1F911DA11D6A0F711D811D911D96
:105A1000A11D20D009F468943F912AE0269F11240B
:105A20003019305D3193DEF6CF010895462F47706F
:105A3000405D4193B3E00FD0C9F7F6CF462F4F70CA
:105A4000405D4A3318F0495D31FD4052419302D028
:105A5000A9F7EACFB4E0A6959795879577956795CE
:105A6000BA95C9F700976105710508959B01AC01CE
:105A70000A2E06945795479537952795BA95C9F7F5
:105A8000620F731F841F951FA01D0895E0ECF1E0C5
:105A9000A785A7FDFDCFA485A860A4876050704F9F
:105AA000CBC1DC01A40FB51F4150504040F0CB01E9
:105AB000840F951F2E9105D041505040D8F708957E
:105AC000262F2ED00080021611F004D001970197E6
:105AD0000895262FE0ECF1E0378537FDFDCF3485C2
